:020000040800F2
:10000000082901206902000829BB00088D9E00080C
:1000100025BB00082D0E0008E9F9000800000000CB
:10002000000000000000000000000000C101000806
:100030001F1700080000000005020008ADCE0008F0
:10004000830200088302000883020008830200087C
:1000500083020008830200084D170008830200088D
:10006000830200088302000883020008830200085C
:10007000830200088302000883020008830200084C
:10008000830200088302000883020008830200083C
:10009000830200088302000883020008830200082C
:1000A000830200088302000883020008830200081C
:1000B0008DD2000883020008830200088302000832
:1000C00083020008830200088302000883020008FC
:1000D00083020008830200088302000883020008EC
:1000E00083020008F1C100088302000883020008AF
:1000F00083020008830200088302000883020008CC
:10010000830200088302000895D2000883020008D9
:1001100083020008830200088302000883020008AB
:10012000830200081D1700088302000883020008EC
:10013000830200088302000883020008830200088B
:10014000830200088302000883020008830200087B
:10015000830200088302000883020008830200086B
:10016000830200088302000883020008830200085B
:1001700083020008E1BB0008830200088302000834
:10018000830200088302000883020008830200083B
:10019000830200088302000883020008830200082B
:1001A00031B7000883020008E9160008DFF80CD018
:1001B00000F0D2FA0048004785B70108082901205D
:1001C000234B19680868B0E8F04F80F309884FF0B6
:1001D000000080F3118870470000000003480068A9
:1001E000006880F3088862B600DF00BF08ED00E019
:1001F000DFF80C00016841F470010160704700BF36
:1002000088ED00E0EFF30980114B1A681EF0100F23
:1002100008BF20ED108A20E9F04F106008B54FF0BC
:10022000500080F311881CF0C3F84FF0000080F3F9
:100230001188BDE8084019680868B0E8F04F1EF062
:10024000100F08BFB0EC108A80F30988704700BF18
:10025000AC0100204FF0500080F3118870474FF040
:10026000000080F311887047064880470648004721
:10027000FEE7FEE7FEE7FEE7FEE7FEE7FEE7FEE756
:10028000FEE7FEE7C5CE0008AD01000810B5431A31
:10029000934209D28318881803E010F8011D03F86F
:1002A000011D521EF9D210BD40EA01039B0703D085
:1002B00009E008C9121F08C0042AFAD203E011F8A5
:1002C000013B00F8013B521EF9D210BDD2B201E051
:1002D00000F8012B491EFBD270470022F6E710B54B
:1002E00013460A4604461946FFF7F0FF204610BDA4
:1002F00010B5044604E00B7800F8013B03B1491C3B
:10030000521EF8D2204610BD421C10F8011B0029D5
:10031000FBD1801A704730B504460020034600E048
:100320005B1C934203D2E05CCD5C401BF8D030BD37
:10033000034611F8012B00F8012B002AF9D11846C9
:1003400070472DE9FE4F804681EA0300C00F0C463E
:10035000009021F0004123F00045B8EB0200A941D4
:1003600005D24046214690461C460B46024623F0E5
:100370000040104347D0270DC7F30A00C3F30A51CA
:100380000290401A019040286BDAC3F3130040F446
:10039000801B0098924620B10023D2EB030A63EB46
:1003A0000B0B01985946C0F14002504600F00FF97E
:1003B00006460D4650465946019A00F027F910EBC3
:1003C00008006141002487EA115284EAE7731A4366
:1003D00040D0009A62B3019A012A4FEA075215DC15
:1003E000001B61EB02014FF0004202EA0752CDE927
:1003F0000042001C41F5801132462B4600F05EF9A8
:1004000003B0BDE8F08F40462146F9E7001B61EBE1
:100410000201001C41F5801300185B412018A2F571
:10042000001747EB030140EAD570B6196D4111E0A2
:100430006D084FEA360645EAC0754FEA0752001BC1
:1004400061EB0201001C41F5801149084FEA3000C0
:100450000019514132462B4603B0BDE8F04F00F081
:100460001EB90098012240000023D0EB020263EB8A
:10047000E073009821464FEAE074B8EB000061EBAE
:100480000401E9E783F000435BE781F0004158E7AE
:100490002DE9FE4F81EA030404F0004421F00041FD
:1004A00000944FF0000B23F0004350EA01045ED0AB
:1004B00052EA03045BD0C3F30A54C1F30A552C4437
:1004C000A4F2F3340194A0FB0254C1F3130141F4EC
:1004D0008011C3F3130343F4801301FB024400FBB8
:1004E000034E840A970A44EA815447EA8357A4FBDF
:1004F000076802958D0A05FB07854FEA932C04FBDC
:100500000C542705029D4FEA065847EA1637B5EB0B
:1005100008056EEB070C870E920E47EA811742EA38
:100520008312A7FB0201B6EB0B0164EB00042B0D59
:1005300043EA0C335E1844EB1C50DA465146E7FBA5
:100540000201C5F313044FEA0B3343EA14534FEA95
:100550000432019C43EA0603A4F10C040294009CBB
:10056000CDE900B400F0AAF803B0BDE8F08F002098
:100570000146F9E70EB5C10F80EAE0700844CA07EA
:10058000002140F233438DE80E000A460B4600F08E
:1005900095F803B000BD01F0004330B421F00041F4
:1005A00050EA010206D00A0DA2F56072C1F31301F0
:1005B000002A02DC30BC00207047440F44EAC1042A
:1005C000C100E01830BC00EBC25000F031B8202A66
:1005D00004DB203A00FA02F1002070479140C2F19A
:1005E000200320FA03F3194390407047202A04DBCC
:1005F000203A21FA02F00021704721FA02F3D0409C
:10060000C2F120029140084319467047202A06DBB8
:10061000CB17203A41FA02F043EAE07306E041FAD0
:1006200002F3D040C2F120029140084319467047BE
:100630000029A8BF7047401C490008BF20F00100F6
:10064000704710B4B0FA80FC00FA0CF050EA0104D4
:1006500004BF10BC704749B1CCF1200421FA04F466
:1006600011FA0CF118BF012121430843A3EB0C013F
:10067000CB1D4FEA00614FEA102042BF002010BCA2
:10068000704700EBC35010440029A4BF10BC704752
:10069000401C490008BF20F0010010BC704710B595
:1006A000141E73F1000408DA401C41F10001921895
:1006B0005B411A4301D120F0010010BD2DE9F04D3E
:1006C00092469B4611B1B1FA81F202E0B0FA80F293
:1006D00020329046FFF77BFF04460F4640EA0A00AF
:1006E00041EA0B0153465A46084313D0114653EAD8
:1006F000010019D0C8F140025046FFF777FF0546C8
:100700000E46504659464246FFF761FF084305D062
:10071000012004E020463946BDE8F08D0020054365
:1007200046EAE0762C4337430A986305E40AA0EBD7
:1007300008000022FD0A44EA47540A3002D500208E
:100740000146E9E7010510196941DDE9084500198D
:100750006941BDE8F04DA2E7064C074D06E0E068B0
:1007600040F0010394E8070098471034AC42F6D3F8
:10077000FFF720FD942C0608B42C060870B58C18E1
:1007800010F8015B15F0070301D110F8013B2A11A5
:1007900006D110F8012B03E010F8016B01F8016B92
:1007A0005B1EF9D12B0705D40023521E0DD401F88E
:1007B000013BFAE710F8013BCB1A921C03E013F857
:1007C000015B01F8015B521EF9D5A142D8D300208C
:1007D00070BD0EB572B64FF4003000F0C1FF4FF49B
:1007E0000030009000208DF8040008208DF80500EE
:1007F00001208DF80600684600F0B8FF29208DF82A
:10080000080000208DF809008DF80A0001208DF8FD
:100810000B0002A80BF094F962B60EBD1FB50821BB
:10082000154802F060FD30BBBDF80C006080BDF8DB
:100830000E00A0801148006820B960880090A08850
:10084000019005E060880190A088C0F5F0700090EC
:1008500001208DF808009DF80800094909788842B0
:1008600009D09DF808000649087001208DF809009C
:10087000684607F07FFB1FBD001002400400002007
:10088000080000207047000038B54468054601465E
:1008900020460FF001F9002808BF38BD464A2868F5
:1008A0000F281DD006DA0B2829D00C2811D00E28CD
:1008B0007DD134E0112802D0282878D170E09268E8
:1008C000002A08BF38BD294601B02046BDE83040A7
:1008D0001047526801B029462046BDE83040104715
:1008E0002546204603F06AFF0090406E0468684683
:1008F00003F0C4FF002C1CBF2846A04738BD20468B
:1009000003F05CFF0090683003F05AFE009803216A
:100910006C3003F081FE684603F0B0FF47E0E96801
:10092000486809680D2902D0202939D117E000282C
:1009300036DD4FF4807120460FF06FF9204603F04A
:100940003DFF009090F82850684603F097FF15F09F
:10095000020F1FD00121204610F070FC1AE0002881
:1009600018DD25464FF4807120460FF056F92846D1
:1009700003F024FF009090F82840684603F07EFFC3
:1009800014F0020F08BF38BD0121284610F056FCB4
:1009900038BD0CE02046BDE83840022118F007BC05
:1009A000E86820B920464FF480710FF01FF8284600
:1009B000BDE838400FF0A6BCD403002070B5044653
:1009C00086B08069B4F908C0658A00260091CDE937
:1009D0000165CDE903C0B4F90C00B4F91050C11899
:1009E000B4F90A00B4F90EC010442B46624600F078
:1009F00007F80546616800F089F906B0284670BD21
:100A00002DE9F04F85B09846DDE91164DDE90E5718
:100A100091468A46834605F083FB04F14C00194950
:100A2000CDE90210CDE9005743464A4651465846A3
:100A30000FF0AEFB05001FD003F0C0FE10223146C0
:100A400004900FF0F9FA104C049904F10C0201F132
:100A5000340A92E8CD13AAE8CD1304F12C0292E8EF
:100A60000D108AE80D102068486604A803F006FF00
:100A7000206841682846884707F0DAFB05B0284619
:100A8000BDE8F08F89080008D4030020F0B50446C3
:100A900080688C4989B051F820506068002800F0C7
:100AA0000A81052806D006287DD0122840F006814C
:100AB00000F0B2B8E869002808BF002651D0D5E997
:100AC0000012AB688DE80F0004F110010FC908F0A7
:100AD000E7F9002655F8260007F0B9F8A169E8699A
:100AE0000A1A216901446069304404F0CFFFA1690A
:100AF000E8690A1A21690144E069801B04F0C6FF15
:100B0000E169E8690A1A616901442069304405F025
:100B100087F8E169E8690A1A61690144A069801BE4
:100B200005F07EF8761C022ED4DBA86807F08FF85B
:100B3000E069E969D4F814C0431A20694218521ECA
:100B40006144801C05F0ACF8E169E869A2690B1A00
:100B500061690144101A401C921E05F0A1F8EE696B
:100B600011E055F8260007F072F8E069831BA069D0
:100B7000821B606981192069304405F009F8761CF0
:100B8000022EEEDB0226D5E90301CDE90001E16981
:100B9000606901444B10A1698A1B811C20693044A3
:100BA00004F06AFE00E011E0D5E90501CDE900019D
:100BB000E0696169831E01440122A06902EB6101C1
:100BC000821B2069304404F057FE77E0206803F070
:100BD000F5FD0490206811F0D3FB50B1A068002807
:100BE00018BF00200AD10498006F002818BF012008
:100BF00004E00498406F002818BF0220049901EB1C
:100C00008000C56E04A803F039FE00231A4628466A
:100C1000216804F067FA51E0206803F0CFFD0490EA
:100C2000866E002E08BF04A842D0A168B0F95C709F
:100C3000002908BF012103D003290CBF0221002194
:100C400000EB8101406D0C6C07F02AF8204606F09D
:100C5000FEFF06A805F02CF9BDF81810A88B01447A
:100C6000ADF81810BDF81C10081AADF81C00BDF83E
:100C70001A00801CADF81A00BDF81E00801EADF8E9
:100C80001E000498B0F96020B0F95E1006A806F0C6
:100C9000A1FB04A803F0F2FD022007F0A3F8304600
:100CA00003F08CFD3A4606A9059004F05BFB05A80D
:100CB00003F0E4FD02E0206810F0C0FD09B0002060
:100CC000F0BD00000C050608044A03491160044900
:100CD0004A6A48621046704710040020D40300207E
:100CE000E003002000294FF0100101D00EF095BF65
:100CF0000EF07CBE034802494160034981607047A1
:100D0000F9930108D4030020F1920108F0B583B0F3
:100D10000F4606004FF0010421D005F001FA3046DD
:100D200003F04CFD0090856E6846019503F0A6FD2A
:100D3000394601A808F012FD78B101980024A842B4
:100D400008D0304603F03AFD00900199816668466C
:100D500003F094FD304610F0A0F907F069FA03B0F3
:100D60002046F0BD1FB500BF0AF0AAFEFFF78AFDBE
:100D700005F058F9002211461FA004F0C5FA4FF003
:100D80007F4006F04DFF012006F032FF03F076FFB2
:100D90004FF07F4006F044FF002006F029FF0020BE
:100DA000194A0923CDE9012000930390034640F638
:100DB000E83216A118481BF047FD184801231A46CF
:100DC0003221009016A01BF093FE174908600846D8
:100DD000006858B11BF0D8FD0446002003462246A7
:100DE00001460090104800681BF0C2FE02E00A2095
:100DF0001BF04CF9FBE7000048656C6C6F20776FC7
:100E0000726C642100000000100000204755495F0B
:100E100044454D4F000000002117000829C4010877
:100E200054696D65720000001400002000BFFEE7E9
:100E300070B506460C4604F08000802808D104F006
:100E40007F0000EB800106F58E7000EBC10505E028
:100E500004EB840106F55D7000EBC1050020A8706D
:100E600004F07F002870C4F3C01068702946304633
:100E70000DF011FC002070BD2DE9F04106460D4635
:100E800090461F4605F08000802808D105F07F00BD
:100E900000EB800106F58E7000EBC10407E005F061
:100EA0007F0000EB800106F55D7000EBC10405F0EA
:100EB0007F00207005F08000C0096070C4F80880D1
:100EC000E770607808B12078E080022F01D100201F
:100ED0002071214630460DF092FB0020BDE8F081E4
:100EE0002DE9F04105460E461746984606F07F006C
:100EF00000EB800105F55D7000EBC104E760C4F80C
:100F000014800020A061607006F07F002070E878F7
:100F1000012800D12761207820B9214628460DF00C
:100F200092FA03E0214628460DF00FFC0020BDE8B0
:100F3000F08108B500220092009A61F30A12009233
:100F400002691268009B1A4303691A6008BD70B5F4
:100F500006460C4604F08000802808D104F07F008B
:100F600000EB800106F58E7000EBC10505E004EB97
:100F7000840106F55D7000EBC1050120A87004F046
:100F80007F002870C4F3C0106870294630460DF009
:100F9000AAFB002070BD2DE9F04107460D4616461C
:100FA000984605F07F0000EB800107F58E7000EB9E
:100FB000C1040120607005F07F002070E6602661AA
:100FC0000020A061C4F81480207820B9214638465A
:100FD0000DF039FA03E0214638460DF0B6FB00204B
:100FE000BDE8F0811CB5044620460DF0F7F9E06835
:100FF000C068009020460DF0CDFC03280BD10020E6
:10100000A0704FF40070A080009820F4705000F59C
:101010001050009009E00120A0704020A0800098AE
:1010200020F4705000F5A05000900098E168C8606E
:1010300000200190019820F4005000F5005001902C
:101040000198E168486101201CBD0000F8B5054623
:1010500000240020009028460DF053FD064690E045
:1010600006F0010000287DD0E1B2284600F0CAFA5F
:101070000090009800F0010030B3012000FA04F75E
:101080002869406BB84329694863002000900098A4
:1010900020F00100401C009005F1180050F82400D9
:1010A00000998160E1B2394800684268284690475B
:1010B000E878012808D13CB940F21110405D0428BD
:1010C00002D128460DF06AFA0098C0F3C00060B162
:1010D00000200090009820F008000830009005F1F2
:1010E000180050F82400009981600098C0F30010A7
:1010F00060B100200090009820F0100010300090A7
:1011000005F1180050F82400009981600098C0F3A0
:10111000801060B100200090009820F04000403026
:10112000009005F1180050F82400009981600098A3
:10113000C0F3400060B100200090009820F0020051
:10114000801C009005F1180050F82400009981607F
:101150000098C0F3C01028B12146284600F07CFA60
:10116000002000E00BE00090009820F0800080302C
:10117000009005F1180050F8240000998160641C6B
:101180007608002E7FF46CAF0120F8BD2C01002002
:101190007CB5044600250020019020460DF0B9FCE6
:1011A00006466FE006F00100002869D0E9B220464B
:1011B0000DF0B7FC0190019800F00100C8B30020C9
:1011C0000190019820F00100401C019004F15400AE
:1011D00050F8250001998160E078012817D104F1C9
:1011E000540050F825000069009005EB850104F5D6
:1011F0005D7000EBC10080680099C1F31201411AD3
:1012000005EB850204F55D7000EBC2008161E9B277
:101210001E480068026820469047E078012808D1FF
:101220003DB940F21110005D052802D120460DF0B5
:10123000B5F90198C0F3400060B100200190019819
:1012400020F00200801C019004F1540050F82500A9
:10125000019981600198C0F3C00088B10B48006813
:1012600081682046884700200190019820F00800FE
:101270000830019004F1540050F825000199816074
:101280006D1C7608002E8DD101207CBD2C01002024
:101290003EB50446A07A70B1D4F80C0100900098D5
:1012A00020F002000090009820F0010000900099CA
:1012B000D4F80C01016000200190019820F0010099
:1012C000401C019020694068019988432169486069
:1012D00008480068816920468847002002900298EB
:1012E00020F0004000F1004002900298E16848615F
:1012F00001203EBD2C0100207CB504460020019059
:10130000019820F0100010300190E0688069019988
:101310008843E1688861E068006A0090009800F006
:101320000F0000EB800104F55D7000EBC105009833
:10133000C0F3434007282DD2DFE800F02C04051D40
:101340001E2C1F0027E00098C0F30A1090B10098EF
:10135000C0F30A122046E9680DF009FCE86800991C
:10136000C1F30A110844E860A8690099C1F30A11A1
:101370000844A8610FE00EE00DE0082204F2CC5111
:1013800020460DF0F4FBA8690099C1F30A11084446
:10139000A86100E000BF00BFE068806901990843D0
:1013A000E168886101207CBD38B5044608480068C2
:1013B000C1682046884700200090009820F008006F
:1013C000083000900098E1684861012038BD0000B5
:1013D0002C0100201FB50446002000904FF48970B6
:1013E000005D0090234800684169204688472069D5
:1013F0008068019000200390039820F4006000F5BD
:10140000006003900398E1684861A07A70B3019886
:1014100000F0010050B340F21510005D012825D105
:101420009DF80000032821D100200290029820F0AE
:101430000100401C0290D4F80C0100680299084396
:10144000D4F80C110860029820F00200801C029071
:10145000D4F80C01006802990843D4F80C11086014
:101460000548006840F0060003490860012004B008
:1014700010BD00002C01002010ED00E030B587B059
:10148000044600200290069005900490039001907D
:10149000029820F00100401C0290206940680299E7
:1014A000884321694860002120460DF049FA002553
:1014B0000BE0FF2104F1180050F82500816004F1D1
:1014C000540050F8250081606D1C6078A842F0D867
:1014D0004FF0FF312069816106986FF30F00401CC7
:1014E0000690069880B200F5803006900699206933
:1014F000C161059820F0080008300590059820F09B
:101500000100401C0590059820F00200801C059009
:10151000059920694161049820F00100401C049065
:10152000049820F0080008300490049820F002008D
:10153000801C04900499206901612069006803906F
:10154000039820F4FE60039003992069016020460F
:101550000DF024F800200190019820F4805000F54F
:10156000805001900198E168486104480068016971
:1015700020468847012007B030BD00002C01002024
:1015800038B504460020009007480068C16920462D
:101590008847009820F4801000F580100090009893
:1015A000E1684861012038BD2C01002038B50446AF
:1015B0000020009007480068016A2046884700988C
:1015C00020F4001000F5001000900098E1684861D8
:1015D000012038BD2C01002038B50446E068406881
:1015E00000900098C0F3800020B105480068816A2F
:1015F000204688470098E1684860012038BD000017
:101600002C01002030B5024615692B6915696C6BF9
:1016100024FA01F505F0010543EAC51302F11805A6
:1016200055F82150AD6805EA030030BD38B50446D1
:1016300008480068416A20468847002000900098CA
:1016400020F0804000F1804000900098E1684861FF
:10165000012038BD2C0100202DE9F84307460E4635
:1016600000250020009006EB860107F58E7000EB48
:10167000C104D4E90501451AA068A84200D2A568B2
:10168000E81C4FEA900807F1180050F8260080691E
:1016900000901BE0D4E90501451AA068A84200D2D9
:1016A000A568E81C4FEA9008ABB2F2B23846E16890
:1016B0000EF07AF9E0682844E060A0692844A0614F
:1016C00007F1180050F8260080690090009880B259
:1016D000404506D9D4E90510884202D26069002845
:1016E000D8D10120BDE8F88310B500F001F810BD95
:1016F000022001498860704700B0024029B1064AC3
:1017000012680243044B1A6004E0034A12688243E1
:10171000014B1A607047000000B0024070477047EC
:1017200010B504464FF07F4006F07AFA012006F02B
:101730005FFA03F0A3FA4FF07F4006F071FA002041
:1017400006F056FA01F0C6FE10BD000010B50120EB
:101750000249086000F004F810BD000030000020CD
:101760000149086070470000143C014000212349F2
:101770008279002A3AD00A46126803689A430B46D7
:101780001A600A1D126803689A430B1D1A600279D9
:1017900011440A6803681A430A60184A083212683A
:1017A00003689A43154B08331A601A1D12680368C0
:1017B0009A43124B0C331A604279102A0ED11A1F29
:1017C000126803681A430D4B08331A601A1D126819
:1017D00003681A43094B0C331A600DE0074942793C
:1017E00011440A6803681A430A6005E0027911444B
:1017F0000A6803689A430A6070470000003C014091
:1018000010B51BF0ABF80949096888420CD11BF0F0
:10181000BBF807490968401A06490860064800688D
:10182000096808440449086010BD00004C0000200D
:1018300054000020580000205C00002010B5024633
:1018400000200023102A03D14FF02044636E0FE0E4
:10185000B2F5807F02D10A4C236809E0B2F5805FBF
:1018600003D1074C2034236802E0054CD4342368AC
:1018700003EA01048C4201D0002000E0012010BDE9
:10188000840000A00021D0E900231A4383685B1E76
:1018900042EA4312C36842EA4321014A1160704799
:1018A000500100A070B50021002200230024D0E9DF
:1018B00001563543C66835430669354346693543A5
:1018C00086693543C6693543066A3543466A45EA43
:1018D0000601056835B90568AD00A5F1C045C5F834
:1018E00040110DE0D0E907563543466A45EA060344
:1018F000294D2B600568AD00A5F1C045C5F8401124
:10190000056835BB856A2D686D1E866A7668761E09
:1019100045EA0616856AAD686D1E46EA0526856AA3
:10192000ED686D1E46EA0536856A2D8A6D1E46EA0B
:101930000546856AAD8A6D1E46EA0556856A2D7E86
:101940006D1E46EA0562144D0835066845F82620E6
:1019500020E0856A2D686D1E866A7668761E45EAE7
:101960000616856AAD686D1E46EA0526856A2D8ACB
:101970006D1E46EA0542856AED686D1E2E03856A76
:10198000AD8A6D1E46EA0554034D08352C60066885
:1019900045F8262070BD0000400100A004490968F8
:1019A00041EA40014FF02042C2F854117047000054
:1019B000540100A02DE9F047446805468EB04FF071
:1019C0000008204602F0FAFE0090B0F87C90D0F8B3
:1019D00068A0D0F88070D0F88860C06D002818BF6B
:1019E000D0F80080684602F049FF56B17168284679
:1019F000884700281CBF0EB0BDE8F0873668002E6F
:101A0000F4D1286814287DD00ADCA0F10B00072847
:101A100080F06581DFE800F0FD47FCFB40FB19002A
:101A2000202800F015810ADA172802BFC5F80CA09B
:101A30000EB0BDE8F0871E2840F0518199E02628BD
:101A400078D02A2840F04B8118E02046EE6802F05A
:101A5000B5FE0190717A002904BF317A012940F066
:101A60000F81B0F87C1041F48071A0F87C1000F078
:101A700007B900BF02F002FF00F031B9204602F0C2
:101A80009DFE0090E968002912BFC0F88410D0F8CC
:101A90008400E860684648E0B8F1000F1CBF2046AB
:101AA000C04700F01CB927462046EE6802F086FECB
:101AB0000290B0F87C4002A802F0E0FEE86800283E
:101AC00004BF0EB0BDE8F087307A18B314F0080FE9
:101AD00004BF38460FF0DAFD38460EF015FB14F05F
:101AE000100F12BF14F4807F0EB0BDE8F08714F021
:101AF000800F1CBF0EB0BDE8F08700237E48B0F910
:101B0000002000E017E0314638460FF065FD0EB0CA
:101B1000BDE8F087384602F051FE0290B0F87C1024
:101B200021F48071A0F87C1002A802F0A7FE0EB08C
:101B3000BDE8F0870BE005A9204600F087FCDDE951
:101B40000612E868016042600EB0BDE8F087E86800
:101B500002281CBF0EB0BDE8F0870C94E8680D9019
:101B600027200A900AA9A86810F004FE0EB0BDE86C
:101B7000F087E86801281ED0002C04BF0EB0BDE835
:101B8000F08704F0CDFA204602F018FE0190B0F87C
:101B90007C1011F0080F06D021F00801A0F87C108D
:101BA00020460FF07AFA01A802F068FE06F040FB2A
:101BB0000EB0BDE8F08738460FF0D6FA58B1384677
:101BC0000FF064FD38460FF065F988B10121384601
:101BD0000EF023F80CE050460FF0ACFD074620460F
:101BE00002F0ECFD0090C0F88070684602F046FEFE
:101BF000D4B104F095FA204602F0E0FD0290B0F86E
:101C00007C1011F0080F0AD141F0080102E057E002
:101C100011E05BE0A0F87C1020460FF03EFA02A82D
:101C200002F02CFE06F004FB002F04BF0020E86049
:101C30000EB0BDE8F08719F0080F50D1E868C06811
:101C4000F0B3007A00281CBF20460FF01FFD46E0CD
:101C5000EE68AEB32146706810F06AFB90B126467C
:101C6000204602F0ABFD0190B0F87C1011F0080F97
:101C700006D141F00801A0F87C1030460FF00DFAB3
:101C800001A8F7E62746204602F098FD0490B0F838
:101C90007C1011F0080F06D021F00801A0F87C108C
:101CA00038460FF0FAF904A802F0E8FD2146306842
:101CB00010F02AFB20B1204602F080FD039000E0E6
:101CC0000DE03168C0F8801003A8D3E6204602F08A
:101CD00075FD0090703002F073FC6846CAE6294634
:101CE00020460DF0D9FE00281CBF28460EF00AFB46
:101CF0000EB0BDE8F08700009C04002070B588B0ED
:101D0000B0F908400DF10C0E0C9ED0F818C04568D3
:101D1000AEE87010B0F812C00024CDE90014CDF880
:101D200008C0B0F90C10B0F91040B0F90EC0B0F90D
:101D30000A00194410442346624600F003F808B034
:101D400070BD00002DE9FF4F8BB09946DDE91865A5
:101D5000DDE91B8792468B461E9C04F0E1F904F1F5
:101D60006000444945F48055CDE90210CDE9006595
:101D70004B46524659460B980EF00AFA040073D0AF
:101D800002F01CFD3022414604900EF055F93A4E07
:101D9000049A06F1080102F1340E91E80B1FAEE837
:101DA0000B1FD6E90A01C2E915011D9850661A9861
:101DB000A2F87C004FF00008C2F88080C2F86C8066
:101DC000C2F888807068D06504A802F057FD05A9A4
:101DD000204600F03BFB294841F28271CDF80C808F
:101DE0000094CDE90110BDF91E00BDF91A10BDF92E
:101DF0001C20401A431CBDF91800121A521C0EF088
:101E0000C7F980467068416820468847204602F03E
:101E1000D5FC0490C0F8688004A802F02FFD42F2BF
:101E20000400054204BF20460EF05CFB04F078F984
:101E3000204602F0C3FC0090006F0190684602F05B
:101E40001DFD394601A807F089FC58B1204602F073
:101E5000B5FC009001990167684602F00FFD20462D
:101E60000FF01BF906F0E4F906F0E2F90FB0204696
:101E7000BDE8F08FB51900089C040020A5260008D5
:101E80002DE9F041044696B0006800F0BFF9002843
:101E900014BFDC4DDC4D6068152802BFA86A16B07F
:101EA000BDE8F08112DC0B282AD007DC002800F006
:101EB0009481052840F0A18100F02CB90E2800F093
:101EC0007981122840F0998100F03BB9162802BFB1
:101ED000E86916B0BDE8F081172802BF286A16B07D
:101EE000BDE8F081182802BF686A16B0BDE8F0812D
:101EF0001C2802BF686916B0BDE8F08100F07DB90A
:101F000020680C901C200D90206802F057FC039074
:101F1000016D0CA88847064603A802F0AFFC022E0C
:101F200011DBD5E90001AA680292CDE90001D4E9EC
:101F300004023346A16906F0B1FE20698719A06941
:101F4000A0EB06082CE0286805F081FE2169E8690D
:101F50000844421E606903F099FDA269E869101AFD
:101F6000411C606903F092FD6069471C3946206995
:101F700003F0E6FD3946A06903F0E2FD686805F06C
:101F800066FE20693946401C03F0DAFDA069394637
:101F9000401E03F0D5FD2069871CA069A0F102084E
:101FA000286805F054FE42463946606903F06EFD2C
:101FB000686805F04CFE60694246401C394603F0F3
:101FC00065FD686A02287DDDA86805F040FE60694D
:101FD0006A6A811C1044431E4246384603F060FE84
:101FE0006069022EACBF0644861CE069471E286863
:101FF00005F02DFE3A463146206903F011FE3A46BF
:102000003146A06903F00CFEE069871E686805F0A0
:102010001EFE20693A46401C314603F001FEA069CD
:102020003A46401E314603F0FBFDE8690228DCBF5A
:10203000286A022822DDA86A0228C7BFE1690F1AB0
:10204000E069871EA86805F002FEE869022809DD3C
:1020500021693B46084401F1020C421E31466046AC
:1020600003F01EFE286A022808DDA169E8698A1EBD
:10207000081A401C3B46314603F012FE286805F062
:10208000E6FDD4E90620216903F000FD686805F04B
:10209000DEFDA069421E2069411CE069401E03F07C
:1020A000F5FCA86A02284BDD21698F1CA1698E1EF0
:1020B000E169081A441CA1F10208A86805F0C7FDEF
:1020C000434600E005E032462146384603F0E8FD8D
:1020D00093E0296AB14283DD6069022E00F10208B3
:1020E000ACBF871947462069ACBF3044801C2269C9
:1020F0003B461144A1F10102414603F0D1FDA06924
:10210000022EACBF821B821EE9693B46401A401C6E
:10211000414663E7208A00B2ADF81800A18A09B2EF
:10212000ADF81A10228B12B2ADF81C20A38B1BB293
:10213000ADF81E30D5E9034CCDE9004C03F09CFB13
:102140005BE0208A298B0844ADF81800A08AADF81E
:102150001A00208B298B401AADF81C00A08BADF81B
:102160001E00206802F02AFB0390006FF0B10220ED
:1021700005F038FE039991F87C00C0F3C00001EB34
:102180008000006C05F063FD0398406B05F088FD4E
:102190000398006F02F012FB03990A90B1F95A20DC
:1021A00006A903F0DFF80AA802F068FB03A802F012
:1021B00065FB22E0208AADF81800A08AADF81A006D
:1021C000208BADF81C00A08BADF81E00A86805F0B0
:1021D0003EFD06A803F090FD0FE0206802F0EEFA45
:1021E0000390B0F85A1041F00C01A0F85A1003A85F
:1021F00002F044FB20680FF021FB16B00020BDE880
:10220000F0810000E00400200C05002038B5050036
:102210004FF0000410D003F083FF284602F0CEFAFE
:10222000009090F87C0010F0080F18BF0124684659
:1022300002F024FB05F0FCFF204638BD022928BF30
:1022400070472DE9F001084A52F8211091E8FC117D
:1022500080E8FC11D1E90823896A0262C0E90931EA
:10226000BDE8F001704700001C05060830B50446C3
:102270008BB0006802F0A2FA009090F87C10006F1A
:10228000246AC1F3C005002818BF02F097FA06902F
:102290002169E068CDE90201A088401EADF8100078
:1022A000E089ADF812002089401CADF81400608A66
:1022B000ADF81600BDF80800401CADF80800BDF8E8
:1022C0000A00401CADF80A00BDF80C00401EADF835
:1022D0000C000098406B05F0E3FC009808AA02A9E6
:1022E000B0F95A30069806F021F8009800EB850006
:1022F000806B08F091FD009800EB8500006C08F001
:10230000C5FD08AB02AA04A906980DF0CBFD6846EE
:1023100002F0B4FA069800281CBF06A802F0AEFA34
:1023200000200BB030BD0000064A0549074B116084
:10233000054AD16958601B68C2E9063008467047F3
:10234000D4040020A0040020A4040020CC04002019
:1023500038B50C46054603F0E3FE55B1284602F0B9
:102360002DFA00900466684602F088FA28460EF0BE
:1023700094FEBDE8384005F05BBF0000022928BF8D
:1023800070472DE9F00790E8F017164A52F821300F
:1023900083E8F017D0F820C0446A806AC3F820C0F0
:1023A000C3E9094052F82130D8690228D8BF022079
:1023B000D86152F82130186A0228D8BF022018626A
:1023C00052F82130586A0228D8BF0220586252F8C9
:1023D0002110886A0228D8BF02208862BDE8F00771
:1023E000704700001C050608002808BF704738B574
:1023F0000C46054603F094FE284602F0DFF90090F3
:10240000B0F95A10A14204D0A0F85A4028460EF064
:1024100044FE684602F032FA05F00AFF38BD002893
:1024200008BF704738B50C46054603F079FE2846CC
:1024300002F0C4F9009004644464684602F01EFA95
:1024400028460EF02AFE05F0F3FE38BD2DE9F04FC8
:1024500000278DB00C468146BA4602F0AFF90190D4
:10246000C06D0121856848462A68904780462A68E1
:1024700003214846904707902A6802214846904722
:1024800006902A68002148469047064601980FF0BA
:10249000A9FD059001980FF0ACFD8346019890F8D6
:1024A000321001F02001002918BFB0F958A04FF0F8
:1024B000000506D0B0F954501DB9406B03F08CFDF7
:1024C000851C0198C06E10B10EF0B7FA0746258042
:1024D0006780A4F8048007990598401A06EB0A0162
:1024E000401E294420813944E1800699ABEB01016B
:1024F000491E6181A4F80C8020827019E681401E7B
:10250000608201A802F0BAF9B4F90C70B4F9106055
:102510004D46484602F052F90690C16DD0F8008051
:1025200006A8D1F8089002F0A9F9D9F800200021F6
:1025300028469047814628460EF098F905001CBFB2
:102540004FEA284A0FFA88F825D000BF02F036F982
:102550000790B0F90230B0F90010B0F90420A3EBF5
:102560000A03A1EB0801A2EB08024B450BD190F83E
:10257000280010F0800F03D08E42A8BF4E1E02E04C
:102580009742D8BF571C07A802F078F928460EF0EA
:10259000AAF90500DAD1A78126820DB0BDE8F08F37
:1025A00010B50146002091F8322012F0200F08BF2C
:1025B00010BDB1F95400002818BF10BD486B03F0DE
:1025C0000BFD801C10BD70B58AB00E46044602F0AB
:1025D000F5F80990C06D856809A802F04FF90094DC
:1025E000002E08BF18200BD0012E08BF162007D0E0
:1025F000022E08BF152003D0032E08BF172000D1DC
:1026000001906968684688470AB070BD2DE9F043BB
:1026100083B017468846814602F0D0F80090C16D1D
:10262000056868468C6802F029F92268002148464E
:102630009047064648460EF019F9040019BF4FEAC4
:1026400025492DB203B0BDE8F08300BF02F0B6F813
:102650000190B0F90010B0F90420B0F90230491B24
:10266000521BA3EB0903B34211D190F8280010F0DC
:10267000800F05D038688842A4BF481E386006E045
:10268000D8F800009042DCBF501CC8F8000001A838
:1026900002F0F4F820460EF026F90400D6D103B07B
:1026A000BDE8F0832DE9F0430446406887B0054655
:1026B0000EF026F9814602F081F80090D0F8808073
:1026C000876C466E684602F0D9F82068172865D0F6
:1026D00008DC0E2853D00F280FD0142818BF152857
:1026E0005CD055E01E2822D01F2841D0222808BFE8
:1026F000E7604DD107B0BDE8F0836FF070408742CE
:1027000004D0384608F088FB02F0B8FA002E04BF67
:1027100007B0BDE8F083D4E902122068CDE90205D4
:10272000CDE9041202A8B04707B0BDE8F083E06825
:10273000002804BF07B0BDE8F083B8F1000F18BF50
:10274000A84505D040460EF0A1FF07B0BDE8F083D4
:1027500028460EF0EFFF0446484602F02FF800909E
:10276000C0F88040684602F089F807B0BDE8F08301
:10277000214648460DF090F907B0BDE8F083E068C7
:102780004168002904DD006809281DD00A280BD003
:10279000002E1CBF2046C4F80490C4D120460DF082
:1027A000B1FD07B0BDE8F08328460FF00FF80446EE
:1027B000484602F003F80090C0F88040684602F0F6
:1027C0005DF807B0BDE8F08328460EF0B3FF04467D
:1027D000484601F0F3FF0090C0F88040684602F0E0
:1027E0004DF807B0BDE8F0832DE9F0430446C56815
:1027F00087B017468846002005F046FA0646002DA9
:102800001BBF2879002826F0020046F0020005F0E0
:102810003BFA2069012568B1D4E902120091CDE9A3
:1028200001250395D0F800C06388228839464046C8
:10283000E04719E0DFF84C90134B2146D9F800002F
:102840001B68427CE0689847A0B1A188E388A26831
:102850000095CDE90231CDE90420019563882288F5
:102860003946404607F082FC07B03046BDE8F043E9
:1028700005F00ABAE088012812BF0020D9F800004C
:10288000806BE2E72C030020240300202DE9F84FA1
:102890000F46DDF828900646941BA3EB0708D9F8ED
:1028A00000504FF0000A54EA080063D0002CD4BF57
:1028B00060422046B8F1000FCCBF4146C8F100018C
:1028C00088420ADA20464446804630463E4607465D
:1028D00010461A4603464FF0010A002CCCBF204692
:1028E0006042A04208BF012008D03046164602468A
:1028F0006442C8F100081F464FF0FF300090C44802
:10290000C449B8F1000FD0F800C01CBF04EBD4726A
:102910004FEA620BB8BFCBF1000B30D09CF81A2005
:10292000002A00F0FA80009A002ABCBF2A19C9F8D0
:1029300000200025002CC0F2458100BF08FB05B037
:1029400090FBF4F0C219D9F8001000980844B0497F
:10295000C9F8000009688B7E012B00F00081022B72
:1029600000F00781032B00F00D81042B40F01B8148
:1029700000F038B93046BDE8F84F00F085BABAF13A
:10298000000F62D09CF81AC0BCF1000F14D04FF0B9
:102990000008002CA4BF8A46834640DBDBF8001009
:1029A00028466D1C8A7E012A0CD0022A14D0032AE4
:1029B0001BD0042A28D134E031463846BDE8F84F10
:1029C00007F076BD801DC21700EB127222F00F02D5
:1029D000801A0C281FDB17E0C21700EB927222F05E
:1029E0000302801A022816DB0EE08AFB0032D310A5
:1029F000A3EBE272524202EB820200EB82000C284F
:102A000009DB1038022806D3C96E06EB08004A68B5
:102A100001463846904708F10108A045BEDD681E12
:102A2000DCE07D4A82FB00329310A3EBE272A2EB62
:102A3000820200EBC2000C28EDDBA0F11002022A9A
:102A400024BF14380228E6D3DEE79CF81A80B8F1D8
:102A5000000F14D04FF00008002CA4BF8A46834614
:102A600042DBDBF8001028466D1C8A7E012A0FD05D
:102A7000022A17D0032A1ED0042A2BD139E0DCF811
:102A80006C003946036801B03046BDE8F04F184786
:102A9000801DC21700EB127222F00F02801A0C2860
:102AA0001EDB17E0C21700EB927222F00302801ABD
:102AB000022815DB0EE08AFB0032D310A3EBE27292
:102AC000524202EB820200EB82000C2808DB103835
:102AD000022805D3C96E06EB08004A6839469047BC
:102AE00008F10108A045BCDD681EC9F80000BDE87A
:102AF000F88F494A82FB00329310A3EBE272A2EBFB
:102B0000820200EBC2000C28EADBA0F11002022ACC
:102B100024BF14380228E3D3DCE70025002CACBF27
:102B20008146BDE8F88F00BF08FB05B090FBF4F0CC
:102B30003844BAF1000F0AD0D9F800207119D26ECA
:102B4000526890476D1CA542EEDDBDE8F88FD9F8BC
:102B500000107319C96E4A6801461846F1E7801DD6
:102B6000C31700EB137323F00F03C01A0C2825DBE7
:102B700019E0C31700EB937323F00303C01A022874
:102B80001CDB10E0234B83FB00C34FEAE30CACEBF0
:102B9000E3735B4203EB830300EB83000C280DDB44
:102BA000103802280AD3C96EBAF1000F06EB0500EF
:102BB0004B680EBF11460146104698476D1CA54252
:102BC0007FF7BCAE0098002804DAD9F80000204452
:102BD000C9F80000D9F800100098081AC9F80000D8
:102BE000BDE8F88F0C4B83FB00C34FEAA30CACEBA2
:102BF000E373A3EB830300EBC3000C28DEDBA0F13F
:102C00001003022B24BF14380228D7D3CBE70000CF
:102C10002C03002067666666ABAAAA2A2DE9F04756
:102C2000DFF85892804684B0D9F800000F460C991E
:102C3000007E1D461646012800F0C780A8EB060C52
:102C40007C1B5CEA040104BF04B0BDE8F087421EAF
:102C50000021BCF1000FBCBF0121CCF1000C002C05
:102C6000BCBF41F002016442644504DD2046644675
:102C7000844641F00401A0020CEBDC7300EB63001E
:102C800090FBFCF080107E4C4FEA201C00F00F00FF
:102C900034F81C30C0F1100013FB00F3102807D0EB
:102CA00004EB4C0CC0F11000BCF902C00CFB00336B
:102CB00003F10800C31700EB1370001111F0040FAB
:102CC00018BFC0F5806011F0010F18BFC0F500609B
:102CD00011F0020F18BFC0F5805000F5806100F5BB
:102CE00000600024C0F30B00B0F5006FC4BFA0F576
:102CF00000600124B0F5806FC8BFC0F500604FEAE6
:102D0000A01A604B00F03F00C0F1400C33F81A00ED
:102D1000BCF1400F00FB0CF007D003EB4A0ACCF1EA
:102D2000400CBAF802A00AFB0C0020308009002CED
:102D300018BF404200FB02FC0024C1F30B00B0F5B9
:102D4000006FC4BFA0F500600124B0F5806FC8BF5C
:102D5000C0F500604FEAA01A00F03F0033F81A10E7
:102D6000C0F140004143402806D003EB4A03C0F1C4
:102D700040005B8803FB001101F120008009002C5A
:102D800018BF404200FB02F1BCF1000FB4BFCCF50C
:102D900000700CF500704FEAA020B8BF4042002937
:102DA000BDBFC1F500718912C1F1000C01F50071C0
:102DB000A8BF4FEAA12C00280FDD411C01EBD17107
:102DC000491000EBD07040100EE0009139464046AB
:102DD000FFF75CFD04B0BDE8F08700EBD071401E4A
:102DE000491000EBD0704010BCF1000FC6BF0CF1D1
:102DF000010202EBD2720CEBDC724FEA6202CEBF30
:102E00000CEBDC73ACF1010303EBD3735B1008EB49
:102E1000010CADF800C007EB020CADF802C0A8EB46
:102E2000000C301AADF80800E81AADF80A00701866
:102E3000ADF804C0ADF80C00A7EB030CA818ADF872
:102E40000E000023ADF806C01A460421684600F0C3
:102E50008DF8D9F8002040463946527E002A08BF36
:102E600000F012F83046D9F800202946527E002A98
:102E700008BF00F009F804B0BDE8F0872C0300207B
:102E80008E0A06086C0A0608064A13681A7E012A8A
:102E900005D0521E02EBD272521000F005B8DA6E65
:102EA000526810472C0300202DE9F84F06460F46C4
:102EB00040F2C32050434FF47A7190FBF1F000F1DF
:102EC000010902FB02F002EBD271DFF89C8000EBFB
:102ED000610A1446B118D8F80020301BD26E13686E
:102EE0000A46394698470125B9F1010FB8BFBDE838
:102EF000F88F00BF05FB05F004FB0400504519DD09
:102F00004C4516DD70190090D8F80030421EA6EB33
:102F1000050BDB6E39190BF101001B689847D8F8D7
:102F200000300098DB6E421E391B1B680BF101005C
:102F30009847641E30190090D8F80000A6EB040BE7
:102F40007919C06E009A036858469847D8F800006F
:102F5000791B009AC06E0368584698476D1CA945B6
:102F6000C8DABDE8F88F00002C0300202DE9FF4FE0
:102F700083B0074640F6FF74C4F1000090460E1E71
:102F80000090C4BFB91C32460CDD00BFB1F900008F
:102F90008442C8BF0446009B8342B8BF0090091D0D
:102FA000521EF3D187490868406970B1B0F9063004
:102FB000069A9A1A009B9A42B8BF0092B0F9022072
:102FC0000698101AA042C8BF044600988442D2BF97
:102FD000A6F1010907B0BDE8F08F00207A49054647
:102FE000002E0860C4BF069804EB000A7EDD4D4544
:102FF000B4BF691C002107EB850207EB810CB2F915
:103000000200BCF90230A04256D1A34214D137F9D4
:10301000211037F9250001EB08036A494044984222
:103020000968C96ED1F800C0B4BF1A4602465146BD
:10303000A8BF1846E04787E000222946B9F1000FF3
:103040000CDD002914BF491E711E07EB8100B0F989
:103050000200A04203D1521C4A45F2DB2046A042A6
:1030600072D037F92510A0EB0400A3EB0402504006
:1030700009D401EB0800534902460968C96E0B6880
:103080005146984760E0DFF840B1DBF800C0BCF182
:103090000C0F59DABCF10000C8BF4C4A4DDD00BF2F
:1030A00002EB400333F9023C8B4246DB22F810303E
:1030B000401E0028F4DC40E0A34245D001DBA042E2
:1030C00003DDA042A8BF9C423EDB98424FDC014694
:1030D000A042DFBF18468442B2F90030BCF900209C
:1030E00032DC00BFA2EB030C621A00E030E00CFB04
:1030F00002F2002AA0EB010CCEBF02EB6C02A2EBA5
:103100006C02521C401A92FBF0F0DFF8BCB0C11800
:10311000DBF800C0BCF10C0F16DABCF10000C8BF30
:103120002A4A0ADD02EB400333F9023C8B4204DBFE
:1031300022F81030401E0028F4DC244A22F8101037
:103140000CF10100CBF800006D1CB542FFF64FAF4B
:1031500006984FF0000B204401901B485D46016823
:103160000029C4BF1949B1F900A022DD19E01946B0
:10317000A342E9DC8442DCBFBCF90030B2F9002094
:10318000E2DCAFE71149BBF1000F31F915A008D01F
:103190000C4908EB0A0240440968C96E0B680199A2
:1031A000984709496D1C8BF0010B09685046A942EC
:1031B000E8DC0098641C84427FF70FAF07B0BDE8DD
:1031C000F08F00002C030020300700203808012079
:1031D00010B5002004F024FD6FF07F4004F037FDAF
:1031E000012004F0E1FD002004F0ECFD002004F0DB
:1031F000F9FD002004F048FD0448006804F050FD8B
:10320000BDE81040002004F0A1BD0000280300200C
:10321000F0B50A4600210023002400BF3DE001254F
:1032200005FA01F3156805EA03049C4234D10568E8
:103230004F000326BE40B543056015794E00B540EA
:103240000668354305601579012D02D01579022DE8
:1032500016D185684F000326BE40B5438560557979
:103260004E00B540866835438560456801268E402E
:10327000B5434560456896798E40B6B235434560A2
:10328000C5684F000326BE40B543C560D5794E00E2
:10329000B540C6683543C560491C1029BFD3F0BD91
:1032A000F0B5002300244D07ED0E02FA05F3CE1011
:1032B00000F1200555F826504E07F70E0F26BE40A8
:1032C000B543CF1000F1200646F82750CE1000F18C
:1032D000200555F8265045EA0304CE1000F12005DC
:1032E00045F82640F0BD0246002013690B400BB1A3
:1032F000012000E000207047418370470183704740
:103300000AB1018300E0418370470000014AC2E92D
:1033100000017047D0020020014AC2E90001704755
:10332000D8020020014AC2E900017047E0020020F3
:10333000014AC2E900017047E8020020014AC2E9DF
:1033400000017047B003002070B50246002300E082
:103350005B1CD55C002DFBD10124012003E004EBB4
:1033600084056C00401CB1FBF4F50A2DF7D2002552
:10337000D61835540DE00A25B1FBF5F605FB1615F8
:103380003035D618064406F8015C0A25B1FBF5F184
:10339000401E0028EFD170BD10B50246002000236A
:1033A00000E0401C145C002CFBD103E0CC5C145406
:1033B000401C5B1CCC5C002CF8D1145410BD0000E8
:1033C000002607F0F7F9054607F018FA0446A4F5B9
:1033D000BE7000EBD07149101A4A116000BF1AA0EC
:1033E00002F0D0FD1C490988691AB0EB610F08DBB7
:1033F0001448006800F5BE704100A4F12800814225
:1034000002DA012015490860154804F049FC074616
:1034100002F076FD401C0B490968884202DA01205F
:103420001049086000200F490860384604F038FC55
:10343000304612F081FD00F083FC032000F00CFE0A
:103440000FF000FC640200206D7365632F706963E8
:10345000747572653A0A0000FCBC0408680200201A
:1034600054ED04086C02002010B502E00A2001F0BF
:1034700075FE074800680128F8D006480068012852
:1034800004D1002003490860012010BD0020FCE7A2
:103490003002002034020020034901600221416013
:1034A00000210181704700008402002010B5064809
:1034B000006810B10548006810BD02F06DFD0449B8
:1034C0000968401AF8E70000300200202C020020B2
:1034D000280200208CB02149214803F0E7F90DF0C3
:1034E00087F904461F490EF036F8FDF703FC00216A
:1034F00001A8FEF7A3FE00200690002101A8FEF718
:103500003DFF012101A8FEF799FE00200690012150
:1035100001A8FEF733FF1448FEF706FF134808F032
:10352000EDFC1348FDF7D0FB124809F07DF8124876
:1035300009F01CFC114806F09BFC022004F052FC30
:103540000F48FFF7A9FF0F480F490860012000F05E
:103550001DF801E015F020FDFCE700003802002016
:10356000B5B301085DB30108396A01087DBD0008E3
:103570008D0A000839C40008A1C90008B19B0008E1
:1035800008060120E95F01081C02002008B10121A2
:1035900000E00021014A1170704700003C02002049
:1035A00010B586B0142101A8FCF797FE4FF4B07156
:1035B000134800680DF032F9044612A101A8FFF784
:1035C000EBFE12480168491C01A8FFF7BDFE10A1DF
:1035D00001A8FFF7E1FE0F48016801A8FFF7B4FE5C
:1035E0000DA101A8FFF7D8FE0C484068411E01A8B4
:1035F000FFF7AAFE01A9204609F08BFD06B010BD19
:103600001402002044656D6F20000000200200209D
:103610002E000000240200202F00000008060120D8
:103620002DE9F04F4B4989B00B68B3F92210069190
:10363000D3F81CC0B3F92480DCF81C40A189814276
:103640009CBFE289904205D8471A4FF0FF35D4F865
:10365000009015E0D4E90192002A72D011888142CD
:1036600099BF5588A8424FF0FF352F4608D8401A19
:10367000516880B201EB8000B0F90070B0F90250DF
:10368000781C5ED09CF81800A17C10FB01FB94F81C
:1036900010A00790B3F92A60304607F01FFCC0B2B3
:1036A00008902C4807FB0B920068A37C0127816BD4
:1036B000CDE90273CDE90421C0695246C17E807E06
:1036C000CDE90001DDE90603414606F04FFD681C27
:1036D00018D046F0020007F001FC1E48A37C05FB51
:1036E0000B920068816BCDE90273CDE90421C069BA
:1036F0005246C17E807ECDE90001DDE906034146E8
:1037000006F034FD134D2868C069417E007E814279
:1037100014D9022E12D086F0040007F0DFFB2868CF
:10372000C069017EC27E11FB0281427E02EB08036A
:10373000827E06980AFB020206F0E8FE089807F06F
:10374000CDFB0448627C0068418C1144418409B07F
:10375000BDE8F08F2C030020044800290068C069F0
:10376000C0691CBF027C0A60407C70472C030020AB
:10377000022008807047C06982898A429CBFC28942
:10378000914210D9806880B102888A420DD843885E
:1037900099420AD8406800EB8100A0EB8200B0F9A2
:1037A0000000002801DB0120704700207047000066
:1037B000F0B52D4D044687B028682146B0F92A702F
:1037C000C069C06900F01EFA002804BF07B0F0BD50
:1037D00041680088201A00EB400001EB800420784B
:1037E000C01C8608384607F079FB07461F48D0F80A
:1037F00000C0BCF1000F1AD0A06800210222CDE960
:103800000401012003960090CDE90102286894F993
:103810000320DCF800C0B0F92410B0F922001144F4
:1038200094F90220637810442278E04711E0A06800
:10383000CDE90060286894F903206378B0F924107A
:10384000B0F92200114494F902201044227800F0CB
:1038500021FC384607F042FB28682279418C11444C
:10386000418407B0F0BD00002C0300205803002065
:10387000F0B52D4D044687B028682146B0F92A706E
:10388000C069C06900F0BEF9002804BF07B0F0BDF0
:1038900041680088201A00EB400001EB800420788A
:1038A000401C4608384607F019FB07461F48D0F869
:1038B00000C0BCF1000F1AD0A06800210422CDE99D
:1038C0000401012003960090CDE90102286894F9D3
:1038D0000320DCF800C0B0F92410B0F92200114434
:1038E00094F90220637810442278E04711E0A06840
:1038F000CDE90060286894F903206378B0F92410BA
:10390000B0F92200114494F902201044227800F00A
:1039100009FD384607F0E2FA28682279418C114403
:10392000418407B0F0BD00002C03002058030020A4
:103930002DE9F043394C024687B02068B0F92A607F
:10394000C069C1691046002904BF07B0BDE8F08313
:103950000B8883429CBF4B88984205D9896800290F
:10396000F6D107B0BDE8F083002904BF07B0BDE879
:10397000F08348680988511A00EBC1053046AF78DA
:1039800007F0ACFA804620686A680123816BCDE9B4
:103990000237CDE90421C169CB7E8A7ECDE90023BF
:1039A0000B7EB0F924102A78B0F9220006F0DEFB75
:1039B0002068C069417E027E914220D9C07E022EDD
:1039C00001FB00F902FB00F719D002F076FA064677
:1039D00002F03CFA04F03BF920682978C269B0F99A
:1039E00022C0D27E11FB02C2B0F9240000EB090311
:1039F000C119604606F08AFD304604F028F94046B9
:103A000007F06CFA20686A78C369B0F922109B7ECF
:103A100012FB0311418407B0BDE8F0832C030020A2
:103A20008446174810B40068C4696046E2691AB356
:103A3000138883429CBF5388984203D99268002A16
:103A4000F6D119E0C2B110885368ACEB000000EB6E
:103A50004002042000EB820094F81AC0185C10FBAE
:103A60000CF0002904BF10BC704713F8222002FBA1
:103A70000CF20A6010BC704710BC002070470000B8
:103A80002C030020034612480068C069C26918462A
:103A9000E2B100BFB2F800C084459CBFB2F802C0DA
:103AA000604503D99268002AF4D10FE072B15068E2
:103AB00012889A1A02EB420200EB8200D0E900233E
:103AC00080680A60C1E9013000207047012070471A
:103AD0002C030020012008807047C06968B102886B
:103AE0008A429CBF4288914203D980680028F6D15F
:103AF00003E000281CBF0120704700207047000031
:103B00002DE9F35F0C4602F0D8F92A4D8346286868
:103B100090F82A0010F0040F02D002F0CEF901E074
:103B200002F094F904F093F829680027C869427EEE
:103B3000C07E12FB00FAB1F92290B1F92480641E14
:103B400024D4684604F02EFA064628683146C06937
:103B5000C06900F057F890B141680088301A00EB56
:103B6000400001EB800090F90210007908442968B8
:103B7000C969897E10FB01F00028C8BF0744641E94
:103B8000DFD51EB1304605F036FC074408EB0A00CD
:103B9000431E09EB0700421E4146484606F0B6FCAC
:103BA000584604F054F804490120087002B0BDE8FA
:103BB000F09F00002C0300206C0300202DE9F3414E
:103BC0000E4C0F4F0D462068B0F92A6016F0030F17
:103BD00002D17A68009890476D1E08D4684604F0B8
:103BE000E1F92168C969096888476D1EF6D500208A
:103BF00038702068468502B0BDE8F0812C030020B3
:103C00006C030020002808BF704702888A4203D84E
:103C100042888A4228BF704780680028F5D17047E3
:103C20008446164810B40068C4696046E2690AB365
:103C3000138883429CBF5388984203D99268002A14
:103C4000F6D117E0B2B110885368ACEB0002012046
:103C500000EBC20094F81AC0185C10FB0CF00029AD
:103C600004BF10BC704713F8322002FB0CF20A604C
:103C700010BC704710BC0020704700002C030020CF
:103C8000012008807047C06968B102888A429CBFE1
:103C90004288914203D980680028F6D103E00028C9
:103CA0001CBF012070470020704700002DE9F04143
:103CB000114D0024A8680028C6BF00260F4FBDE89C
:103CC000F0812869782200EBC410001D3968FCF7E8
:103CD000DDFA286900EBC41000F10C010660816177
:103CE000011D0A1DC0E90F124164A868641C8442CA
:103CF000E7DBBDE8F0810000400700202C03002036
:103D000070B50D490B480860084605F0E7FC0B4C00
:103D1000A068C501284600F0BBFC2A4600212061AE
:103D200005F0F2FD4FF0FF302060BDE8704004F078
:103D3000A3BA0000DD9201085407002040070020CC
:103D400002490120096881F8710070472C030020A6
:103D500010B513F0C9FA0448016A04480068C16646
:103D600000F10801416110BD940200202C030020E5
:103D70002DE9FF4F83B01C4615460E4602F0D0F9E0
:103D80000EF0EAF847190EF0F5F800EB04090020F0
:103D90000EF036F9002800F0E980701E764D029092
:103DA0002868417C754850F8210001901221C068B4
:103DB000426A01A890475FEA000C08D03B463246B1
:103DC000CDF8009003990198E04700F0C9B8296840
:103DD000DDF80C8091F87120002A14BF4FF0010A21
:103DE00091F870A0B8F900C0029864460028C4BFDA
:103DF00008F1040BA6F1010E0DDD00BFBBF90000B8
:103E00008442C8BF04468445B8BF84460BF1040B06
:103E1000BEF1010EF2D1002A04BF0CEB0701E0193C
:103E200008D091F870000CEB070292FBF0F1E21958
:103E300092FBF0F000F0A4F800287CD12A6892F8F8
:103E4000710000283CD1002E3ADDA8F10401881C45
:103E500016F0010F0ED08B8892F8702013FB02F23F
:103E600021F8042F2B68828893F8703012FB03F23C
:103E700020F8042F731018BF2A6821D0B1F804C0AD
:103E800092F870401CFB04FCA1F804C0B0F804C018
:103E900092F870401CFB04FCA0F804C0B1F808C004
:103EA00092F870401CFB04FC21F808CFB0F808C061
:103EB00092F870401CFB04FC20F808CF5B1EDDD19B
:103EC00009FB0AF307FB0AF231464046FFF74EF8BA
:103ED0002A6892F8710070BB002E3FDDA8F1040043
:103EE000811C16F0010F10D0B0F9043092F8702048
:103EF00093FBF2F220F8042F2B68B1F9042093F819
:103F0000703092FBF3F221F8042F721018BF2B6867
:103F100024D000BFB0F904C093F870409CFBF4FCBF
:103F2000A0F804C0B1F904C093F870409CFBF4FC05
:103F3000A1F804C000E011E0B0F908C093F87040A7
:103F4000521E9CFBF4FC20F808CFB1F908C093F88E
:103F500070409CFBF4FC21F808CFDBD1FFF7F8FEA2
:103F60000DF05CFE00287FF41BAF00BF04F060F989
:103F700007B0BDE8F08F00002C03002044030020B0
:103F80002DE9F0412C4C05460E462068002778B9F3
:103F900006F0E8FBE06100F07BFB2060002808BF32
:103FA000012705D0264925480860084605F096FBFC
:103FB000002DB8BF0025711BE069421E9142C4BFAD
:103FC0002844461EAE42BCBF2E460127DFF874804F
:103FD000D8F80000C16E4A68A26321621B491A4AE0
:103FE0000A60C1662068E660C4E90105711B4A1CCD
:103FF000002105F089FC1648810CC4E90401A06188
:10400000D8F80000028990F8701012FB01F3114AF1
:104010001380438913FB01F3538083895B1C4B435B
:104020005B1E9380C3895B1C5943491ED18042614A
:104030003846BDE8F081000094020020ED910108AF
:10404000B80200202C03002069620108C802002089
:1040500001C0FFFFC0020020C1B20C48006880F818
:104060007010028912FB01F3094A1380438913FB84
:1040700001F3538083895B1C4B435B1E9380C08993
:10408000401C4843401ED080704700002C03002095
:10409000C00200202DE9F04FDFF864C291B0DCF8D7
:1040A00000C0DDE91A789CF8104014F0030476D0C3
:1040B000DFF850C2012C06D0022C6FD0032C1CBF9D
:1040C00011B0BDE8F08F04461092CDE906810D973E
:1040D0000993DCF800000E900020DFF82C8203909A
:1040E000002BCEBF0EAE11B0BDE8F08F0027DDE98A
:1040F00006900399109D08440090042D2DDB00BF0D
:1041000019F801BB07EB040A06EB9B100099027833
:104110005046C0474FEA8B604FEA106B06EB9B108E
:10412000009902780AF10100C0474FEA8B604FEA1C
:10413000106B06EB9B10009902780AF10200C04751
:104140004FEA8B6006EB9070009902780AF1030049
:10415000C0472D1F3F1D042DD2DA002D1CBF99F83A
:1041600000906D1E0CD006EB991138190A787F1C4F
:104170000099C0474FEA89604FEA10696D1EF2D27C
:104180000D9906980844069003980999401C0390DD
:104190008842ABDB11B0BDE8F08F00E04AE0CDE92A
:1041A0000010DCF8380016461D46D0F800B0DCF8E8
:1041B0003C00D0F800A055480068504503D1534852
:1041C0004068584523D0584606F0C0FB039050463F
:1041D00006F0BCFBDFF83891029003980124C9F87F
:1041E000000000BF04EB8400C2B2DDE9020105F06B
:1041F0004FFE49F82400641C032CF3DB0298C9F835
:104200000C00444806F07AFB4048C0E900AB424845
:104210004049068045808780C0F808803F48007884
:10422000087101F10C00DDE9002111B0BDE8F04F8B
:10423000FEF7DABACDE906810F93CDE9097204469B
:10424000DCF800000C900020DFF8D4800390002BF5
:10425000C8BF0CAE9EDDDDE9069003990A9D0027DC
:1042600008440090042D2CDB19F801BB07EB040A6D
:1042700006EB9B10009902785046C0474FEA8B60CE
:104280004FEA106B06EB9B10009902780AF10100CF
:10429000C0474FEA8B604FEA106B06EB9B1000990A
:1042A00002780AF10200C0474FEA8B6006EB90707B
:1042B000009902780AF10300C0472D1F3F1D042D0D
:1042C000D2DA002D1CBF99F800906D1E0DD006EBC0
:1042D00099103B1902787F1C18460099C0474FEA95
:1042E00089604FEA10696D1EF1D209990698084459
:1042F000069003980F99401C03908842ABDB49E776
:104300002C0300202C05060805B00008D406002068
:10431000E8070120DC060020E80600206C030020EE
:104320004DAF00082DE9F04FDFF8B0C18FB0DCF8D9
:1043300000C0DDE918789CF8104014F0030444D064
:10434000012C06D0022C7DD0032C1CBF0FB0BDE881
:10435000F08F0446CDE90683CDE90A12DFF88081AB
:1043600009974FF0000A002BDCBF0FB0BDE8F08FBB
:104370000027DDE90A055044069E0090022D12DB5D
:1043800016F8019B07EB040B4FEA191258460099E7
:10439000C04709F00F020BF101000099C047AD1EA4
:1043A000BF1C022DECDA25B13078009902093819CA
:1043B000C047099906980AF1010A0844069007982F
:1043C0008245D5DB0FB0BDE8F08FCDE90210DCF8F7
:1043D000380016461D46D0F800B0DCF83C00D0F896
:1043E00000A040480068504503D13E484068584509
:1043F00020D0584606F0AAFA0190504606F0A6FAD8
:10440000DFF8E490009001980124C9F80000DDE98C
:104410000001E2B205F03CFD49F82400641C0F2CB9
:10442000F5DB0098C9F83C00304806F067FA2D48E3
:10443000C0E900AB2E48068045808780C0F8088020
:104440002C4800E00BE029490078087101F10C00CC
:10445000DDE902210FB0BDE8F04FFEF7C5B9CDF898
:104460001080CDE90A12DFF890800446099707937F
:104470004FF0000A002BDCBF0FB0BDE8F08F002723
:10448000DDE90A055044049E0090022D13DB00BFB5
:1044900016F8019B07EB040B4FEA191258460099D6
:1044A000C04709F00F020BF101000099C047AD1E93
:1044B000BF1C022DECDA25B13078009902093819B9
:1044C000C047099904980AF1010A08440490079822
:1044D0008245D4DB0FB0BDE8F08F00002C03002034
:1044E00005B00008FC060020F807012004070020A2
:1044F000100700206C0300204DAF0008002808BF03
:10450000704710B5044601F00BFE20460EF098FAF5
:10451000044603F08DFE204610BD38B5054601F077
:10452000FFFD2846FFF7EAFF040009D000F046F936
:104530002A460021009005F0E7F9684600F09EF950
:1045400003F076FE204638BD024A106021F00300D9
:1045500050607047D0060120002808BF704770B532
:10456000054601F0DDFD0E4C206B10F8351091B1C1
:10457000022910D2042101EBC506815948680EF0CA
:1045800011FA6068401C6060206B216A8151002133
:1045900000F835102562BDE8704003F049BE000008
:1045A00014060120002808BF7047044A916B01607F
:1045B000002918BF4860906370470000140601206E
:1045C0002DE9F041064601F0ABFD35680027E5B165
:1045D00001F0A6FD0F4C206B10F8351099B102299F
:1045E00011D2042101EBC50850F8081048680EF0FC
:1045F000D9F96068401C6060206B216A40F808109F
:1046000000F83570256203F013FE3760BDE8F04115
:1046100003F00EBE140601202DE9F05FB1F1000891
:1046200081464FF00005C6BF184F4FF0000ABDE8A5
:10463000F09F00BF09EB850601F072FD3468DCB124
:1046400001F06EFD386B10F8341099B1022911D2C7
:10465000042101EBC40B50F80B1048680EF0A2F9CE
:104660007868401C7860386B396A40F80B1000F8A5
:1046700034A03C6203F0DCFDC6F800A003F0D8FDD6
:104680006D1C4545D6DBBDE8F09F000014060120F7
:104690002DE9F041044613F087FFE01C284E20F07E
:1046A0000300051DF06BA84288BF05460022B46BCD
:1046B000C4B100BF54F8041CA94210D19CB12068B9
:1046C00000281CBF61684160606800281CBF216829
:1046D0000160B16BA14204BF2068B0632CE0246884
:1046E000002CE7D11446B168706B00EB010858F854
:1046F000040CA8EB0007386840B1002015F0CCFF8F
:1047000058F8040CA8EB00073868A8B97868A842E4
:1047100012DB3844401B041D384615F093FFB06887
:104720003946401BB0603069284430617868401BCE
:104730000EF038F944F8045C2046BDE8F081000032
:104740001406012010B5002413F02EFF0E490F208F
:1047500001EBC002126C8AB101EBC000006C8068F2
:1047600048B14168A14288BF0C46806800281CBF40
:1047700080680028F5D1A4F10C0010BD401EB0F1F6
:10478000FF3FE5DCF7E7000014060120002140B1FF
:104790000549042202EBC000096B08584068A0F1EB
:1047A0000C010846704700001406012002484169C8
:1047B000491C4161704700001406012009498A69BB
:1047C000521C8A610A6B02EBC00213785B1C1370E7
:1047D000002808BF7047096B042202EBC00008588C
:1047E000083070471406012010B501F099FC002430
:1047F00013F0DAFE1B4B1C490F2000BF01EBC00277
:10480000126C0AB301EBC000006C8068002808BF7E
:10481000A4F10C000FD04268A24288BF1446806801
:1048200000281CBF80680028F5D100BFA4F10C004F
:10483000B0F5800F0DD983FB00204211C969A2EBAE
:10484000E07000FB01F409E0401EB0F1FF3FD5DC51
:10485000ECE7C9694843A3FB0010440903F0E8FCF6
:10486000204610BD1F85EB51140601200248416906
:10487000491E416170470000140601200A49026880
:104880000B6B52F8082C03EBC2021378022B04D3F3
:104890008B69002B1CBF5B1E8B611178491E117048
:1048A000002101600846704714060120002808BF57
:1048B00070470449042202EBC000096B0858083015
:1048C000704700001406012038B5002430B1FFF70E
:1048D00075FF009004886846FFF7D0FF204638BD7A
:1048E00030B583B00D460024B8B1FFF767FF0090E4
:1048F0000188A9420ED9406860B1FFF75FFF0190BF
:1049000050F8255001A8FFF7B9FF280002D0FFF7A3
:1049100055FF04466846FFF7B1FF03B0204630BD9F
:1049200070B50C46054601F041FCC1B2234628464D
:10493000BDE87040002200F001B800002DE9F00150
:104940002D24D3F800C0B0F1004F34D0002500284A
:10495000A8BF4FF0000C07DA0CF101061E608CF8BE
:10496000004040424FF0010CA1EB0C01C9B2002AFB
:104970001CBF491EC9B200291CBF234F234E3DD086
:104980008C46491EC9B2944508D1D3F800C03C7882
:104990000CF10108C3F800808CF8004056F8214063
:1049A00090FBF4FC0CF0FF0CBCF10A0F26D80CFBBA
:1049B000140081B909E00CF1010601251E606FF0B9
:1049C00000408CF80040491ED0E7002D1CBF0CF1C0
:1049D000010C0CF0FF0CBCF10A0F03D1491C4FF085
:1049E000010CC9B20CF13004D3F800C000290CF15D
:1049F0000108C3F800808CF80040C1D1196800207C
:104A00000870BDE8F001704720030020240A060862
:104A100002480068407C00F003B800002C0300202E
:104A200070B5054601F07CFB124805EB850100EBF3
:104A3000810400266671236953B150F82100E268B1
:104A400081684068521AA168091A184602F05CFE93
:104A5000284601F03FFA18B1002103F069F904E09B
:104A6000207918B1206902F026FE2671BDE8704059
:104A700003F0DEBB540701202DE9F84F0E46054632
:104A800001F04EFB304601F025FA8346DFF8C48082
:104A9000314806EB860A012758F82A90016831B997
:104AA0002F4907602D480860084604F017FE294981
:104AB00006EB860001EB8004BBF1000F21D05846C5
:104AC00003F096F800904FF07F4003F0A9F800F053
:104AD000D5F800221146286800F006FD28684288B3
:104AE0000188584603F014F948F82A506771009875
:104AF00003F07EF8304601F0EDF9E0B9607900BBD3
:104B000023E048F82A506771206918B102F0A6FD29
:104B100000202061CDB10097E068A9683346421AB1
:104B2000A0686968411A286802F0D8FF2061304601
:104B300001F0D0F918B1012103F0FAF805E060792D
:104B400018B12771206902F099FF03F071FB484604
:104B5000BDE8F88F54070120600300208992010806
:104B60006403002070B514460D46064601F0D8FADD
:104B7000204601F0AFF90300164804EB840109D088
:104B800050F8210041688068711A2A1A184603F00B
:104B9000AFF81AE000EB8104A268B24214BF012210
:104BA0000022E368AB4214BF012300231A430CD058
:104BB000236943B150F82100816840686A1A311AAC
:104BC000184602F0A1FDC4E90265BDE8704003F09B
:104BD0002FBB00005407012070B513480068447CC7
:104BE00001F09EFA114804EB840100EB81050126D7
:104BF0006E7150F8210038B1204601F06BF940B1D8
:104C0000012103F095F80AE021460948FFF734FF37
:104C100005E0687918B12E71286902F02FFFBDE810
:104C2000704003F005BB00002C0300205407012056
:104C3000600A0608C2B2CBB2D21A002ABCBF5242E6
:104C400012B292B202FB02F3C0F30722C1F3072CA7
:104C5000A2EB0C02002ABCBF524212B292B2000C6C
:104C6000A0EB114002FB023200B20028BCBF404260
:104C700000B280B200FB0020704700002DE9F04137
:104C8000002182B0084601F0BDF901F049FA042084
:104C900006F024F980461548C068C16C006DA1F685
:104CA000FF76A0F6FF7501F6FF7400F6FF77ADF80A
:104CB0000060ADF80440ADF80250ADF806706846EB
:104CC0000DF09EF948B13B4622462946304605F094
:104CD0001DFC0CF0A3FF0028F5D1404606F0FEF8BD
:104CE00003F0A6FA02B0BDE8F08100002003002026
:104CF0002DE9F04182B01C4617460D46064601F0EC
:104D00000FFA042006F0EAF880461348C168C86C20
:104D1000096D064407440D440C44ADF80060ADF83D
:104D20000470ADF80250ADF8064068460DF068F921
:104D300048B123463A462946304605F0E7FB0CF0D9
:104D40006DFF0028F5D1404606F0C8F803F070FA70
:104D500002B0BDE8F081000020030020B0F9063069
:104D6000B0F90420B0F90210B0F90000FFF7C0BF9D
:104D70002DE9F8431C00DDE9089816460F46054664
:104D800002D10BF035FD04460096D5F800C043462D
:104D90004A4621462846E047060008BFBDE8F8839A
:104DA0000BF01AFD8146698A30460AF036FF30461C
:104DB0000CF0AFFD48460CF0ACFD7F1E002FC8BFC5
:104DC0004FF000080FDD00BFCDF8008055F81CCF74
:104DD00000231A4649462846E04708B30CF099FDDF
:104DE0007F1E002FF0DC1D2148460CF093FB601C59
:104DF00013D001F095F90BF047FD38B1FFF756FDE0
:104E00008469B44218BF5FEA0400F7D1B4421CBF02
:104E100030460CF08FFC03F00BFA3046BDE8F88307
:104E200030460BF093FA0020BDE8F883022BA4BFB4
:104E3000002070472DE9F04106461C4615460F46F6
:104E40001C20FFF725FC002808BFBDE8F081002FDB
:104E500018BF07610BD10A4A52F8241039B10A6809
:104E60001AB111461268002AFBD1096901618461F7
:104E70008582002101604160C0E90216BDE8F08131
:104E8000440300202DE9F04100241D4607468846D2
:104E90001646022B1FDA1C20FFF7FAFBD8B1B8F137
:104EA000000F18BFC0F810800BD1104A52F825101F
:104EB00039B10A681AB111461268002AFBD1096992
:104EC00001618561868204604460C0E90247040094
:104ED00018BF00F011F8E068006820B904480068C5
:104EE00000EB850084652046BDE8F0814403002086
:104EF0002C030020FFF756BB10B18269022A01DBA8
:104F00000120704710B4234C54F82210002908BF28
:104F100044F8220036D04B6823B119465B68002B59
:104F2000FBD191B3C3681B68D1F80CC0DCF800C09A
:104F30009C4503DD09680029F6D127E029B3D1F8A3
:104F40000CC0DCF800C09C4504BFB0F814C0BCF134
:104F5000010F0DD1D1F800C0BCF1000F07D06146A0
:104F6000DCF80CC0DCF800C09C45F3DA00E061B16D
:104F70004B68002B1DBF18604A68426044F822004D
:104F80004860016010BC00207047FFE710BC0120A2
:104F90007047000044030020002808BF704730B469
:104FA000204C00BFD0F800C0002835D08569022D04
:104FB00032DA54F82510002908BF44F825002BD018
:104FC0004A6822B111465268002AFBD121B3C26857
:104FD0001268CB681B68934203DD09680029F8D189
:104FE0001AE0C9B1CB681B68934204BF838A012BC6
:104FF00008D10B682BB11946DB681B689342F8DABD
:1050000000E049B14A68002A1DBF10604A6842604A
:1050100044F82500486001605FEA0C00C2D130BC52
:1050200070470000440300200B4A816952F8213088
:10503000834204BF036842F82130416800291CBF45
:1050400002680A60016800291CBF42684A600021AA
:1050500001604160704700004403002070B40020EC
:10506000144DDFF854C002464FEA00045CF82210E9
:10507000D9B1CB681B68EB5CA3B18B695CF823608A
:105080008E4204BF0E684CF823604B68002B1CBF97
:105090000E681E600B68002B1CBF4E685E60C1E985
:1050A0000004084609680029E3D1521C022ADDDB0E
:1050B00070BC704774FE0508440300200228A4BF9A
:1050C00000207047064951F82000002808BF7047AB
:1050D000C168096800291CBF00680028F8D1704722
:1050E00044030020002808BF70472DE9F8431E46FE
:1050F000174688460446FFF761FB00900068056884
:105100006846FFF7BBFB33463A4641462046A84770
:10511000BDE8F88338B504004FF0000008BF38BD83
:105120002046FFF74BFB0090006845686846FFF794
:10513000A5FB2046A84738BD38B504004FF0000055
:1051400008BF38BD2046FFF739FB0090006885682E
:105150006846FFF793FB2046A84738BD2DE9F0418C
:10516000044603F084F8184F061900BF03F07FF8D7
:10517000A6EB0008B8F1000FD8BFBDE8F08100F041
:1051800079FDB8F1050FC8BF4FF0050800F0C8FF62
:105190003C68FFF70BFB250011D000BF03F048F877
:1051A0006D1EFBD1404603F057F81CB100F0B8FF6C
:1051B000641EFBD1FFF75AFB03F03AF8D6E74046EE
:1051C00003F04AF8F6E700004C07002070B584B001
:1051D0001C4615460E46CDF80CD003AB00222146E6
:1051E000FFF7ACFB2A463146684600F08DF804B064
:1051F00070BD0000002808BF70472DE9F04F83B054
:10520000054600F08DFF00F07BFE3E4C074620680F
:10521000B0F9226000F0C2FE216881468A8CA2EBC0
:1052200009008884287800281CBFA7F101080FFA1C
:1052300086FA46D047F6FF71284604F0ADF883465B
:105240000146284604F06EF82168064691F82C00C5
:1052500000F00300012808BF304605D0022812BF25
:10526000002006EBD67040104A8C101A4884ADF826
:105270000000721E1044ADF80400888CADF80200E6
:105280004044ADF806006A465946284603F06CFAD9
:105290002168BDF8020088845946284602F098FE2D
:1052A000054428780A2818BF0D2817D0BDF800003B
:1052B000216830444884287818B115F8010F002877
:1052C000B8D12068818C49448184818D21F003010B
:1052D000818502F0ADFF03B0BDE8F08F206890F843
:1052E0002C1001F00301012917BF0229A0F822A008
:1052F000018C418429780A29DDD1818C394481844B
:10530000D9E700002C03002070B514460D46064670
:1053100000F006FF0548016830464D848C84FFF795
:1053200069FFBDE8704002F083BF00002C0300203D
:105330002DE9F04106460A4814460D460068B0F9CA
:105340002C0040F0020002F03DFD074622462946AF
:105350003046FFF7D9FF3846BDE8F04102F032BDD4
:105360002C0300202DE9F04182B006000D461746BF
:1053700047F6FF784FF0000404BF02B0BDE8F081AB
:1053800000F0CEFE65B128460CF0A4FA040007D068
:1053900002462946684604F067F868460CF09AFA17
:1053A00043463A462946304603F0ACFA20460CF014
:1053B00091FA02F03DFF02B0BDE8F081002808BF7D
:1053C00070472DE9FF4F85B093460E46054600F025
:1053D000A7FE3468776821B238B2401A401C0290A8
:1053E00000F08EFD82461BF00C0F2FD0029801902A
:1053F0000898A8464FF00009009000F091FEDDE902
:105400000021404604F026FA8044002818BF09F124
:105410000109F4D102F00CFF0BF00C00042818BFB6
:10542000082802D00C2805D010E0381409FB1A0017
:10543000401C09E02114C1EB274009FB1A00401C65
:1054400000EBD07001EB600060F31F44304602F0C7
:10545000F2FBAAF1010904902846089A029904F087
:105460003FFA03904FEA244808EB090060F31F4716
:10547000CDE900472846039903F054FF1BF00301D0
:1054800008BF30880DD001290ED0022911D1B6F9FC
:105490000420B6F90010521A101A00EBD07001EB7C
:1054A0006000ADF8000004E0B188081A401CADF8B7
:1054B00000006A462846039903F056F92846089AE0
:1054C000029904F0C7F9054408EB0A0060F31F4491
:1054D00028780028C0D1049802F0ADFB09B0BDE8DF
:1054E000F04F02F0A5BE00002DE9F04F89B015463F
:1054F0000E46044600F014FE364F3868C16C006D4D
:105500000E440544ADF818602088ADF81A503044B8
:10551000401EADF81C0060882844401EADF81E00F7
:1055200006A80CF06DFD00281CBFDFF8ACB04FF0F2
:10553000010A42D00020D4F80C9002F0A5FB80466E
:10554000B9F1000F1BBF99F80400002828F00200F1
:1055500048F0020002F098FB206970B1D4E9021211
:105560000091CDE9012ACDF80CA0D0F800C06388E5
:10557000228829463046E04718E03868DBF80030DA
:105580002146427CE0689847E0B1A288E388A168A0
:10559000CDF800A0CDE90410CDE90232CDF804A089
:1055A000638822882946304604F0E0FD404602F038
:1055B0006BFB0CF033FB0028BCD102F039FE09B0C4
:1055C000BDE8F08FE088012812BF00203868806BAA
:1055D000DBE700002C0300202403002010B50A465E
:1055E00082B00146684604F06BF800F099FD2B4844
:1055F000BDF800100068B0F84C201144ADF8001060
:10560000BDF80210B0F850201144ADF80210BDF8FA
:105610000410B0F84C201144ADF80410BDF8061089
:10562000B0F850000844ADF8060068460CF0E8FCFD
:1056300078B300BFBDF90040BDF90400A0420EDB05
:10564000BDF90210204604F0FBFEBDF9061020460D
:1056500004F0F6FEBDF90400A41CA042F0DABDF986
:105660000240BDF90600A0420FDB00BFBDF90000FB
:10567000214604F0E5FEBDF90400214604F0E0FEF9
:10568000BDF90600A41CA042F0DA0CF0C7FA00280D
:10569000D0D102F0CDFD02B010BD00002C030020DF
:1056A0002DE9FF4F9FB01D4616460F46804600F07D
:1056B00037FD6F480468D4F84CC00CEB08001F900D
:1056C000246DE01920900CEB0600219060192290C7
:1056D0001F98ADF850002198ADF854002098ADF80F
:1056E00052002298ADF8560014A80CF089FC00284E
:1056F00000F0B88021991F98081A1C902C98C0F3CC
:1057000007201B902C98C0F307401A902C98000E8D
:1057100019902D98C0F3072018902D98C0F30740DA
:1057200017902D98000E16902098069022981F9F93
:10573000DDE92C4501904F48219E049000F0BDFB0F
:105740001390AC4207D1204605F0A0FB3246384604
:10575000019B069973E01C98401C01280CBF4FF078
:105760000109A0F10109E0B20C901B980B900DF11A
:10577000580E2046BEE80E0C05F0FF0C4FF0010855
:105780003C46B7425EDC0C9DA2EB0B02ACEB050C79
:10579000CDF840C0DDF82CC0A1EB0A01A3EB0C034F
:1057A0000D930F921291109AE11B4A4392FBF9F369
:1057B0000C9A129D1A4402F0FF0C0D9A4A4392FB78
:1057C000F9F30B9A1A44D3B20F9A4CEA03234A43D3
:1057D00092FBF9F2694391FBF9F15A44D2B2514478
:1057E00043EA024242EA0165BC4218DD854208BF35
:1057F00008F1010813D005F049FBB8F1010F07DDEE
:10580000A4EB0800621E019B069904F07FFE04E0F1
:10581000049B601E019A069998474FF00108641C8A
:105820002846B442BFDD05F031FB3046B8F1010F28
:105830000BDDA0EB0801481C3246019B069904F0E1
:1058400065FE06E005F022FB3046049B019A0699AE
:105850009847139805F01AFB0CF0E0F900287FF444
:1058600063AF00BF02F0E4FC23B0BDE8F08F00009E
:105870002C030020B1A400082DE9FF4FA1B01E4663
:1058800017468846044600F04BFC7E48D0F800C01E
:10589000DCF84C5028192190DCF8501001EB08007E
:1058A0002290E8192390881924902198ADF850008F
:1058B0002398ADF854002298ADF852002498ADF822
:1058C000560014A80CF09CFB002800F0D58022990B
:1058D0002498401A1C902E98C0F307201B902E98F5
:1058E000C0F307401A902E98000E19902F98C0F31D
:1058F000072018902F98C0F3074017902F98000E9C
:10590000169021980390DDE922800190DDE92E4573
:105910005D4807900120249E1D9000F0CEFA139060
:10592000AC4207D1204605F0B1FA33464146019A10
:1059300003988AE01C98401C01280CBF4FF0010915
:10594000A0F10109E0B20E901B9808900DF1580EDD
:105950000127BEE80E0C204605F0FF0C4446B0457A
:105960006CDC0E9DA2EB0B02ACEB050CCDF844C039
:10597000DDF820C0A1EB0A01A3EB0C030C92CDE9EA
:105980000F3100BF119AA4EB08014A4392FBF9F3CF
:105990000E9A109D1A4402F0FF0C0F9A4A4392FB94
:1059A000F9F3089A1A44D3B20C9A4CEA03234A43F7
:1059B00092FBF9F2694391FBF9F15A44D2B2514496
:1059C00043EA024242EA0165444522DD854208BFBE
:1059D0007F1C1ED005F05AFA1D98012F0DDD0028FE
:1059E0001FBFE11B631E019A039801BFE01B621EEB
:1059F000019B039904F08AFD0AE0019A20B1079BFC
:105A0000611E0398984703E0079B601E039998471F
:105A10000127641C2846B442B4DD05F037FA1D990D
:105A20003046012F14DD0029A0EB070109D0491CE5
:105A30003346019A039804F069FD14E005F026FA54
:105A400007E0481C3246019B039904F05FFD0AE021
:105A500029B1079B3146019A0398984703E0079BB9
:105A6000019A03999847139805F010FA0CF0D6F8AC
:105A700000287FF446AF00BF02F0DAFB25B0BDE896
:105A8000F08F00002C030020E9A30008F0B583B0DC
:105A900016460F46054600F043FB114C2168C86CC2
:105AA000096D074406440D44ADF80070ADF804607C
:105AB000ADF80250ADF8065068460CF0A1FA50B1AE
:105AC000206832462946C06E0368384698470CF075
:105AD000A5F80028F4D102F0ABFB03B0F0BD000044
