:020000040800F2
:100000003815012069020008675C0008F941000802
:10001000635C000861060008056F0008000000002E
:10002000000000000000000000000000C101000806
:100030009B06000800000000050200082D6A000869
:10004000830200088302000883020008830200087C
:1000500083020008830200089D060008830200084E
:10006000830200088302000883020008830200085C
:10007000830200088302000883020008830200084C
:10008000830200088302000883020008830200083C
:10009000830200088302000883020008830200082C
:1000A000830200088302000883020008830200081C
:1000B000CF6B000883020008830200088302000857
:1000C00083020008830200088302000883020008FC
:1000D00083020008830200088302000883020008EC
:1000E000830200087161000883020008830200088F
:1000F00083020008830200088302000883020008CC
:100100008302000883020008D16B00088302000804
:1001100083020008830200088302000883020008AB
:100120008302000899060008830200088302000881
:10013000830200088302000883020008830200088B
:10014000830200088302000883020008830200087B
:10015000830200088302000883020008830200086B
:10016000830200088302000883020008830200085B
:10017000830200088302000883020008830200084B
:10018000830200088302000883020008830200083B
:10019000830200088302000883020008830200082B
:1001A000A95800088302000865060008DFF80CD093
:1001B00000F0AAF80048004741DD0008381501208A
:1001C000234B19680868B0E8F04F80F309884FF0B6
:1001D000000080F3118870470000000003480068A9
:1001E000006880F3088862B600DF00BF08ED00E019
:1001F000DFF80C00016841F470010160704700BF36
:1002000088ED00E0EFF30980114B1A681EF0100F23
:1002100008BF20ED108A20E9F04F106008B54FF0BC
:10022000500080F311880EF041FB4FF0000080F386
:100230001188BDE8084019680868B0E8F04F1EF062
:10024000100F08BFB0EC108A80F30988704700BF18
:10025000DC0000204FF0500080F3118870474FF011
:10026000000080F311887047064880470648004721
:10027000FEE7FEE7FEE7FEE7FEE7FEE7FEE7FEE756
:10028000FEE7FEE7456A0008AD01000810B5431A15
:10029000934209D28318881803E010F8011D03F86F
:1002A000011D521EF9D210BD40EA01039B0703D085
:1002B00009E008C9121F08C0042AFAD203E011F8A5
:1002C000013B00F8013B521EF9D210BDD2B201E051
:1002D00000F8012B491EFBD270470022F6E710B54B
:1002E00013460A4604461946FFF7F0FF204610BDA4
:1002F00010B5044604E00B7800F8013B03B1491C3B
:10030000521EF8D2204610BD064C074D06E0E068AC
:1003100040F0010394E8070098471034AC42F6D34C
:10032000FFF748FF205705084057050870B58C189F
:1003300010F8015B15F0070301D110F8013B2A11F9
:1003400006D110F8012B03E010F8016B01F8016BE6
:100350005B1EF9D12B0705D40023521E0DD401F8E2
:10036000013BFAE710F8013BCB1A921C03E013F8AB
:10037000015B01F8015B521EF9D5A142D8D30020E0
:1003800070BD00001FB500F04BFD032000F0D4FE4F
:1003900005F0CCFC0020074A0923CDE90120009399
:1003A0000390034640F6E83203A105480EF0C0FC76
:1003B0001FBD000044010020424B5F474E44000037
:1003C000C50300082DED028B8CB000200090019039
:1003D00002900390002704F079FB9FED9B0A06F042
:1003E000A1FA9FED990A06F01BFA9FED970A06F015
:1003F000DBFA00243CE0BFEE000A08A800EB840012
:1004000080ED000A04EBC401904A02EB410001F0C8
:10041000F3FC04EBC403DFF838C20CEB8303D3ED29
:10042000080AB0EE600A8B4B03EBC4035A68894B91
:1004300053F8341004EBC4030CEB8303981C02F054
:10044000F9FC04EBC40CDFF8089209EB8C03DFF82D
:1004500008C25CF8242004EBC40C09EB8C0104EB0B
:10046000C40CDFF8E89109EB4C0001F0D3FD641CEB
:10047000042CC0DB002404E0E0B2002106F012FAF4
:10048000641C092CF8DD01F06FFA05464FF47A760A
:10049000D9E001F069FA401B074643F698218842EB
:1004A00004DD4FF47A7601F05FFA0546B7425ADD73
:1004B00006F57A766948007840B30021084606F0D0
:1004C000F1F90121084606F0EDF90021022006F0BD
:1004D000E9F90121032006F0E5F90021042006F0E6
:1004E000E1F90121052006F0DDF90021062006F0E2
:1004F000D9F90121072006F0D5F90021082006F0DE
:10050000D1F90121092006F0CDF927E001210020D1
:1005100006F0C8F90021012006F0C4F901210220EB
:1005200006F0C0F90021032006F0BCF901210420E7
:1005300006F0B8F90021052006F0B4F901210620E3
:1005400006F0B0F90021072006F0ACF901210820DF
:1005500006F0A8F90021092006F0A4F93F48007828
:10056000C0433E49087038460BF0FAFCB0EE408AB2
:1005700006F0D8F938460BF0EFFBB0EE408A06F0F3
:100580004FF938460BF04CFDB0EE408A06F00CFAFD
:10059000002454E008A800EB840090ED000A04EB6E
:1005A000C4002B4901EB8000D0ED080AB4EE600ACC
:1005B000F1EE10FA42D004EBC40001EB800090EDA4
:1005C000080A08A800EB840080ED000A01F0CCF9CD
:1005D000804604EBC403DFF878C00CEB8303D3ED53
:1005E000080AB0EE600A1B4B03EBC4035A68194BB0
:1005F00053F8341004EBC4030CEB8303981C02F093
:1006000019FC04EBC40CDFF8489009EB8C03DFF80D
:1006100048C05CF8242004EBC40C09EB8C0104EB0B
:10062000C40CDFF8289009EB4C0001F0F3FC01F05A
:100630009BF9A0EB080004A941F82400641C042CD9
:10064000A8DB01F03BF924E70000000050F2002095
:1006500098F200201C0300203C0300204C030020E3
:1006600000BFFEE710B500F001F810BD02200149FF
:100670008860704700B0024029B1064A1268024300
:10068000044B1A6004E0034A12688243014B1A606B
:100690007047000000B002407047704710B501205D
:1006A0000249086000F004F810BD00001C000020A2
:1006B0000149086070470000143C014010B5024633
:1006C00000200023102A03D14FF02044636E0FE076
:1006D000B2F5807F02D10A4C236809E0B2F5805F51
:1006E00003D1074C2034236802E0054CD43423683E
:1006F00003EA01048C4201D0002000E0012010BD7B
:10070000840000A00021D0E900231A4383685B1E07
:1007100042EA4312C36842EA4321014A116070472A
:10072000500100A070B50021002200230024D0E970
:1007300001563543C6683543066935434669354336
:1007400086693543C6693543066A3543466A45EAD4
:100750000601056835B90568AD00A5F1C045C5F8C5
:1007600040110DE0D0E907563543466A45EA0603D5
:10077000294D2B600568AD00A5F1C045C5F84011B5
:10078000056835BB856A2D686D1E866A7668761E9B
:1007900045EA0616856AAD686D1E46EA0526856A35
:1007A000ED686D1E46EA0536856A2D8A6D1E46EA9D
:1007B0000546856AAD8A6D1E46EA0556856A2D7E18
:1007C0006D1E46EA0562144D0835066845F8262078
:1007D00020E0856A2D686D1E866A7668761E45EA79
:1007E0000616856AAD686D1E46EA0526856A2D8A5D
:1007F0006D1E46EA0542856AED686D1E2E03856A08
:10080000AD8A6D1E46EA0554034D08352C60066816
:1008100045F8262070BD0000400100A00449096889
:1008200041EA40014FF02042C2F8541170470000E5
:10083000540100A02DE9FF4F83B0074640F6FF7436
:10084000C4F1000090460E1E0090C4BFB91C324691
:100850000CDD00BFB1F900008442C8BF0446009B14
:100860008342B8BF0090091D521EF3D18749086822
:10087000406970B1B0F90630069A9A1A009B9A4204
:10088000B8BF0092B0F902200698101AA042C8BF63
:10089000044600988442D2BFA6F1010907B0BDE822
:1008A000F08F00207A490546002E0860C4BF0698E4
:1008B00004EB000A7EDD4D45B4BF691C002107EB47
:1008C000850207EB810CB2F90200BCF90230A042AC
:1008D00056D1A34214D137F9211037F9250001EB85
:1008E00008036A49404498420968C96ED1F800C0BB
:1008F000B4BF1A4602465146A8BF1846E04787E0F3
:1009000000222946B9F1000F0CDD002914BF491E51
:10091000711E07EB8100B0F90200A04203D1521C06
:100920004A45F2DB2046A04272D037F92510A0EBF1
:100930000400A3EB0402504009D401EB0800534922
:1009400002460968C96E0B685146984760E0DFF8B7
:1009500040B1DBF800C0BCF10C0F59DABCF100006B
:10096000C8BF4C4A4DDD00BF02EB400333F9023CE7
:100970008B4246DB22F81030401E0028F4DC40E0B9
:10098000A34245D001DBA04203DDA042A8BF9C42A8
:100990003EDB98424FDC0146A042DFBF184684424E
:1009A000B2F90030BCF9002032DC00BFA2EB030C2E
:1009B000621A00E030E00CFB02F2002AA0EB010C0E
:1009C000CEBF02EB6C02A2EB6C02521C401A92FBEF
:1009D000F0F0DFF8BCB0C118DBF800C0BCF10C0FC0
:1009E00016DABCF10000C8BF2A4A0ADD02EB400358
:1009F00033F9023C8B4204DB22F81030401E002801
:100A0000F4DC244A22F810100CF10100CBF80000AD
:100A10006D1CB542FFF64FAF06984FF0000B204417
:100A200001901B485D4601680029C4BF1949B1F90E
:100A300000A022DD19E01946A342E9DC8442DCBFB4
:100A4000BCF90030B2F90020E2DCAFE71149BBF19C
:100A5000000F31F915A008D00C4908EB0A024044F8
:100A60000968C96E0B680199984709496D1C8BF09C
:100A7000010B09685046A942E8DC0098641C8442D6
:100A80007FF70FAF07B0BDE8F08F00006C070020C4
:100A9000E407002068F4002010B5002002F032FACC
:100AA0006FF07F4002F039FA012002F0A3FA002033
:100AB00002F0AEFA002002F0BBFA002002F038FA91
:100AC0000448006802F040FABDE81040002002F03F
:100AD00063BA000068070020F0B50A460021002331
:100AE000002400BF3DE0012505FA01F3156805EA81
:100AF00003049C4234D105684F000326BE40B54331
:100B0000056015794E00B5400668354305601579D6
:100B1000012D02D01579022D16D185684F000326CC
:100B2000BE40B543856055794E00B5408668354373
:100B30008560456801268E40B543456045689679D5
:100B40008E40B6B235434560C5684F000326BE40AF
:100B5000B543C560D5794E00B540C6683543C5601C
:100B6000491C1029BFD3F0BDF0B5002300244D0768
:100B7000ED0E02FA05F3CE1000F1200555F82650CF
:100B80004E07F70E0F26BE40B543CF1000F12006EA
:100B900046F82750CE1000F1200555F8265045EABA
:100BA0000304CE1000F1200545F82640F0BD418336
:100BB0007047018370470AB1018300E041837047A9
:100BC000014AC2E90001704710070020014AC2E94A
:100BD0000001704718070020014AC2E90001704770
:100BE00020070020014AC2E90001704728070020C1
:100BF000014AC2E900017047C80700202DE9F04F03
:100C00004B4989B00B68B3F922100691D3F81CC088
:100C1000B3F92480DCF81C40A18981429CBFE289A1
:100C2000904205D8471A4FF0FF35D4F8009015E0F0
:100C3000D4E90192002A72D01188814299BF558867
:100C4000A8424FF0FF352F4608D8401A516880B2AD
:100C500001EB8000B0F90070B0F90250781C5ED052
:100C60009CF81800A17C10FB01FB94F810A00790E1
:100C7000B3F92A60304604F071FAC0B208902C48EB
:100C800007FB0B920068A37C0127816BCDE90273FF
:100C9000CDE90421C0695246C17E807ECDE90001C4
:100CA000DDE90603414603F007FC681C18D046F056
:100CB000020004F053FA1E48A37C05FB0B92006867
:100CC000816BCDE90273CDE90421C0695246C17E32
:100CD000807ECDE90001DDE90603414603F0ECFB2F
:100CE000134D2868C069417E007E814214D9022ECE
:100CF00012D086F0040004F031FA2868C069017E41
:100D0000C27E11FB0281427E02EB0803827E0698BE
:100D10000AFB020203F072FD089804F01FFA04486F
:100D2000627C0068418C1144418409B0BDE8F08FB9
:100D30006C070020044800290068C069C0691CBF16
:100D4000027C0A60407C70476C070020022008800B
:100D50007047C06982898A429CBFC289914210D97A
:100D6000806880B102888A420DD8438899420AD8A7
:100D7000406800EB8100A0EB8200B0F90000002881
:100D800001DB012070470020704700002DE9F04191
:100D9000114D0024A8680028C6BF00260F4FBDE8EB
:100DA000F0812869782200EBC410001D3968FFF734
:100DB0006DFA286900EBC41000F10C010660816136
:100DC000011D0A1DC0E90F124164A868641C844219
:100DD000E7DBBDE8F0810000E80700206C07002099
:100DE00070B50D490B480860084603F0A1F80B4C9C
:100DF000A068C501284600F01FFA2A46002120619C
:100E000003F0E2F84FF0FF302060BDE8704002F0E0
:100E10000FBB0000E1D10008FC070020E80700201C
:100E200002490120096881F8710070476C070020B1
:100E300010B50AF01BFE0448016A04480068C16648
:100E400000F10801416110BDD40600206C070020AC
:100E50002DE9FF4F83B01C4615460E4600F024FED8
:100E600007F05AF8471907F065F800EB040900206D
:100E700007F082F8002800F0E980701E764D02909D
:100E80002868417C754850F8210001901221C06803
:100E9000426A01A890475FEA000C08D03B46324600
:100EA000CDF8009003990198E04700F0C9B829688F
:100EB000DDF80C8091F87120002A14BF4FF0010A70
:100EC00091F870A0B8F900C0029864460028C4BF29
:100ED00008F1040BA6F1010E0DDD00BFBBF9000007
:100EE0008442C8BF04468445B8BF84460BF1040B56
:100EF000BEF1010EF2D1002A04BF0CEB0701E0198C
:100F000008D091F870000CEB070292FBF0F1E219A7
:100F100092FBF0F000F0A4F800287CD12A6892F847
:100F2000710000283CD1002E3ADDA8F10401881C94
:100F300016F0010F0ED08B8892F8702013FB02F28E
:100F400021F8042F2B68828893F8703012FB03F28B
:100F500020F8042F731018BF2A6821D0B1F804C0FC
:100F600092F870401CFB04FCA1F804C0B0F804C067
:100F700092F870401CFB04FCA0F804C0B1F808C053
:100F800092F870401CFB04FC21F808CFB0F808C0B0
:100F900092F870401CFB04FC20F808CF5B1EDDD1EA
:100FA00009FB0AF307FB0AF231464046FFF742FC11
:100FB0002A6892F8710070BB002E3FDDA8F1040092
:100FC000811C16F0010F10D0B0F9043092F8702097
:100FD00093FBF2F220F8042F2B68B1F9042093F868
:100FE000703092FBF3F221F8042F721018BF2B68B7
:100FF00024D000BFB0F904C093F870409CFBF4FC0F
:10100000A0F804C0B1F904C093F870409CFBF4FC54
:10101000A1F804C000E011E0B0F908C093F87040F6
:10102000521E9CFBF4FC20F808CFB1F908C093F8DD
:1010300070409CFBF4FC21F808CFDBD1FFF7F8FEF1
:1010400006F0CCFD00287FF41BAF00BF02F0D2F900
:1010500007B0BDE8F08F00006C0700208407002077
:101060002DE9F0412C4C05460E462068002778B942
:1010700003F0E0FCE06100F0DFF82060002808BF2A
:10108000012705D0264925480860084602F050FF90
:10109000002DB8BF0025711BE069421E9142C4BFFC
:1010A0002844461EAE42BCBF2E460127DFF874809E
:1010B000D8F80000C16E4A68A26321621B491A4A2F
:1010C0000A60C1662068E660C4E90105711B4A1C1C
:1010D000002102F079FF1648810CC4E90401A061E7
:1010E000D8F80000028990F8701012FB01F3114A41
:1010F0001380438913FB01F3538083895B1C4B43AB
:101100005B1E9380C3895B1C5943491ED180426199
:101110003846BDE8F0810000D406002031D1000837
:10112000F80600206C070020F5AC00080807002036
:1011300001C0FFFF00070020C1B20C48006880F822
:101140007010028912FB01F3094A1380438913FBD3
:1011500001F3538083895B1C4B435B1E9380C089E2
:10116000401C4843401ED080704700006C070020A0
:1011700000070020002808BF704710B5044600F0A3
:1011800093FC204607F0F6FA044602F033F92046B5
:1011900010BD38B5054600F087FC2846FFF7EAFF8A
:1011A000040009D000F0A2F82A460021009002F0C5
:1011B0000BFF684600F0F2F802F01CF9204638BD3B
:1011C000024A106021F0030050607047E4F30020F1
:1011D000002808BF704770B5054600F065FC0E4C4E
:1011E000206B10F8351091B1022910D2042101EBC7
:1011F000C5068159486807F06FFA6068401C606056
:10120000206B216A8151002100F835102562BDE86C
:10121000704002F0EFB8000028F30020002808BF5B
:101220007047044A916B0160002918BF48609063C1
:101230007047000028F300202DE9F04104460BF030
:101240000FFAE01C284E20F00300051DF06BA842A9
:1012500088BF05460022B46BC4B100BF54F8041C1B
:10126000A94210D19CB1206800281CBF6168416070
:10127000606800281CBF21680160B16BA14204BFF7
:101280002068B0632CE02468002CE7D11446B168D4
:10129000706B00EB010858F8040CA8EB00073868E5
:1012A00040B100200CF0BCF858F8040CA8EB000783
:1012B0003868A8B97868A84212DB3844401B041D7E
:1012C00038460CF083F8B0683946401BB06030698E
:1012D000284430617868401B07F0FEF944F8045C4C
:1012E0002046BDE8F081000028F3002009498A6902
:1012F000521C8A610A6B02EBC00213785B1C1370EC
:10130000002808BF7047096B042202EBC000085890
:101310000830704728F3002010B500F0C5FB00240A
:101320000BF09EF91B4B1C490F2000BF01EBC002C4
:10133000126C0AB301EBC000006C8068002808BF83
:10134000A4F10C000FD04268A24288BF1446806806
:1013500000281CBF80680028F5D100BFA4F10C0054
:10136000B0F5800F0DD983FB00204211C969A2EBB3
:10137000E07000FB01F409E0401EB0F1FF3FD5DC56
:10138000ECE7C9694843A3FB0010440902F032F8B6
:10139000204610BD1F85EB5128F300200A49026842
:1013A0000B6B52F8082C03EBC2021378022B04D308
:1013B0008B69002B1CBF5B1E8B611178491E11705D
:1013C000002101600846704728F30020002808BF6C
:1013D00070470449042202EBC000096B085808302A
:1013E0007047000028F30020C2B2CBB2D21A002A04
:1013F000BCBF524212B292B202FB02F3C0F3072208
:10140000C1F3072CA2EB0C02002ABCBF524212B25D
:1014100092B2000CA0EB114002FB023200B2002895
:10142000BCBF404200B280B200FB00207047000009
:101430002DE9F041002182B0084600F0A7FA00F043
:1014400033FB042003F08AFE80461548C068C16C57
:10145000006DA1F6FF76A0F6FF7501F6FF7400F6A9
:10146000FF77ADF80060ADF80440ADF80250ADF87C
:101470000670684606F080FD48B13B462246294684
:10148000304603F0BBF906F0A9FB0028F5D1404631
:1014900003F064FE01F0AEFF02B0BDE8F081000091
:1014A000600700202DE9F04182B01C4617460D462A
:1014B000064600F0F9FA042003F050FE8046134877
:1014C000C168C86C096D064407440D440C44ADF86E
:1014D0000060ADF80470ADF80250ADF80640684603
:1014E00006F04AFD48B123463A462946304603F005
:1014F00085F906F073FB0028F5D1404603F02EFE77
:1015000001F078FF02B0BDE8F08100006007002024
:10151000022BA4BF002070472DE9F04106461C466F
:1015200015460F461C20FFF787FE002808BFBDE8C0
:10153000F081002F18BF07610BD10A4A52F824101E
:1015400039B10A681AB111461268002AFBD109693B
:10155000016184618582002101604160C0E9021659
:10156000BDE8F081840700202DE9F04100241D46EC
:10157000074688461646022B1FDA1C20FFF75CFE42
:10158000D8B1B8F1000F18BFC0F810800BD1104AC5
:1015900052F8251039B10A681AB111461268002AAA
:1015A000FBD1096901618561868204604460C0E9FC
:1015B0000247040018BF00F011F8E068006820B985
:1015C0000448006800EB850084652046BDE8F08192
:1015D000840700206C070020FFF720BE10B182694D
:1015E000022A01DB0120704710B4234C54F822106A
:1015F000002908BF44F8220036D04B6823B11946B1
:101600005B68002BFBD191B3C3681B68D1F80CC099
:10161000DCF800C09C4503DD09680029F6D127E00D
:1016200029B3D1F80CC0DCF800C09C4504BFB0F869
:1016300014C0BCF1010F0DD1D1F800C0BCF1000FF6
:1016400007D06146DCF80CC0DCF800C09C45F3DA3A
:1016500000E061B14B68002B1DBF18604A68426012
:1016600044F822004860016010BC00207047FFE78A
:1016700010BC01207047000084070020002808BF2C
:10168000704730B4204C00BFD0F800C0002835D0DF
:101690008569022D32DA54F82510002908BF44F874
:1016A00025002BD04A6822B111465268002AFBD18E
:1016B00021B3C2681268CB681B68934203DD0968D6
:1016C0000029F8D11AE0C9B1CB681B68934204BF66
:1016D000838A012B08D10B682BB11946DB681B6884
:1016E0009342F8DA00E049B14A68002A1DBF106051
:1016F0004A68426044F82500486001605FEA0C00D7
:10170000C2D130BC70470000840700200B4A8169B9
:1017100052F82130834204BF036842F82130416807
:1017200000291CBF02680A60016800291CBF4268CA
:101730004A6000210160416070470000840700207A
:1017400070B40020144DDFF854C002464FEA000484
:101750005CF82210D9B1CB681B68EB5CA3B18B6934
:101760005CF823608E4204BF0E684CF823604B681F
:10177000002B1CBF0E681E600B68002B1CBF4E6840
:101780005E60C1E90004084609680029E3D1521CE3
:10179000022ADDDB70BC704738480508840700204A
:1017A0000228A4BF00207047064951F820000028F5
:1017B00008BF7047C168096800291CBF006800287D
:1017C000F8D17047840700202DE9F04F89B0154605
:1017D0000E46044600F068F9364F3868C16C006D5B
:1017E0000E440544ADF818602088ADF81A50304416
:1017F000401EADF81C0060882844401EADF81E0055
:1018000006A806F0B9FB00281CBFDFF8ACB04FF00B
:10181000010A42D00020D4F80C9001F089FB8046E8
:10182000B9F1000F1BBF99F80400002828F002004E
:1018300048F0020001F07CFB206970B1D4E902128B
:101840000091CDE9012ACDF80CA0D0F800C0638842
:10185000228829463046E04718E03868DBF8003037
:101860002146427CE0689847E0B1A288E388A168FD
:10187000CDF800A0CDE90410CDE90232CDF804A0E6
:10188000638822882946304602F016FE404601F061
:101890004FFB06F0A3F90028BCD101F0ABFD09B065
:1018A000BDE8F08FE088012812BF00203868806B07
:1018B000DBE700006C0700206407002070B5094ECC
:1018C00000250024306818B18047002818BF012483
:1018D00005F012FD00280CBF002C0125F1D128468F
:1018E00070BD00008C070020034951F82000C1683A
:1018F0008A6A0821104700008407002010B500F014
:10190000D3F803480068047C01F074FD204610BD44
:101910006C07002070B514460D46064600F0C4F86A
:1019200022462946304603F051F810B100202860C5
:101930002060BDE8704001F05DBD000070B50C4650
:10194000054600F0B1F80648B0F9000028600548E7
:10195000B0F900002060BDE8704001F04BBD000010
:10196000980700209A07002001F05DBD024951F858
:10197000200000690068704784070020024951F880
:1019800020000069406870478407002070B50C464D
:10199000054600F089F8044801684D8400258C84D0
:1019A00001F028FD284670BD6C07002070B5334853
:1019B000016821F00101016031480126866031494A
:1019C000016000683049884200D0FEE72F48006877
:1019D000C0F30B00A0F58061193900D0FEE72C4D53
:1019E000A86958B9AE6101F00FFD03F09DFC05F147
:1019F0001C00284901606969416068612E202870D7
:101A000001F015FDE868244C011DC0E90E01091D17
:101A100000646161417C214850F82100C1680A6B73
:101A200004F1080190471E48E066A868E061E86894
:101A300008306061267605F063FDA064032084F819
:101A400070006FF0704020636063002003F024FB9F
:101A50006FF07F4003F05AFB12482861FFF7C0F98E
:101A60000CF018F904460021084601F0A3FA05F02D
:101A70006DFDFFF78BF9204670BD0000002000E0EF
:101A800000300240C2A507F4CDB5E8B5002004E05F
:101A900060070020A1D10008F0F300208407002097
:101AA000304805088C4D050870B5204CE06820B121
:101AB00001F0B5FC6168884204D001F0D5FC01F06A
:101AC000AEFC6060E068401CE060012818BF70BD9B
:101AD0000025A06800280CDD01F0A1FC216901EBC4
:101AE000C5110968814205D0D9B1A0686D1CA84212
:101AF000F2DC00252068854208BF70BD00280EDB9F
:101B0000FFF71EFE2268216901EBC212D067084A66
:101B100001EBC510011D1160C06FFFF7AFFD25601F
:101B200070BD216901EBC5110860E3E7E8070020FB
:101B30006C070020002808BF704738B50446FFF73F
:101B4000B3FF2046FFF7D2FB40F6FF710090818083
:101B5000C1804942018141816846FFF71FFC01F0C5
:101B600049FC38BD30B51D4883B000220068437C75
:101B70001B4850F8230001691A48FFF7C9FC05000B
:101B800004BF03B030BD1820FFF703FB04001FD0D3
:101B9000FFF78AFF2046AC60FFF7A8FB00900560C6
:101BA000FFF782FF2046FFF7A1FB40F6FF7101908F
:101BB0008180C18049420181418101A8FFF7EEFB8C
:101BC00001F018FC6846FFF7E9FB01F013FC02E0A6
:101BD0002846FFF701FD03B0204630BD6C0700200A
:101BE000840700204056050838B504460E480068B2
:101BF000006EA04208BF01F05FF9FFF755FF2046D5
:101C0000FFF774FB009005686846FFF7C7FB2046A6
:101C1000FFF7DEFA2846FFF779FD2846FFF7DCFCE0
:101C200001F0E8FB38BD00006C070020002808BF69
:101C3000704738B50C460546FFF736FF74B12846A5
:101C4000FFF754FB009081882180C1886180018961
:101C5000A1804089E0806846FFF7A0FB01F0CAFB45
:101C600038BD000038B5040018D005F045FA0D4D18
:101C700028680466FFF718FF2046FFF737FB00903F
:101C80000068FFF7ABFC2968002048616846FFF751
:101C900085FB01F0AFFB03F02BFA38BD01F00CF926
:101CA00038BD00006C07002010B582B0040006D1DA
:101CB0000F480068046E002C04BF02B010BDFFF78F
:101CC000F3FE2046FFF712FB009044696846FFF7D9
:101CD00065FB4CB12046FFF709FB019081688968DC
:101CE000884701A8FFF75AFB01F084FB02B010BD42
:101CF0006C07002001490A4600F002B801F0FFFF1E
:101D0000002808BF70472DE9F04784B015460C46FF
:101D10008146FFF7C9FE002001F00AF9354E8046E2
:101D20003068076E4846FFF7E1FA02900068806964
:101D300001F0D0F8824640F6FF70001904D10298F5
:101D4000B0F90440B0F906500298ADF8004001899E
:101D5000ADF802502144491EADF8041040892844D2
:101D6000401EADF8060005F0CFF802A8FFF716FBFD
:101D7000684606F001F940B12A462146484600F07F
:101D8000D3FB05F02BFF0028F6D1504601F0A2F856
:101D90003C46FFF789FE3068006EF4B1002818BF9A
:101DA00001F08AF805F0A8F92046FFF79FFA0146EE
:101DB00003903068026E002A04BFD0E90223C0E914
:101DC000192304660868FFF709FC03A8FFF7E6FA81
:101DD00003F098FA03F08CF901E001F06DF801F0DE
:101DE00009FB404601F0A4F801F004FB04B0BDE893
:101DF000F08700006C07002001210174002070476B
:101E00002DE9F04F83B01F469046894682464FF039
:101E1000000B0C9EFFF748FE18480068417C1848EC
:101E200050F82140E0680068042803D02468002CA2
:101E3000F8D100E01CB90846FFF7B2FC04460121C6
:101E4000E068C26A20469047050011D02469A06866
:101E50008047401C04BF0B4C46F001063B460096F1
:101E6000CDE9015442464946504600F033FA8346D4
:101E700001F0C0FA03B05846BDE8F08F6C070020AF
:101E8000840700207C560508002808BF704738B535
:101E90000446FFF709FE0E480068006EA04208BF26
:101EA00001F00AF82046FFF721FA00904069002867
:101EB00018BF01F088FA00980068FFF78DFB6846AC
:101EC000FFF76CFA2046FFF783F901F093FA38BD6B
:101ED0006C0700202DE9FF4F83B0DFF83091DDF86B
:101EE00040B09A460F4606002ED002A901A8FFF77F
:101EF00025FDB6F90050002DB8BF0025B6F9024007
:101F0000002CB8BF0024B6F90480D9F80000407C4A
:101F100002F081FD01990844401E8045C8BF8046FB
:101F2000B6F90660D9F80000407C02F09CFD0299E9
:101F30000844401E8642C8BF0646A8EB050000F1D3
:101F40000108301B461C0DE0D9F8000000252C4686
:101F5000407C02F060FD8046D9F80000407C02F031
:101F600082FD0646BAF1000F08BFC6F1000AB8F1BB
:101F7000000FCFBF002E002007B0BDE8F08F534602
:101F8000424621462846CDF800B0FFF739FF5FEA08
:101F9000000A34D000F0C4F88146504600F002F93F
:101FA000DFF86CB04FF00008A6EB08014945BCBF54
:101FB000504600F0D9F8B8F1000F08D004EB080241
:101FC0002946504600F01CF95046FFF76DFE059873
:101FD000B847DBF8001000291CBF00208847504696
:101FE000FFF788FEC844B045DEDB5046FFF74CFFE4
:101FF000002000F0D7F807B00020BDE8F08F05986A
:10200000B84707B00120BDE8F08F00006C07002042
:10201000080800202DE9FF4F81B016460D46044602
:10202000FFF7A0FD0090002846D0FFF71BFE4FF001
:10203000010885F80180207CA0B185F80080049813
:10204000B04721460098FFF7F1FD0098FFF772FDB9
:10205000002028700498B04704F108010098FFF7A9
:10206000E5FD19E00498B04721460098FFF7DEFD32
:102070002146B4F800B0B4F804A0B4F80290E788A0
:1020800004F10802084600F019FEA4F808B0A4F80C
:102090000CA0A4F80A90E7810098FFF7A5FD00279F
:1020A0006F7085F800803B46CDF8008031462046B1
:1020B000049AFFF70FFF18B105B00120BDE8F08FBB
:1020C0002F70277405B00020BDE8F08F38B50500EB
:1020D0004FF0000411D0FFF7E7FC2846FFF706F9A0
:1020E0000090006800698068804703F071FB044637
:1020F0006846FFF753F901F07DF9204638BD38B541
:102100000446FFF7D1FC2046FFF7F0F800F1180471
:1021100000906846FFF742F901F06CF9204638BD9F
:1021200038B504460025FFF7BFFC1CB90848006815
:10213000046E44B12046FFF7D9F80090B0F90A5078
:102140006846FFF72BF901F055F9284638BD000025
:102150006C07002010B506F07FFF002808BF10BDF7
:10216000BDE8104000F084B838B50C46050005D134
:102170000B480068056E002D08BF38BDFFF794FCC2
:102180002846FFF7B3F80090B0F90A10A142B8BF93
:102190000C4644816846FFF701F901F02BF938BD80
:1021A0006C070020F8B50446FFF77EFC134E30683C
:1021B000056EECB1002D18BF00F07EFE04F09CFF10
:1021C0002046FFF793F8009031680A6E002A04BF9A
:1021D000D1E90223C1E919230C660068FFF7FEF973
:1021E0006846FFF7DBF803F08DF802F081FF01E0AD
:1021F00000F062FE01F0FEF82846F8BD6C070020F2
:1022000070B582B015460E46040006D11748006826
:10221000046E002C04BF02B070BDFFF745FC2046E1
:10222000FFF764F82DB20090C58034B2848002F0CC
:102230005FFF0098406988B1FFF758F8009A019055
:10224000B2F908108180B2F90A20C28000291EBFAD
:10225000002A0480458001A8FFF7A0F86846FFF730
:102260009DF801F0C7F802B070BD00006C070020B7
:1022700070B584B0060004BF04B070BDFFF714FC55
:102280003046FFF733F80290B0F90450B0F9064039
:10229000ADF800500189ADF802402944491EADF85F
:1022A000041040892044401EADF8060002A8FFF744
:1022B00075F8684605F060FE40B122462946304672
:1022C00000F018F905F08AFC0028F6D101F092F828
:1022D00004B070BD2DE9FF4FDFF8F4B083B01C46A9
:1022E000DBF80000DDE9107C92460026437C324694
:1022F00060461299FFF70CF9050065D028698068DF
:10230000804703F065FA81460AFB09F0C01D4FEAD9
:10231000D008FFF701F817F0010F05D1C11700EB46
:102320009170801000EB4000002C06DC1838B0FBE8
:10233000F8F06442A042D8BF044617F0010F08D15C
:1023400000200090DDE903012346524600F0A6FF7D
:102350000646002C06DC2846FFF73EF907B00020B1
:10236000BDE8F08F04FB08F0183017F0010F02D021
:10237000FEF700FF01E0FEF70CFF07001CD0FEF7A0
:10238000B5FF01900560039981800499C180A0F890
:1023900008A04481C0F80C80C0E9049601A8FEF7AB
:1023A000FDFF1298AF602861DBF80000407CA86157
:1023B00007B03846BDE8F08F2846FFF70DF9002E2C
:1023C0001CBF3046FEF704FF002007B0BDE8F08FC9
:1023D0006C0700202DE9F74F8CB015460C98FEF7DE
:1023E00085FF0990B0F90840B0F90A10089100681B
:1023F0000069D0F8049009A8FEF7D0FF3A4E3B4F91
:102400003068407C57F82000C1688A6A08219047EC
:102410000790182824BF202007903068407C57F888
:10242000200000690690D0E900613148814214BF64
:10243000012000200A90002001F032F800280EBF91
:1024400000270FB0BDE8F08FB846DDE90C0B7F1C0C
:102450000DF12C0AFFF753FE04FB08F100EB81029B
:10246000CDE9009A23462946584601F007FA5FEA6B
:10247000000B04BF0FB0BDE8F08F0A98E0B1DDE9B2
:1024800006322146584601F0F7F8A8B90698A24648
:10249000D846D0F810C0BCF1000F05D0594604232F
:1024A00022460846E04707E0D8F80000B04748F861
:1024B000040BBAF1010AF7D100200799CDE9021007
:1024C000CDE904B0012000902946034601906D1C1F
:1024D00022460D9801F0F0FF0898401E0890B3D1F5
:1024E0000FB0BDE8F08F00006C07002084070020CB
:1024F0005B4C0008F8B515460E460746FEF7F6FE9B
:10250000009000681621C068436A0020984704467E
:102510006846FEF743FF002C08BFF8BD2A46314647
:102520003846A047F8BD00002DE9F04FA1B0924613
:102530000F460646FEF7DAFE1890D0F814B018A839
:10254000FEF72CFF3046FFF7C1FDFE4D4FF00009AE
:102550004FF00108082803DDBBF1000F00F0F981FE
:10256000F949CDF834A0D1E90001CDE91A0130468E
:10257000FEF7BCFE0F904469C16817910169129182
:10258000B0F908100C91B0F90A000B902868407C53
:10259000FFF7AAF91D900F98006800694068159030
:1025A0002868407CFFF7EAF983460FA8FEF7F6FE9D
:1025B000129908299CBF0120119004D9102994BFB9
:1025C00002200420119001290CBF0DF1680A4FF080
:1025D000000A1D98082828BF082940F20181159893
:1025E000584500F0FD802868407CFFF7BFF91E9039
:1025F0000C988000FEF7BEFD1C90002804BF21B09F
:10260000BDE8F08F3046FFF77AFD0790002C00F010
:10261000D1802046FEF76AFE199000200A900B98A0
:1026200000287DDD19984FF0000BCDF824B08168AB
:102630000A9A4B6909A998470C990446884235D1F2
:102640001C98FEF753FE169005461D98079EDDF870
:102650005490DDF8788002940390049536F8020BCC
:10266000C847C04745F8040B641EF7D103982028DB
:1026700004D202460299049800F034FF1D9816997E
:10268000CDE9020B01200090CDE9041A01900A99CE
:102690000D980123014438460C9A01F00DFF16A84D
:1026A000FEF77CFE07991798084450E0129801281D
:1026B00059D0002C48D00A990D98084413901C98C2
:1026C000FEF714FE16900546099A11990798DDF851
:1026D000789002FB01061D980190DDF854B0A046E9
:1026E000CDF8105036F8020BD847C84745F8040B10
:1026F000B8F10108F6D10198202804D202462146FB
:10270000049800F0EFFE00201D99169ACDE9021002
:1027100001200090CDE9042A01900998384400E096
:102720001DE001232246139901F0C6FE16A8FEF70C
:1027300035FE09980A9A20440990199881684B69D6
:1027400009A998470400BAD1179907980844079037
:102750000A980B99401C0A908842FFF663AF19A8AB
:10276000FEF71CFE36E0002CEED00A990D980125EC
:1027700046180998079900F0070201EBE003179942
:10278000CDE90313CDE905A212990095CDE90151D8
:10279000384401232246314602F01CFF09980A9A68
:1027A00020440990199881684B6909A99847040049
:1027B000DFD1C9E7CDF814A0129A1799CDF800809F
:1027C000CDE90310CDE90182DDE90C2138460B9BF0
:1027D00001F072FE1C98FEF7FBFC21B0BDE8F08F03
:1027E0003046FFF78CFC0546002C72D02046FEF7E1
:1027F0007DFD19900B980026002864DD1998CDF80E
:102800002490324681684B6909A998470C9904467F
:1028100088422AD11998B346721C81684B6909A96C
:102820009847A04208D11998761C721C81684B69A0
:1028300009A99847A042F6D017981299CDE902103D
:10284000CDF800800D98CDE9045AA6EB0B0400EBFF
:102850000B01631CCDF8048038460C9A01F02CFE65
:102860001798611C01FB005529E01298012831D00E
:10287000002C1CBF0D9800EB060B1ED01199099877
:10288000129B00FB01521799CDF80080CDE902316F
:10289000CDE9042A3844CDF8048001232246594664
:1028A00001F00AFE0998324620440990199881687F
:1028B0004B6909A998470400E0D1179805440B9883
:1028C000761C86429ADB19A8FEF768FD21B0BDE8A8
:1028D000F08F26E0002C1CBF0D9800EB060BECD00F
:1028E0000998179B00F00701CDE905A105EBE0026F
:1028F000CDE903321299CDF80080CDE90181384449
:1029000001232246594602F065FE099832462044CA
:102910000990199881684B6909A998470400DFD18B
:10292000CBE717981299CDE90210CDF80080CDE9D8
:10293000045ADDE90C21CDF8048038460B9B01F0E8
:10294000BBFD03E06C0700207456050821B0BDE80C
:10295000F08F039604460C9756460398FEF7C6FC84
:102960000890B0F90AA0C1681830CDE901012868C3
:10297000407CFEF7B9FF082898BF012703D910282B
:1029800094BF02270427089801680A6911922968F0
:10299000BC4A497C52F82110119A09690A91D2F86F
:1029A00004B00D688A4212D1DDE90112CDF814900D
:1029B000CDF80080CDE90321CDE90184B0F90820EC
:1029C000534631460C9801F077FD00F053B9202CA6
:1029D00003D0102C7ED000F04DB9B0F9084008A803
:1029E000FEF7DCFC07FB04F0FEF7C4FB14900028A4
:1029F00000F04081FEF77AFC12900398FEF776FC17
:102A000000F118044FEAC70B08900898012FB0F99D
:102A1000088004D0022F1BD0042F4AD131E00A983D
:102A2000DDF84890D0F810C0BCF1000F07D00123AA
:102A3000424649462046E04704EB880439E054F812
:102A4000040BA84709F8010BB8F10108F7D130E0F1
:102A50000A98DDF84890D0F810C0BCF1000F07D0FC
:102A60000223424649462046E04704EB880420E022
:102A700054F8040BA84729F8020BB8F10108F7D164
:102A800017E00A98DDF84890D0F810C0BCF1000FAC
:102A900007D00423424649462046E04704EB880419
:102AA00007E054F8040BA84749F8040BB8F10108F3
:102AB000F7D112990020CDE9030105900120009083
:102AC000CDE9010B08983146761CB0F908200123A6
:102AD0000C9800E005E001F0EFFCBAF1010A94D196
:102AE000C2E0B0F9084008A8FEF758FC07FB04F064
:102AF000FEF740FB149000287ED0FEF7F7FB129003
:102B00000398FEF7F3FB00F118040890B0F90800F1
:102B10008000FEF72FFB159010B1FEF7E7FB079042
:102B2000F80016900898012FB0F9088004D0022F01
:102B30002AD0042F79D14FE00A98DDF84890006937
:102B4000C0B11198D0F814C0BCF1000F1CBF15988B
:102B500000280FD00223424620460799E0470A98F2
:102B600001234246D0F810C049460798E04704EBDD
:102B700048045AE034F8020BD847A84709F8010B7B
:102B8000B8F10108F6D150E00A98DDF848900069E4
:102B9000C0B11198D0F814C0BCF1000F1CBF15983B
:102BA00000280FD00223424620460799E0470A98A2
:102BB00002234246D0F810C049460798E04704EB8C
:102BC000480432E034F8020BD847A84729F8020B32
:102BD000B8F10108F6D128E00A98DDF848900069BC
:102BE000D0B11198D0F814C0BCF1000F1CBF1598DB
:102BF000002811D0022300E03CE04246204607991D
:102C0000E0470A9804234246D0F810C04946079886
:102C1000E04704EB480408E034F8020BD847A84723
:102C200049F8040BB8F10108F6D10020129A169960
:102C3000CDE90210CDE90420012000900190089810
:102C40003146761CB0F9082001230C9801F034FCC1
:102C5000BAF1010A7FF466AF159828B107A8FEF70C
:102C60009DFB1598FEF7B4FA12A8FEF797FB14988F
:102C7000FEF7AEFA0898002818BF08A87FF424AE23
:102C80005FE6000084070020094A1268002A18BF86
:102C90000020084A52F82030002BB8BF7047064B7E
:102CA00043F820104FF0FF3142F820107047000029
:102CB0009C070020B8070020A0070020002808BFBC
:102CC000704709B32AB3B1F900C0B2F900309C458E
:102CD000B8BF63460380B1F902C0B2F902309C4527
:102CE000B8BF63464380B1F904C0B2F904309C45D3
:102CF000C8BF63468380B1F90610B2F9062091423D
:102D0000D8BF1146C18070471168526801604260A7
:102D100070470A684968026041607047002808BF30
:102D2000704703880B44038083881944818041885D
:102D300011444180C1881144C180704710B50024FE
:102D4000FEF7B2FE0A4BD3E9002082420BD0DFF837
:102D500024C0D2E9000162450CBF074A08321A605C
:102D600004F01AFD012400F045FB204610BD0000D0
:102D70006C080020E8F4002098F4002070B51A4C8C
:102D800082B02468DDE9066CB4F908508542C8BFFA
:102D90002846B4F90C509542B8BF2A468242BCBFBF
:102DA00002B070BDB4F90A508D42C8BF2946B4F9CB
:102DB0000E409C42B8BF23468B42BCBF02B070BDE0
:102DC000DCF80C402468002C18BF042C05D0DCF87B
:102DD0000040002C18BFA446F2D1CDE9006C02F0EF
:102DE00055F802B070BD00006C070020B0F9022059
:102DF000B1F906309A4213DCB1F90220B0F906307D
:102E00009A420DDCB0F90020B1F904309A4207DC97
:102E1000B1F90010B0F904008842A4BF0120704746
:102E2000002070470146024878220068FDF72EBA5C
:102E30006C070020DFED1A0A2DE9F04120EE200A90
:102E4000DFED180A0446164680EE201A0D46BDEE48
:102E5000C10A10EE108A404600F0C8FC0746404602
:102E600001F06EF8002EC6BFAB1CA11CBDE8F081BE
:102E700035F9042B33F904CB02FB07F80CFB00886F
:102E80000CFB07FC02FB10C24FEA2848121424F87E
:102E9000048B21F8042B761EEAD1BDE8F0810000F6
:102EA00000C82F48DA0F4940024978220968FDF727
:102EB000EDB900006C07002010B5FEF7F5FD02F03B
:102EC000C9F802F01FFA04F01FF8BDE8104000F046
:102ED00091BA000070B5094D04462868467CFEF79B
:102EE000E3FD022C03D228684474FFF7E5FF044891
:102EF000046000F07FFA304670BD00006C070020CF
:102F00001408002010B50446FEF7CEFD204602F05E
:102F1000C3F8BDE8104000F06DBA10B50446FEF7E6
:102F2000C3FD204602F0F2F8BDE8104000F062BA9E
:102F300010B50446FEF7B8FD204602F00FF904462E
:102F400000F058FA204610BD70B50446FEF7ACFDFF
:102F50000448002C0068C56918BFC46100F04AFA33
:102F6000284670BD6C0700200149C8617047000009
:102F700030070020014948607047000060070020CA
:102F8000014908607047000030070020014948608F
:102F9000704700003007002070B50446FEF784FD3E
:102FA00003480068857E847600F024FA284670BDC8
:102FB0006C07002070B50C460546FEF775FD094804
:102FC000224605800848048008480068417C08487B
:102FD00050F82100C1680B6A29469847BDE8704047
:102FE00000F008BA980700209A0700206C0700201C
:102FF0008407002070B50446FEF756FD03480068BC
:10300000057E047600F0F6F9284670BD6C070020B6
:1030100070B50446FEF748FD04480068B0F92C502E
:10302000848500F0E7F9284670BD00006C07002099
:1030300070B50446FEF738FD04480068B0F92A5020
:10304000448500F0D7F9284670BD00006C070020C9
:1030500002480068002808BF704700477808002031
:1030600003498A68002A08BF8860FFF7F1BF0000A3
:103070006C080020002808BF704770B584B0044673
:10308000FEF712FD294E3068A04218BF054606D152
:10309000FEF72CF9009080683060684610E0284602
:1030A000FEF724F901908068A04219D1FEF71EF9BD
:1030B00001990090806888606846FEF76FF901A862
:1030C000FEF76CF94CB32046FEF710F900907568D6
:1030D000A5420AD1406870606846FEF75FF91CE0BF
:1030E000054601A8FEF75AF9D9E79DB12846FEF733
:1030F000FDF801904568A54207D100980199406804
:10310000486001A8FEF74AF904E001A8FEF746F975
:10311000002DEBD16846FEF741F92046FEF758F83E
:1031200004B0BDE8704000F065B90000AC080020B4
:1031300038B50C46050008BF01240FD0FEF7B4FCDB
:103140002846FEF7D3F800908089204214BF01245E
:1031500000246846FEF722F900F04CF9204638BDFD
:1031600038B50446002020600648056845B1284669
:10317000FEF7BCF80090006920606846FEF70EF983
:10318000284638BDAC08002038B504004FF00000D8
:103190000D46086011D02046FEF7A8F8009084681C
:1031A00044B16846FEF7FAF82046FEF79FF8009013
:1031B000006928606846FEF7F1F8204638BD2DE921
:1031C000F0411F46069D1446884606462246B068D2
:1031D000641C3B46D0F804C041463046E0476D1EB3
:1031E000F4D1BDE8F08170B5B0F900C0A1EB0C01DD
:1031F000B0F904C08C45D8BF70BD00F1140CB0F913
:1032000002400069121B02FB00C000EBE104C81879
:10321000421ED010B0EBE1004FF0FF0302F00702B6
:10322000C2F1070201F0070103FA02F223FA01F1E9
:10323000D5B210D02278461E114304F8011B002E8F
:1032400005DDFF2231462046FDF740F83444207862
:103250002843207070BD207829400843F9E7B0F971
:103260000030B0F902C0C91A00F114030069A2EBE2
:103270000C0202FB003000EBE10001F007010278D4
:10328000802323FA01F1114301707047B0F9061051
:10329000026951431430FDF720B800002DE9F843CE
:1032A000804602F10F000011460003FB06F01C46A9
:1032B00015460F461430FDF76CFF5FEA000908BFA2
:1032C000BDE8F883FEF7F0FB4846FEF70FF80090E4
:1032D000A0F8008047808580C48006498160012174
:1032E000818106616846FEF759F800F083F8484688
:1032F000BDE8F8830857050830B4B0F90650B0F9B6
:1033000004400B6800F1140C954220DD00699C42DA
:1033100002FB00C000EBE30C19DD601EC010A0EB47
:10332000E3041CF8010B03F00702904010F0FF00CB
:1033300009D164B11CF8010B641E03F1080222F0EC
:1033400007030028F5D010F0800F09D102E030BC4F
:10335000002070474006000E5B1C10F0800FF9D073
:10336000FF2808BFDA1D0CD01A4610F0400F08D015
:103370004FEA40604FEA106002F1010210F0400F86
:10338000F6D10720904312D1641E10D41CF8010B13
:10339000FF2813D010F0800F09D000BF4FEA406023
:1033A0004FEA106002F1010210F0800FF6D10B60BD
:1033B000A2EB030030BC00F10100704702F10802EB
:1033C000641EE3D5F3E738B50546FEF76DFB2846E6
:1033D000FDF78CFF00908189491E0CB284816846FC
:1033E000FDF7DCFF002C04BF2846FDF7F1FE00F0DE
:1033F00001F838BD0348C168491EC16018BF704755
:1034000000F042B8E807002010B54FF480110248E0
:10341000FDF7D6FE10BD0000000050D0704710B57B
:103420000BF010FD10BD10B50BF022FD10BD704764
:1034300010B501200BF0A6FA09490860032200210B
:1034400001200BF0C5FA074908600846006830B152
:1034500000231A461946034800680BF0A1FB10BD73
:103460003C0000204000002010B50648006808B964
:10347000FFF7DEFF00235A1E1946024800680BF0D2
:10348000CEFA10BD3C00002010B500231A461946A4
:10349000024800680BF084FB10BD00003C000020D7
:1034A00000B583B0002814BF02AA0022002301A99E
:1034B000684600F0A5FB03B000BD0000084910B548
:1034C000CC68002814BF01200020C86014BF4FF052
:1034D000FF306FF07F4000F091FE204610BD0000ED
:1034E0008C08002030B4082A20DC0346012A4CD086
:1034F000022A7DD0042A00F0AD800129D8BF012125
:10350000181F5A1E11F0010F03D010F8043F02F8E3
:10351000013F491007D00379537010F8083F02F8B3
:10352000023F491EF7D130BC01207047102AC2BFAC
:10353000002030BC70470222022AF4D10129CABF00
:10354000A1F1010C0121BCF1000F16DD021F831E49
:1035500011F0010F03D132F8044F23F8024F5468E1
:103560005FEA6C0C09D000BF32F8085F5C805468D9
:1035700023F8045FBCF1010CF6D1491E0029A4BF59
:1035800030F8212020F81120CDE710F8042BD207C5
:10359000120E491E37D010F804CB491E0CF0010C56
:1035A00042EA8C122FD010F804CB491E0CF0010C0B
:1035B00042EA4C1227D010F804CB491E0CF0010C43
:1035C00042EA0C121FD010F804CB491E0CF0010C7B
:1035D00042EACC0217D010F804CB491E0CF0010CC3
:1035E00042EA8C020FD010F804CB0CF0010C00E082
:1035F0000EE042EA4C02491E05D010F804CB0CF054
:10360000010C4CEA020203F8012B0029BDD18AE724
:1036100010F8042B9207120E491E16D010F804CB96
:10362000491E0CF0030C42EA0C120ED010F804CB29
:10363000491E0CF0030C42EA8C0206D010F804CBB1
:10364000491E0CF0030C4CEA020203F8012B00297E
:10365000DED168E710F8042B1207120E491E06D0BF
:1036600010F804CB491E0CF00F0C4CEA020203F8D0
:10367000012B0029EED156E72DE9F0411E680D46D9
:103680000446082A0ADC8046012A22D0022A62D097
:10369000042A7DD0082A40F0A68092E0102AC4BFF8
:1036A0000020BDE8F0810220022853D1D3F810C0D9
:1036B0002746BCF1000F04D00A46214602230846E3
:1036C00088E054F8040BB04727F8020B6D1EF8D1C0
:1036D00089E054F8040BB047C007070E6D1E35D0C3
:1036E00054F8040BB04747EA8010C7B26D1E2DD0C6
:1036F00054F8040BB04747EA4010C7B26D1E25D0FE
:1037000054F8040BB04747EA0010C7B26D1E1DD035
:1037100054F8040BB04747EAC000C7B26D1E15D07D
:1037200054F8040BB04747EA8000C7B26D1E0DD0B5
:1037300054F8040BB04747EA4000C7B26D1E05D0ED
:1037400054F8040BB0473843C7B26D1E08F8017B2C
:10375000002DBED147E054F8040BB0478007070E98
:103760006D1E17D054F8040BB04747EA0010C7B2DB
:103770006D1E0FD054F8040BB04747EA8000C7B263
:103780006D1E07D054F8040BB0473843C7B200E0B1
:1037900005E06D1E08F8017B002DDCD123E054F814
:1037A000040BB0470007070E6D1E05D054F8040B3C
:1037B000B0473843C7B26D1E08F8017B002DEED12B
:1037C00011E0D3F810C0BCF1000F05D00A46014645
:1037D00001234046E04706E054F8040BB04708F8E0
:1037E000010B6D1EF8D10120BDE8F08100F5A83075
:1037F00010B400F579600028BABF4FF0FF314042A5
:1038000001211B4A90FBF2F302FB1300521090427D
:10381000C2BF4942A0F52830A0F5F950154A9042A0
:10382000C4BFC0F5F95000F528304FF47A7390FB0F
:10383000F3F26FF07C0C02FB0CFC00EBCC005A2A7C
:10384000A8BF4FF480300DDADFF82CC00CEB8204F7
:103850005CF822206468A4EB020C0CFB00F0B0FBC7
:10386000F3F010440029D8BF404210BC704700005C
:10387000407E0500905F0100204C05082DE9FF4FB8
:1038800000208BB007460146009019981E469346CB
:10389000016008AB002203A902A800F0B1F90028DA
:1038A0001EBF00200FB0BDE8F08F08988642C8BF49
:1038B0000646754C75492068407C51F820100591EA
:1038C00009690691FEF710F804902068407CFEF725
:1038D00055F881466E4881451BBF6E4881450020E2
:1038E000012009900B998819CDF81C0018995BF8F4
:1038F000040B884782465FEA106800F0B6800098A3
:10390000002838D10B98C5195F480068B0F9080045
:10391000A842C6BF441B054600240299059801EB46
:10392000870101EB8401CDE9001007980C9B421E32
:1039300019462846FFF722FA01200090049818281B
:103940000ADA0298311B00EB870000EB8400069B2B
:10395000049A00F0A3F80EE0099860B1029800EB19
:10396000870000EB84040798451B2068C84744F88B
:10397000040B6D1EF9D14848C06978B3DDE9020532
:1039800000EB870005EB8702CDE90202DFF808C1F2
:10399000ABF104043346DCF81CC020460299E04732
:1039A000012ED8BF01264FF07F42DDE902012368D6
:1039B00032EA030C04BF03680B6005D0D0F800C0E6
:1039C00032EA0C0C08BF0B60241D001D091D761E79
:1039D000EDD1199901200395086050E0FFE70298A6
:1039E000B8F1FF0F50F8270004BF039941F82700F2
:1039F00041D04FF07F42C8F1FF0132EA00032DD0E1
:103A00000AF0FF0313FB01F30AF47F4C0AF47F046E
:103A100008FB01F50CFB01FC4C43C1F1FF0100F078
:103A2000FF0818FB013300F47F4808FB01CC00F4C9
:103A30007F0808FB0144000E10FB0151100C00EA46
:103A40001C20C3F307234FF47F0C0CEA142C1843FB
:103A500002EA014140EA0C0040EA010A039840F8FA
:103A600027A019990120086005E00398012140F87A
:103A700027A0199801607F1C761E7FF437AF03984A
:103A80000FB0BDE8F08F00006C0700208407002015
:103A90005B4C0008594C0008300700200029D8BFB3
:103AA00070472DE9F05F0C465F6800EB8406082A3A
:103AB00015DC611E012A34D0022A55D0042A7AD09E
:103AC000082A0CBF0519BDE8F09F00BF15F8010DCD
:103AD000B84746F8040D641EF8D1BDE8F09F102ADF
:103AE000C8BFBDE8F09F0221022918BFBDE8F09FC2
:103AF000D3F814C0BCF1000F08BF00EB440507D099
:103B00002246BDE8F04F022301465DF804EB604712
:103B100035F8020DB84746F8040D641EF8D1BDE82B
:103B2000F09F00EBE108351F01F0070618F801A926
:103B3000802020FA06F900BF0AEA0900C6F1070151
:103B4000C840B84745F8040946B14FEA4960761EB7
:103B50004FEA1069641EEFD1BDE8F09F18F801A983
:103B600007264FF00109F5E700EBA105A6F10409CE
:103B700001F00306700015F801A9C02121FA00F830
:103B80004FF0060B0AEA0801ABEB460021FA00F001
:103B9000B84749F804094EB14FEA8860761E4FEAEB
:103BA0001068641EEED1BDE8F09F04E0032615F80E
:103BB00001A9B046F5E700EB6108012020EA040501
:103BC000A800A6F1040918F801A9F02121FA00F6CD
:103BD0004FF0040B0AEA0600ABEB8501C840B8477A
:103BE00049F8040935B16D1E3007060E641EF1D187
:103BF000BDE8F09F012518F801A90F26F6E700009F
:103C00002DE9F047224C80469946A06916460F469A
:103C1000002540B90120A06104F120011D48086081
:103C2000084600F085F9606910B900F003FF606193
:103C3000B9F1000F18BFC9F80000B8F1000F0BD0A0
:103C4000A06838B960698000FDF7F6FAA060002826
:103C500008BF0125C8F8000057B1E06838B96069AD
:103C60008000FDF7E9FAE060002808BF0125386010
:103C700056B1206938B960698000FDF7DDFA20612E
:103C8000002808BF012530602846BDE8F087000005
:103C90003007002045D10008B0F90030B1F900200C
:103CA0009342C8BF1A460280B0F90230B1F902202F
:103CB0009342C8BF1A464280B0F90430B1F90420DB
:103CC0009342D8BF1A468280B0F90620B1F9061097
:103CD0008A42C8BF0A46C280704730B4B1F900C0FA
:103CE000B2F900309C45C8BF63460380B1F9024079
:103CF000B2F902C06445C8BFA446A0F802C0B1F939
:103D00000450B2F90440A542B8BF2C468480B1F9F2
:103D10000610B2F906209142A8BF1146C1809C420C
:103D2000AABF61450020012030BC7047014602480F
:103D30000068407C00F002B86C070020F8B501264E
:103D40000F46044602280FDA2A4D002F36D0012FE5
:103D500002D0022F08D120E055F82400002818BF17
:103D6000401C03D045F824003046F8BD2046FDF73E
:103D700017FD00900028F7D0C0680D21426A684600
:103D800090470200F0D039460098904755F824003B
:103D90000026401C45F82400E6E7FDF701FD0090F1
:103DA0000028E1D0C0680D21426A684690470200B1
:103DB000DAD03946009890470026D5E755F8240018
:103DC00001280FD12046FDF7EBFC009050B1C068F0
:103DD0000D21426A68469047020003D03946009898
:103DE0009047002655F82400002814BF0121002127
:103DF000401AB7E7640800204FF07F4333EA010C14
:103E000008BF704770B400F0FF0C1CFB02FC00F40C
:103E10007F4400F47F0554435543000E10FB02F627
:103E2000C2F1FF00CAB212FB00C201F47F4C0CFBCE
:103E3000004C01F47F0404FB0054090E11FB0060E8
:103E40004FF47F4101EA1C214FF47F0C0CEA142C43
:103E5000C2F30722114370BC03EA004041EA0C019F
:103E6000084370472DE9F84F002300930D9BDDF8C0
:103E700038A0002B86BF4FF0FF0E4FF07F45BDE806
:103E8000F88F0C9C50F8049B51F8043BAEEB196C76
:103E90000CFB0AFC0CEBCC1606EBCC3CCCF3C75C61
:103EA00035EA030632D009F0FF0616FB0CF609F4DA
:103EB0007F4709F47F0807FB0CF708FB0CF84FEA73
:103EC000196919FB0CF9CCF1FF0C03F0FF0B1BFB7C
:103ED0000C6603F47F4B0BFB0C7703F47F0B0BFB9F
:103EE0000C881B0E13FB0C93C6F3072C4FF47F4674
:103EF00006EA17264FF47F0707EA18274CEA060C54
:103F000005EA03434CEA070C4CEA030929F07F4316
:103F100042F8043B641EB5D10A9BDDF834C001EBC6
:103F20008301009B5B1C00936345AAD3BDE8F88F17
:103F300002494A69426048617047000060070020FA
:103F400010B40028BABF4FF0FF31404201211B4A94
:103F500090FBF2F302FB130052109042C2BF4942A1
:103F6000A0F52830A0F5F950154A9042C4BFC0F51D
:103F7000F95000F528304FF47A7390FBF3F26FF0AC
:103F80007C0C02FB0CFC00EBCC005A2AA8BF4FF4BF
:103F900080300DDADFF82CC00CEB82045CF82220B4
:103FA0006468A4EB020C0CFB00F0B0FBF3F01044CF
:103FB0000029D8BF404210BC70470000407E050079
:103FC000905F0100204C050830B402E000F8011BAE
:103FD000521E002A18BF10F0030FF7D195083BD0EE
:103FE000C5F1000C4FEAEC740CEB947C4FEAAC0C7E
:103FF0004FEA8C0C01EB0143CCF1000402F0030208
:1040000003EB0323002CC4BFA0F1040C641010DDEB
:10401000CCF804304CF8083F641EF9D1EC1705EBDE
:10402000947C4FEAAC0C00EB0C10CCF1000C05EBCF
:104030008C05002D10DDA0F1040C15F0010F18BF48
:104040004CF8043F6C1005D0CCF804304CF8083F15
:10405000641EF9D100EB8500002ADCBF30BC70473C
:10406000401E12F0010F18BF00F8011F521004BFCC
:1040700030BC7047417000F8021F521EFAD130BCAC
:10408000704770B410F0020F02D020F8021B521ECD
:104090005FEA520C39D001EB0143BCF1040F21DB84
:1040A000ACF1040C664674420360E517436004EB10
:1040B00095748360A410C360A40010306542002D85
:1040C000C4BF041F6D100DDD636044F8083F6D1E12
:1040D000FAD1F4170CEB9474A41000EB04106442B2
:1040E00006EB840CBCF1000F0FDD041F1CF0010F68
:1040F00018BF44F8043F5FEA6C0504D0636044F8DD
:10410000083F6D1EFAD100EB8C0012F0010F18BFB2
:10411000018070BC704700001FB5012001F0E0FF76
:1041200000BF612001F0BCFF0028FAD00121082067
:1041300001F076FF40212B4802F0A9FE0122002168
:10414000284802F0A1FE0C20ADF800000020ADF8D8
:1041500002000120ADF804000C20ADF8060000209C
:10416000ADF8080069461F4802F04EFE32208DF877
:104170000C0000208DF80D008DF80E0001208DF848
:104180000F0003A801F07CFD0121164802F053FD49
:10419000002014491031088001221021114802F03A
:1041A0006AFE00BF104800680228FBD10D4802F0EB
:1041B0004FFD0E48006800F4E05048B90C48006814
:1041C00080080C490968B0FBF1F0C00004B010BDD4
:1041D000074800688008400006490968B0FBF1F014
:1041E000C000F3E7000C0040140000200838024033
:1041F000280000201800002000BFFEE702490A68DE
:104200000860104670470000040800201CB501211A
:1042100040F2EF1001F0E4FE02208DF805008DF869
:10422000040000208DF806008DF807000E220821FA
:104230005C48FCF799FC0E2209215A48FCF794FCD3
:104240004FF44070009069465648FCF745FC0E223A
:1042500006215548FCF788FC4020009069465248EA
:10426000FCF73AFC0E2205215048FCF77DFC0E229B
:1042700006214E48FCF778FC0E2204214B48FCF73F
:1042800073FC7020009069464848FCF725FC0E221C
:104290000A214748FCF768FC4FF4806000906946AB
:1042A0004348FCF719FC0E2206214248FCF75CFC4F
:1042B0000E2207213F48FCF757FC0E220B213D48F8
:1042C000FCF752FC0E220C213A48FCF74DFC4FF44F
:1042D000C650009069463748FCF7FEFB0E220221CB
:1042E0003548FCF741FC0E2203213348FCF73CFC27
:1042F0000E2208213048FCF737FC0E2209212E48F7
:10430000FCF732FC0E220A212B48FCF72DFC0E2272
:104310000B212948FCF728FC0E220C212648FCF72B
:1043200023FC0E220D212448FCF71EFC0E22114610
:104330002148FCF719FC0E220F211F48FCF714FC42
:104340004FF60C70009069461B48FCF7C5FB0E2227
:1043500000211A48FCF708FC0E2201211748FCF73F
:1043600003FC0E2202211548FCF7FEFB0E2204215D
:104370001248FCF7F9FB0E2205211048FCF7F4FB6C
:104380000E2209210D48FCF7EFFB0E220A210B48F3
:10439000FCF7EAFB40F23760009069460748FCF7FB
:1043A0009BFB1CBD00040240000C024000100240B8
:1043B0000014024000180240001C0240002002408D
:1043C00010B5044624B910210448FCF7F0FB03E0C3
:1043D00010210248FCF7EDFB10BD0000000C02406C
:1043E0000449054A0968497C52F82110096909689D
:1043F000084700006C07002084070020C1B2C0F30A
:104400000722C0F30740914208BF824207D101F161
:1044100008001349A1FB001000097830704701EB38
:10442000810101F17F030F4902EB8202A1FB03C36B
:104430007F32A1FB02C200EB80007F30A1FB0010A5
:10444000D209DB09C00902EB420103EB410100EB99
:10445000C00001EB80006C2828BF283070470000A6
:10446000F1F0F0F0818080801CB50121082001F07E
:10447000B7FD1020009002208DF8050001208DF876
:10448000040000208DF806008DF8070069460448F6
:10449000FCF722FB01221021014800F003F81CBDAB
:1044A000000C024070B504460D46164632462946B9
:1044B0002046FCF780FB70BD2DE9FF4F87B09A487E
:1044C000DDF850A0169E006890B1DDE91723DDF8F5
:1044D00064C0CDF814C00296CDE90323159ACDE946
:1044E00000A2D0F800C0DDE90923079800F0D4B895
:1044F0000A98099A0844451E07988C4C1044A0F16C
:10450000010C15984AEA0000012827D0C6F10800DE
:1045100002900020009104900A980028DCBF0BB0A4
:10452000BDE8F08F159900980844411E019105904F
:104530002068B0F90A208A4200F3E580B0F90E1035
:104540000098884200F3DF80189803900998079D2F
:104550004FF00008002873DC00F0D5B82268B2F9EB
:104560000A30581A00280DDD0A99091A0A91002903
:10457000DCBF0BB0BDE8F08F1946DDE9173400FB56
:1045800003401890B2F90E00281A002807DD0A9B94
:10459000181A0A900028DCBF0BB0BDE8F08FB2F902
:1045A0000C00ACEB0000002802DD099B181A0990F2
:1045B000B2F90830DDF81CC00020634550DDA3EBE4
:1045C0000C00099B1B1A0993082E32D006DC012E21
:1045D0000BD0022E15D0042E42D11EE0102E30D06A
:1045E000182E18BF202E3BD133E0189B20F0070C6B
:1045F00003EBE0031893079B00F007006344079365
:104600002EE0189B20F0030C03EBA0031893079BEC
:1046100000F003006344079322E0189B20F0010C94
:1046200003EB60031893079B00F0010063440793BA
:1046300016E0189B034460440790189300200FE095
:1046400031E0189B03EB400360440790189300206F
:1046500006E0189B03EB800360440790189300204A
:10466000099B002BDCBF0BB0BDE8F08FDDE91734F0
:10467000DDF864C0CDF814C00293CDE903400A9878
:10468000CDE90006527C2A48099B50F82200C268F6
:10469000D2F804C00A460799E0470BB0BDE8F08F96
:1046A000B9F1000F05D103984FF0080910F8017B0C
:1046B00003900298A9EB060937FA00F007FA06F111
:1046C000CFB204D12168097C11F0020F15D1216805
:1046D000199AC96B002AD1F800B018BF52F820000F
:1046E000086005EB0A00DDE90013421E284600F0D1
:1046F00085F82068C06BC0F800B0099808F101087F
:1047000055448045CCDB0498401C049005980090EB
:10471000DDE91701084418900A9904988842FFF6C9
:1047200001AF0BB0BDE8F08F940700206C070020AC
:10473000840700208C46134930B40968B1F90A3067
:104740006345D9BFB1F90E309C4530BC7047B1F913
:1047500008308342C8BF1846B1F90C309342B8BF45
:104760001A468242BCBF30BC70474B7C064951F8A8
:10477000234013466246E1688D6801462046AC46F8
:1047800030BC60476C070020840700200A461949A6
:1047900030B40968B1F90A309342D9BFB1F90E308B
:1047A0009A4230BC7047B1F908308342D9BFB1F9A1
:1047B0000C30984230BC70470B7C13F0010FDFF8CF
:1047C00038C009D0497C5CF82130D968D1F81CC0C8
:1047D000014630BC18466047CB6B497C1B685CF8CF
:1047E00021C0DCF80C108C6901466046A44630BC40
:1047F000604700006C0700208407002038B5DFF810
:1048000058C0DCF800C0BCF908408442C8BF20464C
:10481000BCF90C409442B8BF22468242B8BF38BDB2
:10482000BCF90A408C42C8BF2146BCF90E409C42EC
:10483000B8BF23468B42B8BF38BD00939CF811C067
:10484000064B53F82CC0DCF80C301C6913460A46A2
:1048500001466046A04738BD6C0700208407002051
:1048600070B508250024022807DAFCF799FF20B16B
:10487000C1688A6A294690470446204670BD0000F8
:10488000044A02EB800352F82000C068426A1846CE
:10489000104700008407002070B50C250024022872
:1048A00007DAFCF77DFF20B1C1688A6A2946904784
:1048B0000446204670BD70B50D250024022807DA95
:1048C000FCF76EFF20B1C1688A6A2946904704460A
:1048D000204670BD70B50848092500240068407C5A
:1048E000022807DAFCF75CFF20B1C1688A6A294612
:1048F00090470446204670BD6C07002070B509251E
:104900000024022807DAFCF74BFF20B1C1688A6A4D
:10491000294690470446204670BD70B500252C46B8
:104920002046FCF73DFF002818BF6D1C641C022CBC
:10493000F6DB284670BD0000074810B50068407CD3
:10494000FCF72EFF002808BF10BDC168CA6ABDE889
:1049500010400221104700006C07002010B500F045
:1049600005F8BDE8104000F031B90000F0B5154E73
:104970000546154F30680C4683B0407C57F8200040
:10498000C1680A6B69469047BDF90000A842DCBFC8
:10499000BDF90400854207DCBDF90200A042DCBF7E
:1049A000BDF90600844202DD03B00020F0BD30688E
:1049B0002246407C57F82000C1684B692946984739
:1049C00003B0F0BD6C07002084070020F8B5154641
:1049D0000E460124FCF7E4FE009058B1C0680421A3
:1049E000426A68469047030004D02A463146009840
:1049F000984700242046F8BD70B50E2500240228F3
:104A000007DAFCF7CDFE20B1C1688A6A29469047D3
:104A10000446204670BD70B503250024022807DA3D
:104A2000FCF7BEFE20B1C1688A6A29469047044659
:104A3000204670BD2DE9F041032700240125002602
:104A40002846022D07DAFCF7ABFE20B1C1688A6A5E
:104A5000394690470646B442B8BF34466D1EEED57F
:104A60002046BDE8F08170B504250024022807DA4D
:104A7000FCF796FE20B1C1688A6A29469047044631
:104A8000204670BD70B50848012500240068407CB0
:104A9000022807DAFCF784FE20B1C1688A6A294639
:104AA00090470446204670BD6C07002070B5012574
:104AB0000024022807DAFCF773FE20B1C1688A6A75
:104AC000294690470446204670BD000070B508484E
:104AD000022500240068407C022807DAFCF760FE0B
:104AE00020B1C1688A6A294690470446204670BDB5
:104AF0006C07002070B502250024022807DAFCF7B5
:104B00004FFE20B1C1688A6A294690470446204674
:104B100070BD00002DE9F04101004FF000001ABF08
:104B20008E68002EBDE8F081104F7A68002A08BF19
:104B3000BDE8F0810C68B4F5807FC8BFBDE8F081A6
:104B400038688442C8BF04460025002C0ADD00BF37
:104B500056F82500FFF744FC796841F825006D1CE4
:104B6000AC42F5DC7868BDE8F0810000D407002095
:104B70002DE9F04101004FF000001ABF8E68002EB1
:104B8000BDE8F081104F7A68002A08BFBDE8F081C7
:104B90000C68B4F5807FC8BFBDE8F08138688442F6
:104BA000C8BF04460025002C0ADD00BF56F82500CA
:104BB000FFF716FC796841F825006D1CAC42F5DC66
:104BC0007868BDE8F0810000D40700200449054A58
:104BD0000968497C52F821100969496808470000B2
:104BE0006C07002084070020A0F1780110293EBF47
:104BF0001648484370476C2804D3942836BF0020D9
:104C000028387047124AA2FB00318908A2FB01C272
:104C1000A1EB81039208A2EB820201EB420100EBBF
:104C200043030C4A03EB0313A2FB002001EB011129
:104C3000C00803EB430301EB410100EB001000EB64
:104C4000400003EB012101EB0040704711111100FE
:104C5000ABAAAAAA398EE3387047704700F01F014B
:104C6000074A084BC0F3451CC0F3C42013F80C30AE
:104C7000105C515C00EB032000EB0140704700002A
:104C8000C04B0508E04B05080206C0F30721120AD5
:104C9000C0F3074042EA01210843704700B58FB0D6
:104CA000FFF7E2FB0020FFF78BFB0120FFF788FBFB
:104CB0000121880601F0D4F90121C80501F090F91D
:104CC000FFF7A4FA01F072FC00200090019002901E
:104CD00003900C900D900E9004220721C02001F04B
:104CE00017FA002001F002FA012001F00BFA00BFD0
:104CF0003D2001F0D5F90028FAD0092004900120C8
:104D000005901D2006900320079040F23D3008904A
:104D100040F2E310099040F26F300A9040F2AF2069
:104D20000B90684600F028FE684600F025FE0FB0A4
:104D300000BD000010B50A4C606870B920688000A2
:104D4000FCF77AFA6060002804BF012010BD054816
:104D5000054908600846FFF7EBF8002010BD000089
:104D6000D4070020CDD10008DC0700202DE9F04752
:104D7000FFF7D3FD071E4FF00005C6BFDFF86080C8
:104D8000DFF86090BDE8F0872846FCF709FD10B316
:104D90002846FEF79FF882462846FFF761FD08285F
:104DA00016DC58F825000069484511D02846FFF761
:104DB000A5FD061E4FF000040ADDE0B2FFF706FF76
:104DC0000246E1B2284600F0D5F9641CA642F4DCA4
:104DD0005046FEF77FF86D1CBD42D5DBBDE8F0877D
:104DE000840700209C4D050800B591B01E2001905D
:104DF00040F23D3002900420039040F2E310049012
:104E000002200590FF20069000200790089009904E
:104E10000A904FF480600B9005200C9040F24360A4
:104E20000E90C01E0F904FF4F07010904FF0504055
:104E30000D9001A9124800F06EFE12480D904FF43B
:104E4000C0600B9007200C9001A90D48803000F045
:104E500062FE012000F0EAFE0121094800F050FE48
:104E600001210748803000F04BFE012000F0DEFEFB
:104E7000054800F079F9012000F004FD11B000BDF3
:104E800084680140000006D0440000202DE9FF4F57
:104E900083B016461198109CC0684769426A82B177
:104EA000012111A890475FEA000C0AD00698CDE9CD
:104EB0000004DDE9031233461198E04707B0BDE86E
:104EC000F08F63480068407CFCF70EFD00900828D6
:104ED000D8BF4FF0010805DD1028D4BF4FF00208FD
:104EE0004FF004080025069904988842C4BF07B013
:104EF000BDE8F08FB8F1010F06D0B8F1020F7FD0F6
:104F0000B8F1040F4CD18AE00098092848D2DFE8B4
:104F100000F094052548486868686800DDF80C9042
:104F2000B145D8BF4FF67F7A3ADC4946049A1198CA
:104F3000B847C5F10701884021782AFA05F21140E7
:104F400008432070681C20F0070140FA01F509F1C0
:104F5000010904EBE004B145E7DD6EE0DDF80C90FB
:104F6000B145DCBF4FF0060A4FF63F7B65DC494692
:104F7000049A1198B847AAEB4501884021786A0045
:104F80002BFA02F2114008432070681C20F0030144
:104F900040FA01F509F1010904EBA004B145E6DD91
:104FA0004BE0DDF80C90B145DCBF4FF0040A4FF048
:104FB0000F0B42DC4946049A1198B847AAEB8501C9
:104FC00088402178AA000BFA02F2114008432070B1
:104FD0002C4409F1010985F00105B145EADD2CE019
:104FE0000EE0DDF80C90B14527DC4946049A119893
:104FF000B847207009F101094444B145F5DD1CE0D2
:10500000DDF80C90B14518DC4946049A1198B84770
:10501000208009F101094444B145F5DD0DE0DDF8DA
:105020000C90B14509DC4946049A1198B84709F13A
:10503000010920604444B145F5DD04980699401CFF
:10504000049088427FF756AF07B0BDE8F08F0000AC
:105050006C07002010B50E4C0E492068407C51F8BA
:10506000200058B1C1680968042903D000680028ED
:10507000F8D103E0002818BFFCF748FB00212068A6
:10508000016600F108014161BDE8104000F030B850
:105090006C07002084070020014909684968084717
:1050A000D0070020044909680A7C12F0040F14BFDD
:1050B000C96B896B086070476C07002030B50A4CDB
:1050C000054683B02068417C084850F82100C1683B
:1050D0000A6B6946904720686A4629460830FEF701
:1050E000FCFD03B030BD00006C07002084070020E9
:1050F0000448016804484A7C083150F82200C2681C
:10510000126B10476C0700208407002001490968D2
:1051100009680847D0070020044909680A7C12F092
:10512000040F14BF896BC96B086070476C070020BF
:10513000F8B515460E460124FCF732FB009058B135
:10514000C0681621426A68469047030004D02A4688
:1051500031460098984700242046F8BD0149096867
:1051600089680847D007002001490860704700009F
:1051700064000020F8B515460E460124FCF710FB2C
:10518000009058B1C0681021426A684690470300F9
:1051900004D02A4631460098984700242046F8BD9E
:1051A00038B94FF05041064A11600021054A11609C
:1051B00005E00549024A11600121024A1160704769
:1051C0006C00002070000020000006D0002A08BFFC
:1051D00070472DE9F047274D07460E4628681446CC
:1051E000B0F90A10B142C8BFBDE8F087B0F90E109F
:1051F0008E42DABFB0F90810B942BDE8F087B0F9C5
:105200000C108F42C8BFBDE8F087DFF86C800F2C10
:105210000CD3C16B407C32460B6858F82000C16843
:10522000D1F818C03946BDE8F0476047C06B006848
:10523000FFF7CCFC814631463846FFF78FFB0F4B1A
:10524000014604EB04121B684846D2B298470C4949
:1052500009680840FFF7C4F8034628683246407CD6
:1052600058F82000C168D1F818C03946BDE8F047A9
:10527000604700006C0700208407002030070020F2
:1052800004080020F8B515460E460124FCF788FAFC
:10529000009058B1C0680B21426A684690470300ED
:1052A00004D02A4631460098984700242046F8BD8D
:1052B00038B50D460124FCF773FA009050B1C06870
:1052C0000921426A68469047020003D029460098A7
:1052D00090470024204638BDF8B515460E460124F7
:1052E000FCF75EFA009058B1C0680A21426A68462D
:1052F0009047030004D02A4631460098984700247E
:105300002046F8BD10B5074C2068006BFFF768F821
:10531000FFF702FF2068406BFFF762F8BDE810401E
:10532000FFF7C0BE6C07002010B500231A464049A5
:105330004048FCF719F94FF4F0724FF4487100201F
:10534000FFF7A0FF4FF4F0724FF448710020FFF711
:10535000C3FF0123002236493648FCF705F94FF414
:10536000F0724FF448710120FFF78CFF4FF4F07298
:105370004FF448710120FFF7AFFF002455E04FF0D4
:10538000FF302D4941F824002C4850F824102046C5
:10539000FFF78EFF2046FFF763FAC010284941F857
:1053A0002400284A21212046FFF7C2FE264A232155
:1053B0002046FFF7BDFE204606F076FD042809D8FA
:1053C000224A19212046FFF7B3FE214A2521204613
:1053D000FFF7AEFE204606F067FD022804D11D4A05
:1053E00024212046FFF7A4FE1B491C48FBF7E8FBDD
:1053F0001B491C48FBF7F0FB1B491C48FBF7E6FB6D
:105400001B491C48FBF7F4FB1B491C48FBF7EAFB54
:105410001B48FDF7A9FD1B48FDF7ACFD1A48FDF739
:10542000AFFD1A48FDF7B2FD641C022CA7DB10BDCE
:10543000D0470508644805088C0000206C1A010854
:10544000AC000020E5C9000839CA0008D9CB000823
:1054500055CB0008D9CA000825C300082D8C0008C8
:1054600019C40008D98C0008FDC30008BD8C0008D1
:10547000EDC40008B58D0008D1C40008998D00085E
:105480008591000881CC0008E99300088DCE0008C2
:105490002DE9FC4705460E4614464FF000080F2E36
:1054A00070D2DFE806F08408840C282F30484131A0
:1054B0005C8462702200284607F018FC7AE02746D8
:1054C0003E4951F82510786848433D4951F8251068
:1054D0003C4A52F8252000FB01203B4951F8251099
:1054E0008862022000F0A2FB64E02046374A01688F
:1054F00042F825105EE027463A792846396807F0D9
:1055000021FD57E056E055E027463A680AB10122EE
:1055100000E0002211462C4A52F8250000F0F0FA73
:10552000012000F083FB45E027462846D7E900121A
:1055300007F04CFD3EE06A4601A92846FCF7EAF96F
:1055400027461E49386841F825002149786841F806
:1055500025002846DDE9002107F038FD2AE027462E
:105560002846396807F018FD24E027463A680AB152
:10557000012200E000221146134A52F8250007F0EC
:10558000C1FC17E013E027463868C0F307403988AC
:1055900001F47F410843397840EA01490A4850F84C
:1055A0002500C0F80C90022000F040FB02E04FF014
:1055B000FF3800BF00BF4046BDE8FC879C000020CC
:1055C000AC0000206C1A0108840000208C00002030
:1055D000A40000202DE9FF4F8DB07A4ADDF868A0C5
:1055E0001C9E20981268A2B1DDE91D03DDF87CC085
:1055F000CDF814C00296CDE903031B98CDE900A0B5
:10560000D2F800C0DDE90F230D98E04711B0BDE8E6
:10561000F08F109A0F9B0A44551E0D9A6A4C1A443B
:10562000A2F1010C1B9A4AEA0202012A24D0C6F117
:105630000800059000200890109802910028DCBF17
:1056400011B0BDE8F08F1B99029808440990401EE4
:1056500000902168B1F90A2082427DDCB1F90E1078
:105660000298884278DC1E980B900F980D9D4FF0A1
:105670000008002863DC94E02268B2F90A40631A4B
:10568000002B0DDD1099C91A10910029DCBF11B053
:10569000BDE8F08F2146DDE91D4703FB04731E932F
:1056A000B2F90E30EB1A002B07DD109CE31A1093B1
:1056B000002BDCBF11B0BDE8F08FB2F90C30ACEBC1
:1056C0000303002B04DDDDF83CC0ACEB03030F93B8
:1056D0000D9BA3EB000CB2F9083063450FDDA3EB83
:1056E0000C040F9D23182C1B0F941E9C181A20F0DD
:1056F000070004EBE304844403F007001E940F9BAF
:10570000002BDCBF11B0BDE8F08FDDE91D341F9D1B
:1057100005950293CDE903401098CDE90006527C2F
:105720002A480F9B50F82200C26854680A46614616
:10573000A04711B0BDE8F08FB9F1000F05D10B986B
:105740004FF0080910F8017B0B90059837FA00F02C
:1057500007FA06F1CFB200E023E0A9EB060904D175
:105760002168097C11F0020F15D121681F9AC96BBD
:10577000002AD1F800B018BF52F82000086005EBED
:105780000A00421E2846009B0299FFF737F820685E
:10579000C06BC0F800B00F9808F10108554480456F
:1057A000CADB0898401C089009980290DDE91D109A
:1057B00008441E90089910988142FFF644AF11B03A
:1057C000BDE8F08F940700206C07002084070020BC
:1057D0000021002831D030F0010208BF01213BD068
:1057E00030F0030208BF022027D030F0070208BFC4
:1057F000032022D030F00F0208BF04201DD030F06B
:105800001F0208BF052018D030F0FF0208BF082093
:1058100013D0420A18BF5FEA10321FD0C20B18BF64
:105820005FEA10421AD0820C08BF122005D010F097
:105830007F4F0CBF1820202004D0821E062A98BF5C
:10584000082109D9A0F10902072A98BF102103D91C
:1058500011380F2898BF2021084670471020ECE728
:1058600030B10749096841F00101054A116005E0BE
:105870000349096821F00101014A116070470000E5
:105880001868014030B10749096841F48031054A80
:10589000116005E00349096821F48031014A116073
:1058A000704700001868014010B500F001F810BD05
:1058B00070B5012020490860002439E01F4850F8E5
:1058C0002400002833DB1E4850F824001D4951F8FD
:1058D00024104843194951F8241048431A4951F8F3
:1058E00024101A4A52F8242000FB0125184850F8C9
:1058F0002400806A0020164951F824108862144858
:1059000050F824008562012000F090F90B4850F80F
:1059100024102046FDF7B8F9084850F824000D4936
:1059200041F824004FF0FF30044941F82400641C82
:10593000022CC3DB70BD00003C6801408C000020DD
:105940009C000020A4000020AC0000206C1A01087C
:10595000840000209400002029B1064A1268024306
:10596000044B1A6004E0034A12688243014B1A6038
:105970007047000034680140F0B500210022002388
:105980000024002500265B4F3F68DFF86CC107EA62
:105990000C07DFF860C1CCF80070078A390467464D
:1059A0003F68D0F814C04CEA010C47EA0C07DFF856
:1059B00044C1CCF800700CF104073F68DFF838C12F
:1059C00007EA0C07DFF82CC10CF1040CCCF80070CE
:1059D000078B3A0467463F68D0F81CC04CEA020CBB
:1059E00047EA0C07DFF80CC10CF1040CCCF800708E
:1059F0000CF104073F68DFF800C107EA0C07DFF885
:105A0000F4C00CF1080CCCF80070078C3B0467461E
:105A10003F68D0F824C04CEA030C47EA0C07DFF8D3
:105A2000D4C00CF1080CCCF800700CF104073F68EE
:105A3000DFF8C4C007EA0C07DFF8B8C00CF10C0CA3
:105A4000CCF80070078D3C046746D7F800C0C76AE1
:105A500027434CEA070C274F0C37C7F800C03F1DFF
:105A60003F68DFF898C007EA0C07DFF888C00CF140
:105A7000100CCCF80070D0E9007C47EA0C07D0F895
:105A800008C047EA0C07D0F80CC047EA0C07DFF85B
:105A900064C00CF1100CDCF800C047EA0C07DFF81A
:105AA00054C00CF1100CCCF80070476B3D02078E0F
:105AB0003E04104F24373F6807F07F47DFF834C0BB
:105AC0000CF1240CCCF8007046EA0507D0F838C079
:105AD00047EA0C07DFF81CC00CF1240CDCF800C00E
