:020000040800F2
:10000000381501206902000851650008894B000875
:100010004F650008350600088576000800000000DE
:10002000000000000000000000000000C101000806
:100030008F06000800000000050200085970000843
:10004000830200088302000883020008830200087C
:10005000830200088302000891060008830200085A
:10006000830200088302000883020008830200085C
:10007000830200088302000883020008830200084C
:10008000830200088302000883020008830200083C
:10009000830200088302000883020008830200082C
:1000A000830200088302000883020008830200081C
:1000B0001D71000883020008830200088302000803
:1000C00083020008830200088302000883020008FC
:1000D00083020008E174000883020008830200081C
:1000E00083020008C1690008830200088302000837
:1000F00083020008830200088302000883020008CC
:10010000830200088302000865710008830200086A
:1001100083020008830200088302000883020008AB
:10012000830200088D06000883020008830200088D
:10013000830200088302000883020008830200088B
:10014000830200088302000883020008830200087B
:10015000830200088302000883020008830200086B
:10016000830200088302000883020008830200085B
:10017000830200088302000883020008830200084B
:10018000830200088302000883020008830200083B
:10019000830200088302000883020008830200082B
:1001A000216300088302000863060008DFF80CD012
:1001B00000F0AAF80048004779DF00083815012050
:1001C000234B19680868B0E8F04F80F309884FF0B6
:1001D000000080F3118870470000000003480068A9
:1001E000006880F3088862B600DF00BF08ED00E019
:1001F000DFF80C00016841F470010160704700BF36
:1002000088ED00E0EFF30980114B1A681EF0100F23
:1002100008BF20ED108A20E9F04F106008B54FF0BC
:10022000500080F311880EF041F94FF0000080F388
:100230001188BDE8084019680868B0E8F04F1EF062
:10024000100F08BFB0EC108A80F30988704700BF18
:10025000D80000204FF0500080F3118870474FF015
:10026000000080F311887047064880470648004721
:10027000FEE7FEE7FEE7FEE7FEE7FEE7FEE7FEE756
:10028000FEE7FEE75D700008AD01000810B5431AF7
:10029000934209D28318881803E010F8011D03F86F
:1002A000011D521EF9D210BD40EA01039B0703D085
:1002B00009E008C9121F08C0042AFAD203E011F8A5
:1002C000013B00F8013B521EF9D210BDD2B201E051
:1002D00000F8012B491EFBD270470022F6E710B54B
:1002E00013460A4604461946FFF7F0FF204610BDA4
:1002F00010B5044604E00B7800F8013B03B1491C3B
:10030000521EF8D2204610BD064C074D06E0E068AC
:1003100040F0010394E8070098471034AC42F6D34C
:10032000FFF748FF704E0508904E050870B58C1811
:1003300010F8015B15F0070301D110F8013B2A11F9
:1003400006D110F8012B03E010F8016B01F8016BE6
:100350005B1EF9D12B0705D40023521E0DD401F8E2
:10036000013BFAE710F8013BCB1A921C03E013F8AB
:10037000015B01F8015B521EF9D5A142D8D30020E0
:1003800070BD000030B5012187B0084606F030FA94
:1003900000248DF8144001258DF815408DF8164085
:1003A00004958DF8175004A9124800F0C7FB01F01E
:1003B00081FE002003F012F9002003F027F901204C
:1003C00003F00CF901F09EFA002003F01FF900F091
:1003D0003BFE032000F0C4FFCDE90054029400234B
:1003E0004FF4406204A1064803940EF065FA07B08A
:1003F00030BD000000000240424B5F474E44000009
:10040000050400081FB54B4F0126387800F09CF812
:10041000DFF824A107F5C27B07F104094748002350
:100420001A46454900680EF0E0F8F8B10024D846B5
:10043000554604EB8402E889E04000F0010108EB36
:100440008200007C814204D058B10021204606F091
:10045000ADFD641CE4B2142CEBD33878012802D033
:1004600004E00121F2E768680BF0CCF83446012182
:10047000334800F0AFFB0646A04205D23878E8B317
:100480000020387000F060F8BAF80200524600EE22
:10049000100A0020B8EE400A06F0AAFD108900EE0E
:1004A000100A0120B8EE400A06F0A2FD908900EE85
:1004B000100A0220B8EE400A06F09AFD108800EEFD
:1004C000100A0320B8EE400A06F092FD0025E84627
:1004D00005EB450208EB850009EB4214D0ED000A5C
:1004E00094ED100AF4EE400AF1EE10FA19D080ED06
:1004F000000A94F85D003978884200E018E010D1D5
:10050000A068D0E9001204F1100003F017F80D48BC
:10051000234604F13E0150F8252004F12C0002F09E
:10052000FDF86D1CEDB2042DD2D301F0E3FC75E7AC
:100530000120A6E7AC020020D8F2002038000020FD
:1005400000000240C00500202DE9F04706462DEDD1
:10055000028B002404F07AFF85B204F09BFF83B283
:1005600000216A1E08465B1E01F006FA2D4A012092
:10057000111D167004EB440301EB4313641CE4B239
:1005800083F83E00042CF5D300259FED278A914681
:100590008846B0EE480A284606F02AFD05EB4501DC
:1005A00008EB411404F12C07384601F0A9FF94F838
:1005B0005D1099F80000814211D1A06894ED100AF5
:1005C000D0E9001204F1100002F0B8FF17482346EA
:1005D00004F13E0150F82520384602F09FF86D1CCA
:1005E000EDB2042DD5D3124D002404EB840005EBAD
:1005F0008000007C80B10021204606F0D7FC641CFE
:10060000E4B2142CF1D3012E08D1BDEC028B0020F2
:10061000BDE8F0470AF0F6BF0121EDE7BDEC028B23
:10062000BDE8F087AC02002000000000C0050020FB
:1006300030040020FEE770B505464FF6FF7000233A
:100640004AF201040AE0EA5C50400822C6074FEA79
:10065000500000D06040521EF8D15B1C8B42F2DB90
:1006600070BD00F001B800000149022088607047A9
:1006700000B00240044A0029116801D0014300E0A3
:10068000814311607047000000B00240704770471E
:1006900002490120086000F003B8000000000020BB
:1006A0000149086070470000143C014000224FF0EF
:1006B000204310280AD0B0F5807F09D0B0F5805FC4
:1006C00009D0D3F85801814309D107E0586EFAE701
:1006D000D3F88400F7E7D3F8A400F4E7012210462A
:1006E0007047D0E90012114382686FF01F03C068A1
:1006F00003EB421242EA402001434FF02040C0F891
:1007000050117047F0B5D0E901121143D0E903232D
:100710001A4311434269046A11438269436A1143CF
:10072000C26906681143214319434FF0204586B33F
:1007300022431A43C5F8402102689200A2F1C04248
:10074000C2F840116FF00F02130114030168160480
:1007500019B3816AD1E9007C02EB0C127F1E1743AA
:100760008A6803EB022217430A8A04EB024217430A
:10077000CA68898A120306EB0151A2F580520A4326
:10078000C5F8482100688000A0F1C040C0F8487159
:10079000F0BDFFE7C5F84011D4E7806AD0E9001743
:1007A00002EB0712491E1143826803EB0222114338
:1007B0000A4BC26803EB02321143028A04EB024285
:1007C0001143828A007E06EB025211431A0302EBA8
:1007D00000600143C5F84811DAE7000000F0FFFFB0
:1007E0004FF02041D1F8542142EA4000C1F85401B1
:1007F000704700002DE9F0430446C56887B01746EE
:100800008846002002F018FF0646002D1BBF2879FD
:10081000002826F0020046F0020002F00DFF2069D9
:10082000012568B1D4E902120091CDE901250395B3
:10083000D0F800C06388228839464046E04719E076
:10084000DFF84C90134B2146D9F800001B68427C1E
:10085000E0689847A0B1A188E388A2680095CDE937
:100860000231CDE90420019563882288394640464B
:1008700004F0F6FA07B03046BDE8F04302F0DCBE03
:10088000E088012812BF0020D9F80000806BE2E761
:10089000F8090020F00900202DE9FF4F83B007463A
:1008A00040F6FF74C4F1000090460E1E0090C4BFD5
:1008B000B91C32460CDD00BFB1F900008442C8BF4C
:1008C0000446009B8342B8BF0090091D521EF3D11D
:1008D00087490868406970B1B0F90630069A9A1ADB
:1008E000009B9A42B8BF0092B0F902200698101AF5
:1008F000A042C8BF044600988442D2BFA6F10109B5
:1009000007B0BDE8F08F00207A490546002E086048
:10091000C4BF069804EB000A7EDD4D45B4BF691CD8
:10092000002107EB850207EB810CB2F90200BCF94C
:100930000230A04256D1A34214D137F9211037F921
:10094000250001EB08036A49404498420968C96ED2
:10095000D1F800C0B4BF1A4602465146A8BF184697
:10096000E04787E000222946B9F1000F0CDD00299D
:1009700014BF491E711E07EB8100B0F90200A042AE
:1009800003D1521C4A45F2DB2046A04272D037F90F
:100990002510A0EB0400A3EB0402504009D401EBA6
:1009A0000800534902460968C96E0B6851469847CA
:1009B00060E0DFF840B1DBF800C0BCF10C0F59DAA1
:1009C000BCF10000C8BF4C4A4DDD00BF02EB400344
:1009D00033F9023C8B4246DB22F81030401E0028DF
:1009E000F4DC40E0A34245D001DBA04203DDA0429D
:1009F000A8BF9C423EDB98424FDC0146A042DFBFCD
:100A000018468442B2F90030BCF9002032DC00BF45
:100A1000A2EB030C621A00E030E00CFB02F2002AA9
:100A2000A0EB010CCEBF02EB6C02A2EB6C02521CDD
:100A3000401A92FBF0F0DFF8BCB0C118DBF800C040
:100A4000BCF10C0F16DABCF10000C8BF2A4A0ADD5F
:100A500002EB400333F9023C8B4204DB22F81030F6
:100A6000401E0028F4DC244A22F810100CF101008A
:100A7000CBF800006D1CB542FFF64FAF06984FF063
:100A8000000B204401901B485D4601680029C4BF4B
:100A90001949B1F900A022DD19E01946A342E9DCA9
:100AA0008442DCBFBCF90030B2F90020E2DCAFE7E1
:100AB0001149BBF1000F31F915A008D00C4908EB22
:100AC0000A0240440968C96E0B68019998470949B0
:100AD0006D1C8BF0010B09685046A942E8DC0098B8
:100AE000641C84427FF70FAF07B0BDE8F08F0000B1
:100AF000F80900207C0A002068F4002010B50020CE
:100B000002F084FD6FF07F4002F08BFD012002F0C7
:100B1000F5FD002002F000FE002002F00DFE002096
:100B200002F08AFD0448006802F092FDBDE8104022
:100B3000002002F0B5BD0000F4090020F0B500224D
:100B400001274FF0030C0B6807FA02F52B40AB426C
:100B50002CD1066853000CFA03F4A64306600E7904
:100B6000D0F800E09E4046EA0E0606600E79012E9F
:100B700001D0022E12D18668A64386604E79D0F845
:100B800008E09E4046EA0E0686604668AE43466030
:100B900045688E799640B6B235434560C568A54331
:100BA000C560CC799C40C3681C43C460521C102AA9
:100BB000C9D3F0BD4B07DB0E9A40C90810B500EB56
:100BC0008100016A0F249C40A1430162016A114324
:100BD000016210BD0246002012690A4200D00120C5
:100BE000704741837047018370470AB101837047A2
:100BF00041837047014AC2E9000170479C09002007
:100C0000014AC2E900017047A4090020014AC2E973
:100C100000017047AC090020014AC2E90001704799
:100C2000B4090020014AC2E900017047580A0020B7
:100C30002DE9F04F4B4989B00B68B3F922100691AA
:100C4000D3F81CC0B3F92480DCF81C40A189814290
:100C50009CBFE289904205D8471A4FF0FF35D4F87F
:100C6000009015E0D4E90192002A72D011888142E7
:100C700099BF5588A8424FF0FF352F4608D8401A33
:100C8000516880B201EB8000B0F90070B0F90250F9
:100C9000781C5ED09CF81800A17C10FB01FB94F836
:100CA00010A00790B3F92A60304604F063FFC0B289
:100CB00008902C4807FB0B920068A37C0127816BEE
:100CC000CDE90273CDE90421C0695246C17E807E20
:100CD000CDE90001DDE90603414604F0C1F8681CD6
:100CE00018D046F0020004F045FF1E48A37C05FB27
:100CF0000B920068816BCDE90273CDE90421C069D4
:100D00005246C17E807ECDE90001DDE90603414601
:100D100004F0A6F8134D2868C069417E007E814228
:100D200014D9022E12D086F0040004F023FF2868A4
:100D3000C069017EC27E11FB0281427E02EB080384
:100D4000827E06980AFB020204F02CFA089804F04E
:100D500011FF0448627C0068418C1144418409B051
:100D6000BDE8F08FF8090020044800290068C06938
:100D7000C0691CBF027C0A60407C7047F8090020F3
:100D8000022008807047C06982898A429CBFC2895C
:100D9000914210D9806880B102888A420DD8438878
:100DA00099420AD8406800EB8100A0EB8200B0F9BC
:100DB0000000002801DB0120704700207047000080
:100DC0002DE9F041284C054686B020682946B0F947
:100DD0002A70C069C06900F0DFF8002804BF06B0BF
:100DE000BDE8F08141680088281A01EBC00538464B
:100DF000AE7804F0BFFE07461C48D0F80080B8F17A
:100E0000000F17D0686800210422CDE904010120F9
:100E100003960090CDE90102D4F800C02A78DCF8EE
:100E20001C00BCF92410037EBCF92200D8F800C0D5
:100E3000E0470EE06868CDE90060D4F800C02A7889
:100E4000DCF81C00BCF92410037EBCF9220000F081
:100E5000A5FA384604F08EFE20686A78418C114469
:100E6000418406B0BDE8F081F8090020240A002082
:100E700070B505460B480C4629460068C069C06934
:100E800000F08AF8002808BF70BD416800882A1A5F
:100E9000012000EBC200002C085C1CBF11F83210CE
:100EA000216070BDF809002011200880704710B53E
:100EB000C06900F071F8002818BF012010BD0000C3
:100EC0002DE9F35F0C4601F067F82A4D8346286848
:100ED00090F82A0010F0040F02D001F05DF801E054
:100EE00001F028F802F09DFB29680027C869427EBE
:100EF000C07E12FB00FAB1F92290B1F92480641E81
:100F000024D4684602F0E0FC064628683146C069F1
:100F1000C06900F033F890B141680088301A00EBE6
:100F2000400001EB800090F9021000790844296824
:100F3000C969897E10FB01F00028C8BF0744641E00
:100F4000DFD51EB1304603F073FB074408EB0A00FF
:100F5000431E09EB0700421E4146484604F022F9B1
:100F6000584602F05EFB04490120087002B0BDE85B
:100F7000F09F0000F8090020740A0020002808BF34
:100F8000704702888A4203D842888A4228BF704745
:100F900080680028F5D17047002808BF7047028894
:100FA0008A4203D842888A4228BF70478068002856
:100FB000F5D170472DE9F041114D0024A8680028B3
:100FC000C6BF00260F4FBDE8F0812869782200EBEC
:100FD000C410001D3968FFF759F9286900EBC410E7
:100FE00000F10C0106608161011D0A1DC0E90F12AC
:100FF0004164A868641C8442E7DBBDE8F08100001E
:10100000800A0020F809002070B50D490B480860DF
:10101000084603F065FC0B4CA068C501284600F0AB
:101020000BFB2A460021206103F0A6FC4FF0FF30A5
:101030002060BDE8704002F0A3BD00003DD4000870
:10104000940A0020800A002002490120096881F8E2
:1010500071007047F809002010B50AF03FFF0448FE
:10106000016A04480068C16600F10801416110BDD1
:1010700060090020F80900202DE9FF4F83B01C46CD
:1010800015460E4601F094F807F006FB471907F0E5
:1010900011FB00EB0409002007F02EFB002800F0F4
:1010A000E980701E764D02902868417C754850F8A2
:1010B000210001901221C068426A01A890475FEAAE
:1010C000000C08D03B463246CDF8009003990198B9
:1010D000E04700F0C9B82968DDF80C8091F871206C
:1010E000002A14BF4FF0010A91F870A0B8F900C0AF
:1010F000029864460028C4BF08F1040BA6F1010E53
:101100000DDD00BFBBF900008442C8BF0446844522
:10111000B8BF84460BF1040BBEF1010EF2D1002AD8
:1011200004BF0CEB0701E01908D091F870000CEB3C
:10113000070292FBF0F1E21992FBF0F000F0A4F844
:1011400000287CD12A6892F8710000283CD1002E3A
:101150003ADDA8F10401881C16F0010F0ED08B882F
:1011600092F8702013FB02F221F8042F2B6882887A
:1011700093F8703012FB03F220F8042F731018BF9D
:101180002A6821D0B1F804C092F870401CFB04FC1E
:10119000A1F804C0B0F804C092F870401CFB04FC35
:1011A000A0F804C0B1F808C092F870401CFB04FC21
:1011B00021F808CFB0F808C092F870401CFB04FC7E
:1011C00020F808CF5B1EDDD109FB0AF307FB0AF20A
:1011D00031464046FFF760FB2A6892F8710070BB09
:1011E000002E3FDDA8F10400811C16F0010F10D085
:1011F000B0F9043092F8702093FBF2F220F8042F3B
:101200002B68B1F9042093F8703092FBF3F221F8C7
:10121000042F721018BF2B6824D000BFB0F904C08F
:1012200093F870409CFBF4FCA0F804C0B1F904C032
:1012300093F870409CFBF4FCA1F804C000E011E0BE
:10124000B0F908C093F87040521E9CFBF4FC20F8E3
:1012500008CFB1F908C093F870409CFBF4FC21F86A
:1012600008CFDBD1FFF7F8FE07F078F800287FF40D
:101270001BAF00BF02F06EFC07B0BDE8F08F0000AE
:10128000F8090020100A00202DE9F0412C4C0546F9
:101290000E462068002778B904F0B0F8E06100F04D
:1012A000CBF92060002808BF012705D02649254832
:1012B0000860084603F014FB002DB8BF0025711B21
:1012C000E069421E9142C4BF2844461EAE42BCBFE4
:1012D0002E460127DFF87480D8F80000C16E4A68F6
:1012E000A26321621B491A4A0A60C1662068E6604F
:1012F000C4E90105711B4A1C002103F03DFB16489F
:10130000810CC4E90401A061D8F80000028990F8BA
:10131000701012FB01F3114A1380438913FB01F390
:10132000538083895B1C4B435B1E9380C3895B1C8A
:101330005943491ED18042613846BDE8F081000022
:10134000600900208DD3000884090020F8090020DE
:1013500091B200089409002001C0FFFF8C09002011
:10136000C1B20C48006880F87010028912FB01F3CA
:10137000094A1380438913FB01F3538083895B1C63
:101380004B435B1E9380C089401C4843401ED08065
:1013900070470000F80900208C0900202DE9F04F6B
:1013A000DFF8B0C18FB0DCF800C0DDE918789CF838
:1013B000104014F0030444D0012C06D0022C7DD040
:1013C000032C1CBF0FB0BDE8F08F0446CDE90683A7
:1013D000CDE90A12DFF8808109974FF0000A002B4F
:1013E000DCBF0FB0BDE8F08F0027DDE90A055044EF
:1013F000069E0090022D12DB16F8019B07EB040BF2
:101400004FEA191258460099C04709F00F020BF134
:1014100001000099C047AD1EBF1C022DECDA25B1BA
:101420003078009902093819C047099906980AF1DD
:10143000010A0844069007988245D5DB0FB0BDE845
:10144000F08FCDE90210DCF8380016461D46D0F8C2
:1014500000B0DCF83C00D0F800A0404800685045DF
:1014600003D13E484068584520D0584604F0BAF8A9
:101470000190504604F0B6F8DFF8E490009001982F
:101480000124C9F80000DDE90001E2B203F07EFBAF
:1014900049F82400641C0F2CF5DB0098C9F83C00C7
:1014A000304804F077F82D48C0E900AB2E4806809C
:1014B00045808780C0F808802C4800E00BE029496F
:1014C0000078087101F10C00DDE902210FB0BDE8E0
:1014D000F04FFFF78FB9CDF81080CDE90A12DFF891
:1014E00090800446099707934FF0000A002BDCBF59
:1014F0000FB0BDE8F08F0027DDE90A055044049ED7
:101500000090022D13DB00BF16F8019B07EB040BC4
:101510004FEA191258460099C04709F00F020BF123
:1015200001000099C047AD1EBF1C022DECDA25B1A9
:101530003078009902093819C047099904980AF1CE
:10154000010A0844049007988245D4DB0FB0BDE837
:10155000F08F0000F8090020855C000838090020A1
:10156000E8F20020400900204C090020740A002005
:10157000CD5B0008002808BF704710B5044600F096
:1015800017FE204607F0B6FC044602F0E3FA2046B8
:1015900010BD38B5054600F00BFE2846FFF7EAFF00
:1015A000040009D000F0A2F82A460021009003F0C0
:1015B000E3F9684600F0F2F802F0CCFA204638BDB4
:1015C000024A106021F0030050607047E4F30020ED
:1015D000002808BF704770B5054600F0E9FD0E4CC5
:1015E000206B10F8351091B1022910D2042101EBC3
:1015F000C5068159486807F02FFC6068401C606090
:10160000206B216A8151002100F835102562BDE868
:10161000704002F09FBA000028F30020002808BFA5
:101620007047044A916B0160002918BF48609063BD
:101630007047000028F300202DE9F04104460BF02C
:10164000C3F9E01C284E20F00300051DF06BA842F2
:1016500088BF05460022B46BC4B100BF54F8041C17
:10166000A94210D19CB1206800281CBF616841606C
:10167000606800281CBF21680160B16BA14204BFF3
:101680002068B0632CE02468002CE7D11446B168D0
:10169000706B00EB010858F8040CA8EB00073868E1
:1016A00040B100200BF0EAFF58F8040CA8EB00074B
:1016B0003868A8B97868A84212DB3844401B041D7A
:1016C00038460BF0B1FFB0683946401BB060306956
:1016D000284430617868401B07F0BEFB44F8045C86
:1016E0002046BDE8F081000028F3002009498A69FE
:1016F000521C8A610A6B02EBC00213785B1C1370E8
:10170000002808BF7047096B042202EBC00008588C
:101710000830704728F3002010B500F049FD002480
:101720000BF052F91B4B1C490F2000BF01EBC0020C
:10173000126C0AB301EBC000006C8068002808BF7F
:10174000A4F10C000FD04268A24288BF1446806802
:1017500000281CBF80680028F5D100BFA4F10C0050
:10176000B0F5800F0DD983FB00204211C969A2EBAF
:10177000E07000FB01F409E0401EB0F1FF3FD5DC52
:10178000ECE7C9694843A3FB0010440902F0E2F901
:10179000204610BD1F85EB5128F300200A4902683E
:1017A0000B6B52F8082C03EBC2021378022B04D304
:1017B0008B69002B1CBF5B1E8B611178491E117059
:1017C000002101600846704728F30020002808BF68
:1017D00070470449042202EBC000096B0858083026
:1017E0007047000028F300202DE9F0012D24D3F8E4
:1017F00000C0B0F1004F34D000250028A8BF4FF042
:10180000000C07DA0CF101061E608CF80040404223
:101810004FF0010CA1EB0C01C9B2002A1CBF491EFC
:10182000C9B200291CBF234F234E3DD08C46491E10
:10183000C9B2944508D1D3F800C03C780CF1010836
:10184000C3F800808CF8004056F8214090FBF4FC6F
:101850000CF0FF0CBCF10A0F26D80CFB140081B968
:1018600009E00CF1010601251E606FF000408CF8C4
:101870000040491ED0E7002D1CBF0CF1010C0CF0FC
:10188000FF0CBCF10A0F03D1491C4FF0010CC9B287
:101890000CF13004D3F800C000290CF10108C3F8A2
:1018A00000808CF80040C1D1196800200870BDE8A4
:1018B000F0017047EC090020B4440508C2B2CBB275
:1018C000D21A002ABCBF524212B292B202FB02F3F9
:1018D000C0F30722C1F3072CA2EB0C02002ABCBF05
:1018E000524212B292B2000CA0EB114002FB023243
:1018F00000B20028BCBF404200B280B200FB002012
:10190000704700002DE9F041002182B0084600F048
:10191000C1FB00F04DFC042004F02CF98046154872
:10192000C068C16C006DA1F6FF76A0F6FF7501F6E8
:10193000FF7400F6FF77ADF80060ADF80440ADF835
:101940000250ADF80670684606F0D6FE48B13B4638
:1019500022462946304603F025FC06F0FFFC00280D
:10196000F5D1404604F006F902F0F4F802B0BDE803
:10197000F0810000EC0900202DE9F04182B01C4606
:1019800017460D46064600F013FC042004F0F2F85A
:1019900080461348C168C86C096D064407440D446D
:1019A0000C44ADF80060ADF80470ADF80250ADF82D
:1019B0000640684606F0A0FE48B123463A4629464E
:1019C000304603F0EFFB06F0C9FC0028F5D1404695
:1019D00004F0D0F802F0BEF802B0BDE8F0810000DB
:1019E000EC090020022BA4BF002070472DE9F04134
:1019F00006461C4615460F461C20FFF71DFE002814
:101A000008BFBDE8F081002F18BF07610BD10A4A5B
:101A100052F8241039B10A681AB111461268002A26
:101A2000FBD1096901618461858200210160416007
:101A3000C0E90216BDE8F081100A00202DE9F0414E
:101A400000241D46074688461646022B1FDA1C2036
:101A5000FFF7F2FDD8B1B8F1000F18BFC0F8108041
:101A60000BD1104A52F8251039B10A681AB1114643
:101A70001268002AFBD109690161856186820460D0
:101A80004460C0E90247040018BF00F011F8E068A4
:101A9000006820B90448006800EB85008465204692
:101AA000BDE8F081100A0020F8090020FFF7B6BD5C
:101AB00010B18269022A01DB0120704710B4234C67
:101AC00054F82210002908BF44F8220036D04B6891
:101AD00023B119465B68002BFBD191B3C3681B6827
:101AE000D1F80CC0DCF800C09C4503DD0968002972
:101AF000F6D127E029B3D1F80CC0DCF800C09C4532
:101B000004BFB0F814C0BCF1010F0DD1D1F800C072
:101B1000BCF1000F07D06146DCF80CC0DCF800C057
:101B20009C45F3DA00E061B14B68002B1DBF1860E3
:101B30004A68426044F822004860016010BC0020FE
:101B40007047FFE710BC012070470000100A00201A
:101B5000002808BF704730B4204C00BFD0F800C048
:101B6000002835D08569022D32DA54F82510002975
:101B700008BF44F825002BD04A6822B111465268AC
:101B8000002AFBD121B3C2681268CB681B6893425C
:101B900003DD09680029F8D11AE0C9B1CB681B68D8
:101BA000934204BF838A012B08D10B682BB11946DD
:101BB000DB681B689342F8DA00E049B14A68002A02
:101BC0001DBF10604A68426044F82500486001600B
:101BD0005FEA0C00C2D130BC70470000100A002040
:101BE0000B4A816952F82130834204BF036842F8EE
:101BF0002130416800291CBF02680A600168002981
:101C00001CBF42684A6000210160416070470000CB
:101C1000100A002070B40020144DDFF854C00246B2
:101C20004FEA00045CF82210D9B1CB681B68EB5C6A
:101C3000A3B18B695CF823608E4204BF0E684CF838
:101C400023604B68002B1CBF0E681E600B68002BC6
:101C50001CBF4E685E60C1E900040846096800299F
:101C6000E3D1521C022ADDDB70BC7047603F0508DF
:101C7000100A00200228A4BF00207047064951F82E
:101C80002000002808BF7047C168096800291CBFF0
:101C900000680028F8D17047100A002070B584B0A1
:101CA0001C4615460E46CDF80CD003AB002221464B
:101CB000FFF79AFD2A463146684600F08DF804B0D9
:101CC00070BD0000002808BF70472DE9F04F83B0B9
:101CD000054600F06DFA00F077F93E4C07462068A3
:101CE000B0F9226000F0A8F9216881468A8CA2EB45
:101CF00009008884287800281CBFA7F101080FFA82
:101D000086FA46D047F6FF71284602F06FFC8346FC
:101D10000146284602F030FC2168064691F82C0066
:101D200000F00300012808BF304605D0022812BF8A
:101D3000002006EBD67040104A8C101A4884ADF88B
:101D40000000721E1044ADF80400888CADF802004B
:101D50004044ADF806006A465946284602F030F97C
:101D60002168BDF8020088845946284601F0C2FD6A
:101D7000054428780A2818BF0D2817D0BDF80000A0
:101D8000216830444884287818B115F8010F0028DC
:101D9000B8D12068818C49448184818D21F0030170
:101DA000818501F0D7FE03B0BDE8F08F206890F880
:101DB0002C1001F00301012917BF0229A0F822A06D
:101DC000018C418429780A29DDD1818C39448184B0
:101DD000D9E70000F809002070B514460D46064604
:101DE00000F0E6F90548016830464D848C84FFF721
:101DF00069FFBDE8704001F0ADBE0000F8090020A9
:101E00002DE9F04F89B015460E46044600F0D0F992
:101E1000364F3868C16C006D0E440544ADF818604B
:101E20002088ADF81A503044401EADF81C00608880
:101E30002844401EADF81E0006A806F05DFC0028F0
:101E40001CBFDFF8ACB04FF0010A42D00020D4F83C
:101E50000C9001F0F1FB8046B9F1000F1BBF99F81F
:101E60000400002828F0020048F0020001F0E4FB22
:101E7000206970B1D4E902120091CDE9012ACDF8B0
:101E80000CA0D0F800C06388228829463046E0477D
:101E900018E03868DBF800302146427CE06898475B
:101EA000E0B1A288E388A168CDF800A0CDE90410D4
:101EB000CDE90232CDF804A0638822882946304655
:101EC00002F0CEFF404601F0B7FB06F047FA0028CB
:101ED000BCD101F03FFE09B0BDE8F08FE0880128D9
:101EE00012BF00203868806BDBE70000F809002093
:101EF000F009002070B5094E00250024306818B1A3
:101F00008047002818BF012405F0B6FD00280CBF4B
:101F1000002C0125F1D1284670BD0000180A0020D0
:101F2000034951F82000C1688A6A0821104700005F
:101F3000100A002010B500F03BF903F075F903F02A
:101F400051FB044601F006FE204610BD10B50446C4
:101F500000F02EF9054920460968C9694A68002140
:101F60009047044601F0F6FD204610BDF809002018
:101F700070B50C46054600F01BF9064A2146284676
:101F80001268D26952689047044601F0E3FD20468A
:101F900070BD0000F809002010B500F009F903F049
:101FA0004BF903F01FFB044601F0D4FD204610BDA1
:101FB00010B500F0FDF803480068047C01F0CAFD8C
:101FC000204610BDF809002010B500F0F1F80448D3
:101FD0000068C069447E01F0BDFD204610BD0000D0
:101FE000F809002070B514460D46064600F0E0F8EA
:101FF00022462946304603F0CDF910B10020286072
:102000002060BDE8704001F0A5BD000070B50C4631
:10201000054600F0CDF80648B0F9000028600548F4
:10202000B0F900002060BDE8704001F093BD0000F1
:10203000280A00202A0A002010B5002400F0B8F871
:102040000B48006890F82C1001F00C01042904D012
:10205000082918BF0C2907D103E0C069007E441E7F
:1020600002E0C069007E440801F074FD204610BD06
:10207000F8090020024951F8200000690068704703
:10208000100A0020024951F820000069406870479A
:10209000100A002070B50C46054600F089F8044887
:1020A00001684D8400258C8401F054FD284670BDE4
:1020B000F809002070B53348016821F00101016082
:1020C0003148012686603149016000683049884204
:1020D00000D0FEE72F480068C0F30B00A0F5806138
:1020E000193900D0FEE72C4DA86958B9AE6101F04E
:1020F0003BFD03F073FE05F11C002849016069698E
:10210000416068612E20287001F039FDE868244C98
:10211000011DC0E90E01091D00646161417C214877
:1021200050F82100C1680A6B04F1080190471E486D
:10213000E066A868E061E86808306061267605F02E
:102140009FFDA064032084F870006FF0704020634E
:102150006063002003F0ACFC6FF07F4003F0E2FC12
:1021600012482861FEF750FF0BF0B0FE0446002134
:10217000084601F0A3FA05F0A9FDFEF71BFF204673
:1021800070BD0000002000E000300240C2A507F44E
:10219000CDB5E8B5002004E0EC090020FDD300082F
:1021A000F0F30020100A0020583F0508DC44050821
:1021B00070B5204CE06820B101F0DFFC6168884216
:1021C00004D001F0F5FC01F0D8FC6060E068401C30
:1021D000E060012818BF70BD0025A06800280CDD54
:1021E00001F0CBFC216901EBC5110968814205D0E2
:1021F000D9B1A0686D1CA842F2DC00252068854298
:1022000008BF70BD00280EDBFFF704FD22682169BE
:1022100001EBC212D067084A01EBC510011D116025
:10222000C06FFFF795FC256070BD216901EBC511FA
:102230000860E3E7800A0020F8090020002808BFB2
:10224000704738B50446FFF7B3FF2046FFF74EFA54
:1022500040F6FF7100908180C18049420181418137
:102260006846FFF79BFA01F075FC38BD30B51D4894
:1022700083B000220068437C1B4850F823000169AA
:102280001A48FFF7AFFB050004BF03B030BD1820AC
:10229000FFF77FF904001FD0FFF78AFF2046AC60EC
:1022A000FFF724FA00900560FFF782FF2046FFF752
:1022B0001DFA40F6FF7101908180C1804942018181
:1022C000418101A8FFF76AFA01F044FC6846FFF774
:1022D00065FA01F03FFC02E02846FFF7E7FB03B098
:1022E000204630BDF8090020100A0020904D050856
:1022F00038B504460E480068006EA04208BF01F0E1
:102300005FF9FFF755FF2046FFF7F0F900900568E9
:102310006846FFF743FA2046FFF75AF92846FFF7C9
:102320005FFC2846FFF7C2FB01F014FC38BD00003B
:10233000F8090020002808BF704738B50C4605464C
:10234000FFF736FF74B12846FFF7D0F90090818877
:102350002180C18861800189A1804089E080684630
:10236000FFF71CFA01F0F6FB38BD000038B5040099
:1023700018D005F081FA0D4D28680466FFF718FFA4
:102380002046FFF7B3F900900068FFF791FB29683A
:10239000002048616846FFF701FA01F0DBFB03F01B
:1023A000B3FB38BD01F00CF938BD0000F80900207E
:1023B00010B582B0040006D10F480068046E002CEE
:1023C00004BF02B010BDFFF7F3FE2046FFF78EF901
:1023D000009044696846FFF7E1F94CB12046FFF7E9
:1023E00085F9019081688968884701A8FFF7D6F9C7
:1023F00001F0B0FB02B010BDF809002001490A4607
:1024000000F002B801F0FFFF002808BF70472DE977
:10241000F04784B015460C468146FFF7C9FE002000
:1024200001F00AF9354E80463068076E4846FFF7DE
:102430005DF902900068806901F0D0F8824640F6AC
:10244000FF70001904D10298B0F90440B0F90650A9
:102450000298ADF800400189ADF802502144491EB0
:10246000ADF8041040892844401EADF8060005F080
:102470000BF902A8FFF792F9684606F03DF940B162
:102480002A462146484600F0D3FB05F067FF0028A6
:10249000F6D1504601F0A2F83C46FFF789FE3068BD
:1024A000006EF4B1002818BF01F08AF805F0E4F9D5
:1024B0002046FFF71BF9014603903068026E002AA0
:1024C00004BFD0E90223C0E9192304660868FFF7B6
:1024D000EFFA03A8FFF762F903F06EFC03F014FBB8
:1024E00001E001F06DF801F035FB404601F0A4F881
:1024F00001F030FB04B0BDE8F0870000F8090020CF
:1025000001210174002070472DE9F04F83B01F4670
:102510009046894682464FF0000B0C9EFFF748FE1E
:1025200018480068417C184850F82140E06800686D
:10253000042803D02468002CF8D100E01CB9084618
:10254000FFF798FB04460121E068C26A20469047E5
:10255000050011D02469A0688047401C04BF0B4CC3
:1025600046F001063B460096CDE9015442464946F5
:10257000504600F033FA834601F0ECFA03B05846B7
:10258000BDE8F08FF8090020100A0020CC4D0508A6
:10259000002808BF704738B50446FFF709FE0E480B
:1025A0000068006EA04208BF01F00AF82046FFF75D
:1025B0009DF800904069002818BF01F0B4FA009817
:1025C0000068FFF773FA6846FFF7E8F82046FEF761
:1025D000FFFF01F0BFFA38BDF80900202DE9FF4FD9
:1025E00083B0DFF83091DDF840B09A460F46060020
:1025F0002ED002A901A8FFF709FDB6F90050002D61
:10260000B8BF0025B6F90240002CB8BF0024B6F9C7
:102610000480D9F80000407C02F0E1FE01990844F2
:10262000401E8045C8BF8046B6F90660D9F8000054
:10263000407C02F0FCFE02990844401E8642C8BF5E
:102640000646A8EB050000F10108301B461C0DE012
:10265000D9F8000000252C46407C02F0C0FE8046E0
:10266000D9F80000407C02F0E2FE0646BAF1000F05
:1026700008BFC6F1000AB8F1000FCFBF002E00203E
:1026800007B0BDE8F08F5346424621462846CDF8B4
:1026900000B0FFF739FF5FEA000A34D000F0C4F859
:1026A0008146504600F002F9DFF86CB04FF00008A8
:1026B000A6EB08014945BCBF504600F0D9F8B8F177
:1026C000000F08D004EB08022946504600F01CF920
:1026D0005046FFF76DFE0598B847DBF8001000295B
:1026E0001CBF002088475046FFF788FEC844B0450D
:1026F000DEDB5046FFF74CFF002000F0D7F807B0B4
:102700000020BDE8F08F0598B84707B00120BDE86C
:10271000F08F0000F8090020A00A00202DE9FF4FEB
:1027200081B016460D460446FFF7A0FD0090002834
:1027300046D0FFF71BFE4FF0010885F80180207C92
:10274000A0B185F800800498B04721460098FFF7B3
:10275000F1FD0098FFF772FD002028700498B04743
:1027600004F108010098FFF7E5FD19E00498B0476F
:1027700021460098FFF7DEFD2146B4F800B0B4F81A
:1027800004A0B4F80290E78804F10802084600F0BB
:1027900019FEA4F808B0A4F80CA0A4F80A90E781E8
:1027A0000098FFF7A5FD00276F7085F800803B4675
:1027B000CDF8008031462046049AFFF70FFF18B18C
:1027C00005B00120BDE8F08F2F70277405B0002000
:1027D000BDE8F08F38B505004FF0000411D0FFF7C9
:1027E000E7FC2846FEF782FF0090006800698068D9
:1027F000804703F031FD04466846FEF7CFFF01F045
:10280000A9F9204638BD38B50446FFF7D1FC20466B
:10281000FEF76CFF00F1180400906846FEF7BEFF5B
:1028200001F098F9204638BD38B504460025FFF779
:10283000BFFC1CB908480068046E44B12046FEF78E
:1028400055FF0090B0F90A506846FEF7A7FF01F067
:1028500081F9284638BD0000F809002010B506F0BF
:1028600093FF002808BF10BDBDE8104000F084B8F9
:1028700038B50C46050005D10B480068056E002DE3
:1028800008BF38BDFFF794FC2846FEF72FFF0090E5
:10289000B0F90A10A142B8BF0C4644816846FEF761
:1028A0007DFF01F057F938BDF8090020F8B504465E
:1028B000FFF77EFC134E3068056EECB1002D18BF9B
:1028C00000F07EFE04F0D8FF2046FEF70FFF0090D8
:1028D00031680A6E002A04BFD1E90223C1E9192335
:1028E0000C660068FFF7E4F86846FEF757FF03F050
:1028F00063FA03F009F901E000F062FE01F02AF941
:102900002846F8BDF809002070B582B015460E467D
:10291000040006D117480068046E002C04BF02B002
:1029200070BDFFF745FC2046FEF7E0FE2DB200909B
:10293000C58034B2848003F0E7F80098406988B11C
:10294000FEF7D4FE009A0190B2F908108180B2F926
:102950000A20C28000291EBF002A0480458001A8E9
:10296000FEF71CFF6846FEF719FF01F0F3F802B00E
:1029700070BD0000F809002070B584B0060004BFE7
:1029800004B070BDFFF714FC3046FEF7AFFE0290B6
:10299000B0F90450B0F90640ADF800500189ADF827
:1029A00002402944491EADF8041040892044401ECD
:1029B000ADF8060002A8FEF7F1FE684605F09CFEA1
:1029C00040B122462946304600F018F905F0C6FC11
:1029D0000028F6D101F0BEF804B070BD2DE9FF4F1C
:1029E000DFF8F4B083B01C46DBF80000DDE9107CB2
:1029F00092460026437C324660461299FEF7F2FF6B
:102A0000050065D028698068804703F025FC814671
:102A10000AFB09F0C01D4FEAD008FEF77DFE17F053
:102A2000010F05D1C11700EB9170801000EB400041
:102A3000002C06DC1838B0FBF8F06442A042D8BF86
:102A4000044617F0010F08D100200090DDE90301D2
:102A50002346524600F0D2FF0646002C06DC2846EC
:102A6000FFF724F807B00020BDE8F08F04FB08F062
:102A7000183017F0010F02D0FEF77CFD01E0FEF7E1
:102A800088FD07001CD0FEF731FE01900560039918
:102A900081800499C180A0F808A04481C0F80C800E
:102AA000C0E9049601A8FEF779FE1298AF6028618C
:102AB000DBF80000407CA86107B03846BDE8F08F25
:102AC0002846FEF7F3FF002E1CBF3046FEF780FDC0
:102AD000002007B0BDE8F08FF80900202DE9F74F7E
:102AE0008CB015460C98FEF701FE0990B0F908402D
:102AF000B0F90A10089100680069D0F8049009A89C
:102B0000FEF74CFE3A4E3B4F3068407C57F82000B1
:102B1000C1688A6A082190470790182824BF20209E
:102B200007903068407C57F8200000690690D0E993
:102B300000613148814214BF012000200A9000202A
:102B400001F050F800280EBF00270FB0BDE8F08F4D
:102B5000B846DDE90C0B7F1C0DF12C0AFFF753FE84
:102B600004FB08F100EB8102CDE9009A23462946D7
:102B7000584601F0F3FA5FEA000B04BF0FB0BDE85E
:102B8000F08F0A98E0B1DDE906322146584601F09F
:102B900015F9A8B90698A246D846D0F810C0BCF1DD
:102BA000000F05D05946042322460846E04707E0B7
:102BB000D8F80000B04748F8040BBAF1010AF7D181
:102BC00000200799CDE90210CDE904B00120009062
:102BD0002946034601906D1C22460D9802F040F9EB
:102BE0000898401E0890B3D10FB0BDE8F08F0000E8
:102BF000F8090020100A002073560008F8B51546A1
:102C00000E460746FEF772FD009000681621C06868
:102C1000436A0020984704466846FEF7BFFD002C33
:102C200008BFF8BD2A4631463846A047F8BD000027
:102C30002DE9F04FA1B092460F460646FEF756FD2D
:102C40001890D0F814B018A8FEF7A8FD3046FFF78A
:102C5000C1FDFE4D4FF000094FF00108082803DDCB
:102C6000BBF1000F00F0F981F949CDF834A0D1E9AA
:102C70000001CDE91A013046FEF738FD0F90446996
:102C8000C168179101691291B0F908100C91B0F95F
:102C90000A000B902868407CFFF742F91D900F98BE
:102CA00000680069406815902868407CFFF7EAF9E1
:102CB00083460FA8FEF772FD129908299CBF0120D8
:102CC000119004D9102994BF0220042011900129E9
:102CD0000CBF0DF1680A4FF0000A1D98082828BFA4
:102CE000082940F201811598584500F0FD802868B8
:102CF000407CFFF7BFF91E900C988000FEF73AFC6D
:102D00001C90002804BF21B0BDE8F08F3046FFF7CB
:102D10007AFD0790002C00F0D1802046FEF7E6FCFB
:102D2000199000200A900B9800287DDD19984FF02B
:102D3000000BCDF824B081680A9A4B6909A998471D
:102D40000C990446884235D11C98FEF7CFFC1690AA
:102D500005461D98079EDDF85490DDF878800294B2
:102D60000390049536F8020BC847C04745F8040B9A
:102D7000641EF7D10398202804D2024602990498D1
:102D800000F052FF1D981699CDE9020B012000902A
:102D9000CDE9041A01900A990D980123014438469F
:102DA0000C9A02F05DF816A8FEF7F8FC0799179840
:102DB000084450E01298012859D0002C48D00A99B4
:102DC0000D98084413901C98FEF790FC1690054649
:102DD000099A11990798DDF8789002FB01061D9871
:102DE0000190DDF854B0A046CDF8105036F8020B33
:102DF000D847C84745F8040BB8F10108F6D1019847
:102E0000202804D202462146049800F00DFF00203D
:102E10001D99169ACDE9021001200090CDE9042AEF
:102E200001900998384400E01DE0012322461399DF
:102E300002F016F816A8FEF7B1FC09980A9A204489
:102E40000990199881684B6909A998470400BAD17B
:102E500017990798084407900A980B99401C0A9004
:102E60008842FFF663AF19A8FEF798FC36E0002C05
:102E7000EED00A990D98012546180998079900F097
:102E8000070201EBE0031799CDE90313CDE905A291
:102E900012990095CDE9015138440123224631466B
:102EA00003F0DCF809980A9A20440990199881687F
:102EB0004B6909A998470400DFD1C9E7CDF814A0F0
:102EC000129A1799CDF80080CDE90310CDE901825F
:102ED000DDE90C2138460B9B01F0C2FF1C98FEF780
:102EE00077FB21B0BDE8F08F3046FFF78CFC05463C
:102EF000002C72D02046FEF7F9FB19900B980026A3
:102F0000002864DD1998CDF82490324681684B6919
:102F100009A998470C99044688422AD11998B346C2
:102F2000721C81684B6909A99847A04208D1199879
:102F3000761C721C81684B6909A99847A042F6D09B
:102F400017981299CDE90210CDF800800D98CDE9BF
:102F5000045AA6EB0B0400EB0B01631CCDF80480B4
:102F600038460C9A01F07CFF1798611C01FB005554
:102F700029E01298012831D0002C1CBF0D9800EBDD
:102F8000060B1ED011990998129B00FB015217994C
:102F9000CDF80080CDE90231CDE9042A3844CDF8DE
:102FA000048001232246594601F05AFF099832460F
:102FB00020440990199881684B6909A99847040031
:102FC000E0D1179805440B98761C86429ADB19A825
:102FD000FEF7E4FB21B0BDE8F08F26E0002C1CBF1B
:102FE0000D9800EB060BECD00998179B00F0070139
:102FF000CDE905A105EBE002CDE903321299CDF848
:103000000080CDE90181384401232246594603F06E
:1030100025F80998324620440990199881684B692F
:1030200009A998470400DFD1CBE717981299CDE999
:103030000210CDF80080CDE9045ADDE90C21CDF86D
:10304000048038460B9B01F00BFF03E0F8090020D9
:10305000C44D050821B0BDE8F08F039604460C97D7
:1030600056460398FEF742FB0890B0F90AA0C168E3
:103070001830CDE901012868407CFEF751FF08288F
:1030800098BF012703D9102894BF02270427089866
:1030900001680A6911922968BC4A497C52F82110DA
:1030A000119A09690A91D2F804B00D688A4212D1C6
:1030B000DDE90112CDF81490CDF80080CDE90321AF
:1030C000CDE90184B0F90820534631460C9801F04F
:1030D000C7FE00F053B9202C03D0102C7ED000F096
:1030E0004DB9B0F9084008A8FEF758FB07FB04F0FB
:1030F000FEF740FA1490002800F04081FEF7F6FA3F
:1031000012900398FEF7F2FA00F118044FEAC70B89
:1031100008900898012FB0F9088004D0022F1BD026
:10312000042F4AD131E00A98DDF84890D0F810C059
:10313000BCF1000F07D00123424649462046E04734
:1031400004EB880439E054F8040BA84709F8010B94
:10315000B8F10108F7D130E00A98DDF84890D0F8CE
:1031600010C0BCF1000F07D002234246494620465A
:10317000E04704EB880420E054F8040BA84729F842
:10318000020BB8F10108F7D117E00A98DDF8489072
:10319000D0F810C0BCF1000F07D0042342464946C6
:1031A0002046E04704EB880407E054F8040BA847E6
:1031B00049F8040BB8F10108F7D112990020CDE9C4
:1031C0000301059001200090CDE9010B08983146DC
:1031D000761CB0F9082001230C9800E005E001F00E
:1031E0003FFEBAF1010A94D1C2E0B0F9084008A844
:1031F000FEF7D4FA07FB04F0FEF7BCF914900028A0
:103200007ED0FEF773FA12900398FEF76FFA00F182
:1032100018040890B0F908008000FEF7ABF915908B
:1032200010B1FEF763FA0790F80016900898012F86
:10323000B0F9088004D0022F2AD0042F79D14FE0B2
:103240000A98DDF848900069C0B11198D0F814C010
:10325000BCF1000F1CBF159800280FD00223424676
:1032600020460799E0470A9801234246D0F810C04B
:1032700049460798E04704EB48045AE034F8020B4B
:10328000D847A84709F8010BB8F10108F6D150E07A
:103290000A98DDF848900069C0B11198D0F814C0C0
:1032A000BCF1000F1CBF159800280FD00223424626
:1032B00020460799E0470A9802234246D0F810C0FA
:1032C00049460798E04704EB480432E034F8020B23
:1032D000D847A84729F8020BB8F10108F6D128E031
:1032E0000A98DDF848900069D0B11198D0F814C060
:1032F000BCF1000F1CBF1598002811D0022300E07C
:103300003CE0424620460799E0470A98042342469B
:10331000D0F810C049460798E04704EB480408E09D
:1033200034F8020BD847A84749F8040BB8F1010854
:10333000F6D10020129A1699CDE90210CDE90420A9
:1033400001200090019008983146761CB0F90820C1
:1033500001230C9801F084FDBAF1010A7FF466AFF5
:10336000159828B107A8FEF719FA1598FEF730F955
:1033700012A8FEF713FA1498FEF72AF90898002805
:1033800018BF08A87FF424AE5FE60000100A0020F2
:10339000094A1268002A18BF0020084A52F8203053
:1033A000002BB8BF7047064B43F820104FF0FF3199
:1033B00042F82010704700002C0A0020480A002024
:1033C000300A0020002808BF704709B32AB3B1F9BA
:1033D00000C0B2F900309C45B8BF63460380B1F924
:1033E00002C0B2F902309C45B8BF63464380B1F9D0
:1033F00004C0B2F904309C45C8BF63468380B1F96C
:103400000610B2F906209142D8BF1146C18070471C
:10341000116852680160426070470A68496802603A
:1034200041607047002808BF704703880B44038041
:10343000838819448180418811444180C1881144A6
:10344000C180704710B50024FEF7B2FE0A4BD3E9E5
:10345000002082420BD0DFF824C0D2E9000162458F
:103460000CBF074A08321A6004F056FD012400F030
:1034700071FB204610BD0000080B0020E8F400207E
:1034800098F4002070B51A4C82B02468DDE9066C0F
:10349000B4F908508542C8BF2846B4F90C5095428B
:1034A000B8BF2A468242BCBF02B070BDB4F90A5010
:1034B0008D42C8BF2946B4F90E409C42B8BF23468E
:1034C0008B42BCBF02B070BDDCF80C402468002CFD
:1034D00018BF042C05D0DCF80040002C18BFA4460F
:1034E000F2D1CDE9006C02F0DDF902B070BD000050
:1034F000F8090020B0F90220B1F906309A4213DC35
:10350000B1F90220B0F906309A420DDCB0F9002082
:10351000B1F904309A4207DCB1F90010B0F90400A7
:103520008842A4BF0120704700207047014602482E
:1035300078220068FCF7AABEF8090020DFED1A0A1D
:103540002DE9F04120EE200ADFED180A0446164668
:1035500080EE201A0D46BDEEC10A10EE108A4046DC
:1035600000F0E6FC0746404601F0C2F9002EC6BF57
:10357000AB1CA11CBDE8F08135F9042B33F904CB59
:1035800002FB07F80CFB00880CFB07FC02FB10C2D7
:103590004FEA2848121424F8048B21F8042B761ED5
:1035A000EAD1BDE8F081000000C82F48DA0F494099
:1035B000024978220968FCF769BE0000F80900207A
:1035C00010B5FEF7F5FD02F051FA02F0F5FB04F03C
:1035D0005BF8BDE8104000F0BDBA000070B5094DC1
:1035E00004462868467CFEF7E3FD022C03D22868D7
:1035F0004474FFF7E5FF0448046000F0ABFA30467E
:1036000070BD0000F8090020AC0A002010B5044687
:10361000FEF7CEFD204602F04BFABDE8104000F068
:1036200099BA10B50446FEF7C3FD204602F07AFAB7
:10363000BDE8104000F08EBA10B50446FEF7B8FDA4
:10364000204602F097FA044600F084FA204610BDA6
:1036500070B50446FEF7ACFD0448002C0068C5694F
:1036600018BFC46100F076FA284670BDF809002042
:103670000149C86170470000BC0900200149486049
:1036800070470000EC090020014908607047000005
:10369000BC0900200149486070470000BC090020B7
:1036A00070B50446FEF784FD03480068857E847685
:1036B00000F050FA284670BDF809002070B50C469D
:1036C0000546FEF775FD0948224605800848048036
:1036D00008480068417C084850F82100C1680B6A1E
:1036E00029469847BDE8704000F034BA280A002007
:1036F0002A0A0020F8090020100A002070B50446AC
:10370000FEF756FD03480068057E047600F022FAB5
:10371000284670BDF809002070B50446FEF748FD44
:1037200004480068B0F92C50848500F013FA28464C
:1037300070BD0000F809002070B50446FEF738FDA2
:1037400004480068B0F92A50448500F003FA28467E
:1037500070BD0000F809002002480068002808BF7A
:1037600070470047140B002003498A68002A08BFED
:103770008860FFF7F1BF0000080B0020002808BF99
:10378000704770B584B00446FEF712FD294E3068CC
:10379000A04218BF054606D1FDF7A8FF009080683B
:1037A0003060684610E02846FDF7A0FF0190806871
:1037B000A04219D1FDF79AFF0199009080688860B6
:1037C0006846FDF7EBFF01A8FDF7E8FF4CB3204684
:1037D000FDF78CFF00907568A5420AD140687060C3
:1037E0006846FDF7DBFF1CE0054601A8FDF7D6FFA4
:1037F000D9E79DB12846FDF779FF01904568A542BC
:1038000007D1009801994068486001A8FDF7C6FFFC
:1038100004E001A8FDF7C2FF002DEBD16846FDF7DB
:10382000BDFF2046FDF7D4FE04B0BDE8704000F0B7
:1038300091B90000480B002038B50C46050008BFC0
:1038400001240FD0FEF7B4FC2846FDF74FFF00908F
:103850008089204214BF012400246846FDF79EFFA2
:1038600000F078F9204638BD38B5044600202060C5
:103870000648056845B12846FDF738FF0090006905
:1038800020606846FDF78AFF284638BD480B0020B7
:1038900038B504004FF000000D46086011D02046F6
:1038A000FDF724FF0090846844B16846FDF776FF79
:1038B0002046FDF71BFF0090006928606846FDF771
:1038C0006DFF204638BD00002DE9F041084E04464A
:1038D00005683068016828468847074630684168AF
:1038E00028468847284420603846BDE8F08100001B
:1038F000FC0900202DE9F04100244D1E0646002958
:1039000018BF064F07D038684168304688470644DC
:1039100004446D1EF7D22046BDE8F081FC0900206A
:103920002DE9F0411F46069D14468846064622466C
:10393000B068641C3B46D0F804C041463046E047BE
:103940006D1EF4D1BDE8F08170B5B0F900C0A1EBF7
:103950000C01B0F904C08C45D8BF70BD00F1140C47
:10396000B0F902400069121B02FB00C000EBE10449
:10397000C818421ED010B0EBE1004FF0FF0302F078
:103980000702C2F1070201F0070103FA02F223FA6B
:1039900001F1D5B210D02278461E114304F8011B64
:1039A000002E05DDFF2231462046FCF78FFC344413
:1039B00020782843207070BD207829400843F9E71B
:1039C000B0F90030B0F902C0C91A00F1140300695F
:1039D000A2EB0C0202FB003000EBE10001F007015A
:1039E0000278802323FA01F1114301707047B0F986
:1039F0000610026951431430FCF76FBC2DE9F843FF
:103A0000804602F10F000011460003FB06F01C4641
:103A100015460F461430FDF7BCFD5FEA000908BFEC
:103A2000BDE8F883FEF7C4FB4846FDF75FFE009053
:103A3000A0F8008047808580C4800649816001210C
:103A4000818106616846FDF7A9FE00F083F84846CB
:103A5000BDE8F883584E050830B4B0F90650B0F907
:103A600004400B6800F1140C954220DD00699C4273
:103A700002FB00C000EBE30C19DD601EC010A0EBE0
:103A8000E3041CF8010B03F00702904010F0FF0064
:103A900009D164B11CF8010B641E03F1080222F085
:103AA00007030028F5D010F0800F09D102E030BCE8
:103AB000002070474006000E5B1C10F0800FF9D00C
:103AC000FF2808BFDA1D0CD01A4610F0400F08D0AE
:103AD0004FEA40604FEA106002F1010210F0400F1F
:103AE000F6D10720904312D1641E10D41CF8010BAC
:103AF000FF2813D010F0800F09D000BF4FEA4060BC
:103B00004FEA106002F1010210F0800FF6D10B6055
:103B1000A2EB030030BC00F10100704702F1080283
:103B2000641EE3D5F3E738B50546FEF741FB2846AA
:103B3000FDF7DCFD00908189491E0CB28481684646
:103B4000FDF72CFE002C04BF2846FDF741FD00F0D8
:103B500001F838BD0348C168491EC16018BF7047ED
:103B600000F036B8800A00204FF480110148FDF7BC
:103B700027BD0000000050D070470AF04DBF7047CD
:103B800010B501200AF0EEFC084C03220021206051
:103B900001200AF009FD6060002806D00023BDE87E
:103BA00010401A4619460AF0CDBD10BD4000002055
:103BB00010B5064C206808B9FFF7E2FF0023206823
:103BC000BDE810405A1E19460AF00FBD4000002003
:103BD000034800231A46194600680AF0B3BD0000E6
:103BE0004000002000B583B0002814BF02AA0022C4
:103BF000002301A9684600F073FC03B000BD00007B
:103C0000084910B5CC68002814BF01200020C86006
:103C100014BF4FF0FF306FF07F4000F0C7FF204629
:103C200010BD0000280B002030B4082A20DC034619
:103C3000012A4CD0022A7DD0042A00F0AD8001294F
:103C4000D8BF0121181F5A1E11F0010F03D010F820
:103C5000043F02F8013F491007D00379537010F870
:103C6000083F02F8023F491EF7D130BC01207047DF
:103C7000102AC2BF002030BC70470222022AF4D1B1
:103C80000129CABFA1F1010C0121BCF1000F16DD11
:103C9000021F831E11F0010F03D132F8044F23F8E5
:103CA000024F54685FEA6C0C09D000BF32F8085F1D
:103CB0005C80546823F8045FBCF1010CF6D1491E06
:103CC0000029A4BF30F8212020F81120CDE710F8FA
:103CD000042BD207120E491E37D010F804CB491E10
:103CE0000CF0010C42EA8C122FD010F804CB491EC4
:103CF0000CF0010C42EA4C1227D010F804CB491EFC
:103D00000CF0010C42EA0C121FD010F804CB491E33
:103D10000CF0010C42EACC0217D010F804CB491E7B
:103D20000CF0010C42EA8C020FD010F804CB0CF01E
:103D3000010C00E00EE042EA4C02491E05D010F8EA
:103D400004CB0CF0010C4CEA020203F8012B002911
:103D5000BDD18AE710F8042B9207120E491E16D027
:103D600010F804CB491E0CF0030C42EA0C120ED0E2
:103D700010F804CB491E0CF0030C42EA8C0206D06A
:103D800010F804CB491E0CF0030C4CEA020203F8B5
:103D9000012B0029DED168E710F8042B1207120E60
:103DA000491E06D010F804CB491E0CF00F0C4CEA4B
:103DB000020203F8012B0029EED156E72DE9F0416C
:103DC0001E680D460446082A0ADC8046012A22D0D5
:103DD000022A62D0042A7DD0082A40F0A68092E010
:103DE000102AC4BF0020BDE8F0810220022853D170
:103DF000D3F810C02746BCF1000F04D00A46214674
:103E00000223084688E054F8040BB04727F8020B59
:103E10006D1EF8D189E054F8040BB047C007070EB7
:103E20006D1E35D054F8040BB04747EA8010C7B276
:103E30006D1E2DD054F8040BB04747EA4010C7B2AE
:103E40006D1E25D054F8040BB04747EA0010C7B2E6
:103E50006D1E1DD054F8040BB04747EAC000C7B22E
:103E60006D1E15D054F8040BB04747EA8000C7B266
:103E70006D1E0DD054F8040BB04747EA4000C7B29E
:103E80006D1E05D054F8040BB0473843C7B26D1E01
:103E900008F8017B002DBED147E054F8040BB04771
:103EA0008007070E6D1E17D054F8040BB04747EA81
:103EB0000010C7B26D1E0FD054F8040BB04747EA8C
:103EC0008000C7B26D1E07D054F8040BB0473843CA
:103ED000C7B200E005E06D1E08F8017B002DDCD1C3
:103EE00023E054F8040BB0470007070E6D1E05D001
:103EF00054F8040BB0473843C7B26D1E08F8017B75
:103F0000002DEED111E0D3F810C0BCF1000F05D0A8
:103F10000A46014601234046E04706E054F8040BF8
:103F2000B04708F8010B6D1EF8D10120BDE8F08103
:103F300000F5A83010B400F579600028BABF4FF042
:103F4000FF31404201211B4A90FBF2F302FB1300B8
:103F500052109042C2BF4942A0F52830A0F5F95056
:103F6000154A9042C4BFC0F5F95000F528304FF40F
:103F70007A7390FBF3F26FF07C0C02FB0CFC00EB0D
:103F8000CC005A2AA8BF4FF480300DDADFF82CC0DD
:103F90000CEB82045CF822206468A4EB020C0CFB9E
:103FA00000F0B0FBF3F010440029D8BF404210BC31
:103FB00070470000407E0500905F010048430508FF
:103FC0002DE9F04306466148DFF88481614C0068C2
:103FD000614D85B00F46002843D0002004F08CFBD3
:103FE000002804BF05B0BDE8F083E946CDE90276BC
:103FF000D8F8002002A93046904703902068406915
:1040000018B14946FFF776FA20B3012000F066FBAD
:104010002068C069406920B18268DDE902109047DC
:1040200015E00298401E029011D403A8FFF74CFC43
:1040300081462068C0690168484688472968002988
:104040001CBF484688470298401E0290EDD50020CC
:1040500000F044FB04F082F90028C6D105B0BDE8A9
:10406000F08351681068CDE900012068BDF80010A8
:10407000B0F84C201144ADF80010BDF80210B0F8B3
:1040800050201144ADF80210BDF80410B0F84C20D7
:104090001144ADF80410BDF80610B0F85000084403
:1040A000ADF80600684604F027FB002840D000BFAA
:1040B0002068BDF80010E9464184BDF802108184F3
:1040C000CDE90376D8F8002003A930469047049044
:1040D0002068406918B14946FFF70CFA20B3012067
:1040E00000F0FCFA2068C069406920B18268DDE90F
:1040F0000310904715E00398401E039011D404A8C4
:10410000FFF7E2FB81462068C06902684846904795
:10411000296800291CBF484688470398401E039021
:10412000EDD5002000F0DAFA04F018F90028BFD12C
:104130002068418CB0F84C20891A4184818CB0F8F9
:104140005020891A818405B0BDE8F083240A00203C
:10415000040B0020F8090020200A00202DE9FF4F61
:1041600000208BB007460146009019981E469346E2
:10417000016008AB002203A902A800F0B1F90028F1
:104180001EBF00200FB0BDE8F08F08988642C8BF60
:104190000646754C75492068407C51F82010059101
:1041A00009690691FDF7BCFE04902068407CFDF78C
:1041B00069FF81466E4881451BBF6E4881450020DE
:1041C000012009900B998819CDF81C0018995BF80B
:1041D000040B884782465FEA106800F0B6800098BA
:1041E000002838D10B98C5195F480068B0F908005D
:1041F000A842C6BF441B054600240299059801EB5E
:10420000870101EB8401CDE9001007980C9B421E49
:1042100019462846FFF736F901200090049818281F
:104220000ADA0298311B00EB870000EB8400069B42
:10423000049A00F0A3F80EE0099860B1029800EB30
:10424000870000EB84040798451B2068C84744F8A2
:10425000040B6D1EF9D14848C06978B3DDE9020549
:1042600000EB870005EB8702CDE90202DFF808C109
:10427000ABF104043346DCF81CC020460299E04749
:10428000012ED8BF01264FF07F42DDE902012368ED
:1042900032EA030C04BF03680B6005D0D0F800C0FD
:1042A00032EA0C0C08BF0B60241D001D091D761E90
:1042B000EDD1199901200395086050E0FFE70298BD
:1042C000B8F1FF0F50F8270004BF039941F8270009
:1042D00041D04FF07F42C8F1FF0132EA00032DD0F8
:1042E0000AF0FF0313FB01F30AF47F4C0AF47F0486
:1042F00008FB01F50CFB01FC4C43C1F1FF0100F090
:10430000FF0818FB013300F47F4808FB01CC00F4E0
:104310007F0808FB0144000E10FB0151100C00EA5D
:104320001C20C3F307234FF47F0C0CEA142C184312
:1043300002EA014140EA0C0040EA010A039840F811
:1043400027A019990120086005E00398012140F891
:1043500027A0199801607F1C761E7FF437AF039861
:104360000FB0BDE8F08F0000F8090020100A00200F
:104370007356000871560008BC0900200029D8BFF8
:1043800070472DE9F05F0C465F6800EB8406082A51
:1043900015DC611E012A34D0022A55D0042A7AD0B5
:1043A000082A0CBF0519BDE8F09F00BF15F8010DE4
:1043B000B84746F8040D641EF8D1BDE8F09F102AF6
:1043C000C8BFBDE8F09F0221022918BFBDE8F09FD9
:1043D000D3F814C0BCF1000F08BF00EB440507D0B0
:1043E0002246BDE8F04F022301465DF804EB60472A
:1043F00035F8020DB84746F8040D641EF8D1BDE843
:10440000F09F00EBE108351F01F0070618F801A93D
:10441000802020FA06F900BF0AEA0900C6F1070168
:10442000C840B84745F8040946B14FEA4960761ECE
:104430004FEA1069641EEFD1BDE8F09F18F801A99A
:1044400007264FF00109F5E700EBA105A6F10409E5
:1044500001F00306700015F801A9C02121FA00F847
:104460004FF0060B0AEA0801ABEB460021FA00F018
:10447000B84749F804094EB14FEA8860761E4FEA02
:104480001068641EEED1BDE8F09F04E0032615F825
:1044900001A9B046F5E700EB6108012020EA040518
:1044A000A800A6F1040918F801A9F02121FA00F6E4
:1044B0004FF0040B0AEA0600ABEB8501C840B84791
:1044C00049F8040935B16D1E3007060E641EF1D19E
:1044D000BDE8F09F012518F801A90F26F6E70000B6
:1044E0002DE9F047224C80469946A06916460F46B2
:1044F000002540B90120A06104F120011D48086099
:10450000084600F0EDF9606910B900F077FF6061CE
:10451000B9F1000F18BFC9F80000B8F1000F0BD0B7
:10452000A06838B960698000FDF786F8A0600028AF
:1045300008BF0125C8F8000057B1E06838B96069C4
:104540008000FDF779F8E060002808BF0125386099
:1045500056B1206938B960698000FDF76DF82061B7
:10456000002808BF012530602846BDE8F08700001C
:10457000BC090020A1D3000873B51A4A82B003A970
:1045800012680298904700240290002827D016490C
:1045900000250968C969496900291CBF0A68002A01
:1045A00003D00399904704B070BD0398401E039058
:1045B0000AD402A8FFF788F90546FDF7C7FC0444B2
:1045C0000398401E0390F4D50026284669460096BD
:1045D000FDF7CEFC00998142C8BF0E1A344404B0E6
:1045E000204670BD040B0020F809002073B50D466D
:1045F00000980024B8B10D490968C96949690029C2
:104600001CBF4A68002A03D02946904702B070BDFB
:10461000002D08DD6846FFF757F900281EBF0A285D
:10462000641CA542F6DC02B0204670BDF8090020EB
:1046300038B5002469460094FDF79AFC0099814240
:10464000C8BF0C1A204638BDB0F90030B1F90020BF
:104650009342C8BF1A460280B0F90230B1F9022075
:104660009342C8BF1A464280B0F90430B1F9042021
:104670009342D8BF1A468280B0F90620B1F90610DD
:104680008A42C8BF0A46C280704730B4B1F900C040
:10469000B2F900309C45C8BF63460380B1F90240BF
:1046A000B2F902C06445C8BFA446A0F802C0B1F97F
:1046B0000450B2F90440A542B8BF2C468480B1F939
:1046C0000610B2F906209142A8BF1146C1809C4253
:1046D000AABF61450020012030BC70470146024856
:1046E0000068407C00F002B8F8090020F8B5012607
:1046F0000F46044602280FDA2A4D002F36D0012F2C
:1047000002D0022F08D120E055F82400002818BF5D
:10471000401C03D045F824003046F8BD2046FDF784
:10472000A9FA00900028F7D0C0680D21426A6846B7
:1047300090470200F0D039460098904755F8240081
:104740000026401C45F82400E6E7FDF793FA0090A8
:104750000028E1D0C0680D21426A684690470200F7
:10476000DAD03946009890470026D5E755F824005E
:1047700001280FD12046FDF77DFA009050B1C068A6
:104780000D21426A68469047020003D039460098DE
:104790009047002655F82400002814BF012100216D
:1047A000401AB7E7FC0A00204FF07F4333EA010CC0
:1047B00008BF704770B400F0FF0C1CFB02FC00F453
:1047C0007F4400F47F0554435543000E10FB02F66E
:1047D000C2F1FF00CAB212FB00C201F47F4C0CFB15
:1047E000004C01F47F0404FB0054090E11FB00602F
:1047F0004FF47F4101EA1C214FF47F0C0CEA142C8A
:10480000C2F30722114370BC03EA004041EA0C01E5
:10481000084370472DE9F84F002300930D9BDDF806
:1048200038A0002B86BF4FF0FF0E4FF07F45BDE84C
:10483000F88F0C9C50F8049B51F8043BAEEB196CBC
:104840000CFB0AFC0CEBCC1606EBCC3CCCF3C75CA7
:1048500035EA030632D009F0FF0616FB0CF609F420
:104860007F4709F47F0807FB0CF708FB0CF84FEAB9
:10487000196919FB0CF9CCF1FF0C03F0FF0B1BFBC2
:104880000C6603F47F4B0BFB0C7703F47F0B0BFBE5
:104890000C881B0E13FB0C93C6F3072C4FF47F46BA
:1048A00006EA17264FF47F0707EA18274CEA060C9A
:1048B00005EA03434CEA070C4CEA030929F07F435D
:1048C00042F8043B641EB5D10A9BDDF834C001EB0D
:1048D0008301009B5B1C00936345AAD3BDE8F88F5E
:1048E00002494A694260486170470000EC090020B3
:1048F00010B40028BABF4FF0FF31404201211B4ADB
:1049000090FBF2F302FB130052109042C2BF4942E7
:10491000A0F52830A0F5F950154A9042C4BFC0F563
:10492000F95000F528304FF47A7390FBF3F26FF0F2
:104930007C0C02FB0CFC00EBCC005A2AA8BF4FF405
:1049400080300DDADFF82CC00CEB82045CF82220FA
:104950006468A4EB020C0CFB00F0B0FBF3F0104415
:104960000029D8BF404210BC70470000407E0500BF
:10497000905F01004843050830B402E000F8011BD5
:10498000521E002A18BF10F0030FF7D195083BD034
:10499000C5F1000C4FEAEC740CEB947C4FEAAC0CC4
:1049A0004FEA8C0C01EB0143CCF1000402F003024E
:1049B00003EB0323002CC4BFA0F1040C641010DD32
:1049C000CCF804304CF8083F641EF9D1EC1705EB25
:1049D000947C4FEAAC0C00EB0C10CCF1000C05EB16
:1049E0008C05002D10DDA0F1040C15F0010F18BF8F
:1049F0004CF8043F6C1005D0CCF804304CF8083F5C
:104A0000641EF9D100EB8500002ADCBF30BC704782
:104A1000401E12F0010F18BF00F8011F521004BF12
:104A200030BC7047417000F8021F521EFAD130BCF2
:104A3000704770B410F0020F02D020F8021B521E13
:104A40005FEA520C39D001EB0143BCF1040F21DBCA
:104A5000ACF1040C664674420360E517436004EB56
:104A600095748360A410C360A40010306542002DCB
:104A7000C4BF041F6D100DDD636044F8083F6D1E58
:104A8000FAD1F4170CEB9474A41000EB04106442F8
:104A900006EB840CBCF1000F0FDD041F1CF0010FAE
:104AA00018BF44F8043F5FEA6C0504D0636044F823
:104AB000083F6D1EFAD100EB8C0012F0010F18BFF9
:104AC000018070BC704700007FB5012001F03AFF03
:104AD000612001F01DFF0028FAD00121082001F01B
:104AE0009FFE254D4021284602F08FFC0122002127
:104AF000284602F087FC0C210126ADF800100024A6
:104B0000ADF80460ADF80610ADF80240ADF808400D
:104B10006946284602F018FC32208DF80C008DF80A
:104B20000D408DF80E408DF80F6003A801F028FDB0
:104B30000121284602F047FB0F4810300480012273
:104B40001021284602F056FC0C4CA1680229FCD129
:104B5000284602F043FB0A48006810F4E05F094869
:104B600000684FEA900000D04000E16804B0B0FB5C
:104B7000F1F0C00070BD0000000C004020000020DB
:104B8000083802400C000020FEE70000054B10B57D
:104B900002EB02121B68D2B2984703490968084029
:104BA00010BD0000BC0900209C0A002002490A68D0
:104BB00008601046704700009C0A00201CB50121C7
:104BC00040F2EF1001F014FE02208DF805008DF880
:104BD000040000208DF80600614C8DF807000E22BD
:104BE00008212046FBF7E6FF0E2209212046FBF7AD
:104BF000E1FF4FF44071009169462046FBF79EFFAC
:104C0000584C0E2206212046FBF7D4FF402100918C
:104C100069462046FBF792FF534C0E2205212046A1
:104C2000FBF7C8FF0E2206212046FBF7C3FF0E222A
:104C300004212046FBF7BEFF702100916946204603
:104C4000FBF77CFF494C0E220A212046FBF7B2FFFE
:104C50002115009169462046FBF770FF444C0E2257
:104C600006212046FBF7A6FF0E2207212046FBF770
:104C7000A1FF0E220B212046FBF79CFF0E220C21E8
:104C80002046FBF797FF4FF4C65100916946204636
:104C9000FBF754FF374C0E2202212046FBF78AFF18
:104CA0000E2203212046FBF785FF0E220821204615
:104CB000FBF780FF0E2209212046FBF77BFF0E2227
:104CC0000A212046FBF776FF0E220B212046FBF738
:104CD00071FF0E220C212046FBF76CFF0E220D21E6
:104CE0002046FBF767FF0E2211462046FBF762FFC6
:104CF0000E220F212046FBF75DFF4FF60C7100914D
:104D000069462046FBF71AFF1B4C0E220021204665
:104D1000FBF750FF0E2201212046FBF74BFF0E222E
:104D200002212046FBF746FF0E2204212046FBF716
:104D300041FF0E2205212046FBF73CFF0E220921F0
:104D40002046FBF737FF0E220A212046FBF732FFF1
:104D500040F23761009169462046FBF7EFFE1CBD2B
:104D600000040240000C0240001002400014024007
:104D700000180240001C024000200240044A0028A3
:104D80004FF01001104601D0FBF72DBFFBF729BFF4
:104D9000000C02400449054A0968497C52F8211078
:104DA0000969096808470000F8090020100A002076
:104DB000C1B2C0F30722C0F30740914208BF82424C
:104DC00007D101F108001349A1FB00100009783058
:104DD000704701EB810101F17F030F4902EB820271
:104DE000A1FB03C37F32A1FB02C200EB80007F3036
:104DF000A1FB0010D209DB09C00902EB420103EB61
:104E0000410100EBC00001EB80006C2828BF283076
:104E100070470000F1F0F0F0818080801CB5012126
:104E2000082001F0E5FC1020009002208DF805001C
:104E300001208DF8040000208DF80600064C8DF846
:104E4000070069462046FBF779FE01221021204623
:104E500000F004F81CBD0000000C0240FBF7C5BECA
:104E60002DE9FF4F87B09A48DDF850A0169E0068E4
:104E700090B1DDE91723DDF864C0CDF814C00296C7
:104E8000CDE90323159ACDE900A2D0F800C0DDE9F1
:104E90000923079800F0D4B80A98099A0844451ED7
:104EA00007988C4C1044A0F1010C15984AEA0000B8
:104EB000012827D0C6F1080002900020009104903C
:104EC0000A980028DCBF0BB0BDE8F08F1599009858
:104ED0000844411E019105902068B0F90A208A42D9
:104EE00000F3E580B0F90E100098884200F3DF80EF
:104EF000189803900998079D4FF00008002873DC6C
:104F000000F0D5B82268B2F90A30581A00280DDD31
:104F10000A99091A0A910029DCBF0BB0BDE8F08F8D
:104F20001946DDE9173400FB03401890B2F90E0072
:104F3000281A002807DD0A9B181A0A900028DCBFEF
:104F40000BB0BDE8F08FB2F90C00ACEB000000280C
:104F500002DD099B181A0990B2F90830DDF81CC06F
:104F60000020634550DDA3EB0C00099B1B1A09933D
:104F7000082E32D006DC012E0BD0022E15D0042EC6
:104F800042D11EE0102E30D0182E18BF202E3BD15B
:104F900033E0189B20F0070C03EBE0031893079B0A
:104FA00000F00700634407932EE0189B20F0030CE9
:104FB00003EBA0031893079B00F0030063440793DF
:104FC00022E0189B20F0010C03EB60031893079B71
:104FD00000F001006344079316E0189B034460440B
:104FE0000790189300200FE031E0189B03EB40037B
:104FF000604407901893002006E0189B03EB8003A1
:105000006044079018930020099B002BDCBF0BB075
:10501000BDE8F08FDDE91734DDF864C0CDF814C0C9
:105020000293CDE903400A98CDE90006527C2A4854
:10503000099B50F82200C268D2F804C00A460799BA
:10504000E0470BB0BDE8F08FB9F1000F05D1039830
:105050004FF0080910F8017B03900298A9EB0609AC
:1050600037FA00F007FA06F1CFB204D12168097CC3
:1050700011F0020F15D12168199AC96B002AD1F8D5
:1050800000B018BF52F82000086005EB0A00DDE907
:105090000013421E284600F085F82068C06BC0F857
:1050A00000B0099808F1010855448045CCDB04980C
:1050B000401C049005980090DDE917010844189001
:1050C0000A9904988842FFF601AF0BB0BDE8F08F53
:1050D000240A0020F8090020100A00208C461349F9
:1050E00030B40968B1F90A306345D9BFB1F90E305F
:1050F0009C4530BC7047B1F908308342C8BF1846A0
:10510000B1F90C309342B8BF1A468242BCBF30BCE2
:1051100070474B7C064951F8234013466246E168CC
:105120008D6801462046AC4630BC6047F809002037
:10513000100A00200A46194930B40968B1F90A304A
:105140009342D9BFB1F90E309A4230BC7047B1F9E1
:1051500008308342D9BFB1F90C30984230BC704757
:105160000B7C13F0010FDFF838C009D0497C5CF8E4
:105170002130D968D1F81CC0014630BC18466047C0
:10518000CB6B497C1B685CF821C0DCF80C108C6987
:1051900001466046A44630BC60470000F809002084
:1051A000100A002038B5DFF858C0DCF800C0BCF9A0
:1051B00008408442C8BF2046BCF90C409442B8BFA6
:1051C00022468242B8BF38BDBCF90A408C42C8BFF3
:1051D0002146BCF90E409C42B8BF23468B42B8BF63
:1051E00038BD00939CF811C0064B53F82CC0DCF876
:1051F0000C301C6913460A4601466046A04738BD7C
:10520000F8090020100A002070B5082500240228A3
:1052100007DAFCF72FFD20B1C1688A6A294690475A
:105220000446204670BD000002480068806B00689C
:1052300070470000F809002002480068C06B006851
:1052400070470000F8090020044A02EB800352F87E
:105250002000C068426A184610470000100A00206B
:1052600070B50C250024022807DAFCF703FD20B1F5
:10527000C1688A6A294690470446204670BD70B5C9
:105280000D250024022807DAFCF7F4FC20B1C168E0
:105290008A6A294690470446204670BD70B5084882
:1052A000092500240068407C022807DAFCF7E2FCAC
:1052B00020B1C1688A6A294690470446204670BDDD
:1052C000F809002070B509250024022807DAFCF748
:1052D000D1FC20B1C1688A6A29469047044620461D
:1052E00070BD70B500252C462046FCF7C3FC002895
:1052F00018BF6D1C641C022CF6DB284670BD000034
:10530000074810B50068407CFCF7B4FC002808BFD3
:1053100010BDC168CA6ABDE81040022110470000F4
:10532000F809002010B500F005F8BDE8104000F0C5
:1053300059B90000F0B5154E0546154F30680C46BA
:1053400083B0407C57F82000C1680A6B69469047DB
:10535000BDF90000A842DCBFBDF90400854207DCAE
:10536000BDF90200A042DCBFBDF90600844202DDA7
:1053700003B00020F0BD30682246407C57F8200082
:10538000C1684B692946984703B0F0BDF809002071
:10539000100A0020F8B515460E460124FCF76AFCF9
:1053A000009058B1C0680421426A684690470300E3
:1053B00004D02A4631460098984700242046F8BD7C
:1053C00070B50E250024022807DAFCF753FC20B143
:1053D000C1688A6A294690470446204670BD70B568
:1053E00003250024022807DAFCF744FC20B1C16839
:1053F0008A6A294690470446204670BD2DE9F0414F
:1054000003270024012500262846022D07DAFCF791
:1054100031FC20B1C1688A6A394690470646B442D9
:10542000B8BF34466D1EEED52046BDE8F08170B59C
:1054300004250024022807DAFCF71CFC20B1C1680F
:105440008A6A294690470446204670BD70B50848D0
:10545000012500240068407C022807DAFCF70AFCDA
:1054600020B1C1688A6A294690470446204670BD2B
:10547000F809002070B501250024022807DAFCF79E
:10548000F9FB20B1C1688A6A294690470446204644
:1054900070BD000070B50848022500240068407CFB
:1054A000022807DAFCF7E6FB20B1C1688A6A2946C0
:1054B00090470446204670BDF809002070B50225CB
:1054C0000024022807DAFCF7D5FB20B1C1688A6AFC
:1054D000294690470446204670BD00002DE9F04162
:1054E00001004FF000001ABF8E68002EBDE8F08169
:1054F000104F7A68002A08BFBDE8F0810C68B4F547
:10550000807FC8BFBDE8F08138688442C8BF0446C8
:105510000025002C0ADD00BF56F82500FFF73AFCF5
:10552000796841F825006D1CAC42F5DC7868BDE86F
:10553000F0810000640A00202DE9F04101004FF0E5
:1055400000001ABF8E68002EBDE8F081104F7A6807
:10555000002A08BFBDE8F0810C68B4F5807FC8BFA1
:10556000BDE8F08138688442C8BF04460025002C9D
:105570000ADD00BF56F82500FFF70CFC796841F8FA
:1055800025006D1CAC42F5DC7868BDE8F0810000B8
:10559000640A0020002808BF70472DE9F0418668A2
:1055A00036B10F4F796819B10468B4F5807F02DD18
:1055B0000020BDE8F08138688442C8BF0446002559
:1055C000002C09DD56F82500FFF7E4FB796841F867
:1055D00025006D1CAC42F5DC7868BDE8F081000068
:1055E000640A00200449054A0968497C52F82110E0
:1055F0000969496808470000F8090020100A0020DE
:10560000A0F1780110293EBF1648484370476C2826
:1056100004D3942836BF002028387047124AA2FBD2
:1056200000318908A2FB01C2A1EB81039208A2EB21
:10563000820201EB420100EB43030C4A03EB03132C
:10564000A2FB002001EB0111C00803EB430301EBB7
:10565000410100EB001000EB400003EB012101EBE6
:105660000040704711111100ABAAAAAA398EE33885
:105670007047704700F01F01074A084BC0F3451CF4
:10568000C0F3C42013F80C30105C515C00EB032015
:1056900000EB014070470000E84205080843050898
:1056A0000206C0F30721120AC0F3074042EA0121B3
:1056B0000843704700B58FB0FFF7B0FB0020FFF73D
:1056C0005DFB0120FFF75AFB0121880601F0C0F8BD
:1056D0000121C80501F08CF8FFF770FA01F064FBB6
:1056E000002002900390009001900C900D900E907D
:1056F00004220721C02001F03BF9002001F028F925
:10570000012001F02FF93D2001F002F90028FAD024
:1057100009200490012005901D2006900320079089
:1057200040F23D30089040F2E310099040F26F30B3
:105730000A9040F2AF200B90684600F043FE6846A6
:1057400000F040FE0FB000BD10B50A4C606870B9A3
:1057500020688000FBF770FF6060002804BF012014
:1057600010BD0548054908600846FFF7B9F8002054
:1057700010BD0000640A002029D400086C0A002033
:105780002DE9F047FFF7ADFD071E4FF00005C6BF3E
:10579000DFF86080DFF86090BDE8F0872846FCF70E
:1057A00069FA10B32846FDF719FF82462846FFF72D
:1057B0002BFD082816DC58F825000069484511D053
:1057C0002846FFF77FFD061E4FF000040ADDE0B219
:1057D000FFF708FF0246E1B2284600F0D1F9641C49
:1057E000A642F4DC5046FDF7F9FE6D1CBD42D5DB48
:1057F000BDE8F087100A0020EC44050830B591B0F0
:105800001E20009040F23D3001900420029040F2B2
:10581000E310039002200490FF20059000200690E2
:105820000790089009904FF480600A9005200B9033
:1058300040F243600D90C01E0E904FF4F0700F9038
:105840004FF05040144C0C906946204600F018FE72
:1058500012490C914FF4C0610A910F4D07210B9131
:1058600080356946284600F00BFE012000F054FE0A
:105870000121204600F0FAFD0121284600F0F6FD46
:10588000012000F049FE0648A0F11001C860012087
:1058900000F038FD11B030BD84680140000006D032
:1058A000680000202DE9FF4F83B016461198109C28
:1058B000C0684769426A82B1012111A890475FEA36
:1058C000000C0AD00698CDE90004DDE90312334646
:1058D0001198E04707B0BDE8F08F63480068407C4E
:1058E000FCF71EFB00900828D8BF4FF0010805DD2B
:1058F0001028D4BF4FF002084FF004080025069985
:1059000004988842C4BF07B0BDE8F08FB8F1010F1A
:1059100006D0B8F1020F7FD0B8F1040F4CD18AE065
:105920000098092848D2DFE800F094052548486827
:1059300068686800DDF80C90B145D8BF4FF67F7AF3
:105940003ADC4946049A1198B847C5F107018840E6
:1059500021782AFA05F2114008432070681C20F0D3
:10596000070140FA01F509F1010904EBE004B14532
:10597000E7DD6EE0DDF80C90B145DCBF4FF0060AC4
:105980004FF63F7B65DC4946049A1198B847AAEB6D
:105990004501884021786A002BFA02F21140084341
:1059A0002070681C20F0030140FA01F509F101099B
:1059B00004EBA004B145E6DD4BE0DDF80C90B14509
:1059C000DCBF4FF0040A4FF00F0B42DC4946049A4B
:1059D0001198B847AAEB850188402178AA000BFAF4
:1059E00002F21140084320702C4409F1010985F0AE
:1059F0000105B145EADD2CE00EE0DDF80C90B14583
:105A000027DC4946049A1198B847207009F101092A
:105A10004444B145F5DD1CE0DDF80C90B14518DCDF
:105A20004946049A1198B847208009F10109444475
:105A3000B145F5DD0DE0DDF80C90B14509DC4946D6
:105A4000049A1198B84709F1010920604444B1450E
:105A5000F5DD04980699401C049088427FF756AF04
:105A600007B0BDE8F08F0000F809002010B50E4C1B
:105A70000E492068407C51F8200058B1C16809687F
:105A8000042903D000680028F8D103E0002818BFDB
:105A9000FCF7A6F800212068016600F108014161C9
:105AA000BDE8104000F030B8F8090020100A0020CE
:105AB0000149096849680847600A002004490968E3
:105AC0000A7C12F0040F14BFC96B896B0860704721
:105AD000F809002030B50A4C054683B02068417CA7
