:020000040800F2
:10000000781601206902000873680008BD4C0008DA
:100010006F680008AD060008C97D000800000000F8
:10002000000000000000000000000000C101000806
:100030001F0700080000000005020008D175000835
:10004000830200088302000883020008830200087C
:1000500083020008830200082107000883020008C9
:10006000830200088302000883020008830200085C
:10007000830200088302000883020008830200084C
:10008000830200088302000883020008830200083C
:10009000830200088302000883020008830200082C
:1000A000830200088302000883020008830200081C
:1000B00075770008830200088302000883020008A5
:1000C00083020008830200088302000883020008FC
:1000D000830200088302000883020008797B00087D
:1000E00083020008A16D0008830200088302000853
:1000F00083020008830200088302000883020008CC
:100100008302000883020008BD770008830200080C
:1001100083020008830200088302000883020008AB
:10012000830200081D0700088302000883020008FC
:10013000830200088302000883020008830200088B
:10014000830200088302000883020008830200087B
:10015000830200088302000883020008830200086B
:10016000830200088302000883020008830200085B
:10017000830200088302000883020008830200084B
:10018000830200088302000883020008830200083B
:10019000830200088302000883020008830200082B
:1001A000B164000883020008E7060008DFF80CD0FD
:1001B00000F0AAF80048004721EB0008781601205B
:1001C000234B19680868B0E8F04F80F309884FF0B6
:1001D000000080F3118870470000000003480068A9
:1001E000006880F3088862B600DF00BF08ED00E019
:1001F000DFF80C00016841F470010160704700BF36
:1002000088ED00E0EFF30980114B1A681EF0100F23
:1002100008BF20ED108A20E9F04F106008B54FF0BC
:10022000500080F311880FF031FA4FF0000080F396
:100230001188BDE8084019680868B0E8F04F1EF062
:10024000100F08BFB0EC108A80F30988704700BF18
:10025000F80000204FF0500080F3118870474FF0F5
:10026000000080F311887047064880470648004721
:10027000FEE7FEE7FEE7FEE7FEE7FEE7FEE7FEE756
:10028000FEE7FEE7E9750008AD01000810B5431A66
:10029000934209D28318881803E010F8011D03F86F
:1002A000011D521EF9D210BD40EA01039B0703D085
:1002B00009E008C9121F08C0042AFAD203E011F8A5
:1002C000013B00F8013B521EF9D210BDD2B201E051
:1002D00000F8012B491EFBD270470022F6E710B54B
:1002E00013460A4604461946FFF7F0FF204610BDA4
:1002F00010B5044604E00B7800F8013B03B1491C3B
:10030000521EF8D2204610BD064C074D06E0E068AC
:1003100040F0010394E8070098471034AC42F6D34C
:10032000FFF748FFB0790508D079050870B58C183B
:1003300010F8015B15F0070301D110F8013B2A11F9
:1003400006D110F8012B03E010F8016B01F8016BE6
:100350005B1EF9D12B0705D40023521E0DD401F8E2
:10036000013BFAE710F8013BCB1A921C03E013F8AB
:10037000015B01F8015B521EF9D5A142D8D30020E0
:1003800070BD00001FB500F0D9FE032001F062F837
:100390000020074A0923CDE901200093039003467A
:1003A00040F6E83203A105480FF0B2FB1FBD000084
:1003B0005C060020424B5F474E440000C10300082A
:1003C0002DED028B8CB000200090019002900390E4
:1003D000804605F0FDF8002456E0BFEE000A08A8AC
:1003E00000EB840080ED000AE0B29FEDAB0A07F05D
:1003F00079F804EB4401A94A02EB411101F12C0008
:1004000002F0FAF804EB4400A44901EB401090F824
:100410005D00A3490978884235D104EB4403DFF835
:100420007CC20CEB4313D3ED100AB0EE600A04EB70
:1004300044030CEB43139B685A6804EB44030CEB36
:1004400043139B68196804EB44030CEB431303F15B
:10045000100003F0EFF804EB440CDFF8409209EBD6
:100460004C13DFF840C25CF8242004EB440C09EB89
:100470004C1C0CF13E0104EB440C09EB4C1C0CF140
:100480002C0002F0C7F9641C042CA6DB01F04EFE20
:1004900006464FF47A75FDE001F048FE801B804669
:1004A00043F69821884204DD4FF47A7501F03EFE50
:1004B0000646A8455ADD05F57A757B48007840B3B5
:1004C0000021084606F0C2FF0121084606F0BEFFE3
:1004D0000021022006F0BAFF0121032006F0B6FF3A
:1004E0000021042006F0B2FF0121052006F0AEFF36
:1004F0000021062006F0AAFF0121072006F0A6FF32
:100500000021082006F0A2FF0121092006F09EFF2D
:1005100027E00121002006F099FF0021012006F0CC
:1005200095FF0121022006F091FF0021032006F033
:100530008DFF0121042006F089FF0021052006F02F
:1005400085FF0121062006F081FF0021072006F02B
:100550007DFF0121082006F079FF0021092006F027
:1005600075FF51480078C0434F4908704C480078E7
:10057000012802D128460BF0D9FC40460CF0C4FB00
:10058000B0EE408A002006F0ADFF40460CF0B8FA0D
:10059000B0EE408A012006F0A5FF40460CF02EFC8C
:1005A000B0EE408A022006F09DFF40460CF00CFCA5
:1005B000B0EE408A032006F095FF002466E008A80C
:1005C00000EB840090ED000A04EB4400334901EB9A
:1005D0004010D0ED100AB4EE600AF1EE10FA54D0DB
:1005E00004EB440001EB401090ED100A08A800EB6A
:1005F000840080ED000A01F099FD074604EB4400F9
:10060000264901EB401090F85D00254909788842A1
:1006100035D104EB4403DFF884C00CEB4313D3ED76
:10062000100AB0EE600A04EB44030CEB43139B6822
:100630005A6804EB44030CEB43139B68196804EB02
:1006400044030CEB431303F1100002F0F3FF04EB3F
:10065000440CDFF8489009EB4C13DFF848C05CF815
:10066000242004EB440C09EB4C1C0CF13E0104EB80
:10067000440C09EB4C1C0CF12C0002F0CBF801F0FF
:1006800055FDC01B04A941F82400641C042C96DB12
:1006900001F0AAFC00E70000000000004C0300206D
:1006A000E0020020640600207406002000BFFEE780
:1006B00030B502460B464FF6FF70002110E0545C47
:1006C0006040082409E000F0010525B140104AF21D
:1006D0000105684000E04010641E002CF3D1491C65
:1006E0009942ECDB30BD10B500F002F810BD0000FF
:1006F000022001498860704700B0024029B1064AD3
:1007000012680243044B1A6004E0034A12688243F1
:10071000014B1A607047000000B0024070477047FC
:1007200010B501200249086000F004F810BD000077
:10073000080000200149086070470000143C014097
:1007400010B5024600200023102A03D14FF02044A8
:10075000636E0FE0B2F5807F02D10A4C236809E096
:10076000B2F5805F03D1074C2034236802E0054CCA
:10077000D434236803EA01048C4201D0002000E055
:10078000012010BD840000A00021D0E900231A43FD
:1007900083685B1E42EA4312C36842EA4321014A6E
:1007A00011607047500100A070B5002100220023A5
:1007B0000024D0E901563543C66835430669354300
:1007C0004669354386693543C6693543066A35430C
:1007D000466A45EA0601056835B90568AD00A5F128
:1007E000C045C5F840110DE0D0E907563543466ACB
:1007F00045EA0603294D2B600568AD00A5F1C0450B
:10080000C5F84011056835BB856A2D686D1E866A7E
:100810007668761E45EA0616856AAD686D1E46EA5C
:100820000526856AED686D1E46EA0536856A2D8ABD
:100830006D1E46EA0546856AAD8A6D1E46EA055676
:10084000856A2D7E6D1E46EA0562144D08350668E0
:1008500045F8262020E0856A2D686D1E866A766838
:10086000761E45EA0616856AAD686D1E46EA0526BF
:10087000856A2D8A6D1E46EA0542856AED686D1E01
:100880002E03856AAD8A6D1E46EA0554034D083570
:100890002C60066845F8262070BD0000400100A0CD
:1008A0000449096841EA40014FF02042C2F854115E
:1008B00070470000540100A02DE9F0430446C568CC
:1008C00087B017468846002002F032FF0646002D0A
:1008D0001BBF2879002826F0020046F0020002F033
:1008E00027FF2069012568B1D4E902120091CDE902
:1008F00001250395D0F800C0638822883946404618
:10090000E04719E0DFF84C90134B2146D9F800007E
:100910001B68427CE0689847A0B1A188E388A26880
:100920000095CDE90231CDE9042001956388228844
:100930003946404604F032FB07B03046BDE8F0438C
:1009400002F0F6BEE088012812BF0020D9F80000AE
:10095000806BE2E7B80A0020B00A00202DE9FF4FC3
:1009600083B0074640F6FF74C4F1000090460E1EA7
:100970000090C4BFB91C32460CDD00BFB1F90000C5
:100980008442C8BF0446009B8342B8BF0090091D43
:10099000521EF3D187490868406970B1B0F906303A
:1009A000069A9A1A009B9A42B8BF0092B0F90220A8
:1009B0000698101AA042C8BF044600988442D2BFCD
:1009C000A6F1010907B0BDE8F08F00207A4905467D
:1009D000002E0860C4BF069804EB000A7EDD4D457A
:1009E000B4BF691C002107EB850207EB810CB2F94B
:1009F0000200BCF90230A04256D1A34214D137F90B
:100A0000211037F9250001EB08036A494044984258
:100A10000968C96ED1F800C0B4BF1A4602465146F3
:100A2000A8BF1846E04787E000222946B9F1000F29
:100A30000CDD002914BF491E711E07EB8100B0F9BF
:100A40000200A04203D1521C4A45F2DB2046A042DC
:100A500072D037F92510A0EB0400A3EB040250403C
:100A600009D401EB0800534902460968C96E0B68B6
:100A70005146984760E0DFF840B1DBF800C0BCF1B8
:100A80000C0F59DABCF10000C8BF4C4A4DDD00BF65
:100A900002EB400333F9023C8B4246DB22F8103074
:100AA000401E0028F4DC40E0A34245D001DBA04218
:100AB00003DDA042A8BF9C423EDB98424FDC0146CA
:100AC000A042DFBF18468442B2F90030BCF90020D2
:100AD00032DC00BFA2EB030C621A00E030E00CFB3A
:100AE00002F2002AA0EB010CCEBF02EB6C02A2EBDB
:100AF0006C02521C401A92FBF0F0DFF8BCB0C11837
:100B0000DBF800C0BCF10C0F16DABCF10000C8BF66
:100B10002A4A0ADD02EB400333F9023C8B4204DB34
:100B200022F81030401E0028F4DC244A22F810106D
:100B30000CF10100CBF800006D1CB542FFF64FAF81
:100B400006984FF0000B204401901B485D46016859
:100B50000029C4BF1949B1F900A022DD19E01946E6
:100B6000A342E9DC8442DCBFBCF90030B2F90020CA
:100B7000E2DCAFE71149BBF1000F31F915A008D055
:100B80000C4908EB0A0240440968C96E0B680199D8
:100B9000984709496D1C8BF0010B09685046A94222
:100BA000E8DC0098641C84427FF70FAF07B0BDE813
:100BB000F08F0000B80A00203C0B0020A8F50020B0
:100BC00010B5002002F09EFD6FF07F4002F0A5FD01
:100BD000012002F00FFE002002F01AFE002002F0B9
:100BE00027FE002002F0A4FD0448006802F0ACFDDE
:100BF000BDE81040002002F0CFBD0000B40A002084
:100C0000F0B50A4600210023002400BF3DE0012585
:100C100005FA01F3156805EA03049C4234D105681E
:100C20004F000326BE40B543056015794E00B54020
:100C30000668354305601579012D02D01579022D1E
:100C400016D185684F000326BE40B54385605579AF
:100C50004E00B540866835438560456801268E4064
:100C6000B5434560456896798E40B6B235434560D8
:100C7000C5684F000326BE40B543C560D5794E0018
:100C8000B540C6683543C560491C1029BFD3F0BDC7
:100C9000F0B5002300244D07ED0E02FA05F3CE1047
:100CA00000F1200555F826504E07F70E0F26BE40DE
:100CB000B543CF1000F1200646F82750CE1000F1C2
:100CC000200555F8265045EA0304CE1000F1200512
:100CD00045F82640F0BD41837047018370470AB153
:100CE000018300E041837047014AC2E90001704777
:100CF0005C0A0020014AC2E900017047640A002032
:100D0000014AC2E9000170476C0A0020014AC2E9A9
:100D100000017047740A0020014AC2E900017047CF
:100D2000180B00202DE9F04F4B4989B00B68B3F93F
:100D300022100691D3F81CC0B3F92480DCF81C40C3
:100D4000A18981429CBFE289904205D8471A4FF0A1
:100D5000FF35D4F8009015E0D4E90192002A72D052
:100D60001188814299BF5588A8424FF0FF352F4620
:100D700008D8401A516880B201EB8000B0F90070C9
:100D8000B0F90250781C5ED09CF81800A17C10FBD2
:100D900001FB94F810A00790B3F92A60304604F0E4
:100DA00087FFC0B208902C4807FB0B920068A37C19
:100DB0000127816BCDE90273CDE90421C069524658
:100DC000C17E807ECDE90001DDE90603414604F0E5
:100DD000E5F8681C18D046F0020004F069FF1E48D0
:100DE000A37C05FB0B920068816BCDE90273CDE912
:100DF0000421C0695246C17E807ECDE90001DDE953
:100E00000603414604F0CAF8134D2868C069417EC4
:100E1000007E814214D9022E12D086F0040004F024
:100E200047FF2868C069017EC27E11FB0281427EB5
:100E300002EB0803827E06980AFB020204F050FAD5
:100E4000089804F035FF0448627C0068418C114426
:100E5000418409B0BDE8F08FB80A00200448002999
:100E60000068C069C0691CBF027C0A60407C704792
:100E7000B80A0020022008807047C06982898A422F
:100E80009CBFC289914210D9806880B102888A4291
:100E90000DD8438899420AD8406800EB8100A0EB46
:100EA0008200B0F90000002801DB0120704700201B
:100EB000704700002DE9F041284C054686B02068B7
:100EC0002946B0F92A70C069C06900F0DFF800282F
:100ED00004BF06B0BDE8F08141680088281A01EB24
:100EE000C0053846AE7804F0E3FE07461C48D0F84B
:100EF0000080B8F1000F17D0686800210422CDE906
:100F00000401012003960090CDE90102D4F800C04D
:100F10002A78DCF81C00BCF92410037EBCF92200FE
:100F2000D8F800C0E0470EE06868CDE90060D4F86A
:100F300000C02A78DCF81C00BCF92410037EBCF940
:100F4000220000F0A5FA384604F0B2FE20686A7864
:100F5000418C1144418406B0BDE8F081B80A0020FC
:100F6000E40A002070B505460B480C462946006887
:100F7000C069C06900F08AF8002808BF70BD4168E8
:100F800000882A1A012000EBC200002C085C1CBF5C
:100F900011F83210216070BDB80A002011200880BD
:100FA000704710B5C06900F071F8002818BF012023
:100FB00010BD00002DE9F35F0C4601F067F82A4DE3
:100FC0008346286890F82A0010F0040F02D001F040
:100FD0005DF801E001F028F802F09FFB2968002786
:100FE000C869427EC07E12FB00FAB1F92290B1F9C5
:100FF0002480641E24D4684602F0E2FC0646286879
:101000003146C069C06900F033F890B1416800888A
:10101000301A00EB400001EB800090F902100079DB
:1010200008442968C969897E10FB01F00028C8BFFF
:101030000744641EDFD51EB1304603F083FB07442E
:1010400008EB0A00431E09EB0700421E41464846D2
:1010500004F046F9584602F060FB0449012008708C
:1010600002B0BDE8F09F0000B80A0020340B002059
:10107000002808BF704702888A4203D842888A4203
:1010800028BF704780680028F5D17047002808BF46
:10109000704702888A4203D842888A4228BF704734
:1010A00080680028F5D170472DE9F041114D0024EA
:1010B000A8680028C6BF00260F4FBDE8F081286948
:1010C000782200EBC410001D3968FFF7DFF82869AB
:1010D00000EBC41000F10C0106608161011D0A1DC6
:1010E000C0E90F124164A868641C8442E7DBBDE8D4
:1010F000F0810000400B0020B80A002070B50D49B7
:101100000B480860084603F075FC0B4CA068C5014D
:10111000284600F00BFB2A460021206103F0B6FCB4
:101120004FF0FF302060BDE8704002F0ADBD000020
:10113000C1DF0008540B0020400B002002490120B1
:10114000096881F871007047B80A002010B50BF0EB
:1011500061FB0448016A04480068C16600F10801A7
:10116000416110BD200A0020B80A00202DE9FF4F80
:1011700083B01C4615460E4601F096F807F02EFE89
:10118000471907F039FE00EB0409002007F056FE6E
:10119000002800F0E980701E764D02902868417C9E
:1011A000754850F8210001901221C068426A01A8D8
:1011B00090475FEA000C08D03B463246CDF80090DD
:1011C00003990198E04700F0C9B82968DDF80C8060
:1011D00091F87120002A14BF4FF0010A91F870A015
:1011E000B8F900C0029864460028C4BF08F1040B97
:1011F000A6F1010E0DDD00BFBBF900008442C8BF9F
:1012000004468445B8BF84460BF1040BBEF1010EC1
:10121000F2D1002A04BF0CEB0701E01908D091F8C5
:1012200070000CEB070292FBF0F1E21992FBF0F078
:1012300000F0A4F800287CD12A6892F871000028F8
:101240003CD1002E3ADDA8F10401881C16F0010FF4
:101250000ED08B8892F8702013FB02F221F8042F35
:101260002B68828893F8703012FB03F220F8042F69
:10127000731018BF2A6821D0B1F804C092F87040EA
:101280001CFB04FCA1F804C0B0F804C092F8704044
:101290001CFB04FCA0F804C0B1F808C092F8704030
:1012A0001CFB04FC21F808CFB0F808C092F870408D
:1012B0001CFB04FC20F808CF5B1EDDD109FB0AF300
:1012C00007FB0AF231464046FFF748FB2A6892F8CE
:1012D000710070BB002E3FDDA8F10400811C16F0E8
:1012E000010F10D0B0F9043092F8702093FBF2F2A5
:1012F00020F8042F2B68B1F9042093F8703092FB8A
:10130000F3F221F8042F721018BF2B6824D000BF0D
:10131000B0F904C093F870409CFBF4FCA0F804C042
:10132000B1F904C093F870409CFBF4FCA1F804C030
:1013300000E011E0B0F908C093F87040521E9CFB29
:10134000F4FC20F808CFB1F908C093F870409CFB7A
:10135000F4FC21F808CFDBD1FFF7F8FE07F0A0FB83
:1013600000287FF41BAF00BF02F070FC07B0BDE89F
:10137000F08F0000B80A0020D00A00202DE9F041CB
:101380002C4C05460E462068002778B904F0D4F8A6
:10139000E06100F0CBF92060002808BF012705D0EC
:1013A000264925480860084603F024FB002DB8BFF5
:1013B0000025711BE069421E9142C4BF2844461EAD
:1013C000AE42BCBF2E460127DFF87480D8F800007B
:1013D000C16E4A68A26321621B491A4A0A60C1664B
:1013E0002068E660C4E90105711B4A1C002103F076
:1013F0004DFB1648810CC4E90401A061D8F8000037
:10140000028990F8701012FB01F3114A138043898E
:1014100013FB01F3538083895B1C4B435B1E93805A
:10142000C3895B1C5943491ED18042613846BDE8DF
:10143000F0810000200A002011DF0008440A00208B
:10144000B80A0020B9BB0008540A002001C0FFFF01
:101450004C0A0020C1B20C48006880F87010028964
:1014600012FB01F3094A1380438913FB01F35380F4
:1014700083895B1C4B435B1E9380C089401C48439F
:10148000401ED08070470000B80A00204C0A00209F
:101490002DE9F04FDFF8B0C18FB0DCF800C0DDE916
:1014A00018789CF8104014F0030444D0012C06D0A6
:1014B000022C7DD0032C1CBF0FB0BDE8F08F04467A
:1014C000CDE90683CDE90A12DFF8808109974FF054
:1014D000000A002BDCBF0FB0BDE8F08F0027DDE96C
:1014E0000A055044069E0090022D12DB16F8019B5F
:1014F00007EB040B4FEA191258460099C04709F050
:101500000F020BF101000099C047AD1EBF1C022D58
:10151000ECDA25B13078009902093819C0470999E9
:1015200006980AF1010A0844069007988245D5DB1F
:101530000FB0BDE8F08FCDE90210DCF83800164698
:101540001D46D0F800B0DCF83C00D0F800A04048C0
:101550000068504503D13E484068584520D0584661
:1015600004F0DEF80190504604F0DAF8DFF8E49079
:10157000009001980124C9F80000DDE90001E2B201
:1015800003F09EFB49F82400641C0F2CF5DB009847
:10159000C9F83C00304804F09BF82D48C0E900AB86
:1015A0002E48068045808780C0F808802C4800E0DF
:1015B0000BE029490078087101F10C00DDE90221F6
:1015C0000FB0BDE8F04FFFF777B9CDF81080CDE947
:1015D0000A12DFF890800446099707934FF0000A3B
:1015E000002BDCBF0FB0BDE8F08F0027DDE90A0556
:1015F0005044049E0090022D13DB00BF16F8019B9F
:1016000007EB040B4FEA191258460099C04709F03E
:101610000F020BF101000099C047AD1EBF1C022D47
:10162000ECDA25B13078009902093819C0470999D8
:1016300004980AF1010A0844049007988245D4DB13
:101640000FB0BDE8F08F0000B80A0020D95D000897
:10165000F809002028F40020000A00200C0A0020CD
:10166000340B0020215D0008002808BF704710B52A
:10167000044600F019FE204607F0DEFF044602F0A3
:10168000E5FA204610BD38B5054600F00DFE2846A7
:10169000FFF7EAFF040009D000F0A2F82A46002173
:1016A000009003F0F3F9684600F0F2F802F0CEFA89
:1016B000204638BD024A106021F003005060704798
:1016C00024F50020002808BF704770B5054600F0DB
:1016D000EBFD0E4C206B10F8351091B1022910D2A1
:1016E000042101EBC5068159486807F057FF60687F
:1016F000401C6060206B216A8151002100F8351088
:101700002562BDE8704002F0A1BA000068F4002034
:10171000002808BF7047044A916B0160002918BF78
:10172000486090637047000068F400202DE9F041A4
:1017300004460BF083FEE01C284E20F00300051D3C
:10174000F06BA84288BF05460022B46BC4B100BF4D
:1017500054F8041CA94210D19CB1206800281CBF79
:1017600061684160606800281CBF21680160B16B3E
:10177000A14204BF2068B0632CE02468002CE7D1AC
:101780001446B168706B00EB010858F8040CA8EB24
:101790000007386840B100200CF032FD58F8040C06
:1017A000A8EB00073868A8B97868A84212DB38446B
:1017B000401B041D38460CF0F9FCB0683946401B4C
:1017C000B0603069284430617868401B07F0E6FE5D
:1017D00044F8045C2046BDE8F081000068F4002075
:1017E00009498A69521C8A610A6B02EBC0021378AC
:1017F0005B1C1370002808BF7047096B042202EBC2
:10180000C00008580830704768F4002010B500F098
:101810004BFD00240BF012FE1B4B1C490F2000BF98
:1018200001EBC002126C0AB301EBC000006C8068CF
:10183000002808BFA4F10C000FD04268A24288BF64
:101840001446806800281CBF80680028F5D100BFBE
:10185000A4F10C00B0F5800F0DD983FB00204211DC
:10186000C969A2EBE07000FB01F409E0401EB0F191
:10187000FF3FD5DCECE7C9694843A3FB00104409EE
:1018800002F0E4F9204610BD1F85EB5168F40020FA
:101890000A4902680B6B52F8082C03EBC20213785A
:1018A000022B04D38B69002B1CBF5B1E8B6111784C
:1018B000491E1170002101600846704768F400203D
:1018C000002808BF70470449042202EBC000096BDE
:1018D000085808307047000068F400202DE9F00136
:1018E0002D24D3F800C0B0F1004F34D000250028DB
:1018F000A8BF4FF0000C07DA0CF101061E608CF84F
:10190000004040424FF0010CA1EB0C01C9B2002A8B
:101910001CBF491EC9B200291CBF234F234E3DD016
:101920008C46491EC9B2944508D1D3F800C03C7812
:101930000CF10108C3F800808CF8004056F82140F3
:1019400090FBF4FC0CF0FF0CBCF10A0F26D80CFB4A
:10195000140081B909E00CF1010601251E606FF049
:1019600000408CF80040491ED0E7002D1CBF0CF150
:10197000010C0CF0FF0CBCF10A0F03D1491C4FF015
:10198000010CC9B20CF13004D3F800C000290CF1ED
:101990000108C3F800808CF80040C1D1196800200C
:1019A0000870BDE8F0017047AC0A0020F46F05082C
:1019B000C2B2CBB2D21A002ABCBF524212B292B209
:1019C00002FB02F3C0F30722C1F3072CA2EB0C02C7
:1019D000002ABCBF524212B292B2000CA0EB1140DE
:1019E00002FB023200B20028BCBF404200B280B20B
:1019F00000FB0020704700002DE9F041002182B07B
:101A0000084600F0C3FB00F04FFC042004F050F93E
:101A100080461548C068C16C006DA1F6FF76A0F63F
:101A2000FF7501F6FF7400F6FF77ADF80060ADF8C2
:101A30000440ADF80250ADF80670684607F0FEF9B4
:101A400048B13B4622462946304603F049FC07F0A0
:101A500027F80028F5D1404604F02AF902F0F6F8FC
:101A600002B0BDE8F0810000AC0A00202DE9F04191
:101A700082B01C4617460D46064600F015FC0420B1
:101A800004F016F980461348C168C86C096D064415
:101A900007440D440C44ADF80060ADF80470ADF897
:101AA0000250ADF80640684607F0C8F948B1234631
:101AB0003A462946304603F013FC06F0F1FF0028B1
:101AC000F5D1404604F0F4F802F0C0F802B0BDE8E9
:101AD000F0810000AC0A0020022BA4BF0020704758
:101AE0002DE9F04106461C4615460F461C20FFF71F
:101AF0001DFE002808BFBDE8F081002F18BF076158
:101B00000BD10A4A52F8241039B10A681AB11146A9
:101B10001268002AFBD10969016184618582002174
:101B200001604160C0E90216BDE8F081D00A0020E2
:101B30002DE9F04100241D46074688461646022B33
:101B40001FDA1C20FFF7F2FDD8B1B8F1000F18BF63
:101B5000C0F810800BD1104A52F8251039B10A682C
:101B60001AB111461268002AFBD109690161856129
:101B7000868204604460C0E90247040018BF00F098
:101B800011F8E068006820B90448006800EB85009F
:101B900084652046BDE8F081D00A0020B80A002004
:101BA000FFF7B6BD10B18269022A01DB0120704740
:101BB00010B4234C54F82210002908BF44F8220026
:101BC00036D04B6823B119465B68002BFBD191B32B
:101BD000C3681B68D1F80CC0DCF800C09C4503DD6D
:101BE00009680029F6D127E029B3D1F80CC0DCF848
:101BF00000C09C4504BFB0F814C0BCF1010F0DD16A
:101C0000D1F800C0BCF1000F07D06146DCF80CC071
:101C1000DCF800C09C45F3DA00E061B14B68002BB2
:101C20001DBF18604A68426044F8220048600160A5
:101C300010BC00207047FFE710BC01207047000077
:101C4000D00A0020002808BF704730B4204C00BFE5
:101C5000D0F800C0002835D08569022D32DA54F85A
:101C60002510002908BF44F825002BD04A6822B16E
:101C700011465268002AFBD121B3C2681268CB68B2
:101C80001B68934203DD09680029F8D11AE0C9B145
:101C9000CB681B68934204BF838A012B08D10B6871
:101CA0002BB11946DB681B689342F8DA00E049B1B2
:101CB0004A68002A1DBF10604A68426044F8250047
:101CC000486001605FEA0C00C2D130BC7047000080
:101CD000D00A00200B4A816952F82130834204BFA8
:101CE000036842F82130416800291CBF02680A607D
:101CF000016800291CBF42684A6000210160416000
:101D000070470000D00A002070B40020144DDFF8A6
:101D100054C002464FEA00045CF82210D9B1CB68E7
:101D20001B68EB5CA3B18B695CF823608E4204BF37
:101D30000E684CF823604B68002B1CBF0E681E60B9
:101D40000B68002B1CBF4E685E60C1E900040846AA
:101D500009680029E3D1521C022ADDDB70BC704700
:101D6000A06A0508D00A00200228A4BF00207047FE
:101D7000064951F82000002808BF7047C16809686B
:101D800000291CBF00680028F8D17047D00A002045
:101D900070B584B01C4615460E46CDF80CD003AB8A
:101DA00000222146FFF79AFD2A463146684600F098
:101DB0008DF804B070BD0000002808BF70472DE901
:101DC000F04F83B0054600F06FFA00F077F93E4C13
:101DD00007462068B0F9226000F0AAF92168814620
:101DE0008A8CA2EB09008884287800281CBFA7F100
:101DF00001080FFA86FA46D047F6FF71284602F02E
:101E00007FFC83460146284602F040FC21680646D6
:101E100091F82C0000F00300012808BF304605D0DF
:101E2000022812BF002006EBD67040104A8C101A10
:101E30004884ADF80000721E1044ADF80400888C90
:101E4000ADF802004044ADF806006A4659462846FF
:101E500002F040F92168BDF80200888459462846FE
:101E600001F0C4FD054428780A2818BF0D2817D0B2
:101E7000BDF80000216830444884287818B115F86E
:101E8000010F0028B8D12068818C49448184818D5C
:101E900021F00301818501F0D9FE03B0BDE8F08F88
:101EA000206890F82C1001F00301012917BF0229C6
:101EB000A0F822A0018C418429780A29DDD1818CE7
:101EC00039448184D9E70000B80A002070B514466F
:101ED0000D46064600F0E8F90548016830464D8495
:101EE0008C84FFF769FFBDE8704001F0AFBE0000D1
:101EF000B80A00202DE9F04F89B015460E46044679
:101F000000F0D2F9364F3868C16C006D0E440544BC
:101F1000ADF818602088ADF81A503044401EADF876
:101F20001C0060882844401EADF81E0006A806F07C
:101F300085FF00281CBFDFF8ACB04FF0010A42D08B
:101F40000020D4F80C9001F0F3FB8046B9F1000FAB
:101F50001BBF99F80400002828F0020048F0020096
:101F600001F0E6FB206970B1D4E902120091CDE9DD
:101F7000012ACDF80CA0D0F800C063882288294639
:101F80003046E04718E03868DBF800302146427CF4
:101F9000E0689847E0B1A288E388A168CDF800A086
:101FA000CDE90410CDE90232CDF804A0638822887F
:101FB0002946304602F0F2FF404601F0B9FB06F038
:101FC0006FFD0028BCD101F041FE09B0BDE8F08FE3
:101FD000E088012812BF00203868806BDBE7000032
:101FE000B80A0020B00A002070B5094E0025002470
:101FF000306818B18047002818BF012406F0DEF8C9
:1020000000280CBF002C0125F1D1284670BD00002E
:10201000D80A0020034951F82000C1688A6A0821C3
:1020200010470000D00A002010B500F03DF903F081
:1020300099F903F075FB044601F008FE204610BD37
:1020400010B5044600F030F9054920460968C96911
:102050004A6800219047044601F0F8FD204610BD73
:10206000B80A002070B50C46054600F01DF9064A76
:10207000214628461268D26952689047044601F00A
:10208000E5FD204670BD0000B80A002010B500F044
:102090000BF903F06FF903F043FB044601F0D6FDA2
:1020A000204610BD10B500F0FFF803480068047C1E
:1020B00001F0CCFD204610BDB80A002010B500F09C
:1020C000F3F804480068C069447E01F0BFFD204673
:1020D00010BD0000B80A002070B514460D46064633
:1020E00000F0E2F822462946304603F0F1F910B13B
:1020F000002028602060BDE8704001F0A7BD00000E
:1021000070B50C46054600F0CFF80648B0F900005F
:1021100028600548B0F900002060BDE8704001F07B
:1021200095BD0000E80A0020EA0A002001F0A7BDE2
:1021300010B5002400F0B8F80B48006890F82C1097
:1021400001F00C01042904D0082918BF0C2907D17B
:1021500003E0C069007E441E02E0C069007E4408BE
:1021600001F074FD204610BDB80A0020024951F864
:102170002000006900687047D00A0020024951F829
:102180002000006940687047D00A002070B50C46F6
:10219000054600F089F8044801684D8400258C84C8
:1021A00001F054FD284670BDB80A002070B53348D0
:1021B000016821F001010160314801268660314942
:1021C000016000683049884200D0FEE72F4800686F
:1021D000C0F30B00A0F58061193900D0FEE72C4D4B
:1021E000A86958B9AE6101F03BFD03F0A1FE05F10D
:1021F0001C00284901606969416068612E202870CF
:1022000001F041FDE868244C011DC0E90E01091DE3
:1022100000646161417C214850F82100C1680A6B6B
:1022200004F1080190471E48E066A868E061E8688C
:1022300008306061267606F0C5F8A064032084F8B3
:1022400070006FF0704020636063002003F0CEFCEC
:102250006FF07F4003F004FD12482861FEF74EFF47
:102260000CF008FC04460021084601F0A3FA06F031
:10227000CFF8FEF719FF204670BD0000002000E0F7
:1022800000300240C2A507F4CDB5E8B5002004E057
:10229000AC0A002081DF000830F50020D00A0020C1
:1022A000986A05081C70050870B5204CE06820B1DC
:1022B00001F0E1FC6168884204D001F001FD01F009
:1022C000DAFC6060E068401CE060012818BF70BD67
:1022D0000025A06800280CDD01F0CDFC216901EB90
:1022E000C5110968814205D0D9B1A0686D1CA8420A
:1022F000F2DC00252068854208BF70BD00280EDB97
:10230000FFF702FD2268216901EBC212D067084A7B
:1023100001EBC510011D1160C06FFFF793FC256034
:1023200070BD216901EBC5110860E3E7400B002097
:10233000B80A0020002808BF704738B50446FFF7E8
:10234000B3FF2046FFF74CFA40F6FF710090818002
:10235000C1804942018141816846FFF799FA01F045
:1023600075FC38BD30B51D4883B000220068437C41
:102370001B4850F8230001691A48FFF7ADFB050020
:1023800004BF03B030BD1820FFF77DF904001FD053
:10239000FFF78AFF2046AC60FFF722FA0090056045
:1023A000FFF782FF2046FFF71BFA40F6FF7101900E
:1023B0008180C18049420181418101A8FFF768FA0B
:1023C00001F044FC6846FFF763FA01F03FFC02E0CD
:1023D0002846FFF7E5FB03B0204630BDB80A0020D1
:1023E000D00A0020D078050838B504460E480068A9
:1023F000006EA04208BF01F05FF9FFF755FF2046CD
:10240000FFF7EEF9009005686846FFF741FA2046AD
:10241000FFF758F92846FFF75DFC2846FFF7C0FB99
:1024200001F014FC38BD0000B80A0020002808BFE5
:10243000704738B50C460546FFF736FF74B128469D
:10244000FFF7CEF9009081882180C18861800189E1
:10245000A1804089E0806846FFF71AFA01F0F6FB98
:1024600038BD000038B5040018D005F0A7FD0D4DAB
:1024700028680466FFF718FF2046FFF7B1F90090BF
:102480000068FFF78FFB2968002048616846FFF766
:10249000FFF901F0DBFB03F0D5FB38BD01F00CF9CF
:1024A00038BD0000B80A002010B582B0040006D183
:1024B0000F480068046E002C04BF02B010BDFFF787
:1024C000F3FE2046FFF78CF9009044696846FFF759
:1024D000DFF94CB12046FFF783F9019081688968E4
:1024E000884701A8FFF7D4F901F0B0FB02B010BD96
:1024F000B80A002001490A4600F002B801F0FFFFC7
:10250000002808BF70472DE9F04784B015460C46F7
:102510008146FFF7C9FE002001F00AF9354E8046DA
:102520003068076E4846FFF75BF9029000688069E3
:1025300001F0D0F8824640F6FF70001904D10298ED
:10254000B0F90440B0F906500298ADF80040018996
:10255000ADF802502144491EADF8041040892844CA
:10256000401EADF8060005F031FC02A8FFF790F917
:10257000684606F063FC40B12A462146484600F012
:10258000D3FB06F08DFA0028F6D1504601F0A2F8F0
:102590003C46FFF789FE3068006EF4B1002818BF92
:1025A00001F08AF805F00AFD2046FFF719F9014607
:1025B00003903068026E002A04BFD0E90223C0E90C
:1025C000192304660868FFF7EDFA03A8FFF760F91E
:1025D00003F09CFC03F036FB01E001F06DF801F024
:1025E00035FB404601F0A4F801F030FB04B0BDE833
:1025F000F0870000B80A0020012101740020704714
:102600002DE9F04F83B01F469046894682464FF031
:10261000000B0C9EFFF748FE18480068417C1848E4
:1026200050F82140E0680068042803D02468002C9A
:10263000F8D100E01CB90846FFF796FB04460121DB
:10264000E068C26A20469047050011D02469A0685E
:102650008047401C04BF0B4C46F001063B460096E9
:10266000CDE9015442464946504600F033FA8346CC
:1026700001F0ECFA03B05846BDE8F08FB80A00202C
:10268000D00A00200C790508002808BF704738B52B
:102690000446FFF709FE0E480068006EA04208BF1E
:1026A00001F00AF82046FFF79BF8009040690028E7
:1026B00018BF01F0B4FA00980068FFF771FA684695
:1026C000FFF7E6F82046FEF7FDFF01F0BFFA38BD40
:1026D000B80A00202DE9FF4F83B0DFF83091DDF814
:1026E00040B09A460F4606002ED002A901A8FFF777
:1026F00007FDB6F90050002DB8BF0025B6F902401D
:10270000002CB8BF0024B6F90480D9F80000407C42
:1027100002F003FF01990844401E8045C8BF80466F
:10272000B6F90660D9F80000407C02F01EFF02995D
:102730000844401E8642C8BF0646A8EB050000F1CB
:102740000108301B461C0DE0D9F8000000252C467E
:10275000407C02F0E2FE8046D9F80000407C02F0A6
:1027600004FF0646BAF1000F08BFC6F1000AB8F12F
:10277000000FCFBF002E002007B0BDE8F08F5346FA
:10278000424621462846CDF800B0FFF739FF5FEA00
:10279000000A34D000F0C4F88146504600F002F937
:1027A000DFF86CB04FF00008A6EB08014945BCBF4C
:1027B000504600F0D9F8B8F1000F08D004EB080239
:1027C0002946504600F01CF95046FFF76DFE05986B
:1027D000B847DBF8001000291CBF0020884750468E
:1027E000FFF788FEC844B045DEDB5046FFF74CFFDC
:1027F000002000F0D7F807B00020BDE8F08F059862
:10280000B84707B00120BDE8F08F0000B80A0020EB
:10281000600B00202DE9FF4F81B016460D4604469F
:10282000FFF7A0FD0090002846D0FFF71BFE4FF0F9
:10283000010885F80180207CA0B185F8008004980B
:10284000B04721460098FFF7F1FD0098FFF772FDB1
:10285000002028700498B04704F108010098FFF7A1
:10286000E5FD19E00498B04721460098FFF7DEFD2A
:102870002146B4F800B0B4F804A0B4F80290E78898
:1028800004F10802084600F019FEA4F808B0A4F804
:102890000CA0A4F80A90E7810098FFF7A5FD002797
:1028A0006F7085F800803B46CDF8008031462046A9
:1028B000049AFFF70FFF18B105B00120BDE8F08FB3
:1028C0002F70277405B00020BDE8F08F38B50500E3
:1028D0004FF0000411D0FFF7E7FC2846FEF780FF19
:1028E0000090006800698068804703F075FD044629
:1028F0006846FEF7CDFF01F0A9F9204638BD38B58E
:102900000446FFF7D1FC2046FEF76AFF00F11804E9
:1029100000906846FEF7BCFF01F098F9204638BDEC
:1029200038B504460025FFF7BFFC1CB9084800680D
:10293000046E44B12046FEF753FF0090B0F90A50F0
:102940006846FEF7A5FF01F081F9284638BD000072
:10295000B80A002010B507F0E1FA002808BF10BD42
:10296000BDE8104000F084B838B50C46050005D12C
:102970000B480068056E002D08BF38BDFFF794FCBA
:102980002846FEF72DFF0090B0F90A10A142B8BF0B
:102990000C4644816846FEF77BFF01F057F938BDCD
:1029A000B80A0020F8B50446FFF77EFC134E3068E5
:1029B000056EECB1002D18BF00F07EFE05F0FEFAAA
:1029C0002046FEF70DFF009031680A6E002A04BF12
:1029D000D1E90223C1E919230C660068FFF7E2F888
:1029E0006846FEF755FF03F091FA03F02BF901E07A
:1029F00000F062FE01F02AF92846F8BDB80A00206E
:102A000070B582B015460E46040006D1174800681E
:102A1000046E002C04BF02B070BDFFF745FC2046D9
:102A2000FEF7DEFE2DB20090C58034B2848003F044
:102A300009F90098406988B1FEF7D2FE009A01902A
:102A4000B2F908108180B2F90A20C28000291EBFA5
:102A5000002A0480458001A8FEF71AFF6846FEF7A9
:102A600017FF01F0F3F802B070BD0000B80A0020B3
:102A700070B584B0060004BF04B070BDFFF714FC4D
:102A80003046FEF7ADFE0290B0F90450B0F90640B2
:102A9000ADF800500189ADF802402944491EADF857
:102AA000041040892044401EADF8060002A8FEF73D
:102AB000EFFE684606F0C2F940B12246294630468C
:102AC00000F018F905F0ECFF0028F6D101F0BEF88F
:102AD00004B070BD2DE9FF4FDFF8F4B083B01C46A1
:102AE000DBF80000DDE9107C92460026437C32468C
:102AF00060461299FEF7F0FF050065D028698068EE
:102B0000804703F069FC81460AFB09F0C01D4FEACB
:102B1000D008FEF77BFE17F0010F05D1C11700EBBF
:102B20009170801000EB4000002C06DC1838B0FBE0
:102B3000F8F06442A042D8BF044617F0010F08D154
:102B400000200090DDE903012346524600F0D2FF49
:102B50000646002C06DC2846FFF722F807B00020C6
:102B6000BDE8F08F04FB08F0183017F0010F02D019
:102B7000FEF77AFD01E0FEF786FD07001CD0FEF7A8
:102B80002FFE01900560039981800499C180A0F80F
:102B900008A04481C0F80C80C0E9049601A8FEF7A3
:102BA00077FE1298AF602861DBF80000407CA861D6
:102BB00007B03846BDE8F08F2846FEF7F1FF002E3B
:102BC0001CBF3046FEF77EFD002007B0BDE8F08F49
:102BD000B80A00202DE9F74F8CB015460C98FEF787
:102BE000FFFD0990B0F90840B0F90A10089100689B
:102BF0000069D0F8049009A8FEF74AFE3A4E3B4F10
:102C00003068407C57F82000C1688A6A08219047E4
:102C10000790182824BF202007903068407C57F880
:102C2000200000690690D0E900613148814214BF5C
:102C3000012000200A90002001F05EF800280EBF5D
:102C400000270FB0BDE8F08FB846DDE90C0B7F1C04
:102C50000DF12C0AFFF753FE04FB08F100EB810293
:102C6000CDE9009A23462946584601F001FB5FEA68
:102C7000000B04BF0FB0BDE8F08F0A98E0B1DDE9AA
:102C800006322146584601F023F9A8B90698A24613
:102C9000D846D0F810C0BCF1000F05D05946042327
:102CA00022460846E04707E0D8F80000B04748F859
:102CB000040BBAF1010AF7D100200799CDE90210FF
:102CC000CDE904B0012000902946034601906D1C17
:102CD00022460D9802F062F90898401E0890B3D180
:102CE0000FB0BDE8F08F0000B80A0020D00A002025
:102CF000AF570008F8B515460E460746FEF770FDBB
:102D0000009000681621C068436A00209847044676
:102D10006846FEF7BDFD002C08BFF8BD2A463146C7
:102D20003846A047F8BD00002DE9F04FA1B092460B
:102D30000F460646FEF754FD1890D0F814B018A8B8
:102D4000FEF7A6FD3046FFF7C1FDFE4D4FF000092E
:102D50004FF00108082803DDBBF1000F00F0F981F6
:102D6000F949CDF834A0D1E90001CDE91A01304686
:102D7000FEF736FD0F904469C16817910169129101
:102D8000B0F908100C91B0F90A000B902868407C4B
:102D9000FFF740F91D900F98006800694068159092
:102DA0002868407CFFF7EAF983460FA8FEF770FD1C
:102DB000129908299CBF0120119004D9102994BFB1
:102DC00002200420119001290CBF0DF1680A4FF078
:102DD000000A1D98082828BF082940F2018115988B
:102DE000584500F0FD802868407CFFF7BFF91E9031
:102DF0000C988000FEF738FC1C90002804BF21B01E
:102E0000BDE8F08F3046FFF77AFD0790002C00F008
:102E1000D1802046FEF7E4FC199000200A900B9820
:102E200000287DDD19984FF0000BCDF824B08168A3
:102E30000A9A4B6909A998470C990446884235D1EA
:102E40001C98FEF7CDFC169005461D98079EDDF8F0
:102E50005490DDF8788002940390049536F8020BC4
:102E6000C847C04745F8040B641EF7D103982028D3
:102E700004D202460299049800F060FF1D9816994A
:102E8000CDE9020B01200090CDE9041A01900A99C6
:102E90000D980123014438460C9A02F07FF816A8D9
:102EA000FEF7F6FC07991798084450E0129801289D
:102EB00059D0002C48D00A990D98084413901C98BA
:102EC000FEF78EFC16900546099A11990798DDF8D1
:102ED000789002FB01061D980190DDF854B0A046E1
:102EE000CDF8105036F8020BD847C84745F8040B08
:102EF000B8F10108F6D10198202804D202462146F3
:102F0000049800F01BFF00201D99169ACDE90210CD
:102F100001200090CDE9042A01900998384400E08E
:102F20001DE001232246139902F038F816A8FEF797
:102F3000AFFC09980A9A20440990199881684B6956
:102F400009A998470400BAD117990798084407902F
:102F50000A980B99401C0A908842FFF663AF19A8A3
:102F6000FEF796FC36E0002CEED00A990D9801256C
:102F700046180998079900F0070201EBE00317993A
:102F8000CDE90313CDE905A212990095CDE90151D0
:102F9000384401232246314603F020F909980A9A61
:102FA00020440990199881684B6909A99847040041
:102FB000DFD1C9E7CDF814A0129A1799CDF8008097
:102FC000CDE90310CDE90182DDE90C2138460B9BE8
:102FD00001F0E4FF1C98FEF775FB21B0BDE8F08F0F
:102FE0003046FFF78CFC0546002C72D02046FEF7D9
:102FF000F7FB19900B980026002864DD1998CDF88E
:103000002490324681684B6909A998470C99044677
:1030100088422AD11998B346721C81684B6909A964
:103020009847A04208D11998761C721C81684B6998
:1030300009A99847A042F6D017981299CDE9021035
:10304000CDF800800D98CDE9045AA6EB0B0400EBF7
:103050000B01631CCDF8048038460C9A01F09EFFEA
:103060001798611C01FB005529E01298012831D006
:10307000002C1CBF0D9800EB060B1ED0119909986F
:10308000129B00FB01521799CDF80080CDE9023167
:10309000CDE9042A3844CDF804800123224659465C
:1030A00001F07CFF09983246204409901998816804
:1030B0004B6909A998470400E0D1179805440B987B
:1030C000761C86429ADB19A8FEF7E2FB21B0BDE828
:1030D000F08F26E0002C1CBF0D9800EB060BECD007
:1030E0000998179B00F00701CDE905A105EBE00267
:1030F000CDE903321299CDF80080CDE90181384441
:1031000001232246594603F069F8099832462044C3
:103110000990199881684B6909A998470400DFD183
:10312000CBE717981299CDE90210CDF80080CDE9D0
:10313000045ADDE90C21CDF8048038460B9B01F0E0
:103140002DFF03E0B80A00200479050821B0BDE88E
:10315000F08F039604460C9756460398FEF740FB03
:103160000890B0F90AA0C1681830CDE901012868BB
:10317000407CFEF74FFF082898BF012703D910288D
:1031800094BF02270427089801680A6911922968E8
:10319000BC4A497C52F82110119A09690A91D2F867
:1031A00004B00D688A4212D1DDE90112CDF8149005
:1031B000CDF80080CDE90321CDE90184B0F90820E4
:1031C000534631460C9801F0E9FE00F053B9202C2B
:1031D00003D0102C7ED000F04DB9B0F9084008A8FB
:1031E000FEF756FB07FB04F0FEF73EFA14900028AA
:1031F00000F04081FEF7F4FA12900398FEF7F0FA1F
:1032000000F118044FEAC70B08900898012FB0F995
:10321000088004D0022F1BD0042F4AD131E00A9835
:10322000DDF84890D0F810C0BCF1000F07D00123A2
:10323000424649462046E04704EB880439E054F80A
:10324000040BA84709F8010BB8F10108F7D130E0E9
:103250000A98DDF84890D0F810C0BCF1000F07D0F4
:103260000223424649462046E04704EB880420E01A
:1032700054F8040BA84729F8020BB8F10108F7D15C
:1032800017E00A98DDF84890D0F810C0BCF1000FA4
:1032900007D00423424649462046E04704EB880411
:1032A00007E054F8040BA84749F8040BB8F10108EB
:1032B000F7D112990020CDE903010590012000907B
:1032C000CDE9010B08983146761CB0F9082001239E
:1032D0000C9800E005E001F061FEBAF1010A94D11A
:1032E000C2E0B0F9084008A8FEF7D2FA07FB04F0E4
:1032F000FEF7BAF9149000287ED0FEF771FA12900A
:103300000398FEF76DFA00F118040890B0F9080070
:103310008000FEF7A9F9159010B1FEF761FA079049
:10332000F80016900898012FB0F9088004D0022FF9
:103330002AD0042F79D14FE00A98DDF8489000692F
:10334000C0B11198D0F814C0BCF1000F1CBF159883
:1033500000280FD00223424620460799E0470A98EA
:1033600001234246D0F810C049460798E04704EBD5
:1033700048045AE034F8020BD847A84709F8010B73
:10338000B8F10108F6D150E00A98DDF848900069DC
:10339000C0B11198D0F814C0BCF1000F1CBF159833
:1033A00000280FD00223424620460799E0470A989A
:1033B00002234246D0F810C049460798E04704EB84
:1033C000480432E034F8020BD847A84729F8020B2A
:1033D000B8F10108F6D128E00A98DDF848900069B4
:1033E000D0B11198D0F814C0BCF1000F1CBF1598D3
:1033F000002811D0022300E03CE042462046079915
:10340000E0470A9804234246D0F810C0494607987E
:10341000E04704EB480408E034F8020BD847A8471B
:1034200049F8040BB8F10108F6D10020129A169958
:10343000CDE90210CDE90420012000900190089808
:103440003146761CB0F9082001230C9801F0A6FD46
:10345000BAF1010A7FF466AF159828B107A8FEF704
:1034600017FA1598FEF72EF912A8FEF711FA14981C
:10347000FEF728F90898002818BF08A87FF424AEA2
:103480005FE60000D00A0020094A1268002A18BF2F
:103490000020084A52F82030002BB8BF7047064B76
:1034A00043F820104FF0FF3142F820107047000021
:1034B000EC0A0020080B0020F00A0020002808BFBA
:1034C000704709B32AB3B1F900C0B2F900309C4586
:1034D000B8BF63460380B1F902C0B2F902309C451F
:1034E000B8BF63464380B1F904C0B2F904309C45CB
:1034F000C8BF63468380B1F90610B2F90620914235
:10350000D8BF1146C180704711685268016042609F
:1035100070470A684968026041607047002808BF28
:10352000704703880B440380838819448180418855
:1035300011444180C1881144C180704710B50024F6
:10354000FEF7B2FE0A4BD3E9002082420BD0DFF82F
:1035500024C0D2E9000162450CBF074A08321A6054
:1035600005F07CF8012400F071FB204610BD00003E
:10357000C80B002028F60020D8F5002070B51A4CA2
:1035800082B02468DDE9066CB4F908508542C8BFF2
:103590002846B4F90C509542B8BF2A468242BCBFB7
:1035A00002B070BDB4F90A508D42C8BF2946B4F9C3
:1035B0000E409C42B8BF23468B42BCBF02B070BDD8
:1035C000DCF80C402468002C18BF042C05D0DCF873
:1035D0000040002C18BFA446F2D1CDE9006C02F0E7
:1035E000FFF902B070BD0000B80A0020B0F9022057
:1035F000B1F906309A4213DCB1F90220B0F9063075
:103600009A420DDCB0F90020B1F904309A4207DC8F
:10361000B1F90010B0F904008842A4BF012070473E
:10362000002070470146024878220068FCF72EBE51
:10363000B80A0020DFED1A0A2DE9F04120EE200A39
:10364000DFED180A0446164680EE201A0D46BDEE40
:10365000C10A10EE108A404600F0F4FC07464046CE
:1036600001F0D0F9002EC6BFAB1CA11CBDE8F08153
:1036700035F9042B33F904CB02FB07F80CFB008867
:103680000CFB07FC02FB10C24FEA2848121424F876
:10369000048B21F8042B761EEAD1BDE8F0810000EE
:1036A00000C82F48DA0F4940024978220968FCF720
:1036B000EDBD0000B80A002010B5FEF7F5FD02F0E0
:1036C00073FA02F023FC04F081FBBDE8104000F027
:1036D000BDBA000070B5094D04462868467CFEF767
:1036E000E3FD022C03D228684474FFF7E5FF044889
:1036F000046000F0ABFA304670BD0000B80A00204C
:103700006C0B002010B50446FEF7CEFD204602F0FB
:103710006DFABDE8104000F099BA10B50446FEF706
:10372000C3FD204602F09CFABDE8104000F08EBABE
:1037300010B50446FEF7B8FD204602F0B9FA04467B
:1037400000F084FA204610BD70B50446FEF7ACFDCB
:103750000448002C0068C56918BFC46100F076FAFF
:10376000284670BDB80A00200149C86170470000B2
:103770007C0A00200149486070470000AC0A002024
:1037800001490860704700007C0A00200149486038
:10379000704700007C0A002070B50446FEF784FDE7
:1037A00003480068857E847600F050FA284670BD94
:1037B000B80A002070B50C460546FEF775FD0948AD
:1037C000224605800848048008480068417C084873
:1037D00050F82100C1680B6A29469847BDE870403F
:1037E00000F034BAE80A0020EA0A0020B80A0020F3
:1037F000D00A002070B50446FEF756FD0348006865
:10380000057E047600F022FA284670BDB80A002032
:1038100070B50446FEF748FD04480068B0F92C5026
:10382000848500F013FA284670BD0000B80A002015
:1038300070B50446FEF738FD04480068B0F92A5018
:10384000448500F003FA284670BD0000B80A002045
:1038500002480068002808BF70470047D40B0020CA
:1038600003498A68002A08BF8860FFF7F1BF00009B
:10387000C80B0020002808BF704770B584B004460C
:10388000FEF712FD294E3068A04218BF054606D14A
:10389000FDF7A6FF009080683060684610E028467B
:1038A000FDF79EFF01908068A04219D1FDF798FFB7
:1038B00001990090806888606846FDF7E9FF01A8DB
:1038C000FDF7E6FF4CB32046FDF78AFF00907568D0
:1038D000A5420AD1406870606846FDF7D9FF1CE038
:1038E000054601A8FDF7D4FFD9E79DB12846FDF7AD
:1038F00077FF01904568A54207D10098019940687B
:10390000486001A8FDF7C4FF04E001A8FDF7C0FF6F
:10391000002DEBD16846FDF7BBFF2046FDF7D2FE38
:1039200004B0BDE8704000F091B90000080C002020
:1039300038B50C46050008BF01240FD0FEF7B4FCD3
:103940002846FDF74DFF00908089204214BF0124D6
:1039500000246846FDF79CFF00F078F9204638BD4A
:1039600038B50446002020600648056845B1284661
:10397000FDF736FF0090006920606846FDF788FF7C
:10398000284638BD080C002038B504004FF0000070
:103990000D46086011D02046FDF722FF0090846894
:1039A00044B16846FDF774FF2046FDF719FF00900B
:1039B000006928606846FDF76BFF204638BD0000AF
:1039C0002DE9F041084E0446056830680168284634
:1039D0008847074630684168284688472844206061
:1039E0003846BDE8F0810000BC0A00202DE9F04116
:1039F00000244D1E0646002918BF064F07D0386820
:103A0000416830468847064404446D1EF7D220467C
:103A1000BDE8F081BC0A00202DE9F0411F46069D5B
:103A20001446884606462246B068641C3B46D0F8D9
:103A300004C041463046E0476D1EF4D1BDE8F08138
:103A400070B5B0F900C0A1EB0C01B0F904C08C4511
:103A5000D8BF70BD00F1140CB0F902400069121B10
:103A600002FB00C000EBE104C818421ED010B0EB0E
:103A7000E1004FF0FF0302F00702C2F1070201F07C
:103A8000070103FA02F223FA01F1D5B210D022782D
:103A9000461E114304F8011B002E05DDFF223146AE
:103AA0002046FCF713FC344420782843207070BD76
:103AB000207829400843F9E7B0F90030B0F902C096
:103AC000C91A00F114030069A2EB0C0202FB0030DA
:103AD00000EBE10001F007010278802323FA01F1F5
:103AE000114301707047B0F9061002695143143058
:103AF000FCF7F3BB2DE9F843804602F10F000011FB
:103B0000460003FB06F01C4615460F461430FDF731
:103B1000BAFD5FEA000908BFBDE8F883FEF7C4FB01
:103B20004846FDF75DFE0090A0F800804780858044
:103B3000C480064981600121818106616846FDF7E4
:103B4000A7FE00F083F84846BDE8F8839879050899
:103B500030B4B0F90650B0F904400B6800F1140C11
:103B6000954220DD00699C4202FB00C000EBE30CA3
:103B700019DD601EC010A0EBE3041CF8010B03F07C
:103B80000702904010F0FF0009D164B11CF8010B4E
:103B9000641E03F1080222F007030028F5D010F09C
:103BA000800F09D102E030BC002070474006000EB3
:103BB0005B1C10F0800FF9D0FF2808BFDA1D0CD075
:103BC0001A4610F0400F08D04FEA40604FEA1060EC
:103BD00002F1010210F0400FF6D10720904312D1FC
:103BE000641E10D41CF8010BFF2813D010F0800FB6
:103BF00009D000BF4FEA40604FEA106002F10102B5
:103C000010F0800FF6D10B60A2EB030030BC00F186
:103C10000100704702F10802641EE3D5F3E738B5EE
:103C20000546FEF741FB2846FDF7DAFD0090818945
:103C3000491E0CB284816846FDF72AFE002C04BFA1
:103C40002846FDF73FFD00F001F838BD0348C16884
:103C5000491EC16018BF704700F042B8400B0020F9
:103C600010B54FF480110248FDF724FD10BD00008F
:103C7000000050D0704710B50BF0D4FF10BD10B548
:103C80000BF0E6FF10BD704710B501200BF06AFD88
:103C9000094908600322002101200BF089FD074932
:103CA00008600846006830B100231A4619460348E8
:103CB00000680BF065FE10BD480000204C0000209D
:103CC00010B50648006808B9FFF7DEFF00235A1E4A
:103CD0001946024800680BF092FD10BD4800002014
:103CE00010B500231A461946024800680BF048FE3A
:103CF00010BD00004800002000B583B0002814BFAC
:103D000002AA0022002301A9684600F073FC03B058
:103D100000BD0000084910B5CC68002814BF012080
:103D20000020C86014BF4FF0FF306FF07F4000F0FC
:103D3000D7FF204610BD0000E80B002030B4082A51
:103D400020DC0346012A4CD0022A7DD0042A00F050
:103D5000AD800129D8BF0121181F5A1E11F0010F93
:103D600003D010F8043F02F8013F491007D003794F
:103D7000537010F8083F02F8023F491EF7D130BCDB
:103D800001207047102AC2BF002030BC70470222B9
:103D9000022AF4D10129CABFA1F1010C0121BCF111
:103DA000000F16DD021F831E11F0010F03D132F840
:103DB000044F23F8024F54685FEA6C0C09D000BF2F
:103DC00032F8085F5C80546823F8045FBCF1010C92
:103DD000F6D1491E0029A4BF30F8212020F8112077
:103DE000CDE710F8042BD207120E491E37D010F879
:103DF00004CB491E0CF0010C42EA8C122FD010F8B3
:103E000004CB491E0CF0010C42EA4C1227D010F8EA
:103E100004CB491E0CF0010C42EA0C121FD010F822
:103E200004CB491E0CF0010C42EACC0217D010F86A
:103E300004CB491E0CF0010C42EA8C020FD010F8A2
:103E400004CB0CF0010C00E00EE042EA4C02491EEB
:103E500005D010F804CB0CF0010C4CEA020203F878
:103E6000012B0029BDD18AE710F8042B9207120E0E
:103E7000491E16D010F804CB491E0CF0030C42EA80
:103E80000C120ED010F804CB491E0CF0030C42EAC1
:103E90008C0206D010F804CB491E0CF0030C4CEA3F
:103EA000020203F8012B0029DED168E710F8042B89
:103EB0001207120E491E06D010F804CB491E0CF052
:103EC0000F0C4CEA020203F8012B0029EED156E751
:103ED0002DE9F0411E680D460446082A0ADC80469A
:103EE000012A22D0022A62D0042A7DD0082A40F07A
:103EF000A68092E0102AC4BF0020BDE8F081022015
:103F0000022853D1D3F810C02746BCF1000F04D0CB
:103F10000A4621460223084688E054F8040BB047BD
:103F200027F8020B6D1EF8D189E054F8040BB04756
:103F3000C007070E6D1E35D054F8040BB04747EA92
:103F40008010C7B26D1E2DD054F8040BB04747EA5D
:103F50004010C7B26D1E25D054F8040BB04747EA95
:103F60000010C7B26D1E1DD054F8040BB04747EACD
:103F7000C000C7B26D1E15D054F8040BB04747EA15
:103F80008000C7B26D1E0DD054F8040BB04747EA4D
:103F90004000C7B26D1E05D054F8040BB04738433B
:103FA000C7B26D1E08F8017B002DBED147E054F862
:103FB000040BB0478007070E6D1E17D054F8040B92
:103FC000B04747EA0010C7B26D1E0FD054F8040B7B
:103FD000B04747EA8000C7B26D1E07D054F8040B03
:103FE000B0473843C7B200E005E06D1E08F8017B1A
:103FF000002DDCD123E054F8040BB0470007070E76
:104000006D1E05D054F8040BB0473843C7B26D1E7F
:1040100008F8017B002DEED111E0D3F810C0BCF1FF
:10402000000F05D00A46014601234046E04706E05E
:1040300054F8040BB04708F8010B6D1EF8D10120AD
:10404000BDE8F08100F5A83010B400F579600028D3
:10405000BABF4FF0FF31404201211B4A90FBF2F3FF
:1040600002FB130052109042C2BF4942A0F5283013
:10407000A0F5F950154A9042C4BFC0F5F95000F5BB
:1040800028304FF47A7390FBF3F26FF07C0C02FB54
:104090000CFC00EBCC005A2AA8BF4FF480300DDA9C
:1040A000DFF82CC00CEB82045CF822206468A4EBDF
:1040B000020C0CFB00F0B0FBF3F010440029D8BF59
:1040C000404210BC70470000407E0500905F010038
:1040D000886E05082DE9F04306466148DFF88481C3
:1040E000614C0068614D85B00F46002843D0002028
:1040F00004F0A4FE002804BF05B0BDE8F083E94643
:10410000CDE90276D8F8002002A930469047039006
:104110002068406918B14946FFF768FA20B30120CA
:1041200000F066FB2068C069406920B18268DDE963
:104130000210904715E00298401E029011D403A887
:10414000FFF73EFC81462068C06901684846884701
:10415000296800291CBF484688470298401E0290E3
:10416000EDD5002000F044FB04F09AFC0028C6D1F5
:1041700005B0BDE8F08351681068CDE90001206802
:10418000BDF80010B0F84C201144ADF80010BDF897
:104190000210B0F850201144ADF80210BDF8041020
:1041A000B0F84C201144ADF80410BDF80610B0F87A
:1041B00050000844ADF80600684604F03FFE0028B1
:1041C00040D000BF2068BDF80010E9464184BDF82A
:1041D00002108184CDE90376D8F8002003A9304687
:1041E000904704902068406918B14946FFF7FEF9EE
:1041F00020B3012000F0FCFA2068C069406920B1BA
:104200008268DDE90310904715E00398401E039093
:1042100011D404A8FFF7D4FB81462068C069026866
:1042200048469047296800291CBF4846884703989C
:10423000401E0390EDD5002000F0DAFA04F030FCC7
:104240000028BFD12068418CB0F84C20891A4184E5
:10425000818CB0F85020891A818405B0BDE8F083C4
:10426000E40A0020C40B0020B80A0020E00A002065
:104270002DE9FF4F00208BB00746014600901998AA
:104280001E469346016008AB002203A902A800F075
:10429000B1F900281EBF00200FB0BDE8F08F0898CC
:1042A0008642C8BF0646754C75492068407C51F867
:1042B0002010059109690691FDF7ACFE0490206875
:1042C000407CFDF75BFF81466E4881451BBF6E4811
:1042D00081450020012009900B998819CDF81C0018
:1042E00018995BF8040B884782465FEA106800F073
:1042F000B6800098002838D10B98C5195F4800682F
:10430000B0F90800A842C6BF441B05460024029924
:10431000059801EB870101EB8401CDE900100798B6
:104320000C9B421E19462846FFF728F901200090F1
:10433000049818280ADA0298311B00EB870000EB7A
:104340008400069B049A00F0A3F80EE0099860B17F
:10435000029800EB870000EB84040798451B206857
:10436000C84744F8040B6D1EF9D14848C06978B3BA
:10437000DDE9020500EB870005EB8702CDE90202CB
:10438000DFF808C1ABF104043346DCF81CC020465A
:104390000299E047012ED8BF01264FF07F42DDE9A8
:1043A0000201236832EA030C04BF03680B6005D0E6
:1043B000D0F800C032EA0C0C08BF0B60241D001DB1
:1043C000091D761EEDD1199901200395086050E072
:1043D000FFE70298B8F1FF0F50F8270004BF0399D8
:1043E00041F8270041D04FF07F42C8F1FF0132EA87
:1043F00000032DD00AF0FF0313FB01F30AF47F4CF6
:104400000AF47F0408FB01F50CFB01FC4C43C1F1ED
:10441000FF0100F0FF0818FB013300F47F4808FBA0
:1044200001CC00F47F0808FB0144000E10FB015191
:10443000100C00EA1C20C3F307234FF47F0C0CEA96
:10444000142C184302EA014140EA0C0040EA010A38
:10445000039840F827A019990120086005E0039807
:10446000012140F827A0199801607F1C761E7FF477
:1044700037AF03980FB0BDE8F08F0000B80A0020F6
:10448000D00A0020AF570008AD5700087C0A002072
:104490000029D8BF70472DE9F05F0C465F6800EB3C
:1044A0008406082A15DC611E012A34D0022A55D060
:1044B000042A7AD0082A0CBF0519BDE8F09F00BF76
:1044C00015F8010DB84746F8040D641EF8D1BDE893
:1044D000F09F102AC8BFBDE8F09F0221022918BF33
:1044E000BDE8F09FD3F814C0BCF1000F08BF00EB8B
:1044F000440507D02246BDE8F04F022301465DF88F
:1045000004EB604735F8020DB84746F8040D641E09
:10451000F8D1BDE8F09F00EBE108351F01F0070678
:1045200018F801A9802020FA06F900BF0AEA09005C
:10453000C6F10701C840B84745F8040946B14FEA3B
:104540004960761E4FEA1069641EEFD1BDE8F09F06
:1045500018F801A907264FF00109F5E700EBA105BE
:10456000A6F1040901F00306700015F801A9C021A5
:1045700021FA00F84FF0060B0AEA0801ABEB4600FF
:1045800021FA00F0B84749F804094EB14FEA8860B3
:10459000761E4FEA1068641EEED1BDE8F09F04E07D
:1045A000032615F801A9B046F5E700EB61080120E4
:1045B00020EA0405A800A6F1040918F801A9F021D1
:1045C00021FA00F64FF0040B0AEA0600ABEB850176
:1045D000C840B84749F8040935B16D1E3007060ECA
:1045E000641EF1D1BDE8F09F012518F801A90F263E
:1045F000F6E700002DE9F047224C80469946A06975
:1046000016460F46002540B90120A06104F12001A3
:104610001D480860084600F0EDF9606910B900F027
:104620008BFF6061B9F1000F18BFC9F80000B8F145
:10463000000F0BD0A06838B960698000FDF776F8EC
:10464000A060002808BF0125C8F8000057B1E06845
:1046500038B960698000FDF769F8E060002808BF9C
:104660000125386056B1206938B960698000FDF7CE
:104670005DF82061002808BF012530602846BDE8AC
:10468000F08700007C0A002025DF000873B51A4A75
:1046900082B003A912680298904700240290002873
:1046A00027D0164900250968C969496900291CBF36
:1046B0000A68002A03D00399904704B070BD03989C
:1046C000401E03900AD402A8FFF77AF90546FDF7C9
:1046D000B7FC04440398401E0390F4D500262846F6
:1046E00069460096FDF7BEFC00998142C8BF0E1ACC
:1046F000344404B0204670BDC40B0020B80A00202A
:1047000073B50D4600980024B8B10D490968C96910
:10471000496900291CBF4A68002A03D029469047EE
:1047200002B070BD002D08DD6846FFF749F900288A
:104730001EBF0A28641CA542F6DC02B0204670BDEC
:10474000B80A002038B5002469460094FDF78AFCB9
:1047500000998142C8BF0C1A204638BDB0F900301C
:10476000B1F900209342C8BF1A460280B0F9023066
:10477000B1F902209342C8BF1A464280B0F9043012
:10478000B1F904209342D8BF1A468280B0F90620BE
:10479000B1F906108A42C8BF0A46C280704730B4D9
:1047A000B1F900C0B2F900309C45C8BF6346038030
:1047B000B1F90240B2F902C06445C8BFA446A0F8EE
:1047C00002C0B1F90450B2F90440A542B8BF2C466A
:1047D0008480B1F90610B2F906209142A8BF1146B3
:1047E000C1809C42AABF61450020012030BC7047B7
:1047F000014602480068407C00F002B8B80A002078
:10480000F8B501260F46044602280FDA2A4D002F7C
:1048100036D0012F02D0022F08D120E055F8240015
:10482000002818BF401C03D045F824003046F8BDCE
:104830002046FDF799FA00900028F7D0C0680D21B6
:10484000426A684690470200F0D039460098904787
:1048500055F824000026401C45F82400E6E7FDF743
:1048600083FA00900028E1D0C0680D21426A6846B2
:1048700090470200DAD03946009890470026D5E7E5
:1048800055F8240001280FD12046FDF76DFA00905D
:1048900050B1C0680D21426A68469047020003D0BB
:1048A000394600989047002655F82400002814BF88
:1048B00001210021401AB7E7BC0B00204FF07F43D5
:1048C00033EA010C08BF704770B400F0FF0C1CFB0A
:1048D00002FC00F47F4400F47F0554435543000E6E
:1048E00010FB02F6C2F1FF00CAB212FB00C201F4D3
:1048F0007F4C0CFB004C01F47F0404FB0054090EB8
:1049000011FB00604FF47F4101EA1C214FF47F0C42
:104910000CEA142CC2F30722114370BC03EA0040D6
:1049200041EA0C01084370472DE9F84F002300933A
:104930000D9BDDF838A0002B86BF4FF0FF0E4FF027
:104940007F45BDE8F88F0C9C50F8049B51F8043B60
:10495000AEEB196C0CFB0AFC0CEBCC1606EBCC3C5A
:10496000CCF3C75C35EA030632D009F0FF0616FB2C
:104970000CF609F47F4709F47F0807FB0CF708FBE6
:104980000CF84FEA196919FB0CF9CCF1FF0C03F094
:10499000FF0B1BFB0C6603F47F4B0BFB0C7703F444
:1049A0007F0B0BFB0C881B0E13FB0C93C6F3072C21
:1049B0004FF47F4606EA17264FF47F0707EA1827C9
:1049C0004CEA060C05EA03434CEA070C4CEA0309DF
:1049D00029F07F4342F8043B641EB5D10A9BDDF801
:1049E00034C001EB8301009B5B1C00936345AAD399
:1049F000BDE8F88F02494A6942604861704700008B
:104A0000AC0A002010B40028BABF4FF0FF3140427A
:104A100001211B4A90FBF2F302FB1300521090425B
:104A2000C2BF4942A0F52830A0F5F950154A90427E
:104A3000C4BFC0F5F95000F528304FF47A7390FBED
:104A4000F3F26FF07C0C02FB0CFC00EBCC005A2A5A
:104A5000A8BF4FF480300DDADFF82CC00CEB8204D5
:104A60005CF822206468A4EB020C0CFB00F0B0FBA5
:104A7000F3F010440029D8BF404210BC704700003A
:104A8000407E0500905F0100886E050830B402E0AA
:104A900000F8011B521E002A18BF10F0030FF7D1B7
:104AA00095083BD0C5F1000C4FEAEC740CEB947CFC
:104AB0004FEAAC0C4FEA8C0C01EB0143CCF1000443
:104AC00002F0030203EB0323002CC4BFA0F1040C8B
:104AD000641010DDCCF804304CF8083F641EF9D1A6
:104AE000EC1705EB947C4FEAAC0C00EB0C10CCF10E
:104AF000000C05EB8C05002D10DDA0F1040C15F069
:104B0000010F18BF4CF8043F6C1005D0CCF80430EE
:104B10004CF8083F641EF9D100EB8500002ADCBF89
:104B200030BC7047401E12F0010F18BF00F8011F83
:104B3000521004BF30BC7047417000F8021F521E73
:104B4000FAD130BC704770B410F0020F02D020F8D8
:104B5000021B521E5FEA520C39D001EB0143BCF13B
:104B6000040F21DBACF1040C664674420360E517C8
:104B7000436004EB95748360A410C360A4001030FC
:104B80006542002DC4BF041F6D100DDD636044F845
:104B9000083F6D1EFAD1F4170CEB9474A41000EBCF
:104BA0000410644206EB840CBCF1000F0FDD041FFF
:104BB0001CF0010F18BF44F8043F5FEA6C0504D0F5
:104BC000636044F8083F6D1EFAD100EB8C0012F0D0
:104BD000010F18BF018070BC704700001FB5012095
:104BE00002F096F800BF612002F072F80028FAD0B7
:104BF0000121082001F0B8FF40212B4802F03DFFC1
:104C000001220021284802F035FF0C20ADF80000F9
:104C10000020ADF802000120ADF804000C20ADF832
:104C200006000020ADF8080069461F4802F0E2FEC9
:104C300032208DF80C0000208DF80D008DF80E004C
:104C400001208DF80F0003A801F020FE0121164875
:104C500002F0E7FD002014491031088001221021E4
:104C6000114802F0FEFE00BF104800680228FBD188
:104C70000D4802F0E3FD0E48006800F4E05048B92A
:104C80000C48006880080C490968B0FBF1F0C000CE
:104C900004B010BD07480068800840000649096854
:104CA000B0FBF1F0C000F3E7000C0040340000203E
:104CB00008380240140000203800002000BFFEE742
:104CC000054B10B502EB02121B68D2B2984703499C
:104CD0000968084010BD00007C0A00205C0B002021
:104CE00002490A6808601046704700005C0B00200B
:104CF0001CB5012140F2EF1001F016FF02208DF8E3
:104D000005008DF8040000208DF806008DF80700DE
:104D10000E2208215C48FBF7BBFF0E2209215A48EE
:104D2000FBF7B6FF4FF44070009069465648FBF71A
:104D300067FF0E2206215548FBF7AAFF402000908E
:104D400069465248FBF75CFF0E2205215048FBF7ED
:104D50009FFF0E2206214E48FBF79AFF0E220421E8
:104D60004B48FBF795FF7020009069464848FBF7D9
:104D700047FF0E220A214748FBF78AFF4FF4806065
:104D8000009069464348FBF73BFF0E22062142484C
:104D9000FBF77EFF0E2207213F48FBF779FF0E222B
:104DA0000B213D48FBF774FF0E220C213A48FBF71C
:104DB0006FFF4FF4C650009069463748FBF720FF5D
:104DC0000E2202213548FBF763FF0E2203213348F0
:104DD000FBF75EFF0E2208213048FBF759FF0E2239
:104DE00009212E48FBF754FF0E220A212B48FBF71E
:104DF0004FFF0E220B212948FBF74AFF0E220C2100
:104E00002648FBF745FF0E220D212448FBF740FF03
:104E10000E2211462148FBF73BFF0E220F211F48AF
:104E2000FBF736FF4FF60C70009069461B48FBF706
:104E3000E7FE0E2200211A48FBF72AFF0E2201216D
:104E40001748FBF725FF0E2202211548FBF720FF2C
:104E50000E2204211248FBF71BFF0E2205211048E9
:104E6000FBF716FF0E2209210D48FBF711FF0E225A
:104E70000A210B48FBF70CFF40F2376000906946AF
:104E80000748FBF7BDFE1CBD00040240000C0240B9
:104E9000001002400014024000180240001C0240B2
:104EA0000020024010B5044624B910210448FBF745
:104EB00012FF03E010210248FBF70FFF10BD0000B6
:104EC000000C02400449054A0968497C52F8211047
:104ED0000969096808470000B80A0020D00A0020C4
:104EE000C1B2C0F30722C0F30740914208BF82421B
:104EF00007D101F108001349A1FB00100009783027
:104F0000704701EB810101F17F030F4902EB82023F
:104F1000A1FB03C37F32A1FB02C200EB80007F3004
:104F2000A1FB0010D209DB09C00902EB420103EB2F
:104F3000410100EBC00001EB80006C2828BF283045
:104F400070470000F1F0F0F0818080801CB50121F5
:104F5000082001F0E9FD1020009002208DF80500E6
:104F600001208DF8040000208DF806008DF8070060
:104F700069460448FBF744FE01221021014800F075
:104F800003F81CBD000C024070B504460D461646E1
:104F9000324629462046FBF7A2FE70BD2DE9FF4FA1
:104FA00087B09A48DDF850A0169E006890B1DDE900
:104FB0001723DDF864C0CDF814C00296CDE90323B1
:104FC000159ACDE900A2D0F800C0DDE909230798C1
:104FD00000F0D4B80A98099A0844451E07988C4CEA
:104FE0001044A0F1010C15984AEA0000012827D0CE
:104FF000C6F1080002900020009104900A98002851
:10500000DCBF0BB0BDE8F08F159900980844411E35
:10501000019105902068B0F90A208A4200F3E580EA
:10502000B0F90E100098884200F3DF8018980390C2
:105030000998079D4FF00008002873DC00F0D5B8F0
:105040002268B2F90A30581A00280DDD0A99091AA7
:105050000A910029DCBF0BB0BDE8F08F1946DDE9ED
:10506000173400FB03401890B2F90E00281A0028EC
:1050700007DD0A9B181A0A900028DCBF0BB0BDE8B8
:10508000F08FB2F90C00ACEB0000002802DD099BA8
:10509000181A0990B2F90830DDF81CC000206345E9
:1050A00050DDA3EB0C00099B1B1A0993082E32D08C
:1050B00006DC012E0BD0022E15D0042E42D11EE0AC
:1050C000102E30D0182E18BF202E3BD133E0189B65
:1050D00020F0070C03EBE0031893079B00F0070098
:1050E000634407932EE0189B20F0030C03EBA0030E
:1050F0001893079B00F003006344079322E0189B7A
:1051000020F0010C03EB60031893079B00F00100F3
:105110006344079316E0189B034460440790189378
:1051200000200FE031E0189B03EB40036044079040
:105130001893002006E0189B03EB8003604407905F
:1051400018930020099B002BDCBF0BB0BDE8F08F4B
:10515000DDE91734DDF864C0CDF814C00293CDE961
:1051600003400A98CDE90006527C2A48099B50F872
:105170002200C268D2F804C00A460799E0470BB083
:10518000BDE8F08FB9F1000F05D103984FF0080981
:1051900010F8017B03900298A9EB060937FA00F09A
:1051A00007FA06F1CFB204D12168097C11F0020F91
:1051B00015D12168199AC96B002AD1F800B018BF1F
:1051C00052F82000086005EB0A00DDE90013421EDA
:1051D000284600F085F82068C06BC0F800B0099838
:1051E00008F1010855448045CCDB0498401C04902C
:1051F00005980090DDE91701084418900A99049871
:105200008842FFF601AF0BB0BDE8F08FE40A002042
:10521000B80A0020D00A00208C46134930B409682F
:10522000B1F90A306345D9BFB1F90E309C4530BCA5
:105230007047B1F908308342C8BF1846B1F90C3045
:105240009342B8BF1A468242BCBF30BC70474B7C09
:10525000064951F8234013466246E1688D680146CD
:105260002046AC4630BC6047B80A0020D00A002077
:105270000A46194930B40968B1F90A309342D9BFD6
:10528000B1F90E309A4230BC7047B1F90830834210
:10529000D9BFB1F90C30984230BC70470B7C13F089
:1052A000010FDFF838C009D0497C5CF82130D9689B
:1052B000D1F81CC0014630BC18466047CB6B497C16
:1052C0001B685CF821C0DCF80C108C690146604654
:1052D000A44630BC60470000B80A0020D00A002075
:1052E00038B5DFF858C0DCF800C0BCF9084084428B
:1052F000C8BF2046BCF90C409442B8BF2246824247
:10530000B8BF38BDBCF90A408C42C8BF2146BCF9C1
:105310000E409C42B8BF23468B42B8BF38BD0093B5
:105320009CF811C0064B53F82CC0DCF80C301C69FB
:1053300013460A4601466046A04738BDB80A002019
:10534000D00A002070B508250024022807DAFCF7EF
:105350000BFD20B1C1688A6A294690470446204661
:1053600070BD000002480068806B00687047000054
:10537000B80A002002480068C06B0068704700004F
:10538000B80A0020044A02EB800352F82000C068EB
:10539000426A184610470000D00A002070B50C255C
:1053A0000024022807DAFCF7DFFC20B1C1688A6A12
:1053B000294690470446204670BD70B50D2500244F
:1053C000022807DAFCF7D0FC20B1C1688A6A2946B6
:1053D00090470446204670BD70B508480925002452
:1053E0000068407C022807DAFCF7BEFC20B1C168E7
:1053F0008A6A294690470446204670BDB80A0020B4
:1054000070B509250024022807DAFCF7ADFC20B1AD
:10541000C1688A6A294690470446204670BD70B527
:1054200000252C462046FCF79FFC002818BF6D1C69
:10543000641C022CF6DB284670BD0000074810B53E
:105440000068407CFCF790FC002808BF10BDC168D4
:10545000CA6ABDE81040022110470000B80A0020C7
:1054600010B500F005F8BDE8104000F059B9000093
:10547000F0B5154E0546154F30680C4683B0407C9C
:1054800057F82000C1680A6B69469047BDF90000D3
:10549000A842DCBFBDF90400854207DCBDF902006B
:1054A000A042DCBFBDF90600844202DD03B000204B
:1054B000F0BD30682246407C57F82000C1684B6937
:1054C0002946984703B0F0BDB80A0020D00A002052
:1054D000F8B515460E460124FCF746FC009058B17D
:1054E000C0680421426A68469047030004D02A46F7
:1054F00031460098984700242046F8BD70B50E2527
:105500000024022807DAFCF72FFC20B1C1688A6A60
:10551000294690470446204670BD70B503250024F7
:10552000022807DAFCF720FC20B1C1688A6A294604
:1055300090470446204670BD2DE9F0410327002422
:10554000012500262846022D07DAFCF70DFC20B1C4
:10555000C1688A6A394690470646B442B8BF3446A5
:105560006D1EEED52046BDE8F08170B504250024FF
:10557000022807DAFCF7F8FB20B1C1688A6A2946DD
:1055800090470446204670BD70B5084801250024A8
:105590000068407C022807DAFCF7E6FB20B1C1680E
:1055A0008A6A294690470446204670BDB80A002002
:1055B00070B501250024022807DAFCF7D5FB20B1DD
:1055C000C1688A6A294690470446204670BD00009B
:1055D00070B50848022500240068407C022807DADC
:1055E000FCF7C2FB20B1C1688A6A2946904704468D
:1055F000204670BDB80A002070B50225002402289C
:1056000007DAFCF7B1FB20B1C1688A6A29469047E6
:105610000446204670BD00002DE9F04101004FF026
:1056200000001ABF8E68002EBDE8F081104F7A6826
:10563000002A08BFBDE8F0810C68B4F5807FC8BFC0
:10564000BDE8F08138688442C8BF04460025002CBC
:105650000ADD00BF56F82500FFF734FC796841F8F1
:1056600025006D1CAC42F5DC7868BDE8F0810000D7
:10567000240B00202DE9F04101004FF000001ABF7B
:105680008E68002EBDE8F081104F7A68002A08BFAE
:10569000BDE8F0810C68B4F5807FC8BFBDE8F0813B
:1056A00038688442C8BF04460025002C0ADD00BFCC
:1056B00056F82500FFF706FC796841F825006D1CB7
:1056C000AC42F5DC7868BDE8F0810000240B0020D6
:1056D000002808BF70472DE9F041866836B10F4FAA
:1056E000796819B10468B4F5807F02DD0020BDE857
:1056F000F08138688442C8BF04460025002C09DDCB
:1057000056F82500FFF7DEFB796841F825006D1C8F
:10571000AC42F5DC7868BDE8F0810000240B002085
:105720000449054A0968497C52F821100969496809
:1057300008470000B80A0020D00A0020A0F1780134
:1057400010293EBF1648484370476C2804D394285C
:1057500036BF002028387047124AA2FB0031890862
:10576000A2FB01C2A1EB81039208A2EB820201EB32
:10577000420100EB43030C4A03EB0313A2FB00209E
:1057800001EB0111C00803EB430301EB410100EB06
:10579000001000EB400003EB012101EB00407047DB
:1057A00011111100ABAAAAAA398EE33870477047CD
:1057B00000F01F01074A084BC0F3451CC0F3C4208A
:1057C00013F80C30105C515C00EB032000EB01403F
:1057D00070470000286E0508486E05080206C0F3F1
:1057E0000721120AC0F3074042EA0121084370472B
:1057F00000B58FB0FFF7AAFB0020FFF753FB012095
:10580000FFF750FB0121880601F0CEF90121C80500
:1058100001F08AF9FFF76CFA01F0E0FC002000903B
:105820000190029003900C900D900E90042207219D
:10583000C02001F085FA002001F070FA012001F08B
:1058400079FA00BF3D2001F043FA0028FAD0092080
:105850000490012005901D2006900320079040F23F
:105860003D30089040F2E310099040F26F300A900A
:1058700040F2AF200B90684600F082FE684600F0D0
:105880007FFE0FB000BD000010B50A4C606870B913
:1058900020688000FBF74AFF6060002804BF0120F9
:1058A00010BD0548054908600846FFF7A3F8002029
:1058B00010BD0000240B0020ADDF00082C0B0020E1
:1058C0002DE9F047FFF7ABFD071E4FF00005C6BFFF
:1058D000DFF86080DFF86090BDE8F0872846FCF7CD
:1058E00043FA10B32846FDF7F5FE82462846FFF737
:1058F00029FD082816DC58F825000069484511D014
:105900002846FFF77DFD061E4FF000040ADDE0B2D9
:10591000FFF706FF0246E1B2284600F0D5F9641C05
:10592000A642F4DC5046FDF7D5FE6D1CBD42D5DB2A
:10593000BDE8F087D00A00202C70050800B591B0B2
:105940001E20019040F23D3002900420039040F26E
:10595000E310049002200590FF200690002007909D
:10596000089009900A904FF480600B9005200C90ED
:1059700040F243600E90C01E0F904FF4F0701090F4
:105980004FF050400D9001A9124800F0C8FE124897
:105990000D904FF4C0600B9007200C9001A90D48AA
:1059A000803000F0BCFE012000F044FF01210948D6
:1059B00000F0AAFE01210748803000F0A5FE01207A
:1059C00000F038FF054800F079F9012000F05EFD95
:1059D00011B000BD84680140000006D060000020C6
:1059E0002DE9FF4F83B016461198109CC068476997
:1059F000426A82B1012111A890475FEA000C0AD0E7
:105A00000698CDE90004DDE9031233461198E0471A
:105A100007B0BDE8F08F63480068407CFCF7FAFAF5
:105A200000900828D8BF4FF0010805DD1028D4BF2A
:105A30004FF002084FF004080025069904988842A8
:105A4000C4BF07B0BDE8F08FB8F1010F06D0B8F1C0
:105A5000020F7FD0B8F1040F4CD18AE000980928DA
:105A600048D2DFE800F09405254848686868680077
:105A7000DDF80C90B145D8BF4FF67F7A3ADC494645
:105A8000049A1198B847C5F10701884021782AFA8D
:105A900005F2114008432070681C20F0070140FA0D
:105AA00001F509F1010904EBE004B145E7DD6EE021
:105AB000DDF80C90B145DCBF4FF0060A4FF63F7B96
:105AC00065DC4946049A1198B847AAEB450188401D
:105AD00021786A002BFA02F2114008432070681CFA
