:020000040800F2
:10000000481501206902000807500008C1360008A1
:1000100003500008C1040008295E00080000000029
:10002000000000000000000000000000C101000806
:10003000FB040008000000000502000851590008F8
:10004000830200088302000883020008830200087C
:100050008302000883020008FD04000883020008F0
:10006000830200088302000883020008830200085C
:10007000830200088302000883020008830200084C
:10008000830200088302000883020008830200083C
:10009000830200088302000883020008830200082C
:1000A000830200088302000883020008830200081C
:1000B000F35A000883020008830200088302000844
:1000C00083020008830200088302000883020008FC
:1000D00083020008830200088302000883020008EC
:1000E00083020008615200088302000883020008AE
:1000F00083020008830200088302000883020008CC
:100100008302000883020008F55A000883020008F1
:1001100083020008830200088302000883020008AB
:1001200083020008F9040008830200088302000823
:10013000830200088302000883020008830200088B
:10014000830200088302000883020008830200087B
:10015000830200088302000883020008830200086B
:10016000830200088302000883020008830200085B
:10017000830200088302000883020008830200084B
:10018000830200088302000883020008830200083B
:10019000830200088302000883020008830200082B
:1001A000494C000883020008C5040008DFF80CD0A1
:1001B00000F0AAF800480047E5C4000848150120EF
:1001C000234B19680868B0E8F04F80F309884FF0B6
:1001D000000080F3118870470000000003480068A9
:1001E000006880F3088862B600DF00BF08ED00E019
:1001F000DFF80C00016841F470010160704700BF36
:1002000088ED00E0EFF30980114B1A681EF0100F23
:1002100008BF20ED108A20E9F04F106008B54FF0BC
:10022000500080F311880CF013FF4FF0000080F3B2
:100230001188BDE8084019680868B0E8F04F1EF062
:10024000100F08BFB0EC108A80F30988704700BF18
:10025000DC0000204FF0500080F3118870474FF011
:10026000000080F311887047064880470648004721
:10027000FEE7FEE7FEE7FEE7FEE7FEE7FEE7FEE756
:10028000FEE7FEE769590008AD01000810B5431A02
:10029000934209D28318881803E010F8011D03F86F
:1002A000011D521EF9D210BD40EA01039B0703D085
:1002B00009E008C9121F08C0042AFAD203E011F8A5
:1002C000013B00F8013B521EF9D210BDD2B201E051
:1002D00000F8012B491EFBD270470022F6E710B54B
:1002E00013460A4604461946FFF7F0FF204610BDA4
:1002F00010B5044604E00B7800F8013B03B1491C3B
:10030000521EF8D2204610BD064C074D06E0E068AC
:1003100040F0010394E8070098471034AC42F6D34C
:10032000FFF748FF243D0508443D050870B58C18CB
:1003300010F8015B15F0070301D110F8013B2A11F9
:1003400006D110F8012B03E010F8016B01F8016BE6
:100350005B1EF9D12B0705D40023521E0DD401F8E2
:10036000013BFAE710F8013BCB1A921C03E013F8AB
:10037000015B01F8015B521EF9D5A142D8D30020E0
:1003800070BD00001FB500F049FB032000F04EFBDC
:1003900004F09CFE0020074A0923CDE901200093C8
:1003A0000390034640F6E83203A105480DF092F8A9
:1003B0001FBD00000C060020424B5F474E4400006A
:1003C000C50300081FB50020009001900290039023
:1003D000002503F0A7FD00F00BFF06464FF47A74EA
:1003E0006BE000F005FF801B054643F6982188422C
:1003F00004DD4FF47A7400F0FBFE0646A5425ADD98
:1004000004F57A742D48007840B30021084605F0C1
:100410005FFA0121084605F05BFA0021022005F091
:1004200057FA0121032005F053FA0021042005F0BA
:100430004FFA0121052005F04BFA0021062005F0B6
:1004400047FA0121072005F043FA0021082005F0B2
:100450003FFA0121092005F03BFA27E001210020A5
:1004600005F036FA0021012005F032FA01210220C0
:1004700005F02EFA0021032005F02AFA01210420BC
:1004800005F026FA0021052005F022FA01210620B8
:1004900005F01EFA0021072005F01AFA01210820B4
:1004A00005F016FA0021092005F012FA0348007839
:1004B000C0430249087000F045FE92E72406002080
:1004C00000BFFEE710B500F001F810BD02200149A1
:1004D0008860704700B0024029B1064A12680243A2
:1004E000044B1A6004E0034A12688243014B1A600D
:1004F0007047000000B002407047704710B50120FF
:100500000249086000F004F810BD00001C00002043
:100510000149086070470000143C014010B50246D4
:1005200000200023102A03D14FF02044636E0FE017
:10053000B2F5807F02D10A4C236809E0B2F5805FF2
:1005400003D1074C2034236802E0054CD4342368DF
:1005500003EA01048C4201D0002000E0012010BD1C
:10056000840000A00021D0E900231A4383685B1EA9
:1005700042EA4312C36842EA4321014A11607047CC
:10058000500100A070B50021002200230024D0E912
:1005900001563543C66835430669354346693543D8
:1005A00086693543C6693543066A3543466A45EA76
:1005B0000601056835B90568AD00A5F1C045C5F867
:1005C00040110DE0D0E907563543466A45EA060377
:1005D000294D2B600568AD00A5F1C045C5F8401157
:1005E000056835BB856A2D686D1E866A7668761E3D
:1005F00045EA0616856AAD686D1E46EA0526856AD7
:10060000ED686D1E46EA0536856A2D8A6D1E46EA3E
:100610000546856AAD8A6D1E46EA0556856A2D7EB9
:100620006D1E46EA0562144D0835066845F8262019
:1006300020E0856A2D686D1E866A7668761E45EA1A
:100640000616856AAD686D1E46EA0526856A2D8AFE
:100650006D1E46EA0542856AED686D1E2E03856AA9
:10066000AD8A6D1E46EA0554034D08352C600668B8
:1006700045F8262070BD0000400100A0044909682B
:1006800041EA40014FF02042C2F854117047000087
:10069000540100A010B5002001F024FF6FF07F404E
:1006A00001F02BFF012001F095FF002001F0A0FFD9
:1006B000002001F0ADFF002001F02AFF044800688F
:1006C00001F032FFBDE81040002001F055BF0000EE
:1006D000400A0020F0B50A4600210023002400BF94
:1006E0003DE0012505FA01F3156805EA03049C4283
:1006F00034D105684F000326BE40B5430560157927
:100700004E00B5400668354305601579012D02D0CD
:100710001579022D16D185684F000326BE40B543DA
:10072000856055794E00B5408668354385604568DB
:1007300001268E40B5434560456896798E40B6B235
:1007400035434560C5684F000326BE40B543C560CC
:10075000D5794E00B540C6683543C560491C10299F
:10076000BFD3F0BDF0B5002300244D07ED0E02FA13
:1007700005F3CE1000F1200555F826504E07F70E70
:100780000F26BE40B543CF1000F1200646F8275093
:10079000CE1000F1200555F8265045EA0304CE108E
:1007A00000F1200545F82640F0BD418370470183E4
:1007B00070470AB1018300E041837047014AC2E9F2
:1007C00000017047E8090020014AC2E900017047B2
:1007D000F0090020014AC2E900017047F809002031
:1007E000014AC2E900017047000A0020014AC2E93B
:1007F00000017047A00A00202DE9F04F4B4989B055
:100800000B68B3F922100691D3F81CC0B3F9248009
:10081000DCF81C40A18981429CBFE289904205D846
:10082000471A4FF0FF35D4F8009015E0D4E9019253
:10083000002A72D01188814299BF5588A8424FF092
:10084000FF352F4608D8401A516880B201EB80006E
:10085000B0F90070B0F90250781C5ED09CF8180016
:10086000A17C10FB01FB94F810A00790B3F92A605B
:10087000304603F09FFEC0B208902C4807FB0B9255
:100880000068A37C0127816BCDE90273CDE90421C7
:10089000C0695246C17E807ECDE90001DDE90603D4
:1008A000414603F06DF8681C18D046F0020003F0D2
:1008B00081FE1E48A37C05FB0B920068816BCDE98D
:1008C0000273CDE90421C0695246C17E807ECDE924
:1008D0000001DDE90603414603F052F8134D286894
:1008E000C069417E007E814214D9022E12D086F06A
:1008F000040003F05FFE2868C069017EC27E11FB20
:100900000281427E02EB0803827E06980AFB020205
:1009100003F0D8F9089803F04DFE0448627C0068A3
:10092000418C1144418409B0BDE8F08F440A002095
:10093000044800290068C069C0691CBF027C0A60C5
:10094000407C7047440A0020022008807047C0693C
:1009500082898A429CBFC289914210D9806880B145
:1009600002888A420DD8438899420AD8406800EB31
:100970008100A0EB8200B0F90000002801DB01201B
:1009800070470020704700002DE9F041114D002410
:10099000A8680028C6BF00260F4FBDE8F08128696F
:1009A000782200EBC410001D3968FFF76FFC28693E
:1009B00000EBC41000F10C0106608161011D0A1DED
:1009C000C0E90F124164A868641C8442E7DBBDE8FB
:1009D000F0810000BC0A0020440A002070B50D49D7
:1009E0000B480860084602F04BFD0B4CA068C5019F
:1009F000284600F09BF82A460021206102F048FDBD
:100A00004FF0FF302060BDE8704002F001B80000F8
:100A10002DBA0008D00A0020BC0A0020024901209B
:100A2000096881F871007047440A0020C1B20C487F
:100A3000006880F87010028912FB01F3094A1380E4
:100A4000438913FB01F3538083895B1C4B435B1E7B
:100A50009380C089401C4843401ED08070470000EE
:100A6000440A0020D8090020002808BF704710B5AC
:100A7000044600F05DFC204606F0F2FD044601F05D
:100A8000A9FF204610BD38B5054600F051FC2846A8
:100A9000FFF7EAFF040009D000F0A2F82A4600217F
:100AA000009002F0F5FC684600F0F2F801F092FFC9
:100AB000204638BD024A106021F0030050607047A4
:100AC0000CF40020002808BF704770B5054600F000
:100AD0002FFC0E4C206B10F8351091B1022910D26A
:100AE000042101EBC5068159486806F06BFD60687A
:100AF000401C6060206B216A8151002100F8351094
:100B00002562BDE8704001F065BF000050F3002091
:100B1000002808BF7047044A916B0160002918BF84
:100B2000486090637047000050F300202DE9F041C9
:100B300004460AF0EFF9E01C284E20F00300051DE2
:100B4000F06BA84288BF05460022B46BC4B100BF59
:100B500054F8041CA94210D19CB1206800281CBF85
:100B600061684160606800281CBF21680160B16B4A
:100B7000A14204BF2068B0632CE02468002CE7D1B8
:100B80001446B168706B00EB010858F8040CA8EB30
:100B90000007386840B100200BF068F858F8040CE2
:100BA000A8EB00073868A8B97868A84212DB384477
:100BB000401B041D38460BF02FF8B0683946401B27
:100BC000B0603069284430617868401B06F0FAFC58
:100BD00044F8045C2046BDE8F081000050F300209A
:100BE00009498A69521C8A610A6B02EBC0021378B8
:100BF0005B1C1370002808BF7047096B042202EBCE
:100C0000C00008580830704750F3002010B500F0BD
:100C10008FFB00240AF07EF91B4B1C490F2000BFFC
:100C200001EBC002126C0AB301EBC000006C8068DB
:100C3000002808BFA4F10C000FD04268A24288BF70
:100C40001446806800281CBF80680028F5D100BFCA
:100C5000A4F10C00B0F5800F0DD983FB00204211E8
:100C6000C969A2EBE07000FB01F409E0401EB0F19D
:100C7000FF3FD5DCECE7C9694843A3FB00104409FA
:100C800001F0A8FE204610BD1F85EB5150F3002057
:100C90000A4902680B6B52F8082C03EBC202137866
:100CA000022B04D38B69002B1CBF5B1E8B61117858
:100CB000491E1170002101600846704750F3002062
:100CC000002808BF70470449042202EBC000096BEA
:100CD000085808307047000050F30020C2B2CBB271
:100CE000D21A002ABCBF524212B292B202FB02F3E5
:100CF000C0F30722C1F3072CA2EB0C02002ABCBFF1
:100D0000524212B292B2000CA0EB114002FB02322E
:100D100000B20028BCBF404200B280B200FB0020FD
:100D2000704700002DE9F041002182B0084600F034
:100D300071FA00F0FDFA042003F03CFC80461548EF
:100D4000C068C16C006DA1F6FF76A0F6FF7501F6D4
:100D5000FF7400F6FF77ADF80060ADF80440ADF821
:100D60000250ADF80670684606F07CF848B13B4684
:100D700022462946304602F0A5FF05F0C1FE0028B4
:100D8000F5D1404603F016FC01F024FE02B0BDE8A8
:100D9000F0810000380A0020022BA4BF0020704719
:100DA0002DE9F04106461C4615460F461C20FFF76C
:100DB000BDFE002808BFBDE8F081002F18BF076105
:100DC0000BD10A4A52F8241039B10A681AB11146F7
:100DD0001268002AFBD109690161846185820021C2
:100DE00001604160C0E90216BDE8F0815C0A0020A4
:100DF0002DE9F04100241D46074688461646022B81
:100E00001FDA1C20FFF792FED8B1B8F1000F18BF0F
:100E1000C0F810800BD1104A52F8251039B10A6879
:100E20001AB111461268002AFBD109690161856176
:100E3000868204604460C0E90247040018BF00F0E5
:100E400011F8E068006820B90448006800EB8500EC
:100E500084652046BDE8F0815C0A0020440A002039
:100E6000FFF756BE10B18269022A01DB01207047EC
:100E700010B4234C54F82210002908BF44F8220073
:100E800036D04B6823B119465B68002BFBD191B378
:100E9000C3681B68D1F80CC0DCF800C09C4503DDBA
:100EA00009680029F6D127E029B3D1F80CC0DCF895
:100EB00000C09C4504BFB0F814C0BCF1010F0DD1B7
:100EC000D1F800C0BCF1000F07D06146DCF80CC0BF
:100ED000DCF800C09C45F3DA00E061B14B68002B00
:100EE0001DBF18604A68426044F8220048600160F3
:100EF00010BC00207047FFE710BC012070470000C5
:100F00005C0A0020002808BF704730B4204C00BFA6
:100F1000D0F800C0002835D08569022D32DA54F8A7
:100F20002510002908BF44F825002BD04A6822B1BB
:100F300011465268002AFBD121B3C2681268CB68FF
:100F40001B68934203DD09680029F8D11AE0C9B192
:100F5000CB681B68934204BF838A012B08D10B68BE
:100F60002BB11946DB681B689342F8DA00E049B1FF
:100F70004A68002A1DBF10604A68426044F8250094
:100F8000486001605FEA0C00C2D130BC70470000CD
:100F90005C0A00200B4A816952F82130834204BF69
:100FA000036842F82130416800291CBF02680A60CA
:100FB000016800291CBF42684A600021016041604D
:100FC000704700005C0A002070B40020144DDFF868
:100FD00054C002464FEA00045CF82210D9B1CB6835
:100FE0001B68EB5CA3B18B695CF823608E4204BF85
:100FF0000E684CF823604B68002B1CBF0E681E6007
:101000000B68002B1CBF4E685E60C1E900040846F7
:1010100009680029E3D1521C022ADDDB70BC70474D
:10102000DC2F05085C0A00200228A4BF00207047BE
:10103000064951F82000002808BF7047C1680968B8
:1010400000291CBF00680028F8D170475C0A002006
:101050002DE9F04F89B015460E46044600F068F9B8
:10106000364F3868C16C006D0E440544ADF8186009
:101070002088ADF81A503044401EADF81C0060883E
:101080002844401EADF81E0006A805F0EBFE00281F
:101090001CBFDFF8ACB04FF0010A42D00020D4F8FA
:1010A0000C9001F035FA8046B9F1000F1BBF99F89A
:1010B0000400002828F0020048F0020001F028FA9D
:1010C000206970B1D4E902120091CDE9012ACDF86E
:1010D0000CA0D0F800C06388228829463046E0473B
:1010E00018E03868DBF800302146427CE068984719
:1010F000E0B1A288E388A168CDF800A0CDE9041092
:10110000CDE90232CDF804A0638822882946304612
:1011100002F036FC404601F0FBF905F0F1FC002836
:10112000BCD101F057FC09B0BDE8F08FE088012880
:1011300012BF00203868806BDBE70000440A002003
:101140003C0A002070B5094E00250024306818B113
:101150008047002818BF012405F060F800280CBF64
:10116000002C0125F1D1284670BD0000640A002042
:10117000034951F82000C1688A6A0821104700001D
:101180005C0A002010B500F0D3F803480068047C26
:1011900001F020FC204610BD440A002070B5144622
:1011A0000D46064600F0C4F822462946304602F0B5
:1011B00039FE10B1002028602060BDE8704001F0C9
:1011C00009BC000070B50C46054600F0B1F80648B1
:1011D000B0F9000028600548B0F900002060BDE8C3
:1011E000704001F0F7BB0000700A0020720A002076
:1011F00001F009BC024951F82000006900687047FD
:101200005C0A0020024951F82000006940687047DC
:101210005C0A002070B50C46054600F089F80448C9
:1012200001684D8400258C8401F0D4FB284670BDF4
:10123000440A002070B53348016821F001010160C3
:101240003148012686603149016000683049884292
:1012500000D0FEE72F480068C0F30B00A0F58061C6
:10126000193900D0FEE72C4DA86958B9AE6101F0DC
:10127000BBFB03F029FA05F11C00284901606969EC
:10128000416068612E20287001F0C1FBE868244CA1
:10129000011DC0E90E01091D00646161417C214806
:1012A00050F82100C1680A6B04F1080190471E48FC
:1012B000E066A868E061E86808306061267605F0BD
:1012C000B1F8A064032084F870006FF070402063D0
:1012D0006063002003F00CF96FF07F4003F042F9E7
:1012E00012482861FFF77AFB0BF0A6F804460021AC
:1012F000084601F04FF905F0BBF8FFF745FB204623
:1013000070BD0000002000E000300240C2A507F4DC
:10131000CDB5E8B5002004E0380A0020EDB900089A
:1013200018F400205C0A0020D42F0508C4330508F7
:1013300070B5204CE06820B101F061FB6168884223
:1013400004D001F081FB01F05AFB6060E068401CB2
:10135000E060012818BF70BD0025A06800280CDDE2
:1013600001F04DFB216901EBC5110968814205D0EF
:10137000D9B1A0686D1CA842F2DC00252068854226
:1013800008BF70BD00280EDBFFF71EFE2268216932
:1013900001EBC212D067084A01EBC510011D1160B4
:1013A000C06FFFF7AFFD256070BD216901EBC5116E
:1013B0000860E3E7BC0A0020440A002010B582B0B0
:1013C000040006D10F480068046E002C04BF02B070
:1013D00010BDFFF7ADFF2046FFF702FC0090446907
:1013E0006846FFF755FC4CB12046FFF7F9FB01902A
:1013F00081688968884701A8FFF74AFC01F0EAFA8A
:1014000002B010BD440A002001490A4600F002B8AB
:1014100001F0FFFF002808BF70472DE9F04784B0B6
:1014200015460C468146FFF783FF002001F070F857
:10143000354E80463068076E4846FFF7D1FB029074
:101440000068806901F036F8824640F6FF700019A6
:1014500004D10298B0F90440B0F906500298ADF8F2
:1014600000400189ADF802502144491EADF8041036
:1014700040892844401EADF8060004F0D7FC02A8BD
:10148000FFF706FC684605F0EDFC40B12A46214610
:10149000484600F073FB05F033FB0028F6D15046B8
:1014A00001F008F83C46FFF743FF3068006EF4B1E6
:1014B000002818BF00F0F0FF04F0B0FD2046FFF751
:1014C0008FFB014603903068026E002A04BFD0E90A
:1014D0000223C0E9192304660868FFF7C3FC03A8C8
:1014E000FFF7D6FB03F0DEF803F02EF801E000F082
:1014F000D3FF01F06FFA404601F00AF801F06AFAF2
:1015000004B0BDE8F0870000440A00202DE9F04F48
:1015100083B01F469046894682464FF0000B0C9ED2
:10152000FFF706FF18480068417C184850F8214032
:10153000E0680068042803D02468002CF8D100E09B
:101540001CB90846FFF770FD04460121E068C26A35
:1015500020469047050011D02469A0688047401CB0
:1015600004BF0B4C46F001063B460096CDE9015402
:1015700042464946504600F0D7F9834601F02AFA20
:1015800003B05846BDE8F08F440A00205C0A0020F2
:10159000803C0508002808BF704738B50446FFF7AF
:1015A000C7FE0E480068006EA04208BF00F074FF3E
:1015B0002046FFF715FB00904069002818BF01F096
:1015C000F2F900980068FFF74BFC6846FFF760FBF4
:1015D0002046FFF777FA01F0FDF938BD440A0020F4
:1015E0002DE9FF4F83B0DFF83091DDF840B09A4627
:1015F0000F4606002ED002A901A8FFF7E3FDB6F9B9
:101600000050002DB8BF0025B6F90240002CB8BF2D
:101610000024B6F90480D9F80000407C02F027FCD1
:1016200001990844401E8045C8BF8046B6F906604F
:10163000D9F80000407C02F042FC02990844401EA8
:101640008642C8BF0646A8EB050000F10108301B22
:10165000461C0DE0D9F8000000252C46407C02F025
:1016600006FC8046D9F80000407C02F028FC0646C3
:10167000BAF1000F08BFC6F1000AB8F1000FCFBFE2
:10168000002E002007B0BDE8F08F534642462146A9
:101690002846CDF800B0FFF739FF5FEA000A34D0E2
:1016A00000F068F88146504600F0A6F8DFF86CB00C
:1016B0004FF00008A6EB08014945BCBF504600F0BA
:1016C0007DF8B8F1000F08D004EB08022946504617
:1016D00000F0C0F85046FFF771FE0598B847DBF8F8
:1016E000001000291CBF002088475046FFF78CFEE1
:1016F000C844B045DEDB5046FFF74CFF002000F049
:101700007BF807B00020BDE8F08F0598B84707B018
:101710000120BDE8F08F0000440A0020540B002097
:1017200038B505004FF0000411D0FFF701FE284640
:10173000FFF756FA0090006800698068804703F060
:1017400017FA04466846FFF7A3FA01F043F920466A
:1017500038BD38B50446FFF7EBFD2046FFF740FAE9
:1017600000F1180400906846FFF792FA01F032F990
:10177000204638BD38B504460025FFF7D9FD1CB911
:1017800008480068046E44B12046FFF729FA00902B
:10179000B0F90A506846FFF77BFA01F01BF92846BA
:1017A00038BD0000440A002010B506F0CBFB00282D
:1017B00008BF10BDBDE8104000F084B838B50C4635
:1017C000050005D10B480068056E002D08BF38BD27
:1017D000FFF7AEFD2846FFF703FA0090B0F90A10B4
:1017E000A142B8BF0C4644816846FFF751FA01F0A8
:1017F000F1F838BD440A0020F8B50446FFF798FD1B
:10180000134E3068056EECB1002D18BF00F044FE99
:1018100004F004FC2046FFF7E3F9009031680A6EFB
:10182000002A04BFD1E90223C1E919230C6600682C
:10183000FFF718FB6846FFF72BFA02F033FF02F0C0
:1018400083FE01E000F028FE01F0C4F82846F8BD50
:10185000440A002070B582B015460E46040006D139
:1018600017480068046E002C04BF02B070BDFFF77B
:101870005FFD2046FFF7B4F92DB20090C58034B269
:10188000848002F061FE0098406988B1FFF7A8F9F2
:10189000009A0190B2F908108180B2F90A20C28042
:1018A00000291EBF002A0480458001A8FFF7F0F937
:1018B0006846FFF7EDF901F08DF802B070BD000049
:1018C000440A002070B584B0060004BF04B070BDA7
:1018D000FFF72EFD3046FFF783F90290B0F9045070
:1018E000B0F90640ADF800500189ADF80240294436
:1018F000491EADF8041040892044401EADF8060092
:1019000002A8FFF7C5F9684605F0ACFA40B12246D7
:101910002946304600F018F905F0F2F80028F6D113
:1019200001F058F804B070BD2DE9FF4FDFF8F4B0B6
:1019300083B01C46DBF80000DDE9107C92460026EF
:10194000437C324660461299FFF726FA050065D0BF
:1019500028698068804703F00BF981460AFB09F08B
:10196000C01D4FEAD008FFF751F917F0010F05D15C
:10197000C11700EB9170801000EB4000002C06DCDA
:101980001838B0FBF8F06442A042D8BF044617F004
:10199000010F08D100200090DDE9030123465246E3
:1019A00000F06CFF0646002C06DC2846FFF758FACC
:1019B00007B00020BDE8F08F04FB08F0183017F0E6
:1019C000010F02D0FFF750F801E0FFF75CF80700C5
:1019D0001CD0FFF705F901900560039981800499F7
:1019E000C180A0F808A04481C0F80C80C0E904962A
:1019F00001A8FFF74DF91298AF602861DBF80000ED
:101A0000407CA86107B03846BDE8F08F2846FFF754
:101A100027FA002E1CBF3046FFF754F8002007B00D
:101A2000BDE8F08F440A00202DE9F74F8CB0154631
:101A30000C98FFF7D5F80990B0F90840B0F90A10F2
:101A4000089100680069D0F8049009A8FFF720F910
:101A50003A4E3B4F3068407C57F82000C1688A6A94
:101A6000082190470790182824BF2020079030684D
:101A7000407C57F8200000690690D0E900613148A9
:101A8000814214BF012000200A90002000F0F8FFDE
:101A900000280EBF00270FB0BDE8F08FB846DDE983
:101AA0000C0B7F1C0DF12C0AFFF753FE04FB08F111
:101AB00000EB8102CDE9009A23462946584601F001
:101AC00085F95FEA000B04BF0FB0BDE8F08F0A98FC
:101AD000E0B1DDE906322146584601F0BDF8A8B96B
:101AE0000698A246D846D0F810C0BCF1000F05D029
:101AF0005946042322460846E04707E0D8F800008C
:101B0000B04748F8040BBAF1010AF7D10020079951
:101B1000CDE90210CDE904B001200090294603462A
:101B200001906D1C22460D9801F02AFF0898401E76
:101B30000890B3D10FB0BDE8F08F0000440A002038
:101B40005C0A0020B3400008F8B515460E4607466B
:101B5000FFF746F8009000681621C068436A00202D
:101B6000984704466846FFF793F8002C08BFF8BD75
:101B70002A4631463846A047F8BD00002DE9F04F0F
:101B8000A1B092460F460646FFF72AF81890D0F803
:101B900014B018A8FFF77CF83046FFF7C1FDFE4DE2
:101BA0004FF000094FF00108082803DDBBF1000FDA
:101BB00000F0F981F949CDF834A0D1E90001CDE96F
:101BC0001A013046FFF70CF80F904469C16817916D
:101BD00001691291B0F908100C91B0F90A000B904C
:101BE0002868407CFFF7C4FA1D900F9800680069D0
:101BF000406815902868407CFFF704FB83460FA8D7
:101C0000FFF746F8129908299CBF0120119004D9CA
:101C1000102994BF02200420119001290CBF0DF15E
:101C2000680A4FF0000A1D98082828BF082940F2CA
:101C300001811598584500F0FD802868407CFFF729
:101C4000D9FA1E900C988000FEF70EFF1C90002819
:101C500004BF21B0BDE8F08F3046FFF77AFD079052
:101C6000002C00F0D1802046FEF7BAFF199000202A
:101C70000A900B9800287DDD19984FF0000BCDF8E5
:101C800024B081680A9A4B6909A998470C990446BF
:101C9000884235D11C98FEF7A3FF169005461D9883
:101CA000079EDDF85490DDF8788002940390049547
:101CB00036F8020BC847C04745F8040B641EF7D13D
:101CC0000398202804D202460299049800F0FAFEF4
:101CD0001D981699CDE9020B01200090CDE9041A58
:101CE00001900A990D980123014438460C9A01F09D
:101CF00047FE16A8FEF7CCFF07991798084450E056
:101D00001298012859D0002C48D00A990D980844FF
:101D100013901C98FEF764FF16900546099A1199D6
:101D20000798DDF8789002FB01061D980190DDF818
:101D300054B0A046CDF8105036F8020BD847C8472B
:101D400045F8040BB8F10108F6D10198202804D217
:101D500002462146049800F0B5FE00201D99169A0F
:101D6000CDE9021001200090CDE9042A01900998E4
:101D7000384400E01DE001232246139901F000FEE3
:101D800016A8FEF785FF09980A9A20440990199829
:101D900081684B6909A998470400BAD11799079837
:101DA000084407900A980B99401C0A908842FFF655
:101DB00063AF19A8FEF76CFF36E0002CEED00A994D
:101DC0000D98012546180998079900F0070201EBC4
:101DD000E0031799CDE90313CDE905A21299009507
:101DE000CDE90151384401232246314602F0C2FDBB
:101DF00009980A9A20440990199881684B6909A9A1
:101E000098470400DFD1C9E7CDF814A0129A1799BA
:101E1000CDF80080CDE90310CDE90182DDE90C2188
:101E200038460B9B01F0ACFD1C98FEF74BFE21B031
:101E3000BDE8F08F3046FFF78CFC0546002C72D0D1
:101E40002046FEF7CDFE19900B980026002864DD91
:101E50001998CDF82490324681684B6909A99847B2
:101E60000C99044688422AD11998B346721C81689D
:101E70004B6909A99847A04208D11998761C721C91
:101E800081684B6909A99847A042F6D01798129922
:101E9000CDE90210CDF800800D98CDE9045AA6EBEB
:101EA0000B0400EB0B01631CCDF8048038460C9A40
:101EB00001F066FD1798611C01FB005529E012989E
:101EC000012831D0002C1CBF0D9800EB060B1ED052
:101ED00011990998129B00FB01521799CDF80080C7
:101EE000CDE90231CDE9042A3844CDF8048001233C
:101EF0002246594601F044FD099832462044099093
:101F0000199881684B6909A998470400E0D117988E
:101F100005440B98761C86429ADB19A8FEF7B8FE9A
:101F200021B0BDE8F08F26E0002C1CBF0D9800EB1F
:101F3000060BECD00998179B00F00701CDE905A12D
:101F400005EBE002CDE903321299CDF80080CDE92E
:101F50000181384401232246594602F00BFD0998BD
:101F6000324620440990199881684B6909A998471D
:101F70000400DFD1CBE717981299CDE90210CDF814
:101F80000080CDE9045ADDE90C21CDF80480384603
:101F90000B9B01F0F5FC03E0440A0020783C0508A7
:101FA00021B0BDE8F08F039604460C97564603987F
:101FB000FEF716FE0890B0F90AA0C1681830CDE906
:101FC00001012868407CFFF7D3F8082898BF012753
:101FD00003D9102894BF02270427089801680A69CA
:101FE00011922968BC4A497C52F82110119A09695A
:101FF0000A91D2F804B00D688A4212D1DDE90112CB
:10200000CDF81490CDF80080CDE90321CDE901840D
:10201000B0F90820534631460C9801F0B1FC00F0AD
:1020200053B9202C03D0102C7ED000F04DB9B0F95C
:10203000084008A8FEF72CFE07FB04F0FEF714FD8D
:102040001490002800F04081FEF7CAFD129003981A
:10205000FEF7C6FD00F118044FEAC70B0890089878
:10206000012FB0F9088004D0022F1BD0042F4AD1D1
:1020700031E00A98DDF84890D0F810C0BCF1000FAC
:1020800007D00123424649462046E04704EB880436
:1020900039E054F8040BA84709F8010BB8F101081E
:1020A000F7D130E00A98DDF84890D0F810C0BCF1C4
:1020B000000F07D00223424649462046E04704EB82
:1020C000880420E054F8040BA84729F8020BB8F163
:1020D0000108F7D117E00A98DDF84890D0F810C051
:1020E000BCF1000F07D00423424649462046E04792
:1020F00004EB880407E054F8040BA84749F8040BE4
:10210000B8F10108F7D112990020CDE9030105903B
:1021100001200090CDE9010B08983146761CB0F9FA
:10212000082001230C9800E005E001F029FCBAF139
:10213000010A94D1C2E0B0F9084008A8FEF7A8FD52
:1021400007FB04F0FEF790FC149000287ED0FEF709
:1021500047FD12900398FEF743FD00F11804089024
:10216000B0F908008000FEF77FFC159010B1FEF773
:1021700037FD0790F80016900898012FB0F90880F5
:1021800004D0022F2AD0042F79D14FE00A98DDF82D
:1021900048900069C0B11198D0F814C0BCF1000F8C
:1021A0001CBF159800280FD00223424620460799ED
:1021B000E0470A9801234246D0F810C049460798E4
:1021C000E04704EB48045AE034F8020BD847A8472C
:1021D00009F8010BB8F10108F6D150E00A98DDF8D2
:1021E00048900069C0B11198D0F814C0BCF1000F3C
:1021F0001CBF159800280FD002234246204607999D
:10220000E0470A9802234246D0F810C04946079892
:10221000E04704EB480432E034F8020BD847A84703
:1022200029F8020BB8F10108F6D128E00A98DDF888
:1022300048900069D0B11198D0F814C0BCF1000FDB
:102240001CBF1598002811D0022300E03CE0424654
:1022500020460799E0470A9804234246D0F810C068
:1022600049460798E04704EB480408E034F8020BBD
:10227000D847A84749F8040BB8F10108F6D1002067
:10228000129A1699CDE90210CDE9042001200090A0
:10229000019008983146761CB0F9082001230C986B
:1022A00001F06EFBBAF1010A7FF466AF159828B110
:1022B00007A8FEF7EDFC1598FEF704FC12A8FEF740
:1022C000E7FC1498FEF7FEFB0898002818BF08A842
:1022D0007FF424AE5FE600005C0A0020094A126821
:1022E000002A18BF0020084A52F82030002BB8BF3F
:1022F0007047064B43F820104FF0FF3142F8201092
:1023000070470000740A0020900A0020780A00201C
:10231000002808BF704709B32AB3B1F900C0B2F969
:1023200000309C45B8BF63460380B1F902C0B2F9E2
:1023300002309C45B8BF63464380B1F904C0B2F98E
:1023400004309C45C8BF63468380B1F90610B2F9DA
:1023500006209142D8BF1146C1807047116852686B
:102360000160426070470A684968026041607047D6
:10237000002808BF704703880B44038083881944F2
:102380008180418811444180C1881144C1807047D7
:1023900010B50024FEF7CCFF0A4BD3E9002082429F
:1023A0000BD0DFF824C0D2E9000162450CBF074A18
:1023B00008321A6004F082F9012400F00BFB204679
:1023C00010BD00003C0B0020F8F40020A8F4002011
:1023D00070B51A4C82B02468DDE9066CB4F9085077
:1023E0008542C8BF2846B4F90C509542B8BF2A466A
:1023F0008242BCBF02B070BDB4F90A508D42C8BF62
:102400002946B4F90E409C42B8BF23468B42BCBF5C
:1024100002B070BDDCF80C402468002C18BF042CFE
:1024200005D0DCF80040002C18BFA446F2D1CDE95D
:10243000006C01F057FF02B070BD0000440A00209C
:10244000B0F90220B1F906309A4213DCB1F902204A
:10245000B0F906309A420DDCB0F90020B1F9043031
:102460009A4207DCB1F90010B0F904008842A4BF19
:10247000012070470020704701460248782200681A
:10248000FDF704BF440A0020024978220968FDF7DD
:10249000FDBE0000440A002010B5FEF749FF02F01F
:1024A00005F802F0FFF803F0C1FCBDE8104000F0B1
:1024B00091BA000070B5094D04462868467CFEF7C5
:1024C00037FF022C03D228684474FFF7E5FF044865
:1024D000046000F07FFA304670BD0000440A00201E
:1024E000E40A002010B50446FEF722FF204601F062
:1024F000FFFFBDE8104000F06DBA10B50446FEF7CE
:1025000017FF204602F02EF8BDE8104000F062BA36
:1025100010B50446FEF70CFF204602F04BF80446C7
:1025200000F058FA204610BD70B50446FEF700FFD3
:102530000448002C0068C56918BFC46100F04AFA5D
:10254000284670BD440A00200149C8617047000058
:10255000080A00200149486070470000380A00203E
:102560000149086070470000080A002001494860DE
:1025700070470000080A002070B50446FEF7D8FE38
:1025800003480068857E847600F024FA284670BDF2
:10259000440A002070B50C460546FEF7C9FE0948FE
:1025A000224605800848048008480068417C0848A5
:1025B00050F82100C1680B6A29469847BDE8704071
:1025C00000F008BA700A0020720A0020440A0020B5
:1025D0005C0A002070B50446FEF7AAFE03480068B6
:1025E000057E047600F0F6F9284670BD440A002006
:1025F00070B50446FEF79CFE04480068B0F92C5004
:10260000848500F0E7F9284670BD0000440A0020E8
:1026100070B50446FEF78CFE04480068B0F92A50F5
:10262000448500F0D7F9284670BD0000440A002018
:1026300002480068002808BF70470047480B002088
:1026400003498A68002A08BF8860FFF7F1BF0000CD
:102650003C0B0020002808BF704770B584B00446CA
:10266000FEF766FE294E3068A04218BF054606D127
:10267000FEF7B6FA009080683060684610E02846A1
:10268000FEF7AEFA01908068A04219D1FEF7A8FAD1
:1026900001990090806888606846FEF7F9FA01A801
:1026A000FEF7F6FA4CB32046FEF79AFA00907568EA
:1026B000A5420AD1406870606846FEF7E9FA1CE05E
:1026C000054601A8FEF7E4FAD9E79DB12846FEF7D2
:1026D00087FA01904568A54207D1009801994068A2
:1026E000486001A8FEF7D4FA04E001A8FEF7D0FA8A
:1026F000002DEBD16846FEF7CBFA2046FEF7E2F953
:1027000004B0BDE8704000F065B90000800B002007
:1027100038B50C46050008BF01240FD0FEF708FEAF
:102720002846FEF75DFA00908089204214BF0124FC
:1027300000246846FEF7ACFA00F04CF9204638BD9C
:1027400038B50446002020600648056845B1284693
:10275000FEF746FA0090006920606846FEF798FA96
:10276000284638BD800B002038B504004FF000002B
:102770000D46086011D02046FEF732FA00908468BA
:1027800044B16846FEF784FA2046FEF729FA009025
:10279000006928606846FEF77BFA204638BD2DE9BF
:1027A000F0411F46069D1446884606462246B068FC
:1027B000641C3B46D0F804C041463046E0476D1EDD
:1027C000F4D1BDE8F08170B5B0F900C0A1EB0C0107
:1027D000B0F904C08C45D8BF70BD00F1140CB0F93D
:1027E00002400069121B02FB00C000EBE104C818A4
:1027F000421ED010B0EBE1004FF0FF0302F00702E1
:10280000C2F1070201F0070103FA02F223FA01F113
:10281000D5B210D02278461E114304F8011B002EB9
:1028200005DDFF2231462046FDF750FD3444207877
:102830002843207070BD207829400843F9E7B0F99B
:102840000030B0F902C0C91A00F114030069A2EB0C
:102850000C0202FB003000EBE10001F007010278FE
:10286000802323FA01F1114301707047B0F906107B
:10287000026951431430FDF730BD00002DE9F843E3
:10288000804602F10F000011460003FB06F01C46D3
:1028900015460F461430FEF7F6F85FEA000908BF48
:1028A000BDE8F883FEF744FD4846FEF799F900902D
:1028B000A0F8008047808580C4800649816001219E
:1028C000818106616846FEF7E3F900F083F8484627
:1028D000BDE8F8830C3D050830B4B0F90650B0F9F6
:1028E00004400B6800F1140C954220DD00699C4205
:1028F00002FB00C000EBE30C19DD601EC010A0EB72
:10290000E3041CF8010B03F00702904010F0FF00F5
:1029100009D164B11CF8010B641E03F1080222F016
:1029200007030028F5D010F0800F09D102E030BC79
:10293000002070474006000E5B1C10F0800FF9D09D
:10294000FF2808BFDA1D0CD01A4610F0400F08D03F
:102950004FEA40604FEA106002F1010210F0400FB0
:10296000F6D10720904312D1641E10D41CF8010B3D
:10297000FF2813D010F0800F09D000BF4FEA40604D
:102980004FEA106002F1010210F0800FF6D10B60E7
:10299000A2EB030030BC00F10100704702F1080215
:1029A000641EE3D5F3E738B50546FEF7C1FC2846BB
:1029B000FEF716F900908189491E0CB284816846A1
:1029C000FEF766F9002C04BF2846FEF77BF800F0FE
:1029D00001F838BD0348C168491EC16018BF70477F
:1029E00000F042B8BC0A002010B54FF48011024834
:1029F000FEF760F810BD0000000050D0704710B521
:102A00000AF0F2FD10BD10B50AF004FE10BD7047CB
:102A100010B501200AF088FB094908600322002153
:102A200001200AF0A7FB074908600846006830B19A
:102A300000231A461946034800680AF083FC10BDBB
:102A40003C0000204000002010B50648006808B98E
:102A5000FFF7DEFF00235A1E1946024800680AF0FD
:102A6000B0FB10BD3C00002010B500231A461946EB
:102A7000024800680AF066FC10BD00003C0000201F
:102A800000B583B0002814BF02AA0022002301A9C8
:102A9000684600F05DFB03B000BD0000084910B5BA
:102AA000CC68002814BF01200020C86014BF4FF07C
:102AB000FF306FF07F4000F005FE204610BD0000A3
:102AC000600B002030B4082A20DC0346012A4CD0D9
:102AD000022A7DD0042A00F0AD800129D8BF01214F
:102AE000181F5A1E11F0010F03D010F8043F02F80E
:102AF000013F491007D00379537010F8083F02F8DE
:102B0000023F491EF7D130BC01207047102AC2BFD6
:102B1000002030BC70470222022AF4D10129CABF2A
:102B2000A1F1010C0121BCF1000F16DD021F831E73
:102B300011F0010F03D132F8044F23F8024F54680B
:102B40005FEA6C0C09D000BF32F8085F5C80546803
:102B500023F8045FBCF1010CF6D1491E0029A4BF83
:102B600030F8212020F81120CDE710F8042BD207EF
:102B7000120E491E37D010F804CB491E0CF0010C80
:102B800042EA8C122FD010F804CB491E0CF0010C35
:102B900042EA4C1227D010F804CB491E0CF0010C6D
:102BA00042EA0C121FD010F804CB491E0CF0010CA5
:102BB00042EACC0217D010F804CB491E0CF0010CED
:102BC00042EA8C020FD010F804CB0CF0010C00E0AC
:102BD0000EE042EA4C02491E05D010F804CB0CF07E
:102BE000010C4CEA020203F8012B0029BDD18AE74F
:102BF00010F8042B9207120E491E16D010F804CBC1
:102C0000491E0CF0030C42EA0C120ED010F804CB53
:102C1000491E0CF0030C42EA8C0206D010F804CBDB
:102C2000491E0CF0030C4CEA020203F8012B0029A8
:102C3000DED168E710F8042B1207120E491E06D0E9
:102C400010F804CB491E0CF00F0C4CEA020203F8FA
:102C5000012B0029EED156E72DE9F0411E680D4603
:102C60000446082A0ADC8046012A22D0022A62D0C1
:102C7000042A7DD0082A40F0A68092E0102AC4BF22
:102C80000020BDE8F0810220022853D1D3F810C003
:102C90002746BCF1000F04D00A462146022308460D
:102CA00088E054F8040BB04727F8020B6D1EF8D1EA
:102CB00089E054F8040BB047C007070E6D1E35D0ED
:102CC00054F8040BB04747EA8010C7B26D1E2DD0F0
:102CD00054F8040BB04747EA4010C7B26D1E25D028
:102CE00054F8040BB04747EA0010C7B26D1E1DD060
:102CF00054F8040BB04747EAC000C7B26D1E15D0A8
:102D000054F8040BB04747EA8000C7B26D1E0DD0DF
:102D100054F8040BB04747EA4000C7B26D1E05D017
:102D200054F8040BB0473843C7B26D1E08F8017B56
:102D3000002DBED147E054F8040BB0478007070EC2
:102D40006D1E17D054F8040BB04747EA0010C7B205
:102D50006D1E0FD054F8040BB04747EA8000C7B28D
:102D60006D1E07D054F8040BB0473843C7B200E0DB
:102D700005E06D1E08F8017B002DDCD123E054F83E
:102D8000040BB0470007070E6D1E05D054F8040B66
:102D9000B0473843C7B26D1E08F8017B002DEED155
:102DA00011E0D3F810C0BCF1000F05D00A4601466F
:102DB00001234046E04706E054F8040BB04708F80A
:102DC000010B6D1EF8D10120BDE8F0812DE9FF4F08
:102DD00000208BB007460146009019981E46934686
:102DE000016008AB002203A902A800F0B1F9002895
:102DF0001EBF00200FB0BDE8F08F08988642C8BF04
:102E00000646754C75492068407C51F820100591A4
:102E100009690691FEF7ACF904902068407CFEF742
:102E2000F1F981466E4881451BBF6E4881450020FF
:102E3000012009900B998819CDF81C0018995BF8AE
:102E4000040B884782465FEA106800F0B68000985D
:102E5000002838D10B98C5195F480068B0F9080000
:102E6000A842C6BF441B054600240299059801EB01
:102E7000870101EB8401CDE9001007980C9B421EED
:102E800019462846FFF7A4FA012000900498182854
:102E90000ADA0298311B00EB870000EB8400069BE6
:102EA000049A00F0A3F80EE0099860B1029800EBD4
:102EB000870000EB84040798451B2068C84744F846
:102EC000040B6D1EF9D14848C06978B3DDE90205ED
:102ED00000EB870005EB8702CDE90202DFF808C1AD
:102EE000ABF104043346DCF81CC020460299E047ED
:102EF000012ED8BF01264FF07F42DDE90201236891
:102F000032EA030C04BF03680B6005D0D0F800C0A0
:102F100032EA0C0C08BF0B60241D001D091D761E33
:102F2000EDD1199901200395086050E0FFE7029860
:102F3000B8F1FF0F50F8270004BF039941F82700AC
:102F400041D04FF07F42C8F1FF0132EA00032DD09B
:102F50000AF0FF0313FB01F30AF47F4C0AF47F0429
:102F600008FB01F50CFB01FC4C43C1F1FF0100F033
:102F7000FF0818FB013300F47F4808FB01CC00F484
:102F80007F0808FB0144000E10FB0151100C00EA01
:102F90001C20C3F307234FF47F0C0CEA142C1843B6
:102FA00002EA014140EA0C0040EA010A039840F8B5
:102FB00027A019990120086005E00398012140F835
:102FC00027A0199801607F1C761E7FF437AF039805
:102FD0000FB0BDE8F08F0000440A00205C0A00201A
:102FE000B3400008B1400008080A00200029D8BFFB
:102FF00070472DE9F05F0C465F6800EB8406082AF5
:1030000015DC611E012A34D0022A55D0042A7AD058
:10301000082A0CBF0519BDE8F09F00BF15F8010D87
:10302000B84746F8040D641EF8D1BDE8F09F102A99
:10303000C8BFBDE8F09F0221022918BFBDE8F09F7C
:10304000D3F814C0BCF1000F08BF00EB440507D053
:103050002246BDE8F04F022301465DF804EB6047CD
:1030600035F8020DB84746F8040D641EF8D1BDE8E6
:10307000F09F00EBE108351F01F0070618F801A9E1
:10308000802020FA06F900BF0AEA0900C6F107010C
:10309000C840B84745F8040946B14FEA4960761E72
:1030A0004FEA1069641EEFD1BDE8F09F18F801A93E
:1030B00007264FF00109F5E700EBA105A6F1040989
:1030C00001F00306700015F801A9C02121FA00F8EB
:1030D0004FF0060B0AEA0801ABEB460021FA00F0BC
:1030E000B84749F804094EB14FEA8860761E4FEAA6
:1030F0001068641EEED1BDE8F09F04E0032615F8C9
:1031000001A9B046F5E700EB6108012020EA0405BB
:10311000A800A6F1040918F801A9F02121FA00F687
:103120004FF0040B0AEA0600ABEB8501C840B84734
:1031300049F8040935B16D1E3007060E641EF1D141
:10314000BDE8F09F012518F801A90F26F6E7000059
:103150002DE9F047224C80469946A06916460F4655
:10316000002540B90120A06104F120011D4808603C
:10317000084600F085F9606910B900F087FE6061CB
:10318000B9F1000F18BFC9F80000B8F1000F0BD05B
:10319000A06838B960698000FDF7C8FCA06000280D
:1031A00008BF0125C8F8000057B1E06838B9606968
:1031B0008000FDF7BBFCE060002808BF01253860F7
:1031C00056B1206938B960698000FDF7AFFC206115
:1031D000002808BF012530602846BDE8F0870000C0
:1031E000080A002091B90008B0F90030B1F90020B8
:1031F0009342C8BF1A460280B0F90230B1F90220EA
:103200009342C8BF1A464280B0F90430B1F9042095
:103210009342D8BF1A468280B0F90620B1F9061051
:103220008A42C8BF0A46C280704730B4B1F900C0B4
:10323000B2F900309C45C8BF63460380B1F9024033
:10324000B2F902C06445C8BFA446A0F802C0B1F9F3
:103250000450B2F90440A542B8BF2C468480B1F9AD
:103260000610B2F906209142A8BF1146C1809C42C7
:10327000AABF61450020012030BC704701460248CA
:103280000068407C00F002B8440A0020F8B501262E
:103290000F46044602280FDA2A4D002F36D0012FA0
:1032A00002D0022F08D120E055F82400002818BFD2
:1032B000401C03D045F824003046F8BD2046FDF7F9
:1032C000B3FE00900028F7D0C0680D21426A68461E
:1032D00090470200F0D039460098904755F82400F6
:1032E0000026401C45F82400E6E7FDF79DFE00900F
:1032F0000028E1D0C0680D21426A6846904702006C
:10330000DAD03946009890470026D5E755F82400D2
:1033100001280FD12046FDF787FE009050B1C0680C
:103320000D21426A68469047020003D03946009852
:103330009047002655F82400002814BF01210021E1
:10334000401AB7E7340B00204FF07F4333EA010CFB
:1033500008BF704770B400F0FF0C1CFB02FC00F4C7
:103360007F4400F47F0554435543000E10FB02F6E2
:10337000C2F1FF00CAB212FB00C201F47F4C0CFB89
:10338000004C01F47F0404FB0054090E11FB0060A3
:103390004FF47F4101EA1C214FF47F0C0CEA142CFE
:1033A000C2F30722114370BC03EA004041EA0C015A
:1033B000084370472DE9F84F002300930D9BDDF87B
:1033C00038A0002B86BF4FF0FF0E4FF07F45BDE8C1
:1033D000F88F0C9C50F8049B51F8043BAEEB196C31
:1033E0000CFB0AFC0CEBCC1606EBCC3CCCF3C75C1C
:1033F00035EA030632D009F0FF0616FB0CF609F495
:103400007F4709F47F0807FB0CF708FB0CF84FEA2D
:10341000196919FB0CF9CCF1FF0C03F0FF0B1BFB36
:103420000C6603F47F4B0BFB0C7703F47F0B0BFB59
:103430000C881B0E13FB0C93C6F3072C4FF47F462E
:1034400006EA17264FF47F0707EA18274CEA060C0E
:1034500005EA03434CEA070C4CEA030929F07F43D1
:1034600042F8043B641EB5D10A9BDDF834C001EB81
:103470008301009B5B1C00936345AAD3BDE8F88FD2
:1034800002494A694260486170470000380A0020DA
:1034900030B402E000F8011B521E002A18BF10F0E1
:1034A000030FF7D195083BD0C5F1000C4FEAEC743F
:1034B0000CEB947C4FEAAC0C4FEA8C0C01EB014313
:1034C000CCF1000402F0030203EB0323002CC4BF81
:1034D000A0F1040C641010DDCCF804304CF8083F67
:1034E000641EF9D1EC1705EB947C4FEAAC0C00EBB1
:1034F0000C10CCF1000C05EB8C05002D10DDA0F1BB
:10350000040C15F0010F18BF4CF8043F6C1005D0E7
:10351000CCF804304CF8083F641EF9D100EB85006C
:10352000002ADCBF30BC7047401E12F0010F18BFEC
:1035300000F8011F521004BF30BC7047417000F802
:10354000021F521EFAD130BC704770B410F0020F47
:1035500002D020F8021B521E5FEA520C39D001EB58
:103560000143BCF1040F21DBACF1040C664674424C
:103570000360E517436004EB95748360A410C36097
:10358000A40010306542002DC4BF041F6D100DDD76
:10359000636044F8083F6D1EFAD1F4170CEB947485
:1035A000A41000EB0410644206EB840CBCF1000F85
:1035B0000FDD041F1CF0010F18BF44F8043F5FEA41
:1035C0006C0504D0636044F8083F6D1EFAD100EB2F
:1035D0008C0012F0010F18BF018070BC7047000012
:1035E0001FB5012001F0F4FD00BF612001F0D0FD06
:1035F0000028FAD00121082001F08AFD40212B4843
:1036000002F0D7FB01220021284802F0CFFB0C205A
:10361000ADF800000020ADF802000120ADF8040074
:103620000C20ADF806000020ADF8080069461F48E0
:1036300002F07CFB32208DF80C0000208DF80D008C
:103640008DF80E0001208DF80F0003A801F0E8FCB2
:103650000121164802F081FA002014491031088037
:1036600001221021114802F098FB00BF10480068A9
:103670000228FBD10D4802F07DFA0E48006800F4E4
:10368000E05048B90C48006880080C490968B0FB54
:10369000F1F0C00004B010BD074800688008400089
:1036A00006490968B0FBF1F0C000F3E7000C0040E8
:1036B00014000020083802402800002018000020D4
:1036C00000BFFEE702490A68086010467047000024
:1036D000D80A00201CB5012140F2EF1001F0F8FCDF
:1036E00002208DF805008DF8040000208DF80600FA
:1036F0008DF807000E2208215C48FDF733F80E22F2
:1037000009215A48FDF72EF84FF4407000906946A1
:103710005648FCF7DFFF0E2206215548FDF722F838
:103720004020009069465248FCF7D4FF0E22052144
:103730005048FDF717F80E2206214E48FDF712F803
:103740000E2204214B48FDF70DF8702000906946C9
:103750004848FCF7BFFF0E220A214748FDF702F850
:103760004FF48060009069464348FCF7B3FF0E2297
:1037700006214248FCF7F6FF0E2207213F48FCF7DE
:10378000F1FF0E220B213D48FCF7ECFF0E220C212D
:103790003A48FCF7E7FF4FF4C650009069463748B7
:1037A000FCF798FF0E2202213548FCF7DBFF0E22C2
:1037B00003213348FCF7D6FF0E2208213048FCF7DE
:1037C000D1FF0E2209212E48FCF7CCFF0E220A2140
:1037D0002B48FCF7C7FF0E220B212948FCF7C2FF3C
:1037E0000E220C212648FCF7BDFF0E220D21244895
:1037F000FCF7B8FF0E2211462148FCF7B3FF0E225A
:103800000F211F48FCF7AEFF4FF60C700090694681
:103810001B48FCF75FFF0E2200211A48FCF7A2FFAD
:103820000E2201211748FCF79DFF0E2202211548A8
:10383000FCF798FF0E2204211248FCF793FF0E229A
:1038400005211048FCF78EFF0E2209210D48FCF7D8
:1038500089FF0E220A210B48FCF784FF40F23760F3
:10386000009069460748FCF735FF1CBD0004024084
:10387000000C0240001002400014024000180240F8
:10388000001C02400020024010B5044624B910215B
:103890000448FCF78AFF03E010210248FCF787FF89
:1038A00010BD0000000C02400449054A0968497C2B
:1038B00052F821100969096808470000440A0020ED
:1038C0005C0A0020C1B2C0F30722C0F30740914256
:1038D00008BF824207D101F108001349A1FB001083
:1038E00000097830704701EB810101F17F030F4936
:1038F00002EB8202A1FB03C37F32A1FB02C200EBF9
:1039000080007F30A1FB0010D209DB09C00902EB67
:10391000420103EB410100EBC00001EB80006C2889
:1039200028BF283070470000F1F0F0F081808080DF
:103930001CB50121082001F0CBFB102000900220D3
:103940008DF8050001208DF8040000208DF8060098
:103950008DF8070069460448FCF7BCFE01221021DF
:10396000014800F003F81CBD000C024070B504468D
:103970000D461646324629462046FCF71AFF70BD12
:103980002DE9FF4F87B09A48DDF850A0169E0068D9
:1039900090B1DDE91723DDF864C0CDF814C00296BC
:1039A000CDE90323159ACDE900A2D0F800C0DDE9E6
:1039B0000923079800F0D4B80A98099A0844451ECC
:1039C00007988C4C1044A0F1010C15984AEA0000AD
:1039D000012827D0C6F10800029000200091049031
:1039E0000A980028DCBF0BB0BDE8F08F159900984D
:1039F0000844411E019105902068B0F90A208A42CE
:103A000000F3E580B0F90E100098884200F3DF80E3
:103A1000189803900998079D4FF00008002873DC60
:103A200000F0D5B82268B2F90A30581A00280DDD26
:103A30000A99091A0A910029DCBF0BB0BDE8F08F82
:103A40001946DDE9173400FB03401890B2F90E0067
:103A5000281A002807DD0A9B181A0A900028DCBFE4
:103A60000BB0BDE8F08FB2F90C00ACEB0000002801
:103A700002DD099B181A0990B2F90830DDF81CC064
:103A80000020634550DDA3EB0C00099B1B1A099332
:103A9000082E32D006DC012E0BD0022E15D0042EBB
:103AA00042D11EE0102E30D0182E18BF202E3BD150
:103AB00033E0189B20F0070C03EBE0031893079BFF
:103AC00000F00700634407932EE0189B20F0030CDE
:103AD00003EBA0031893079B00F0030063440793D4
:103AE00022E0189B20F0010C03EB60031893079B66
:103AF00000F001006344079316E0189B0344604400
:103B00000790189300200FE031E0189B03EB40036F
:103B1000604407901893002006E0189B03EB800395
:103B20006044079018930020099B002BDCBF0BB06A
:103B3000BDE8F08FDDE91734DDF864C0CDF814C0BE
:103B40000293CDE903400A98CDE90006527C2A4849
:103B5000099B50F82200C268D2F804C00A460799AF
:103B6000E0470BB0BDE8F08FB9F1000F05D1039825
:103B70004FF0080910F8017B03900298A9EB0609A1
:103B800037FA00F007FA06F1CFB204D12168097CB8
:103B900011F0020F15D12168199AC96B002AD1F8CA
:103BA00000B018BF52F82000086005EB0A00DDE9FC
:103BB0000013421E284600F085F82068C06BC0F84C
:103BC00000B0099808F1010855448045CCDB049801
:103BD000401C049005980090DDE9170108441890F6
:103BE0000A9904988842FFF601AF0BB0BDE8F08F48
:103BF0006C0A0020440A00205C0A00208C4613490D
:103C000030B40968B1F90A306345D9BFB1F90E3053
:103C10009C4530BC7047B1F908308342C8BF184694
:103C2000B1F90C309342B8BF1A468242BCBF30BCD7
:103C300070474B7C064951F8234013466246E168C1
:103C40008D6801462046AC4630BC6047440A0020DF
:103C50005C0A00200A46194930B40968B1F90A30F3
:103C60009342D9BFB1F90E309A4230BC7047B1F9D6
:103C700008308342D9BFB1F90C30984230BC70474C
:103C80000B7C13F0010FDFF838C009D0497C5CF8D9
:103C90002130D968D1F81CC0014630BC18466047B5
:103CA000CB6B497C1B685CF821C0DCF80C108C697C
:103CB00001466046A44630BC60470000440A00202C
:103CC0005C0A002038B5DFF858C0DCF800C0BCF949
:103CD00008408442C8BF2046BCF90C409442B8BF9B
:103CE00022468242B8BF38BDBCF90A408C42C8BFE8
:103CF0002146BCF90E409C42B8BF23468B42B8BF58
:103D000038BD00939CF811C0064B53F82CC0DCF86A
:103D10000C301C6913460A4601466046A04738BD70
:103D2000440A00205C0A002070B5082500240228FF
:103D300007DAFDF779F920B1C1688A6A2946904708
:103D40000446204670BD0000044A02EB800352F88E
:103D50002000C068426A1846104700005C0A002034
:103D600070B50C250024022807DAFDF75DF920B1B3
:103D7000C1688A6A294690470446204670BD70B5DE
:103D80000D250024022807DAFDF74EF920B1C1689D
:103D90008A6A294690470446204670BD70B5084897
:103DA000092500240068407C022807DAFDF73CF969
:103DB00020B1C1688A6A294690470446204670BDF2
:103DC000440A002070B509250024022807DAFDF70F
:103DD0002BF920B1C1688A6A2946904704462046DB
:103DE00070BD70B500252C462046FDF71DF9002852
:103DF00018BF6D1C641C022CF6DB284670BD000049
:103E0000074810B50068407CFDF70EF9002808BF90
:103E100010BDC168CA6ABDE8104002211047000009
:103E2000440A0020F8B515460E460124FDF7FCF8BB
:103E3000009058B1C0680421426A68469047030068
:103E400004D02A4631460098984700242046F8BD01
:103E500070B50E250024022807DAFDF7E5F820B139
:103E6000C1688A6A294690470446204670BD70B5ED
:103E700003250024022807DAFDF7D6F820B1C1682F
:103E80008A6A294690470446204670BD2DE9F041D4
:103E900003270024012500262846022D07DAFDF716
:103EA000C3F820B1C1688A6A394690470646B442D1
:103EB000B8BF34466D1EEED52046BDE8F08170B522
:103EC00004250024022807DAFDF7AEF820B1C16806
:103ED0008A6A294690470446204670BD70B5084856
:103EE000012500240068407C022807DAFDF79CF8D1
:103EF00020B1C1688A6A294690470446204670BDB1
:103F0000440A002070B501250024022807DAFDF7D5
:103F10008BF820B1C1688A6A29469047044620463A
:103F200070BD000070B50848022500240068407C80
:103F3000022807DAFDF778F820B1C1688A6A2946B5
:103F400090470446204670BD440A002070B5022503
:103F50000024022807DAFDF767F820B1C1688A6AF1
:103F6000294690470446204670BD00002DE9F041E7
:103F700001004FF000001ABF8E68002EBDE8F081EE
:103F8000104F7A68002A08BFBDE8F0810C68B4F5CC
:103F9000807FC8BFBDE8F08138688442C8BF04464E
:103FA0000025002C0ADD00BF56F82500FFF77CFC39
:103FB000796841F825006D1CAC42F5DC7868BDE8F5
:103FC000F0810000AC0A00202DE9F04101004FF023
:103FD00000001ABF8E68002EBDE8F081104F7A688D
:103FE000002A08BFBDE8F0810C68B4F5807FC8BF27
:103FF000BDE8F08138688442C8BF04460025002C23
:104000000ADD00BF56F82500FFF74EFC796841F83D
:1040100025006D1CAC42F5DC7868BDE8F08100003D
:10402000AC0A00200449054A0968497C52F821106D
:104030000969496808470000440A00205C0A00201A
:10404000A0F1780110293EBF1648484370476C28FC
:1040500004D3942836BF002028387047124AA2FBA8
:1040600000318908A2FB01C2A1EB81039208A2EBF7
:10407000820201EB420100EB43030C4A03EB031302
:10408000A2FB002001EB0111C00803EB430301EB8D
:10409000410100EB001000EB400003EB012101EBBC
:1040A0000040704711111100ABAAAAAA398EE3385B
:1040B0007047704700F01F01074A084BC0F3451CCA
:1040C000C0F3C42013F80C30105C515C00EB0320EB
:1040D00000EB014070470000643305088433050895
:1040E0000206C0F30721120AC0F3074042EA012189
:1040F0000843704700B58FB0FFF71AFC0020FFF7A8
:10410000C3FB0120FFF7C0FB0121880601F020F866
:104110000121C80500F0DCFFFFF7DCFA01F0BEFA70
:10412000002000900190029003900C900D900E9052
:1041300004220721C02001F063F8002001F04EF8AE
:10414000012001F057F800BF3D2001F021F80028C0
:10415000FAD009200490012005901D20069003202C
:10416000079040F23D30089040F2E310099040F291
:104170006F300A9040F2AF200B90684600F0CCFD03
:10418000684600F0C9FD0FB000BD000010B50A4C34
:10419000606870B920688000FCF7C8FC6060002887
:1041A00004BF012010BD0548054908600846FFF717
:1041B00067F9002010BD0000AC0A002019BA000801
:1041C000B40A00202DE9F047FFF70BFE071E4FF061
:1041D0000005C6BFDFF86080DFF86090BDE8F087BB
:1041E0002846FCF721FF10B32846FEF763F9824604
:1041F0002846FFF799FD082816DC58F825000069C5
:10420000484511D02846FFF7DDFD061E4FF000049B
:104210000ADDE0B2FFF706FF0246E1B2284600F0F1
:10422000D5F9641CA642F4DC5046FEF743F96D1C38
:10423000BD42D5DBBDE8F0875C0A0020D433050819
:1042400000B591B01E20019040F23D300290042054
:10425000039040F2E310049002200590FF200690A6
:1042600000200790089009900A904FF480600B900E
:1042700005200C9040F243600E90C01E0F904FF44A
:10428000F07010904FF050400D9001A9124800F0CE
:1042900012FE12480D904FF4C0600B9007200C9056
:1042A00001A90D48803000F006FE012000F08EFECE
:1042B0000121094800F0F4FD01210748803000F099
:1042C000EFFD012000F082FE054800F079F90120A1
:1042D00000F0A8FC11B000BD84680140000006D0C9
:1042E000440000202DE9FF4F83B016461198109C22
:1042F000C0684769426A82B1012111A890475FEA0C
:10430000000C0AD00698CDE90004DDE9031233461B
:104310001198E04707B0BDE8F08F63480068407C23
:10432000FCF726FF00900828D8BF4FF0010805DDF4
:104330001028D4BF4FF002084FF00408002506995A
:1043400004988842C4BF07B0BDE8F08FB8F1010FF0
:1043500006D0B8F1020F7FD0B8F1040F4CD18AE03B
:104360000098092848D2DFE800F0940525484868FD
:1043700068686800DDF80C90B145D8BF4FF67F7AC9
:104380003ADC4946049A1198B847C5F107018840BC
:1043900021782AFA05F2114008432070681C20F0A9
:1043A000070140FA01F509F1010904EBE004B14508
:1043B000E7DD6EE0DDF80C90B145DCBF4FF0060A9A
:1043C0004FF63F7B65DC4946049A1198B847AAEB43
:1043D0004501884021786A002BFA02F21140084317
:1043E0002070681C20F0030140FA01F509F1010971
:1043F00004EBA004B145E6DD4BE0DDF80C90B145DF
:10440000DCBF4FF0040A4FF00F0B42DC4946049A20
:104410001198B847AAEB850188402178AA000BFAC9
:1044200002F21140084320702C4409F1010985F083
:104430000105B145EADD2CE00EE0DDF80C90B14558
:1044400027DC4946049A1198B847207009F1010900
:104450004444B145F5DD1CE0DDF80C90B14518DCB5
:104460004946049A1198B847208009F1010944444B
:10447000B145F5DD0DE0DDF80C90B14509DC4946AC
:10448000049A1198B84709F1010920604444B145E4
:10449000F5DD04980699401C049088427FF756AFDA
:1044A00007B0BDE8F08F0000440A002010B50E4CA4
:1044B0000E492068407C51F8200058B1C168096855
:1044C000042903D000680028F8D103E0002818BFB1
:1044D000FCF760FD00212068016600F108014161E0
:1044E000BDE8104000F030B8440A00205C0A00200B
:1044F0000149096849680847A80A00200449096871
:104500000A7C12F0040F14BFC96B896B08607047F6
:10451000440A002030B50A4C054683B02068417C2F
:10452000084850F82100C1680A6B69469047206826
:104530006A4629460830FEF778FE03B030BD000019
:10454000440A00205C0A00200448016804484A7CB0
:10455000083150F82200C268126B1047440A00204C
:104560005C0A00200149096809680847A80A002078
:10457000044909680A7C12F0040F14BF896BC96BE7
:1045800008607047440A0020F8B515460E4601241D
:10459000FCF74AFD009058B1C0681621426A68468F
:1045A0009047030004D02A463146009898470024DB
:1045B0002046F8BD0149096889680847A80A002013
:1045C000014908607047000064000020F8B51546F6
:1045D0000E460124FCF728FD009058B1C068102158
:1045E000426A68469047030004D02A463146009844
:1045F000984700242046F8BD38B94FF05041064A8C
:1046000011600021054A116005E00549024A116068
:104610000121024A116070476C00002070000020E8
:10462000000006D0F8B515460E460124FCF7FCFC48
:10463000009058B1C0680B21426A68469047030059
:1046400004D02A4631460098984700242046F8BDF9
:1046500038B50D460124FCF7E7FC009050B1C06866
:104660000921426A68469047020003D02946009813
:1046700090470024204638BDF8B515460E46012463
:10468000FCF7D2FC009058B1C0680A21426A684623
:104690009047030004D02A463146009898470024EA
:1046A0002046F8BD10B5074C2068006BFFF7FCF8FA
:1046B000FFF75EFF2068406BFFF7F6F8BDE810409B
:1046C000FFF71CBF440A002010B500231A464049DA
:1046D0004048FCF78DFB4FF4F0724FF44871002016
:1046E000FFF7A0FF4FF4F0724FF448710020FFF77E
:1046F000C3FF0123002236493648FCF779FB4FF40B
:10470000F0724FF448710120FFF78CFF4FF4F07204
:104710004FF448710120FFF7AFFF002455E04FF040
:10472000FF302D4941F824002C4850F82410204631
:10473000FFF78EFF2046FFF7F7FAC010284941F82F
:104740002400284A21212046FFF71EFF264A232164
:104750002046FFF719FF204606F03EF8042809D846
:10476000224A19212046FFF70FFF214A2521204622
:10477000FFF70AFF204606F02FF8022804D11D4A51
:1047800024212046FFF700FF1B491C48FCF716F8C0
:104790001B491C48FCF71EF81B491C48FCF714F881
:1047A0001B491C48FCF722F81B491C48FCF718F869
:1047B0001B48FDF7C9FE1B48FDF7CCFE1A48FDF764
:1047C000CFFE1A48FDF7D2FE641C022CA7DB10BDF9
:1047D000742F0508083005088C000020100201081D
:1047E000AC00002099B20008EDB200088DB40008BA
:1047F00009B400088DB30008D9AB0008197B000884
:10480000CDAC0008C57B0008B1AC0008A97B00084E
:10481000A1AD0008A17C000885AD0008857C0008DA
:104820007180000835B50008D582000841B700083E
:104830002DE9FC4705460E4614464FF000080F2EA2
:1048400070D2DFE806F08408840C282F304841310C
:104850005C8462702200284606F0A2FE7AE02746B9
:104860003E4951F82510786848433D4951F82510D4
:104870003C4A52F8252000FB01203B4951F8251005
:104880008862022000F0A2FB64E02046374A0168FB
:1048900042F825105EE027463A792846396806F046
:1048A000ABFF57E056E055E027463A680AB10122CF
:1048B00000E0002211462C4A52F8250000F0F0FAE0
:1048C000012000F083FB45E027462846D7E9001287
:1048D00006F0D6FF3EE06A4601A92846FCF75EFCDA
:1048E00027461E49386841F825002149786841F873
:1048F00025002846DDE9002106F0C2FF2AE0274610
:104900002846396806F0A2FF24E027463A680AB133
:10491000012200E000221146134A52F8250006F059
:104920004BFF17E013E027463868C0F3074039888B
:1049300001F47F410843397840EA01490A4850F8B8
:104940002500C0F80C90022000F040FB02E04FF080
:10495000FF3800BF00BF4046BDE8FC879C00002038
:10496000AC00002010020108840000208C00002010
:10497000A40000202DE9FF4F8DB07A4ADDF868A031
:104980001C9E20981268A2B1DDE91D03DDF87CC0F1
:10499000CDF814C00296CDE903031B98CDE900A021
:1049A000D2F800C0DDE90F230D98E04711B0BDE853
:1049B000F08F109A0F9B0A44551E0D9A6A4C1A44A8
:1049C000A2F1010C1B9A4AEA0202012A24D0C6F184
:1049D0000800059000200890109802910028DCBF84
:1049E00011B0BDE8F08F1B99029808440990401E51
:1049F00000902168B1F90A2082427DDCB1F90E10E5
:104A00000298884278DC1E980B900F980D9D4FF00D
:104A10000008002863DC94E02268B2F90A40631AB7
:104A2000002B0DDD1099C91A10910029DCBF11B0BF
:104A3000BDE8F08F2146DDE91D4703FB04731E939B
:104A4000B2F90E30EB1A002B07DD109CE31A10931D
:104A5000002BDCBF11B0BDE8F08FB2F90C30ACEB2D
:104A60000303002B04DDDDF83CC0ACEB03030F9324
:104A70000D9BA3EB000CB2F9083063450FDDA3EBEF
:104A80000C040F9D23182C1B0F941E9C181A20F049
:104A9000070004EBE304844403F007001E940F9B1B
:104AA000002BDCBF11B0BDE8F08FDDE91D341F9D88
:104AB00005950293CDE903401098CDE90006527C9C
:104AC0002A480F9B50F82200C26854680A46614683
:104AD000A04711B0BDE8F08FB9F1000F05D10B98D8
:104AE0004FF0080910F8017B0B90059837FA00F099
:104AF00007FA06F1CFB200E023E0A9EB060904D1E2
:104B00002168097C11F0020F15D121681F9AC96B29
:104B1000002AD1F800B018BF52F82000086005EB59
:104B20000A00421E2846009B0299FFF7CBF8206836
:104B3000C06BC0F800B00F9808F1010855448045DB
:104B4000CADB0898401C089009980290DDE91D1006
:104B500008441E90089910988142FFF644AF11B0A6
:104B6000BDE8F08F6C0A0020440A00205C0A002097
:104B70000021002831D030F0010208BF01213BD0D4
:104B800030F0030208BF022027D030F0070208BF30
:104B9000032022D030F00F0208BF04201DD030F0D7
:104BA0001F0208BF052018D030F0FF0208BF082000
:104BB00013D0420A18BF5FEA10321FD0C20B18BFD1
:104BC0005FEA10421AD0820C08BF122005D010F004
:104BD0007F4F0CBF1820202004D0821E062A98BFC9
:104BE000082109D9A0F10902072A98BF102103D989
:104BF00011380F2898BF2021084670471020ECE795
:104C000030B10749096841F00101054A116005E02A
:104C10000349096821F00101014A11607047000051
:104C20001868014030B10749096841F48031054AEC
:104C3000116005E00349096821F48031014A1160DF
:104C4000704700001868014010B500F001F810BD71
:104C500070B5012020490860002439E01F4850F851
:104C60002400002833DB1E4850F824001D4951F869
:104C700024104843194951F8241048431A4951F85F
:104C800024101A4A52F8242000FB0125184850F835
:104C90002400806A0020164951F8241088621448C4
:104CA00050F824008562012000F090F90B4850F87C
:104CB00024102046FDF712FB084850F824000D4947
:104CC00041F824004FF0FF30044941F82400641CEF
:104CD000022CC3DB70BD00003C6801408C0000204A
:104CE0009C000020A4000020AC000020100201085D
:104CF000840000209400002029B1064A1268024373
:104D0000044B1A6004E0034A12688243014B1A60A4
:104D10007047000034680140F0B5002100220023F4
:104D20000024002500265B4F3F68DFF86CC107EACE
:104D30000C07DFF860C1CCF80070078A39046746B9
:104D40003F68D0F814C04CEA010C47EA0C07DFF8C2
:104D500044C1CCF800700CF104073F68DFF838C19B
:104D600007EA0C07DFF82CC10CF1040CCCF800703A
:104D7000078B3A0467463F68D0F81CC04CEA020C27
:104D800047EA0C07DFF80CC10CF1040CCCF80070FA
:104D90000CF104073F68DFF800C107EA0C07DFF8F1
:104DA000F4C00CF1080CCCF80070078C3B0467468B
:104DB0003F68D0F824C04CEA030C47EA0C07DFF840
:104DC000D4C00CF1080CCCF800700CF104073F685B
:104DD000DFF8C4C007EA0C07DFF8B8C00CF10C0C10
:104DE000CCF80070078D3C046746D7F800C0C76A4E
:104DF00027434CEA070C274F0C37C7F800C03F1D6C
:104E00003F68DFF898C007EA0C07DFF888C00CF1AC
:104E1000100CCCF80070D0E9007C47EA0C07D0F801
:104E200008C047EA0C07D0F80CC047EA0C07DFF8C7
:104E300064C00CF1100CDCF800C047EA0C07DFF886
:104E400054C00CF1100CCCF80070476B3D02078E7B
:104E50003E04104F24373F6807F07F47DFF834C027
:104E60000CF1240CCCF8007046EA0507D0F838C0E5
:104E700047EA0C07DFF81CC00CF1240CDCF800C07A
:104E800047EA0C07DFF80CC00CF1240CCCF80070DA
:104E9000F0BD00000868014000F800F08F88FE0FA8
:104EA00021B1026842F00102026003E0026822F0D0
:104EB0000102026070472DE9F04100240025002620
:104EC000002200270023B1F804C04FEA0C44D0F8B8
:104ED00004C00CF4704CC0F804C0D1F800C04CEA17
:104EE000040CC0F804C0B1F80CC04FEA0C45D0F86F
:104EF00008C00CF4704CC0F808C0D1F808C04CEAE7
:104F0000050CC0F808C0D0F810C02CF0070CC0F891
:104F100010C0D1F810C0C0F810C0D1F81CC04FEAC2
:104F20000C26B1F820C04FEA0C4291F824C04FEA99
:104F30000C67D0F818C09C46C0F818C0D1F818C04B
:104F40004CEA060C4CEA020C4CEA070CC0F818C0FC
:104F5000D0F814C02CF0FF0CC0F814C0D1F814C065
:104F6000C0F814C0D0F81CC040F207782CEA080C36
:104F7000C0F81CC0D1E90AC84CEA080CC0F81CC033
:104F8000D0F828C09C46C0F828C0D1F830C0C0F87E
:104F900028C0B1F838C04FEA0C43D0F82CC00CF050
:104FA000E02CC0F82CC0D1F834C04CEA030CC0F897
:104FB0002CC0D0F830C06FF30A0CC0F830C0D1F864
:104FC0003CC0C0F830C0BDE8F08100000149086075
:104FD000704700002468014010B500F05FFBFFF748
:104FE00089F8FFF72DF90120FFF70AFE0120FFF7EE
:104FF00003FB00F061F90121080300F069F80020CB
:1050000010BD00BFFEE7704700F01F020121914074
:105010004209920002F1E022C2F80011704700003C
:1050200070B5002100230F22C4781CB3174C2468EC
:1050300004F4E064C4F5E064C4F30721C1F104049E
:10504000E3B20A4144789C40E1B2847814402143A1
:105050000C07210E0E4C05786155047804F01F05ED
:105060000124AC4005786D11AD0005F1E025C5F8CF
:10507000004109E0047804F01F050124AC40054D0F
:105080000678761145F8264070BD00000CED00E072
:1050900000E400E080E100E010B5002807DA0A072C
:1050A000140E054A00F00F031B1FD45403E00A0737
:1050B000130E024A135410BD18ED00E000E400E0A6
:1050C000014908627047000000000E42704700006E
:1050D00029B1064A12680243044B1A6004E0034AED
:1050E00012688243014B1A6070470000303802405A
:1050F00029B1064A12680243044B1A6004E0034ACD
:1051000012688243014B1A60704700003838024031
:1051100029B1064A12680243044B1A6004E0034AAC
:1051200012688243014B1A60704700004038024009
:1051300029B1064A12680243044B1A6004E0034A8C
:1051400012688243014B1A60704700002038024009
:1051500029B1064A12680243044B1A6004E0034A6C
:1051600012688243014B1A607047000044380240C5
:1051700029B1064A12680243044B1A6004E0034A4C
:1051800012688243014B1A607047000024380240C5
:1051900010B501460022002300204A11012A02D145
:1051A0000A4C236808E0022A03D1084C70342368B3
:1051B00002E0064C7434236801F01F02012494407D
:1051C0001C400CB1012000E0002010BD003802405E
:1051D0000149086070470000800E474201460020E8
:1051E000034A106820F44030084310607047000004
:1051F0008C380240014908677047000000004742B0
:1052000010B5830143EA016343EA0273014C236052
:1052100010BD000088380240014908607047000056
:105220003C0E4742002100F44072B2F5407F08D1A5
:10523000094A116821F4F811084A02401143064A4C
:105240001160054A68321268C0F30B031A43024B1F
:1052500068331A607047000008380240FFFCFF0FF7
:1052600010B54FF40030FBF753F94FF4805000F0C5
:1052700099F860B1012000F0A9FA002004490870F3
:105280004FF4805000F008F801200249087010BD6A
:105290000E0000200D000020002101098AB242F01A
:1052A0008002044B1B6803F0800363EA0202014B97
:1052B0001A6070470C28004010B500201D49087086
:1052C00001210807FFF724FF0120FFF7F9FE012065
:1052D000FFF77EFF00BF6120FFF75AFF0028FAD0DA
:1052E0004FF40070FFF79EFF0120FFF795FF00F0DD
:1052F000ABF87F2010494860FF20886000200860DC
:10530000084600F06FF8FEF76BF90C4908607F2043
:1053100009494860094800680121C1EBD0100649DD
:10532000886000200860084600F05CF8014890F9A9
:10533000000010BD0C000020940B00201000002085
:1053400008B50022009200200021104A126802F0E5
:105350004002CAB9421E0D4B1A6000BF0B4A1268C8
:1053600002F04001009A521C0092009AB2F5803F70
:1053700001D00029F2D0054A126802F040020AB1B9
:10538000012002E0002000E0012008BD0C280040C0
:105390000348006820F08000014908607047000061
:1053A0000C28004030B501460020002200230C4CA0
:1053B000246804F004020A4C383C24680C4002EAD9
:1053C000D13544EA0503064C343C246804EA111242
:1053D0001BB194B20CB1012000E0002030BD0000F0
:1053E0004028004030B504460025CA201549086011
:1053F00053200860FFF7A4FF00B91DE011481C38D6
:10540000006820F040000F491C3908600846006819
:10541000216808430B491C3908600A491439A068FF
:10542000086008460068A18840EA0140054914392F
:105430000860FFF7ADFF0125FF20024908602846FC
:1054400030BD00002428004008B500220092002052
:105450000021CA22134B1A6053221A60114A183ACB
:10546000126822F0A0020F4B183B1A6000BF0D4AD1
:10547000183A126802F02001009A521C0092009A19
:10548000B2F5003F01D00029F1D0064A183A12685F
:1054900002F020020AB1012000E00020FF22014BAF
:1054A0001A6008BD242800401CB50121FE20FFF72A
:1054B0000FFE02208DF804008DF8050000208DF805
:1054C00006008DF807000C2205216F48FBF74AF90A
:1054D0000C2206216C48FBF745F90C2207216A488B
:1054E000FBF740F9E020009069466748FBF7F2F8C7
:1054F0000C2200216548FBF735F90C220121634895
:10550000FBF730F90C2208216048FBF72BF90C223D
:1055100009215E48FBF726F90C220A215B48FBF7BC
:1055200021F90C220E215948FBF71CF90C220F21FE
:105530005648FBF717F94CF2037000906946534840
:10554000FBF7C8F80C2200215148FBF70BF90C229D
:1055500001214F48FBF706F90C2207214C48FBF7C5
:1055600001F90C2208214A48FBF7FCF80C2209211A
:105570004748FBF7F7F80C220A214548FBF7F2F8F9
:105580000C220B214248FBF7EDF80C221146404853
:10559000FBF7E8F80C220D213D48FBF7E3F80C225D
:1055A0000E213B48FBF7DEF80C220F213848FBF7B1
:1055B000D9F84FF68370009069463548FBF78AF8B2
:1055C0000C2200213348FBF7CDF80C220121314891
:1055D000FBF7C8F80C2202212E48FBF7C3F80C2277
:1055E00003212C48FBF7BEF80C2204212948FBF7C5
:1055F000B9F80C2205212748FBF7B4F80C220B213F
:105600002448FBF7AFF80C2211462248FBF7AAF812
:105610000C220D211F48FBF7A5F80C220E211D4876
:10562000FBF7A0F80C220F211A48FBF79BF84FF666
:105630003F00009069461748FBF74CF80C22002108
:105640001548FBF78FF80C2201211348FBF78AF865
:105650000C2204211048FBF785F80C2205210E4886
:10566000FBF780F80C2208210B48FBF77BF80C2293
:105670000F210948FBF776F848F23310009069468D
:105680000548FBF727F81CBD001C0240000C024037
:1056900000100240001402400018024000B593B010
:1056A000FFF702FF01210846FFF722FD02200190CB
:1056B0000720029004200390072004900220059008
:1056C00006900790012008900020099004200A907D
:1056D00010200B9040200C904FF4C0700D900020D3
:1056E0000E904FF400600F90002010904FF4005087
:1056F000119001A8129008A8FAF744FF00F002F8F0
:1057000013B000BD1FB500240120009008200190B7
:10571000012002900020039000BF20210120FAF711
:10572000FDFE0028F9D16846FAF71CFF0A2006F0B2
:1057300071FE0220009008200190012002900020BC
:10574000039000BF20210120FAF7E8FE0028F9D1DC
:105750006846FAF707FF0320009008200190042014
:1057600002900020039000BF20210120FAF7D6FE0E
:105770000028F9D16846FAF7F5FE00BF2021012084
:10578000FAF7CCFE0028F9D16846FAF7EBFE40F2B2
:1057900031240420009008200190012002900394FD
:1057A00000BF20210120FAF7B9FE0028F9D1684690
:1057B000FAF7D8FE40F26A50FAF760FF00BF2021E6
:1057C0000120FAF7ABFE0028F9D11FBD034931F8DB
:1057D0001010034A52F8202011837047F401010889
:1057E000740000200CB5002001900090344800683F
:1057F00040F480303249086000BF3148006800F44E
:10580000003000900198401C0190009818B9019850
:10581000B0F5A04FF1D12A48006800F4003010B173
:105820000120009001E0002000900098012846D15E
:1058300023484030006840F08050214940310860E2
:105840002048006840F440401E4908601C48083069
:1058500000681B49083108600846006840F40040B1
:1058600008600846006840F4A05008601648091F08
:105870000860081F006840F08070091F086000BFC2
:105880000F48006800F000700028F9D040F2057061
:105890000E4908600A480830006820F003000849F3
:1058A000083108600846006840F00200086000BF48
:1058B00003480830006800F00C000828F8D10CBD3F
:1058C000003802400070004008544007003C02408D
:1058D00070B504460D4604EB84001C4901EB8000C2
:1058E000057404EB840001EB8000007C68B904EBD4
:1058F000840001EB8000C06804EB8401134A02EBD2
:1059000081014968C96888600DE004EB84000F4993
:1059100001EB8000806804EB84010C4A02EB8101FA
:105920004968C968886004EB8403084E06EB83036A
:10593000B3F9022004EB840336F9231004EB84034B
:1059400006EB83035868FBF783FB70BD7C040020E3
:1059500010B50448006810B907F0D6FB01E000F06C
:1059600057FA10BD0400002010B51548006840F437
:105970007000134908601348006840F001001149A5
:10598000086000200F49083108600E4800680E4981
:1059900008400C4908600D48091D0860081F006890
:1059A00020F48020091F0860002006490C3108609F
:1059B000FFF718FF4FF0006001498039086010BD03
:1059C00088ED00E000380240FFFFF6FE10300024B2
:1059D000F0B50C46154600210022068C4FF6FE77E6
:1059E0003E400684018B028C4FF60C7631407E1CC3
:1059F00006EA03162E4331434FF6F576324044F063
:105A00000106324301830284F0BDF0B50C46154611
:105A1000002100220026078C4FF6EF7C07EA0C07D6
:105A20000784018B028C4FF6FF7707EA041640F6D5
:105A3000FF4739404FF6FF7707EA033739434FF600
:105A4000FF7707EA052739434FF65F773A4046F07C
:105A500010073A4301830284F0BDF0B50C461546A9
:105A6000002100220026078C4FF6FF6C07EA0C0786
:105A70000784818B028C4FF6FF7707EA04264FF6E6
:105A80000C7739404FF6FF7707EA03172F43394366
:105A90004FF2FF573A4046F480773A4381830284BD
:105AA000F0BDF0B50C461546002100220026078CFB
:105AB0004EF6FF7C07EA0C070784818B028C4FF6B9
:105AC000FF7707EA043640F6FF4739404FF6FF7785
:105AD00007EA052739434FF6FF7707EA03373943CB
