:020000040800F2
:10000000C81501206902000843680008914C0008E7
:100010003F680008B1060008CF7800080000000023
:10002000000000000000000000000000C101000806
:10003000EB0600080000000005020008C972000875
:10004000830200088302000883020008830200087C
:100050008302000883020008ED06000883020008FE
:10006000830200088302000883020008830200085C
:10007000830200088302000883020008830200084C
:10008000830200088302000883020008830200083C
:10009000830200088302000883020008830200082C
:1000A000830200088302000883020008830200081C
:1000B0005D740008830200088302000883020008C0
:1000C00083020008830200088302000883020008FC
:1000D00083020008CD77000883020008830200082D
:1000E00083020008996A000883020008830200085E
:1000F00083020008830200088302000883020008CC
:100100008302000883020008AD740008830200081F
:1001100083020008830200088302000883020008AB
:1001200083020008E9060008830200088302000831
:10013000830200088302000883020008830200088B
:10014000830200088302000883020008830200087B
:10015000830200088302000883020008830200086B
:10016000830200088302000883020008830200085B
:10017000830200088302000883020008830200084B
:10018000830200088302000883020008830200083B
:10019000830200088302000883020008830200082B
:1001A0008564000883020008B5060008DFF80CD05B
:1001B00000F0AAF80048004751E50008C8150120E2
:1001C000234B19680868B0E8F04F80F309884FF0B6
:1001D000000080F3118870470000000003480068A9
:1001E000006880F3088862B600DF00BF08ED00E019
:1001F000DFF80C00016841F470010160704700BF36
:1002000088ED00E0EFF30980114B1A681EF0100F23
:1002100008BF20ED108A20E9F04F106008B54FF0BC
:10022000500080F311880EF03BFD4FF0000080F38A
:100230001188BDE8084019680868B0E8F04F1EF062
:10024000100F08BFB0EC108A80F30988704700BF18
:10025000E40000204FF0500080F3118870474FF009
:10026000000080F311887047064880470648004721
:10027000FEE7FEE7FEE7FEE7FEE7FEE7FEE7FEE756
:10028000FEE7FEE7D1720008AD01000810B5431A81
:10029000934209D28318881803E010F8011D03F86F
:1002A000011D521EF9D210BD40EA01039B0703D085
:1002B00009E008C9121F08C0042AFAD203E011F8A5
:1002C000013B00F8013B521EF9D210BDD2B201E051
:1002D00000F8012B491EFBD270470022F6E710B54B
:1002E00013460A4604461946FFF7F0FF204610BDA4
:1002F00010B5044604E00B7800F8013B03B1491C3B
:10030000521EF8D2204610BD064C074D06E0E068AC
:1003100040F0010394E8070098471034AC42F6D34C
:10032000FFF748FFCC6E0508EC6E050870B58C1819
:1003300010F8015B15F0070301D110F8013B2A11F9
:1003400006D110F8012B03E010F8016B01F8016BE6
:100350005B1EF9D12B0705D40023521E0DD401F8E2
:10036000013BFAE710F8013BCB1A921C03E013F8AB
:10037000015B01F8015B521EF9D5A142D8D30020E0
:1003800070BD000000B587B00121084606F0BCFA38
:100390000120059000208DF818008DF819008DF8C7
:1003A0001A0001208DF81B0005A9134800F00EFC6F
:1003B00001F0EAFE002003F07BF9002003F090F941
:1003C000012003F075F901F007FB002003F088F924
:1003D00000F0A4FE032001F02DF800200523CDE954
:1003E0000030029003464FF4406204A10390054898
:1003F0000EF090FE07B000BD00000240424B5F4788
:100400004E440000090400081FB501250126554887
:10041000007800F0B1F8A3E02E460121524800F028
:1004200040FC0546B5420DDA4E48007808B9012077
:1004300000E0002000F001004A49087008460078FA
:1004400000F09AF84948408800EE900AF8EE600AF9
:10045000B0EE600A002006F0C1FE4448008900EEBC
:10046000900AF8EE600AB0EE600A012006F0B6FECF
:100470003E48808900EE900AF8EE600AB0EE600A0D
:10048000022006F0ABFE3948008800EE900AF8EE34
:10049000600AB0EE600A032006F0A0FE00245BE0D4
:1004A000684600EB840090ED000A04EB44003049FC
:1004B00001EB4010D0ED100AB4EE600AF1EE10FA34
:1004C00048D004EB440001EB401090ED100A684660
:1004D00000EB840080ED000A04EB440001EB4010C7
:1004E00090F85D001F490978884233D104EB44033A
:1004F0001F4F07EB4313D3ED100AB0EE600A04EB75
:10050000440307EB43139B685A6804EB440307EB6F
:1005100043139B68196804EB440307EB431303F18F
:10052000100003F075F804EB4407DFF844C00CEB4F
:100530004713104F57F8242004EB44070CEB4717E0
:1005400007F13E0104EB44070CEB471707F12C00C1
:1005500002F04EF9601CC4B2042CA1DB01F034FDA2
:100560005AE70000B80200200000024068F30020B3
:10057000240300203C0600202DE9F041054600241C
:1005800004F0ECFF86B205F00DF887B27B1E721EF8
:100590000021084601F05AFA4048057000BF09E002
:1005A000012104EB44003E4A02EB401080F83E106B
:1005B000601CC4B2042CF3DB002450E09FED390A28
:1005C000204606F00BFE04EB4401354A02EB4111D4
:1005D00001F12C0001F0FEFF04EB4400304901EB77
:1005E000401090F85D002D490978884235D104EB20
:1005F0004403DFF8ACC00CEB4313D3ED100AB0EEAC
:10060000600A04EB44030CEB43139B685A6804EB49
:1006100044030CEB43139B68196804EB44030CEB95
:10062000431303F1100002F0F3FF04EB440CDFF876
:10063000708008EB4C13DFF870C05CF8242004EBEA
:10064000440C08EB4C1C0CF13E0104EB440C08EB91
:100650004C1C0CF12C0002F0CBF8601CC4B2042C32
:10066000ACDB002410E004EB8400104A02EB8000B5
:10067000007C08B9012000E0002000F001012046C4
:1006800006F060FD601CC4B2142CECDB012D02D11D
:1006900000200BF0CFF9BDE8F0810000B802002087
:1006A00024030020000000003C060020A4040020D9
:1006B00000BFFEE710B500F001F810BD02200149AF
:1006C0008860704700B0024029B1064A12680243B0
:1006D000044B1A6004E0034A12688243014B1A601B
:1006E0007047000000B002407047704710B501200D
:1006F0000249086000F004F810BD0000000000206E
:100700000149086070470000143C014010B50246E2
:1007100000200023102A03D14FF02044636E0FE025
:10072000B2F5807F02D10A4C236809E0B2F5805F00
:1007300003D1074C2034236802E0054CD4342368ED
:1007400003EA01048C4201D0002000E0012010BD2A
:10075000840000A00021D0E900231A4383685B1EB7
:1007600042EA4312C36842EA4321014A11607047DA
:10077000500100A070B50021002200230024D0E920
:1007800001563543C66835430669354346693543E6
:1007900086693543C6693543066A3543466A45EA84
:1007A0000601056835B90568AD00A5F1C045C5F875
:1007B00040110DE0D0E907563543466A45EA060385
:1007C000294D2B600568AD00A5F1C045C5F8401165
:1007D000056835BB856A2D686D1E866A7668761E4B
:1007E00045EA0616856AAD686D1E46EA0526856AE5
:1007F000ED686D1E46EA0536856A2D8A6D1E46EA4D
:100800000546856AAD8A6D1E46EA0556856A2D7EC7
:100810006D1E46EA0562144D0835066845F8262027
:1008200020E0856A2D686D1E866A7668761E45EA28
:100830000616856AAD686D1E46EA0526856A2D8A0C
:100840006D1E46EA0542856AED686D1E2E03856AB7
:10085000AD8A6D1E46EA0554034D08352C600668C6
:1008600045F8262070BD0000400100A00449096839
:1008700041EA40014FF02042C2F854117047000095
:10088000540100A02DE9F0430446C56887B017461F
:100890008846002002F03AFF0646002D1BBF28794B
:1008A000002826F0020046F0020002F02FFF206927
:1008B000012568B1D4E902120091CDE90125039523
:1008C000D0F800C06388228839464046E04719E0E6
:1008D000DFF84C90134B2146D9F800001B68427C8E
:1008E000E0689847A0B1A188E388A2680095CDE9A7
:1008F0000231CDE9042001956388228839464046BB
:1009000004F036FB07B03046BDE8F04302F0FEBE0F
:10091000E088012812BF0020D9F80000806BE2E7D0
:100920008C0A0020840A00202DE9FF4F83B007467F
:1009300040F6FF74C4F1000090460E1E0090C4BF44
:10094000B91C32460CDD00BFB1F900008442C8BFBB
:100950000446009B8342B8BF0090091D521EF3D18C
:1009600087490868406970B1B0F90630069A9A1A4A
:10097000009B9A42B8BF0092B0F902200698101A64
:10098000A042C8BF044600988442D2BFA6F1010924
:1009900007B0BDE8F08F00207A490546002E0860B8
:1009A000C4BF069804EB000A7EDD4D45B4BF691C48
:1009B000002107EB850207EB810CB2F90200BCF9BC
:1009C0000230A04256D1A34214D137F9211037F991
:1009D000250001EB08036A49404498420968C96E42
:1009E000D1F800C0B4BF1A4602465146A8BF184607
:1009F000E04787E000222946B9F1000F0CDD00290D
:100A000014BF491E711E07EB8100B0F90200A0421D
:100A100003D1521C4A45F2DB2046A04272D037F97E
:100A20002510A0EB0400A3EB0402504009D401EB15
:100A30000800534902460968C96E0B685146984739
:100A400060E0DFF840B1DBF800C0BCF10C0F59DA10
:100A5000BCF10000C8BF4C4A4DDD00BF02EB4003B3
:100A600033F9023C8B4246DB22F81030401E00284E
:100A7000F4DC40E0A34245D001DBA04203DDA0420C
:100A8000A8BF9C423EDB98424FDC0146A042DFBF3C
:100A900018468442B2F90030BCF9002032DC00BFB5
:100AA000A2EB030C621A00E030E00CFB02F2002A19
:100AB000A0EB010CCEBF02EB6C02A2EB6C02521C4D
:100AC000401A92FBF0F0DFF8BCB0C118DBF800C0B0
:100AD000BCF10C0F16DABCF10000C8BF2A4A0ADDCF
:100AE00002EB400333F9023C8B4204DB22F8103066
:100AF000401E0028F4DC244A22F810100CF10100FA
:100B0000CBF800006D1CB542FFF64FAF06984FF0D2
:100B1000000B204401901B485D4601680029C4BFBA
:100B20001949B1F900A022DD19E01946A342E9DC18
:100B30008442DCBFBCF90030B2F90020E2DCAFE750
:100B40001149BBF1000F31F915A008D00C4908EB91
:100B50000A0240440968C96E0B680199984709491F
:100B60006D1C8BF0010B09685046A942E8DC009827
:100B7000641C84427FF70FAF07B0BDE8F08F000020
:100B80008C0A0020100B0020F8F4002010B5002083
:100B900002F0A6FD6FF07F4002F0ADFD012002F0F3
:100BA00017FE002002F022FE002002F02FFE00209F
:100BB00002F0ACFD0448006802F0B4FDBDE810404E
:100BC000002002F0D7BD0000880A0020F0B50A46D8
:100BD00000210023002400BF3DE0012505FA01F3B8
:100BE000156805EA03049C4234D105684F000326CA
:100BF000BE40B543056015794E00B54006683543E3
:100C000005601579012D02D01579022D16D1856860
:100C10004F000326BE40B543856055794E00B54070
:100C2000866835438560456801268E40B54345603A
:100C3000456896798E40B6B235434560C5684F0029
:100C40000326BE40B543C560D5794E00B540C668A1
:100C50003543C560491C1029BFD3F0BDF0B5002352
:100C600000244D07ED0E02FA05F3CE1000F1200529
:100C700055F826504E07F70E0F26BE40B543CF104D
:100C800000F1200646F82750CE1000F1200555F857
:100C9000265045EA0304CE1000F1200545F8264011
:100CA000F0BD0246002013690B400BB1012000E0AB
:100CB0000020704741837047018370470AB1018368
:100CC00000E0418370470000014AC2E9000170471B
:100CD000300A0020014AC2E900017047380A0020AA
:100CE000014AC2E900017047400A0020014AC2E9F6
:100CF00000017047480A0020014AC2E9000170471C
:100D0000EC0A00202DE9F04F4B4989B00B68B3F98C
:100D100022100691D3F81CC0B3F92480DCF81C40E3
:100D2000A18981429CBFE289904205D8471A4FF0C1
:100D3000FF35D4F8009015E0D4E90192002A72D072
:100D40001188814299BF5588A8424FF0FF352F4640
:100D500008D8401A516880B201EB8000B0F90070E9
:100D6000B0F90250781C5ED09CF81800A17C10FBF2
:100D700001FB94F810A00790B3F92A60304604F004
:100D800081FFC0B208902C4807FB0B920068A37C3F
:100D90000127816BCDE90273CDE90421C069524678
:100DA000C17E807ECDE90001DDE90603414604F005
:100DB000DFF8681C18D046F0020004F063FF1E48FC
:100DC000A37C05FB0B920068816BCDE90273CDE932
:100DD0000421C0695246C17E807ECDE90001DDE973
:100DE0000603414604F0C4F8134D2868C069417EEB
:100DF000007E814214D9022E12D086F0040004F045
:100E000041FF2868C069017EC27E11FB0281427EDB
:100E100002EB0803827E06980AFB020204F04AFAFB
:100E2000089804F02FFF0448627C0068418C11444C
:100E3000418409B0BDE8F08F8C0A002004480029E5
:100E40000068C069C0691CBF027C0A60407C7047B2
:100E50008C0A0020022008807047C06982898A427B
:100E60009CBFC289914210D9806880B102888A42B1
:100E70000DD8438899420AD8406800EB8100A0EB66
:100E80008200B0F90000002801DB0120704700203B
:100E9000704700002DE9F041284C054686B02068D7
:100EA0002946B0F92A70C069C06900F0DFF800284F
:100EB00004BF06B0BDE8F08141680088281A01EB44
:100EC000C0053846AE7804F0DDFE07461C48D0F871
:100ED0000080B8F1000F17D0686800210422CDE926
:100EE0000401012003960090CDE90102D4F800C06E
:100EF0002A78DCF81C00BCF92410037EBCF922001F
:100F0000D8F800C0E0470EE06868CDE90060D4F88A
:100F100000C02A78DCF81C00BCF92410037EBCF960
:100F2000220000F0A5FA384604F0ACFE20686A788A
:100F3000418C1144418406B0BDE8F0818C0A002048
:100F4000B80A002070B505460B480C4629460068D3
:100F5000C069C06900F08AF8002808BF70BD416808
:100F600000882A1A012000EBC200002C085C1CBF7C
:100F700011F83210216070BD8C0A00201120088009
:100F8000704710B5C06900F071F8002818BF012043
:100F900010BD00002DE9F35F0C4601F067F82A4D03
:100FA0008346286890F82A0010F0040F02D001F060
:100FB0005DF801E001F028F802F09DFB29680027A8
:100FC000C869427EC07E12FB00FAB1F92290B1F9E5
:100FD0002480641E24D4684602F0E0FC064628689B
:100FE0003146C069C06900F033F890B141680088AB
:100FF000301A00EB400001EB800090F902100079FC
:1010000008442968C969897E10FB01F00028C8BF1F
:101010000744641EDFD51EB1304603F07DFB074454
:1010200008EB0A00431E09EB0700421E41464846F2
:1010300004F040F9584602F05EFB044901200870B4
:1010400002B0BDE8F09F00008C0A0020080B0020D1
:10105000002808BF704702888A4203D842888A4223
:1010600028BF704780680028F5D17047002808BF66
:10107000704702888A4203D842888A4228BF704754
:1010800080680028F5D170472DE9F041114D00240A
:10109000A8680028C6BF00260F4FBDE8F081286968
:1010A000782200EBC410001D3968FFF7EFF82869BB
:1010B00000EBC41000F10C0106608161011D0A1DE6
:1010C000C0E90F124164A868641C8442E7DBBDE8F4
:1010D000F0810000140B00208C0A002070B50D492F
:1010E0000B480860084603F06FFC0B4CA068C50174
:1010F000284600F00BFB2A460021206103F0B0FCDB
:101100004FF0FF302060BDE8704002F0A7BD000046
:10111000F1D90008280B0020140B002002490120FF
:10112000096881F8710070478C0A002010B50BF037
:10113000F5F80448016A04480068C16600F1080136
:10114000416110BDF40900208C0A00202DE9FF4FF9
:1011500083B01C4615460E4601F094F807F0C2FB1A
:10116000471907F0CDFB00EB0409002007F0EAFB6C
:10117000002800F0E980701E764D02902868417CBE
:10118000754850F8210001901221C068426A01A8F8
:1011900090475FEA000C08D03B463246CDF80090FD
:1011A00003990198E04700F0C9B82968DDF80C8080
:1011B00091F87120002A14BF4FF0010A91F870A035
:1011C000B8F900C0029864460028C4BF08F1040BB7
:1011D000A6F1010E0DDD00BFBBF900008442C8BFBF
:1011E00004468445B8BF84460BF1040BBEF1010EE2
:1011F000F2D1002A04BF0CEB0701E01908D091F8E6
:1012000070000CEB070292FBF0F1E21992FBF0F098
:1012100000F0A4F800287CD12A6892F87100002818
:101220003CD1002E3ADDA8F10401881C16F0010F14
:101230000ED08B8892F8702013FB02F221F8042F55
:101240002B68828893F8703012FB03F220F8042F89
:10125000731018BF2A6821D0B1F804C092F870400A
:101260001CFB04FCA1F804C0B0F804C092F8704064
:101270001CFB04FCA0F804C0B1F808C092F8704050
:101280001CFB04FC21F808CFB0F808C092F87040AD
:101290001CFB04FC20F808CF5B1EDDD109FB0AF320
:1012A00007FB0AF231464046FFF73EFB2A6892F8F8
:1012B000710070BB002E3FDDA8F10400811C16F008
:1012C000010F10D0B0F9043092F8702093FBF2F2C5
:1012D00020F8042F2B68B1F9042093F8703092FBAA
:1012E000F3F221F8042F721018BF2B6824D000BF2E
:1012F000B0F904C093F870409CFBF4FCA0F804C063
:10130000B1F904C093F870409CFBF4FCA1F804C050
:1013100000E011E0B0F908C093F87040521E9CFB49
:10132000F4FC20F808CFB1F908C093F870409CFB9A
:10133000F4FC21F808CFDBD1FFF7F8FE07F034F911
:1013400000287FF41BAF00BF02F06EFC07B0BDE8C1
:10135000F08F00008C0A0020A40A00202DE9F04143
:101360002C4C05460E462068002778B904F0CEF8CC
:10137000E06100F0CBF92060002808BF012705D00C
:10138000264925480860084603F01EFB002DB8BF1B
:101390000025711BE069421E9142C4BF2844461ECD
:1013A000AE42BCBF2E460127DFF87480D8F800009B
:1013B000C16E4A68A26321621B491A4A0A60C1666B
:1013C0002068E660C4E90105711B4A1C002103F096
:1013D00047FB1648810CC4E90401A061D8F800005D
:1013E000028990F8701012FB01F3114A13804389AF
:1013F00013FB01F3538083895B1C4B435B1E93807B
:10140000C3895B1C5943491ED18042613846BDE8FF
:10141000F0810000F409002041D90008180A0020DA
:101420008C0A0020C1B60008280A002001C0FFFF76
:10143000200A0020C1B20C48006880F870100289B0
:1014400012FB01F3094A1380438913FB01F3538014
:1014500083895B1C4B435B1E9380C089401C4843BF
:10146000401ED080704700008C0A0020200A002017
:101470002DE9F04FDFF8B0C18FB0DCF800C0DDE936
:1014800018789CF8104014F0030444D0012C06D0C6
:10149000022C7DD0032C1CBF0FB0BDE8F08F04469A
:1014A000CDE90683CDE90A12DFF8808109974FF074
:1014B000000A002BDCBF0FB0BDE8F08F0027DDE98C
:1014C0000A055044069E0090022D12DB16F8019B7F
:1014D00007EB040B4FEA191258460099C04709F070
:1014E0000F020BF101000099C047AD1EBF1C022D79
:1014F000ECDA25B13078009902093819C04709990A
:1015000006980AF1010A0844069007988245D5DB3F
:101510000FB0BDE8F08FCDE90210DCF838001646B8
:101520001D46D0F800B0DCF83C00D0F800A04048E0
:101530000068504503D13E484068584520D0584681
:1015400004F0D8F80190504604F0D4F8DFF8E490A5
:10155000009001980124C9F80000DDE90001E2B221
:1015600003F098FB49F82400641C0F2CF5DB00986D
:10157000C9F83C00304804F095F82D48C0E900ABAC
:101580002E48068045808780C0F808802C4800E0FF
:101590000BE029490078087101F10C00DDE9022116
:1015A0000FB0BDE8F04FFFF76DB9CDF81080CDE971
:1015B0000A12DFF890800446099707934FF0000A5B
:1015C000002BDCBF0FB0BDE8F08F0027DDE90A0576
:1015D0005044049E0090022D13DB00BF16F8019BBF
:1015E00007EB040B4FEA191258460099C04709F05F
:1015F0000F020BF101000099C047AD1EBF1C022D68
:10160000ECDA25B13078009902093819C0470999F8
:1016100004980AF1010A0844049007988245D4DB33
:101620000FB0BDE8F08F00008C0A0020AD5D00080F
:10163000CC09002078F30020D4090020E009002024
:10164000080B0020F55C0008002808BF704710B5A3
:10165000044600F017FE204607F072FD044602F033
:10166000E3FA204610BD38B5054600F00BFE2846CB
:10167000FFF7EAFF040009D000F0A2F82A46002193
:10168000009003F0EDF9684600F0F2F802F0CCFAB1
:10169000204638BD024A106021F0030050607047B8
:1016A00074F40020002808BF704770B5054600F0AC
:1016B000E9FD0E4C206B10F8351091B1022910D2C3
:1016C000042101EBC5068159486807F0EBFC60680E
:1016D000401C6060206B216A8151002100F83510A8
:1016E0002562BDE8704002F09FBA0000B8F3002008
:1016F000002808BF7047044A916B0160002918BF99
:101700004860906370470000B8F300202DE9F04175
:1017100004460BF0ABFBE01C284E20F00300051D37
:10172000F06BA84288BF05460022B46BC4B100BF6D
:1017300054F8041CA94210D19CB1206800281CBF99
:1017400061684160606800281CBF21680160B16B5E
:10175000A14204BF2068B0632CE02468002CE7D1CC
:101760001446B168706B00EB010858F8040CA8EB44
:101770000007386840B100200CF05AFA58F8040C01
:10178000A8EB00073868A8B97868A84212DB38448B
:10179000401B041D38460CF021FAB0683946401B46
:1017A000B0603069284430617868401B07F07AFCEB
:1017B00044F8045C2046BDE8F0810000B8F3002046
:1017C00009498A69521C8A610A6B02EBC0021378CC
:1017D0005B1C1370002808BF7047096B042202EBE2
:1017E000C000085808307047B8F3002010B500F06A
:1017F00049FD00240BF03AFB1B4B1C490F2000BF96
:1018000001EBC002126C0AB301EBC000006C8068EF
:10181000002808BFA4F10C000FD04268A24288BF84
:101820001446806800281CBF80680028F5D100BFDE
:10183000A4F10C00B0F5800F0DD983FB00204211FC
:10184000C969A2EBE07000FB01F409E0401EB0F1B1
:10185000FF3FD5DCECE7C9694843A3FB001044090E
:1018600002F0E2F9204610BD1F85EB51B8F30020CD
:101870000A4902680B6B52F8082C03EBC20213787A
:10188000022B04D38B69002B1CBF5B1E8B6111786C
:10189000491E11700021016008467047B8F300200E
:1018A000002808BF70470449042202EBC000096BFE
:1018B0000858083070470000B8F300202DE9F00107
:1018C0002D24D3F800C0B0F1004F34D000250028FB
:1018D000A8BF4FF0000C07DA0CF101061E608CF86F
:1018E000004040424FF0010CA1EB0C01C9B2002AAC
:1018F0001CBF491EC9B200291CBF234F234E3DD037
:101900008C46491EC9B2944508D1D3F800C03C7832
:101910000CF10108C3F800808CF8004056F8214013
:1019200090FBF4FC0CF0FF0CBCF10A0F26D80CFB6A
:10193000140081B909E00CF1010601251E606FF069
:1019400000408CF80040491ED0E7002D1CBF0CF170
:10195000010C0CF0FF0CBCF10A0F03D1491C4FF035
:10196000010CC9B20CF13004D3F800C000290CF10D
:101970000108C3F800808CF80040C1D1196800202C
:101980000870BDE8F0017047800A00201065050866
:10199000C2B2CBB2D21A002ABCBF524212B292B229
:1019A00002FB02F3C0F30722C1F3072CA2EB0C02E7
:1019B000002ABCBF524212B292B2000CA0EB1140FE
:1019C00002FB023200B20028BCBF404200B280B22B
:1019D00000FB0020704700002DE9F041002182B09B
:1019E000084600F0C1FB00F04DFC042004F04AF969
:1019F00080461548C068C16C006DA1F6FF76A0F660
:101A0000FF7501F6FF7400F6FF77ADF80060ADF8E2
:101A10000440ADF80250ADF80670684606F092FF3B
:101A200048B13B4622462946304603F043FC06F0C7
:101A3000BBFD0028F5D1404604F024F902F0F4F88B
:101A400002B0BDE8F0810000800A00202DE9F041DD
:101A500082B01C4617460D46064600F013FC0420D3
:101A600004F010F980461348C168C86C096D06443B
:101A700007440D440C44ADF80060ADF80470ADF8B7
:101A80000250ADF80640684606F05CFF48B12346B8
:101A90003A462946304603F00DFC06F085FD002845
:101AA000F5D1404604F0EEF802F0BEF802B0BDE811
:101AB000F0810000800A0020022BA4BF00207047A4
:101AC0002DE9F04106461C4615460F461C20FFF73F
:101AD0001DFE002808BFBDE8F081002F18BF076178
:101AE0000BD10A4A52F8241039B10A681AB11146CA
:101AF0001268002AFBD10969016184618582002195
:101B000001604160C0E90216BDE8F081A40A00202E
:101B10002DE9F04100241D46074688461646022B53
:101B20001FDA1C20FFF7F2FDD8B1B8F1000F18BF83
:101B3000C0F810800BD1104A52F8251039B10A684C
:101B40001AB111461268002AFBD109690161856149
:101B5000868204604460C0E90247040018BF00F0B8
:101B600011F8E068006820B90448006800EB8500BF
:101B700084652046BDE8F081A40A00208C0A00207C
:101B8000FFF7B6BD10B18269022A01DB0120704760
:101B900010B4234C54F82210002908BF44F8220046
:101BA00036D04B6823B119465B68002BFBD191B34B
:101BB000C3681B68D1F80CC0DCF800C09C4503DD8D
:101BC00009680029F6D127E029B3D1F80CC0DCF868
:101BD00000C09C4504BFB0F814C0BCF1010F0DD18A
:101BE000D1F800C0BCF1000F07D06146DCF80CC092
:101BF000DCF800C09C45F3DA00E061B14B68002BD3
:101C00001DBF18604A68426044F8220048600160C5
:101C100010BC00207047FFE710BC01207047000097
:101C2000A40A0020002808BF704730B4204C00BF31
:101C3000D0F800C0002835D08569022D32DA54F87A
:101C40002510002908BF44F825002BD04A6822B18E
:101C500011465268002AFBD121B3C2681268CB68D2
:101C60001B68934203DD09680029F8D11AE0C9B165
:101C7000CB681B68934204BF838A012B08D10B6891
:101C80002BB11946DB681B689342F8DA00E049B1D2
:101C90004A68002A1DBF10604A68426044F8250067
:101CA000486001605FEA0C00C2D130BC70470000A0
:101CB000A40A00200B4A816952F82130834204BFF4
:101CC000036842F82130416800291CBF02680A609D
:101CD000016800291CBF42684A6000210160416020
:101CE00070470000A40A002070B40020144DDFF8F3
:101CF00054C002464FEA00045CF82210D9B1CB6808
:101D00001B68EB5CA3B18B695CF823608E4204BF57
:101D10000E684CF823604B68002B1CBF0E681E60D9
:101D20000B68002B1CBF4E685E60C1E900040846CA
:101D300009680029E3D1521C022ADDDB70BC704720
:101D4000BC5F0508A40A00200228A4BF0020704739
:101D5000064951F82000002808BF7047C16809688B
:101D600000291CBF00680028F8D17047A40A002091
:101D700070B584B01C4615460E46CDF80CD003ABAA
:101D800000222146FFF79AFD2A463146684600F0B8
:101D90008DF804B070BD0000002808BF70472DE921
:101DA000F04F83B0054600F06DFA00F077F93E4C35
:101DB00007462068B0F9226000F0A8F92168814642
:101DC0008A8CA2EB09008884287800281CBFA7F120
:101DD00001080FFA86FA46D047F6FF71284602F04E
:101DE00079FC83460146284602F03AFC2168064603
:101DF00091F82C0000F00300012808BF304605D000
:101E0000022812BF002006EBD67040104A8C101A30
:101E10004884ADF80000721E1044ADF80400888CB0
:101E2000ADF802004044ADF806006A46594628461F
:101E300002F03AF92168BDF8020088845946284624
:101E400001F0C2FD054428780A2818BF0D2817D0D4
:101E5000BDF80000216830444884287818B115F88E
:101E6000010F0028B8D12068818C49448184818D7C
:101E700021F00301818501F0D7FE03B0BDE8F08FAA
:101E8000206890F82C1001F00301012917BF0229E6
:101E9000A0F822A0018C418429780A29DDD1818C07
:101EA00039448184D9E700008C0A002070B51446BB
:101EB0000D46064600F0E6F90548016830464D84B7
:101EC0008C84FFF769FFBDE8704001F0ADBE0000F3
:101ED0008C0A00202DE9F04F89B015460E460446C5
:101EE00000F0D0F9364F3868C16C006D0E440544DF
:101EF000ADF818602088ADF81A503044401EADF897
:101F00001C0060882844401EADF81E0006A806F09C
:101F100019FD00281CBFDFF8ACB04FF0010A42D019
:101F20000020D4F80C9001F0F1FB8046B9F1000FCD
:101F30001BBF99F80400002828F0020048F00200B6
:101F400001F0E4FB206970B1D4E902120091CDE9FF
:101F5000012ACDF80CA0D0F800C063882288294659
:101F60003046E04718E03868DBF800302146427C14
:101F7000E0689847E0B1A288E388A168CDF800A0A6
:101F8000CDE90410CDE90232CDF804A0638822889F
:101F90002946304602F0ECFF404601F0B7FB06F060
:101FA00003FB0028BCD101F03FFE09B0BDE8F08F73
:101FB000E088012812BF00203868806BDBE7000052
:101FC0008C0A0020840A002070B5094E00250024E8
:101FD000306818B18047002818BF012405F072FE50
:101FE00000280CBF002C0125F1D1284670BD00004F
:101FF000AC0A0020034951F82000C1688A6A082110
:1020000010470000A40A002010B500F03BF903F0CF
:1020100093F903F06FFB044601F006FE204610BD65
:1020200010B5044600F02EF9054920460968C96933
:102030004A6800219047044601F0F6FD204610BD95
:102040008C0A002070B50C46054600F01BF9064AC4
:10205000214628461268D26952689047044601F02A
:10206000E3FD204670BD00008C0A002010B500F092
:1020700009F903F069F903F03DFB044601F0D4FDD2
:10208000204610BD10B500F0FDF803480068047C40
:1020900001F0CAFD204610BD8C0A002010B500F0EA
:1020A000F1F804480068C069447E01F0BDFD204697
:1020B00010BD00008C0A002070B514460D4606467F
:1020C00000F0E0F822462946304603F0EBF910B163
:1020D000002028602060BDE8704001F0A5BD000030
:1020E00070B50C46054600F0CDF80648B0F9000082
:1020F00028600548B0F900002060BDE8704001F09C
:1021000093BD0000BC0A0020BE0A002010B50024C8
:1021100000F0B8F80B48006890F82C1001F00C01A2
:10212000042904D0082918BF0C2907D103E0C0698D
:10213000007E441E02E0C069007E440801F074FD88
:10214000204610BD8C0A0020024951F82000006989
:1021500000687047A40A0020024951F82000006975
:1021600040687047A40A002070B50C46054600F090
:1021700089F8044801684D8400258C8401F054FDE1
:10218000284670BD8C0A002070B53348016821F0E4
:102190000101016031480126866031490160006813
:1021A0003049884200D0FEE72F480068C0F30B009A
:1021B000A0F58061193900D0FEE72C4DA86958B907
:1021C000AE6101F03BFD03F09DFE05F11C002849C6
:1021D00001606969416068612E20287001F03DFD51
:1021E000E868244C011DC0E90E01091D006461610D
:1021F000417C214850F82100C1680A6B04F10801B4
:1022000090471E48E066A868E061E86808306061B1
:10221000267605F05BFEA064032084F870006FF062
:10222000704020636063002003F0CAFC6FF07F40C1
:1022300003F000FD12482861FEF750FF0CF032F960
:1022400004460021084601F0A3FA05F065FEFEF7FA
:102250001BFF204670BD0000002000E0003002405F
:10226000C2A507F4CDB5E8B5002004E0800A00203F
:10227000B1D9000880F40020A40A0020B45F05084A
:102280003865050870B5204CE06820B101F0E1FC2C
:102290006168884204D001F0FDFC01F0DAFC606066
:1022A000E068401CE060012818BF70BD0025A068F0
:1022B00000280CDD01F0CDFC216901EBC511096896
:1022C000814205D0D9B1A0686D1CA842F2DC00257E
:1022D0002068854208BF70BD00280EDBFFF704FDB3
:1022E0002268216901EBC212D067084A01EBC510D0
:1022F000011D1160C06FFFF795FC256070BD21695D
:1023000001EBC5110860E3E7140B00208C0A0020E4
:10231000002808BF704738B50446FFF7B3FF2046D2
:10232000FFF74EFA40F6FF7100908180C18049426C
:10233000018141816846FFF79BFA01F075FC38BDC9
:1023400030B51D4883B000220068437C1B4850F81C
:10235000230001691A48FFF7AFFB050004BF03B073
:1023600030BD1820FFF77FF904001FD0FFF78AFF68
:102370002046AC60FFF724FA00900560FFF782FF6B
:102380002046FFF71DFA40F6FF7101908180C18061
:1023900049420181418101A8FFF76AFA01F044FC3A
:1023A0006846FFF765FA01F03FFC02E02846FFF7B8
:1023B000E7FB03B0204630BD8C0A0020A40A0020B1
:1023C000EC6D050838B504460E480068006EA04262
:1023D00008BF01F05FF9FFF755FF2046FFF7F0F95E
:1023E000009005686846FFF743FA2046FFF75AF960
:1023F0002846FFF75FFC2846FFF7C2FB01F014FCFC
:1024000038BD00008C0A0020002808BF704738B58E
:102410000C460546FFF736FF74B12846FFF7D0F9A2
:10242000009081882180C18861800189A1804089D4
:10243000E0806846FFF71CFA01F0F6FB38BD0000AB
:1024400038B5040018D005F03DFB0D4D2868046632
:10245000FFF718FF2046FFF7B3F900900068FFF779
:1024600091FB2968002048616846FFF701FA01F0F6
:10247000DBFB03F0D1FB38BD01F00CF938BD0000E7
:102480008C0A002010B582B0040006D10F48006805
:10249000046E002C04BF02B010BDFFF7F3FE20460F
:1024A000FFF78EF9009044696846FFF7E1F94CB1F7
:1024B0002046FFF785F9019081688968884701A85F
:1024C000FFF7D6F901F0B0FB02B010BD8C0A002076
:1024D00001490A4600F002B801F0FFFF002808BFDA
:1024E00070472DE9F04784B015460C468146FFF74A
:1024F000C9FE002001F00AF9354E80463068076EAB
:102500004846FFF75DF902900068806901F0D0F855
:10251000824640F6FF70001904D10298B0F90440D9
:10252000B0F906500298ADF800400189ADF80250AC
:102530002144491EADF8041040892844401EADF8DE
:10254000060005F0C7F902A8FFF792F9684606F001
:10255000F9F940B12A462146484600F0D3FB06F07F
:1025600023F80028F6D1504601F0A2F83C46FFF7C8
:1025700089FE3068006EF4B1002818BF01F08AF8B7
:1025800005F0A0FA2046FFF71BF9014603903068DA
:10259000026E002A04BFD0E90223C0E919230466B1
:1025A0000868FFF7EFFA03A8FFF762F903F098FC59
:1025B00003F032FB01E001F06DF801F035FB40461D
:1025C00001F0A4F801F030FB04B0BDE8F087000092
:1025D0008C0A002001210174002070472DE9F04F82
:1025E00083B01F469046894682464FF0000B0C9EF2
:1025F000FFF748FE18480068417C184850F8214011
:10260000E0680068042803D02468002CF8D100E0BA
:102610001CB90846FFF798FB04460121E068C26A2E
:1026200020469047050011D02469A0688047401CCF
:1026300004BF0B4C46F001063B460096CDE9015421
:1026400042464946504600F033FA834601F0ECFA20
:1026500003B05846BDE8F08F8C0A0020A40A002081
:10266000286E0508002808BF704738B50446FFF7F4
:1026700009FE0E480068006EA04208BF01F00AF88B
:102680002046FFF79DF800904069002818BF01F030
:10269000B4FA00980068FFF773FA6846FFF7E8F8A5
:1026A0002046FEF7FFFF01F0BFFA38BD8C0A00207C
:1026B0002DE9FF4F83B0DFF83091DDF840B09A4646
:1026C0000F4606002ED002A901A8FFF709FDB6F9B2
:1026D0000050002DB8BF0025B6F90240002CB8BF4D
:1026E0000024B6F90480D9F80000407C02F0FFFE17
:1026F00001990844401E8045C8BF8046B6F906606F
:10270000D9F80000407C02F01AFF02990844401EEC
:102710008642C8BF0646A8EB050000F10108301B41
:10272000461C0DE0D9F8000000252C46407C02F044
:10273000DEFE8046D9F80000407C02F000FF06462D
:10274000BAF1000F08BFC6F1000AB8F1000FCFBF01
:10275000002E002007B0BDE8F08F534642462146C8
:102760002846CDF800B0FFF739FF5FEA000A34D001
:1027700000F0C4F88146504600F002F9DFF86CB072
:102780004FF00008A6EB08014945BCBF504600F0D9
:10279000D9F8B8F1000F08D004EB080229465046DA
:1027A00000F01CF95046FFF76DFE0598B847DBF8BE
:1027B000001000291CBF002088475046FFF788FE04
:1027C000C844B045DEDB5046FFF74CFF002000F068
:1027D000D7F807B00020BDE8F08F0598B84707B0DC
:1027E0000120BDE8F08F00008C0A0020340B00208F
:1027F0002DE9FF4F81B016460D460446FFF7A0FDB8
:102800000090002846D0FFF71BFE4FF0010885F826
:102810000180207CA0B185F800800498B047214653
:102820000098FFF7F1FD0098FFF772FD0020287077
:102830000498B04704F108010098FFF7E5FD19E09E
:102840000498B04721460098FFF7DEFD2146B4F812
:1028500000B0B4F804A0B4F80290E78804F10802CC
:10286000084600F019FEA4F808B0A4F80CA0A4F8DB
:102870000A90E7810098FFF7A5FD00276F7085F8A3
:1028800000803B46CDF8008031462046049AFFF791
:102890000FFF18B105B00120BDE8F08F2F7027742D
:1028A00005B00020BDE8F08F38B505004FF00004FA
:1028B00011D0FFF7E7FC2846FEF782FF0090006882
:1028C00000698068804703F071FD04466846FEF7A2
:1028D000CFFF01F0A9F9204638BD38B50446FFF70F
:1028E000D1FC2046FEF76CFF00F11804009068460A
:1028F000FEF7BEFF01F098F9204638BD38B5044612
:102900000025FFF7BFFC1CB908480068046E44B1FD
:102910002046FEF755FF0090B0F90A506846FEF7D2
:10292000A7FF01F081F9284638BD00008C0A00207D
:1029300010B507F077F8002808BF10BDBDE81040BB
:1029400000F084B838B50C46050005D10B48006886
:10295000056E002D08BF38BDFFF794FC2846FEF732
:102960002FFF0090B0F90A10A142B8BF0C46448175
:102970006846FEF77DFF01F057F938BD8C0A00204C
:10298000F8B50446FFF77EFC134E3068056EECB1D7
:10299000002D18BF00F07EFE05F094F82046FEF7EB
:1029A0000FFF009031680A6E002A04BFD1E90223AC
:1029B000C1E919230C660068FFF7E4F86846FEF7E2
:1029C00057FF03F08DFA03F027F901E000F062FEF3
:1029D00001F02AF92846F8BD8C0A002070B582B0B3
:1029E00015460E46040006D117480068046E002CF8
:1029F00004BF02B070BDFFF745FC2046FEF7E0FEC5
:102A00002DB20090C58034B2848003F005F900989F
:102A1000406988B1FEF7D4FE009A0190B2F908101F
:102A20008180B2F90A20C28000291EBF002A0480DA
:102A3000458001A8FEF71CFF6846FEF719FF01F06C
:102A4000F3F802B070BD00008C0A002070B584B0AD
:102A5000060004BF04B070BDFFF714FC3046FEF75B
:102A6000AFFE0290B0F90450B0F90640ADF8005046
:102A70000189ADF802402944491EADF8041040898F
:102A80002044401EADF8060002A8FEF7F1FE68469D
:102A900005F058FF40B122462946304600F018F9AB
:102AA00005F082FD0028F6D101F0BEF804B070BD3B
:102AB0002DE9FF4FDFF8F4B083B01C46DBF80000CF
:102AC000DDE9107C92460026437C3246604612992E
:102AD000FEF7F2FF050065D028698068804703F0A3
:102AE00065FC81460AFB09F0C01D4FEAD008FEF7DD
:102AF0007DFE17F0010F05D1C11700EB917080101A
:102B000000EB4000002C06DC1838B0FBF8F0644203
:102B1000A042D8BF044617F0010F08D10020009052
:102B2000DDE903012346524600F0D2FF0646002CA1
:102B300006DC2846FFF724F807B00020BDE8F08F38
:102B400004FB08F0183017F0010F02D0FEF77CFDEF
:102B500001E0FEF788FD07001CD0FEF731FE019072
:102B60000560039981800499C180A0F808A0448180
:102B7000C0F80C80C0E9049601A8FEF779FE12980F
:102B8000AF602861DBF80000407CA86107B03846E0
:102B9000BDE8F08F2846FEF7F3FF002E1CBF30463D
:102BA000FEF780FD002007B0BDE8F08F8C0A002002
:102BB0002DE9F74F8CB015460C98FEF701FE0990F1
:102BC000B0F90840B0F90A10089100680069D0F81F
:102BD000049009A8FEF74CFE3A4E3B4F3068407C0B
:102BE00057F82000C1688A6A082190470790182882
:102BF00024BF202007903068407C57F820000069EF
:102C00000690D0E900613148814214BF01200020C4
:102C10000A90002001F05AF800280EBF00270FB0DC
:102C2000BDE8F08FB846DDE90C0B7F1C0DF12C0AD6
:102C3000FFF753FE04FB08F100EB8102CDE9009A97
:102C400023462946584601F0FDFA5FEA000B04BF0F
:102C50000FB0BDE8F08F0A98E0B1DDE906322146F9
:102C6000584601F01FF9A8B90698A246D846D0F8F0
:102C700010C0BCF1000F05D0594604232246084677
:102C8000E04707E0D8F80000B04748F8040BBAF175
:102C9000010AF7D100200799CDE90210CDE904B06F
:102CA000012000902946034601906D1C22460D9894
:102CB00002F05EF90898401E0890B3D10FB0BDE84D
:102CC000F08F00008C0A0020A40A0020835700081F
:102CD000F8B515460E460746FEF772FD00900068EF
:102CE0001621C068436A0020984704466846FEF7EC
:102CF000BFFD002C08BFF8BD2A4631463846A04724
:102D0000F8BD00002DE9F04FA1B092460F460646EF
:102D1000FEF756FD1890D0F814B018A8FEF7A8FDDD
:102D20003046FFF7C1FDFE4D4FF000094FF001089E
:102D3000082803DDBBF1000F00F0F981F949CDF857
:102D400034A0D1E90001CDE91A013046FEF738FD83
:102D50000F904469C168179101691291B0F9081088
:102D60000C91B0F90A000B902868407CFFF742F9FB
:102D70001D900F9800680069406815902868407C95
:102D8000FFF7EAF983460FA8FEF772FD12990829AA
:102D90009CBF0120119004D9102994BF0220042067
:102DA000119001290CBF0DF1680A4FF0000A1D981F
:102DB000082828BF082940F201811598584500F0DD
:102DC000FD802868407CFFF7BFF91E900C988000BA
:102DD000FEF73AFC1C90002804BF21B0BDE8F08F3C
:102DE0003046FFF77AFD0790002C00F0D180204696
:102DF000FEF7E6FC199000200A900B9800287DDD74
:102E000019984FF0000BCDF824B081680A9A4B69ED
:102E100009A998470C990446884235D11C98FEF7B9
:102E2000CFFC169005461D98079EDDF85490DDF8FE
:102E3000788002940390049536F8020BC847C04787
:102E400045F8040B641EF7D10398202804D20246EB
:102E50000299049800F05CFF1D981699CDE9020BC9
:102E600001200090CDE9041A01900A990D980123E0
:102E7000014438460C9A02F07BF816A8FEF7F8FCDD
:102E800007991798084450E01298012859D0002C4F
:102E900048D00A990D98084413901C98FEF790FCAE
:102EA00016900546099A11990798DDF8789002FB6B
:102EB00001061D980190DDF854B0A046CDF81050E1
:102EC00036F8020BD847C84745F8040BB8F101089B
:102ED000F6D10198202804D202462146049800F039
:102EE00017FF00201D99169ACDE9021001200090CD
:102EF000CDE9042A01900998384400E01DE001233F
:102F00002246139902F034F816A8FEF7B1FC09988E
:102F10000A9A20440990199881684B6909A9984731
:102F20000400BAD117990798084407900A980B999A
:102F3000401C0A908842FFF663AF19A8FEF798FC80
:102F400036E0002CEED00A990D9801254618099814
:102F5000079900F0070201EBE0031799CDE903138D
:102F6000CDE905A212990095CDE90151384401231C
:102F70002246314603F01CF909980A9A2044099028
:102F8000199881684B6909A998470400DFD1C9E7FE
:102F9000CDF814A0129A1799CDF80080CDE903104E
:102FA000CDE90182DDE90C2138460B9B01F0E0FF01
:102FB0001C98FEF777FB21B0BDE8F08F3046FFF795
:102FC0008CFC0546002C72D02046FEF7F9FB1990C8
:102FD0000B980026002864DD1998CDF8249032461D
:102FE00081684B6909A998470C99044688422AD1FF
:102FF0001998B346721C81684B6909A99847A04289
:1030000008D11998761C721C81684B6909A99847E8
:10301000A042F6D017981299CDE90210CDF80080A1
:103020000D98CDE9045AA6EB0B0400EB0B01631CD1
:10303000CDF8048038460C9A01F09AFF1798611C6D
:1030400001FB005529E01298012831D0002C1CBF4B
:103050000D9800EB060B1ED011990998129B00FBEE
:1030600001521799CDF80080CDE90231CDE9042A4B
:103070003844CDF8048001232246594601F078FFF8
:103080000998324620440990199881684B6909A92A
:1030900098470400E0D1179805440B98761C8642A7
:1030A0009ADB19A8FEF7E4FB21B0BDE8F08F26E01B
:1030B000002C1CBF0D9800EB060BECD00998179B59
:1030C00000F00701CDE905A105EBE002CDE90332EF
:1030D0001299CDF80080CDE90181384401232246C0
:1030E000594603F065F8099832462044099019982A
:1030F00081684B6909A998470400DFD1CBE717988D
:103100001299CDE90210CDF80080CDE9045ADDE92D
:103110000C21CDF8048038460B9B01F029FF03E019
:103120008C0A0020206E050821B0BDE8F08F0396C0
:1031300004460C9756460398FEF742FB0890B0F9F8
:103140000AA0C1681830CDE901012868407CFEF76B
:1031500051FF082898BF012703D9102894BF0227E0
:103160000427089801680A6911922968BC4A497CB9
:1031700052F82110119A09690A91D2F804B00D6829
:103180008A4212D1DDE90112CDF81490CDF8008009
:10319000CDE90321CDE90184B0F908205346314639
:1031A0000C9801F0E5FE00F053B9202C03D0102C50
:1031B0007ED000F04DB9B0F9084008A8FEF758FBE2
:1031C00007FB04F0FEF740FA1490002800F040815D
:1031D000FEF7F6FA12900398FEF7F2FA00F11804DF
:1031E0004FEAC70B08900898012FB0F9088004D067
:1031F000022F1BD0042F4AD131E00A98DDF8489005
:10320000D0F810C0BCF1000F07D001234246494658
:103210002046E04704EB880439E054F8040BA84743
:1032200009F8010BB8F10108F7D130E00A98DDF890
:103230004890D0F810C0BCF1000F07D002234246DE
:1032400049462046E04704EB880420E054F8040B8C
:10325000A84729F8020BB8F10108F7D117E00A983E
:10326000DDF84890D0F810C0BCF1000F07D004235F
:10327000424649462046E04704EB880407E054F8FC
:10328000040BA84749F8040BB8F10108F7D11299CB
:103290000020CDE90301059001200090CDE9010B4C
:1032A00008983146761CB0F9082001230C9800E0FC
:1032B00005E001F05DFEBAF1010A94D1C2E0B0F977
:1032C000084008A8FEF7D4FA07FB04F0FEF7BCF9A3
:1032D000149000287ED0FEF773FA12900398FEF740
:1032E0006FFA00F118040890B0F908008000FEF7AA
:1032F000ABF9159010B1FEF763FA0790F80016903D
:103300000898012FB0F9088004D0022F2AD0042F8A
:1033100079D14FE00A98DDF848900069C0B1119862
:10332000D0F814C0BCF1000F1CBF159800280FD0B6
:103330000223424620460799E0470A980123424665
:10334000D0F810C049460798E04704EB48045AE01B
:1033500034F8020BD847A84709F8010BB8F1010867
:10336000F6D150E00A98DDF848900069C0B1119894
:10337000D0F814C0BCF1000F1CBF159800280FD066
:103380000223424620460799E0470A980223424614
:10339000D0F810C049460798E04704EB480432E0F3
:1033A00034F8020BD847A84729F8020BB8F10108F6
:1033B000F6D128E00A98DDF848900069D0B111985C
:1033C000D0F814C0BCF1000F1CBF1598002811D014
:1033D000022300E03CE0424620460799E0470A9875
:1033E00004234246D0F810C049460798E04704EB52
:1033F000480408E034F8020BD847A84749F8040B02
:10340000B8F10108F6D10020129A1699CDE9021000
:10341000CDE9042001200090019008983146761CE7
:10342000B0F9082001230C9801F0A2FDBAF1010ABD
:103430007FF466AF159828B107A8FEF719FA15981A
:10344000FEF730F912A8FEF713FA1498FEF72AF9DE
:103450000898002818BF08A87FF424AE5FE6000093
:10346000A40A0020094A1268002A18BF0020084A4E
:1034700052F82030002BB8BF7047064B43F820109D
:103480004FF0FF3142F8201070470000C00A0020C2
:10349000DC0A0020C40A0020002808BF704709B3D6
:1034A0002AB3B1F900C0B2F900309C45B8BF6346F9
:1034B0000380B1F902C0B2F902309C45B8BF63463F
:1034C0004380B1F904C0B2F904309C45C8BF6346DB
:1034D0008380B1F90610B2F906209142D8BF114697
:1034E000C1807047116852680160426070470A6885
:1034F0004968026041607047002808BF7047038830
:103500000B440380838819448180418811444180A1
:10351000C1881144C180704710B50024FEF7B2FE87
:103520000A4BD3E9002082420BD0DFF824C0D2E955
:10353000000162450CBF074A08321A6004F012FE0F
:10354000012400F071FB204610BD00009C0B002000
:1035500078F5002028F5002070B51A4C82B0246858
:10356000DDE9066CB4F908508542C8BF2846B4F9B5
:103570000C509542B8BF2A468242BCBF02B070BD13
:10358000B4F90A508D42C8BF2946B4F90E409C4296
:10359000B8BF23468B42BCBF02B070BDDCF80C4004
:1035A0002468002C18BF042C05D0DCF80040002C47
:1035B00018BFA446F2D1CDE9006C02F0FBF902B0CD
:1035C00070BD00008C0A0020B0F90220B1F906306D
:1035D0009A4213DCB1F90220B0F906309A420DDCB0
:1035E000B0F90020B1F904309A4207DCB1F90010BB
:1035F000B0F904008842A4BF012070470020704742
:103600000146024878220068FCF740BE8C0A002080
:10361000DFED1A0A2DE9F04120EE200ADFED180A4D
:103620000446164680EE201A0D46BDEEC10A10EE85
:10363000108A404600F0F0FC0746404601F0CCF905
:10364000002EC6BFAB1CA11CBDE8F08135F9042BD0
:1036500033F904CB02FB07F80CFB00880CFB07FCDA
:1036600002FB10C24FEA2848121424F8048B21F8F8
:10367000042B761EEAD1BDE8F081000000C82F4877
:10368000DA0F4940024978220968FCF7FFBD0000C3
:103690008C0A002010B5FEF7F5FD02F06FFA02F07B
:1036A0001FFC04F017F9BDE8104000F0BDBA00009F
:1036B00070B5094D04462868467CFEF7E3FD022CF0
:1036C00003D228684474FFF7E5FF0448046000F063
:1036D000ABFA304670BD00008C0A0020400B002081
:1036E00010B50446FEF7CEFD204602F069FABDE8AB
:1036F000104000F099BA10B50446FEF7C3FD20460D
:1037000002F098FABDE8104000F08EBA10B50446F9
:10371000FEF7B8FD204602F0B5FA044600F084FA40
:10372000204610BD70B50446FEF7ACFD0448002CE1
:103730000068C56918BFC46100F076FA284670BDFC
:103740008C0A00200149C86170470000500A00201F
:103750000149486070470000800A00200149086064
:1037600070470000500A002001494860704700007F
:10377000500A002070B50446FEF784FD0348006837
:10378000857E847600F050FA284670BD8C0A0020B1
:1037900070B50C460546FEF775FD094822460580C2
:1037A0000848048008480068417C084850F8210017
:1037B000C1680B6A29469847BDE8704000F034BAEA
:1037C000BC0A0020BE0A00208C0A0020A40A0020A7
:1037D00070B50446FEF756FD03480068057E047682
:1037E00000F022FA284670BD8C0A002070B504460D
:1037F000FEF748FD04480068B0F92C50848500F0BD
:1038000013FA284670BD00008C0A002070B50446EB
:10381000FEF738FD04480068B0F92A50448500F0EE
:1038200003FA284670BD00008C0A00200248006898
:10383000002808BF70470047A80B002003498A688A
:10384000002A08BF8860FFF7F1BF00009C0B002032
:10385000002808BF704770B584B00446FEF712FD1B
:10386000294E3068A04218BF054606D1FDF7A8FFD3
:10387000009080683060684610E02846FDF7A0FFA1
:1038800001908068A04219D1FDF79AFF019900903C
:10389000806888606846FDF7EBFF01A8FDF7E8FF48
:1038A0004CB32046FDF78CFF00907568A5420AD105
:1038B000406870606846FDF7DBFF1CE0054601A824
:1038C000FDF7D6FFD9E79DB12846FDF779FF0190B6
:1038D0004568A54207D1009801994068486001A851
:1038E000FDF7C6FF04E001A8FDF7C2FF002DEBD1F4
:1038F0006846FDF7BDFF2046FDF7D4FE04B0BDE8E5
:10390000704000F091B90000DC0B002038B50C4687
:10391000050008BF01240FD0FEF7B4FC2846FDF7D0
:103920004FFF00908089204214BF01240024684684
:10393000FDF79EFF00F078F9204638BD38B5044603
:10394000002020600648056845B12846FDF738FF8D
:103950000090006920606846FDF78AFF284638BD60
:10396000DC0B002038B504004FF000000D46086065
:1039700011D02046FDF724FF0090846844B16846CA
:10398000FDF776FF2046FDF71BFF009000692860D9
:103990006846FDF76DFF204638BD00002DE9F04177
:1039A000084E04460568306801682846884707467F
:1039B0003068416828468847284420603846BDE87A
:1039C000F0810000900A00202DE9F04100244D1EF6
:1039D0000646002918BF064F07D0386841683046B0
:1039E0008847064404446D1EF7D22046BDE8F081A6
:1039F000900A00202DE9F0411F46069D1446884696
:103A000006462246B068641C3B46D0F804C04146D6
:103A10003046E0476D1EF4D1BDE8F08170B5B0F9D5
:103A200000C0A1EB0C01B0F904C08C45D8BF70BD3B
:103A300000F1140CB0F902400069121B02FB00C037
:103A400000EBE104C818421ED010B0EBE1004FF0CB
:103A5000FF0302F00702C2F1070201F0070103FAB7
:103A600002F223FA01F1D5B210D02278461E11439A
:103A700004F8011B002E05DDFF2231462046FCF72D
:103A800025FC344420782843207070BD20782940DC
:103A90000843F9E7B0F90030B0F902C0C91A00F1E3
:103AA00014030069A2EB0C0202FB003000EBE10002
:103AB00001F007010278802323FA01F1114301701C
:103AC0007047B0F90610026951431430FCF705BC89
:103AD0002DE9F843804602F10F000011460003FB78
:103AE00006F01C4615460F461430FDF7BCFD5FEA94
:103AF000000908BFBDE8F883FEF7C4FB4846FDF7A0
:103B00005FFE0090A0F8008047808580C480064951
:103B100081600121818106616846FDF7A9FE00F000
:103B200083F84846BDE8F883B46E050830B4B0F9B0
:103B30000650B0F904400B6800F1140C954220DDEA
:103B400000699C4202FB00C000EBE30C19DD601E23
:103B5000C010A0EBE3041CF8010B03F00702904037
:103B600010F0FF0009D164B11CF8010B641E03F1D1
:103B7000080222F007030028F5D010F0800F09D1C9
:103B800002E030BC002070474006000E5B1C10F0C5
:103B9000800FF9D0FF2808BFDA1D0CD01A4610F0AC
:103BA000400F08D04FEA40604FEA106002F1010276
:103BB00010F0400FF6D10720904312D1641E10D4AC
:103BC0001CF8010BFF2813D010F0800F09D000BFA4
:103BD0004FEA40604FEA106002F1010210F0800FDE
:103BE000F6D10B60A2EB030030BC00F1010070477E
:103BF00002F10802641EE3D5F3E738B50546FEF787
:103C000041FB2846FDF7DCFD00908189491E0CB27E
:103C100084816846FDF72CFE002C04BF2846FDF782
:103C200041FD00F001F838BD0348C168491EC1607C
:103C300018BF704700F03EB8140B002010B54FF4C9
:103C400080110248FDF726FD10BD0000000050D095
:103C5000704710B50BF0E4FA10BD704710B50120A5
:103C60000BF08AF8094908600322002101200BF0BB
:103C7000A7F8074908600846006830B100231A46D3
:103C80001946034800680BF080F910BD440000207D
:103C90004800002010B50648006808B9FFF7DEFFAD
:103CA00000235A1E1946024800680BF0ADF810BDFB
:103CB0004400002010B500231A4619460248006847
:103CC0000BF063F910BD00004400002000B583B084
:103CD000002814BF02AA0022002301A9684600F0B0
:103CE00073FC03B000BD0000084910B5CC68002883
:103CF00014BF01200020C86014BF4FF0FF306FF0E8
:103D00007F4000F0D7FF204610BD0000BC0B002014
:103D100030B4082A20DC0346012A4CD0022A7DD088
:103D2000042A00F0AD800129D8BF0121181F5A1EB6
:103D300011F0010F03D010F8043F02F8013F4910C1
:103D400007D00379537010F8083F02F8023F491E6C
:103D5000F7D130BC01207047102AC2BF002030BC10
:103D600070470222022AF4D10129CABFA1F1010C35
:103D70000121BCF1000F16DD021F831E11F0010F9F
:103D800003D132F8044F23F8024F54685FEA6C0CF9
:103D900009D000BF32F8085F5C80546823F8045FE4
:103DA000BCF1010CF6D1491E0029A4BF30F8212036
:103DB00020F81120CDE710F8042BD207120E491E6F
:103DC00037D010F804CB491E0CF0010C42EA8C12DB
:103DD0002FD010F804CB491E0CF0010C42EA4C1213
:103DE00027D010F804CB491E0CF0010C42EA0C124B
:103DF0001FD010F804CB491E0CF0010C42EACC0293
:103E000017D010F804CB491E0CF0010C42EA8C02CA
:103E10000FD010F804CB0CF0010C00E00EE042EAE9
:103E20004C02491E05D010F804CB0CF0010C4CEAF2
:103E3000020203F8012B0029BDD18AE710F8042BF8
:103E40009207120E491E16D010F804CB491E0CF032
:103E5000030C42EA0C120ED010F804CB491E0CF0F1
:103E6000030C42EA8C0206D010F804CB491E0CF079
:103E7000030C4CEA020203F8012B0029DED168E7AB
:103E800010F8042B1207120E491E06D010F804CBAE
:103E9000491E0CF00F0C4CEA020203F8012B00291A
:103EA000EED156E72DE9F0411E680D460446082A7A
:103EB0000ADC8046012A22D0022A62D0042A7DD060
:103EC000082A40F0A68092E0102AC4BF0020BDE876
:103ED000F0810220022853D1D3F810C02746BCF14C
:103EE000000F04D00A4621460223084688E054F811
:103EF000040BB04727F8020B6D1EF8D189E054F887
:103F0000040BB047C007070E6D1E35D054F8040BE4
:103F1000B04747EA8010C7B26D1E2DD054F8040B8D
:103F2000B04747EA4010C7B26D1E25D054F8040BC5
:103F3000B04747EA0010C7B26D1E1DD054F8040BFD
:103F4000B04747EAC000C7B26D1E15D054F8040B45
:103F5000B04747EA8000C7B26D1E0DD054F8040B7D
:103F6000B04747EA4000C7B26D1E05D054F8040BB5
:103F7000B0473843C7B26D1E08F8017B002DBED193
:103F800047E054F8040BB0478007070E6D1E17D0AA
:103F900054F8040BB04747EA0010C7B26D1E0FD0AB
:103FA00054F8040BB04747EA8000C7B26D1E07D033
:103FB00054F8040BB0473843C7B200E005E06D1E6B
:103FC00008F8017B002DDCD123E054F8040BB04746
:103FD0000007070E6D1E05D054F8040BB047384398
:103FE000C7B26D1E08F8017B002DEED111E0D3F8A9
:103FF00010C0BCF1000F05D00A460146012340461F
:10400000E04706E054F8040BB04708F8010B6D1EBA
:10401000F8D10120BDE8F08100F5A83010B400F51A
:1040200079600028BABF4FF0FF31404201211B4A9E
:1040300090FBF2F302FB130052109042C2BF4942C0
:10404000A0F52830A0F5F950154A9042C4BFC0F53C
:10405000F95000F528304FF47A7390FBF3F26FF0CB
:104060007C0C02FB0CFC00EBCC005A2AA8BF4FF4DE
:1040700080300DDADFF82CC00CEB82045CF82220D3
:104080006468A4EB020C0CFB00F0B0FBF3F01044EE
:104090000029D8BF404210BC70470000407E050098
:1040A000905F0100A46305082DE9F04306466148CE
:1040B000DFF88481614C0068614D85B00F460028AF
:1040C00043D0002004F03EFC002804BF05B0BDE84A
:1040D000F083E946CDE90276D8F8002002A93046FF
:1040E000904703902068406918B14946FFF76CFA81
:1040F00020B3012000F066FB2068C069406920B150
:104100008268DDE90210904715E00298401E029097
:1041100011D403A8FFF742FC81462068C0690168FA
:1041200048468847296800291CBF484688470298A6
:10413000401E0290EDD5002000F044FB04F034FA5C
:104140000028C6D105B0BDE8F08351681068CDE9FC
:1041500000012068BDF80010B0F84C201144ADF803
:104160000010BDF80210B0F850201144ADF8021054
:10417000BDF80410B0F84C201144ADF80410BDF89F
:104180000610B0F850000844ADF80600684604F088
:10419000D9FB002840D000BF2068BDF80010E946D8
:1041A0004184BDF802108184CDE90376D8F800205F
:1041B00003A93046904704902068406918B14946E9
:1041C000FFF702FA20B3012000F0FCFA2068C06972
:1041D000406920B18268DDE90310904715E003983B
:1041E000401E039011D404A8FFF7D8FB8146206835
:1041F000C069026848469047296800291CBF4846A4
:1042000088470398401E0390EDD5002000F0DAFAAD
:1042100004F0CAF90028BFD12068418CB0F84C20C6
:10422000891A4184818CB0F85020891A818405B0A4
:10423000BDE8F083B80A0020980B00208C0A00200B
:10424000B40A00202DE9FF4F00208BB0074601463D
:10425000009019981E469346016008AB002203A9FE
:1042600002A800F0B1F900281EBF00200FB0BDE881
:10427000F08F08988642C8BF0646754C754920687D
:10428000407C51F82010059109690691FDF7B2FEB6
:1042900004902068407CFDF75FFF81466E488145B1
:1042A0001BBF6E4881450020012009900B99881999
:1042B000CDF81C0018995BF8040B884782465FEA2A
:1042C000106800F0B6800098002838D10B98C51906
:1042D0005F480068B0F90800A842C6BF441B054605
:1042E00000240299059801EB870101EB8401CDE9D7
:1042F000001007980C9B421E19462846FFF72CF920
:1043000001200090049818280ADA0298311B00EB6B
:10431000870000EB8400069B049A00F0A3F80EE0EF
:10432000099860B1029800EB870000EB84040798BD
:10433000451B2068C84744F8040B6D1EF9D1484856
:10434000C06978B3DDE9020500EB870005EB870261
:10435000CDE90202DFF808C1ABF104043346DCF812
:104360001CC020460299E047012ED8BF01264FF01D
:104370007F42DDE90201236832EA030C04BF0368CF
:104380000B6005D0D0F800C032EA0C0C08BF0B60FF
:10439000241D001D091D761EEDD1199901200395DC
:1043A000086050E0FFE70298B8F1FF0F50F82700CF
:1043B00004BF039941F8270041D04FF07F42C8F174
:1043C000FF0132EA00032DD00AF0FF0313FB01F3D3
:1043D0000AF47F4C0AF47F0408FB01F50CFB01FC96
:1043E0004C43C1F1FF0100F0FF0818FB013300F45A
:1043F0007F4808FB01CC00F47F0808FB0144000E55
:1044000010FB0151100C00EA1C20C3F307234FF4EA
:104410007F0C0CEA142C184302EA014140EA0C001C
:1044200040EA010A039840F827A019990120086082
:1044300005E00398012140F827A0199801607F1C2E
:10444000761E7FF437AF03980FB0BDE8F08F000001
:104450008C0A0020A40A0020835700088157000816
:10446000500A00200029D8BF70472DE9F05F0C46A4
:104470005F6800EB8406082A15DC611E012A34D02F
:10448000022A55D0042A7AD0082A0CBF0519BDE8A3
:10449000F09F00BF15F8010DB84746F8040D641EE3
:1044A000F8D1BDE8F09F102AC8BFBDE8F09F0221F7
:1044B000022918BFBDE8F09FD3F814C0BCF1000F6B
:1044C00008BF00EB440507D02246BDE8F04F0223A9
:1044D00001465DF804EB604735F8020DB84746F831
:1044E000040D641EF8D1BDE8F09F00EBE108351F14
:1044F00001F0070618F801A9802020FA06F900BF8C
:104500000AEA0900C6F10701C840B84745F804099E
:1045100046B14FEA4960761E4FEA1069641EEFD13A
:10452000BDE8F09F18F801A907264FF00109F5E74B
:1045300000EBA105A6F1040901F00306700015F8CF
:1045400001A9C02121FA00F84FF0060B0AEA080180
:10455000ABEB460021FA00F0B84749F804094EB128
:104560004FEA8860761E4FEA1068641EEED1BDE8FF
:10457000F09F04E0032615F801A9B046F5E700EB2B
:104580006108012020EA0405A800A6F1040918F832
:1045900001A9F02121FA00F64FF0040B0AEA060007
:1045A000ABEB8501C840B84749F8040935B16D1E29
:1045B0003007060E641EF1D1BDE8F09F012518F802
:1045C00001A90F26F6E700002DE9F047224C8046AE
:1045D0009946A06916460F46002540B90120A06102
:1045E00004F120011D480860084600F0EDF96069FB
:1045F00010B900F08BFF6061B9F1000F18BFC9F866
:104600000000B8F1000F0BD0A06838B960698000D5
:10461000FDF77CF8A060002808BF0125C8F800005D
:1046200057B1E06838B960698000FDF76FF8E06065
:10463000002808BF0125386056B1206938B9606983
:104640008000FDF763F82061002808BF0125306075
:104650002846BDE8F0870000500A002055D9000820
:1046600073B51A4A82B003A91268029890470024D1
:104670000290002827D0164900250968C9694969B0
:1046800000291CBF0A68002A03D00399904704B090
:1046900070BD0398401E03900AD402A8FFF77EF96C
:1046A0000546FDF7BDFC04440398401E0390F4D575
:1046B0000026284669460096FDF7C4FC0099814211
:1046C000C8BF0E1A344404B0204670BD980B0020B9
:1046D0008C0A002073B50D4600980024B8B10D492E
:1046E0000968C969496900291CBF4A68002A03D0C2
:1046F0002946904702B070BD002D08DD6846FFF7DF
:104700004DF900281EBF0A28641CA542F6DC02B041
:10471000204670BD8C0A002038B5002469460094FC
:10472000FDF790FC00998142C8BF0C1A204638BDA5
:10473000B0F90030B1F900209342C8BF1A46028098
:10474000B0F90230B1F902209342C8BF1A46428044
:10475000B0F90430B1F904209342D8BF1A468280E0
:10476000B0F90620B1F906108A42C8BF0A46C280D5
:10477000704730B4B1F900C0B2F900309C45C8BFF1
:1047800063460380B1F90240B2F902C06445C8BF74
:10479000A446A0F802C0B1F90450B2F90440A54201
:1047A000B8BF2C468480B1F90610B2F906209142B8
:1047B000A8BF1146C1809C42AABF614500200120CC
:1047C00030BC7047014602480068407C00F002B8E7
:1047D0008C0A0020F8B501260F46044602280FDA9D
:1047E0002A4D002F36D0012F02D0022F08D120E011
:1047F00055F82400002818BF401C03D045F82400B9
:104800003046F8BD2046FDF79FFA00900028F7D00B
:10481000C0680D21426A684690470200F0D03946D0
:104820000098904755F824000026401C45F82400C5
:10483000E6E7FDF789FA00900028E1D0C0680D2175
:10484000426A684690470200DAD03946009890479D
:104850000026D5E755F8240001280FD12046FDF7A2
:1048600073FA009050B1C0680D21426A68469047C3
:10487000020003D0394600989047002655F82400DE
:10488000002814BF01210021401AB7E7900B002037
:104890004FF07F4333EA010C08BF704770B400F05B
:1048A000FF0C1CFB02FC00F47F4400F47F05544322
:1048B0005543000E10FB02F6C2F1FF00CAB212FB14
:1048C00000C201F47F4C0CFB004C01F47F0404FB9C
:1048D0000054090E11FB00604FF47F4101EA1C21D6
:1048E0004FF47F0C0CEA142CC2F30722114370BC66
:1048F00003EA004041EA0C01084370472DE9F84FF4
:10490000002300930D9BDDF838A0002B86BF4FF0ED
:10491000FF0E4FF07F45BDE8F88F0C9C50F8049BCC
:1049200051F8043BAEEB196C0CFB0AFC0CEBCC16FB
:1049300006EBCC3CCCF3C75C35EA030632D009F079
:10494000FF0616FB0CF609F47F4709F47F0807FB06
:104950000CF708FB0CF84FEA196919FB0CF9CCF1BC
:10496000FF0C03F0FF0B1BFB0C6603F47F4B0BFBF0
:104970000C7703F47F0B0BFB0C881B0E13FB0C93C3
:10498000C6F3072C4FF47F4606EA17264FF47F073D
:1049900007EA18274CEA060C05EA03434CEA070C21
:1049A0004CEA030929F07F4342F8043B641EB5D169
:1049B0000A9BDDF834C001EB8301009B5B1C009374
:1049C0006345AAD3BDE8F88F02494A69426048614D
:1049D00070470000800A002010B40028BABF4FF0D2
:1049E000FF31404201211B4A90FBF2F302FB13000E
:1049F00052109042C2BF4942A0F52830A0F5F950AC
:104A0000154A9042C4BFC0F5F95000F528304FF464
:104A10007A7390FBF3F26FF07C0C02FB0CFC00EB62
:104A2000CC005A2AA8BF4FF480300DDADFF82CC032
:104A30000CEB82045CF822206468A4EB020C0CFBF3
:104A400000F0B0FBF3F010440029D8BF404210BC86
:104A500070470000407E0500905F0100A4630508D8
:104A600030B402E000F8011B521E002A18BF10F0FB
:104A7000030FF7D195083BD0C5F1000C4FEAEC7459
:104A80000CEB947C4FEAAC0C4FEA8C0C01EB01432D
:104A9000CCF1000402F0030203EB0323002CC4BF9B
:104AA000A0F1040C641010DDCCF804304CF8083F81
:104AB000641EF9D1EC1705EB947C4FEAAC0C00EBCB
:104AC0000C10CCF1000C05EB8C05002D10DDA0F1D5
:104AD000040C15F0010F18BF4CF8043F6C1005D002
:104AE000CCF804304CF8083F641EF9D100EB850087
:104AF000002ADCBF30BC7047401E12F0010F18BF07
:104B000000F8011F521004BF30BC7047417000F81C
:104B1000021F521EFAD130BC704770B410F0020F61
:104B200002D020F8021B521E5FEA520C39D001EB72
:104B30000143BCF1040F21DBACF1040C6646744266
:104B40000360E517436004EB95748360A410C360B1
:104B5000A40010306542002DC4BF041F6D100DDD90
:104B6000636044F8083F6D1EFAD1F4170CEB94749F
:104B7000A41000EB0410644206EB840CBCF1000F9F
:104B80000FDD041F1CF0010F18BF44F8043F5FEA5B
:104B90006C0504D0636044F8083F6D1EFAD100EB49
:104BA0008C0012F0010F18BF018070BC704700002C
:104BB0001FB5012001F028FF00BF612001F004FFB4
:104BC0000028FAD00121082001F0BEFE40212B4828
:104BD00002F0CBFD01220021284802F0C3FD0C2089
:104BE000ADF800000020ADF802000120ADF804008F
:104BF0000C20ADF806000020ADF8080069461F48FB
:104C000002F070FD32208DF80C0000208DF80D00B0
:104C10008DF80E0001208DF80F0003A801F01EFE94
:104C20000121164802F075FC00201449103108805B
:104C300001221021114802F08CFD00BF10480068CD
:104C40000228FBD10D4802F071FC0E48006800F408
:104C5000E05048B90C48006880080C490968B0FB6E
:104C6000F1F0C00004B010BD0748006880084000A3
:104C700006490968B0FBF1F0C000F3E7000C004002
:104C80002C000020083802400C00002030000020DA
:104C900000BFFEE7054B10B502EB02121B68D2B253
:104CA000984703490968084010BD0000500A0020D9
:104CB000300B002002490A68086010467047000067
:104CC000300B00201CB5012140F2EF1001F01CFE5A
:104CD00002208DF805008DF8040000208DF80600F4
:104CE0008DF807000E2208215C48FBF7B7FF0E2263
:104CF00009215A48FBF7B2FF4FF440700090694613
:104D00005648FBF763FF0E2206215548FBF7A6FF26
:104D10004020009069465248FBF758FF0E220521BB
:104D20005048FBF79BFF0E2206214E48FBF796FFEB
:104D30000E2204214B48FBF791FF7020009069463A
:104D40004848FBF743FF0E220A214748FBF786FF3E
:104D50004FF48060009069464348FBF737FF0E220E
:104D600006214248FBF77AFF0E2207213F48FBF756
:104D700075FF0E220B213D48FBF770FF0E220C2120
:104D80003A48FBF76BFF4FF4C6500090694637482E
:104D9000FBF71CFF0E2202213548FBF75FFF0E22B6
:104DA00003213348FBF75AFF0E2208213048FBF756
:104DB00055FF0E2209212E48FBF750FF0E220A2133
:104DC0002B48FBF74BFF0E220B212948FBF746FF30
:104DD0000E220C212648FBF741FF0E220D2124480C
:104DE000FBF73CFF0E2211462148FBF737FF0E224E
:104DF0000F211F48FBF732FF4FF60C7000906946F9
:104E00001B48FBF7E3FE0E2200211A48FBF726FFA2
:104E10000E2201211748FBF721FF0E22022115481F
:104E2000FBF71CFF0E2204211248FBF717FF0E228E
:104E300005211048FBF712FF0E2209210D48FBF750
:104E40000DFF0E220A210B48FBF708FF40F23760E6
:104E5000009069460748FBF7B9FE1CBD00040240FC
:104E6000000C0240001002400014024000180240F2
:104E7000001C02400020024010B5044624B9102155
:104E80000448FBF717FF03E010210248FBF714FF6B
:104E900010BD0000000C02400449054A0968497C25
:104EA00052F8211009690968084700008C0A00209F
:104EB000A40A0020C1B2C0F30722C0F30740914208
:104EC00008BF824207D101F108001349A1FB00107D
:104ED00000097830704701EB810101F17F030F4930
:104EE00002EB8202A1FB03C37F32A1FB02C200EBF3
:104EF00080007F30A1FB0010D209DB09C00902EB62
:104F0000420103EB410100EBC00001EB80006C2883
:104F100028BF283070470000F1F0F0F081808080D9
:104F20001CB50121082001F0EFFC102000900220A8
:104F30008DF8050001208DF8040000208DF8060092
:104F40008DF8070069460448FBF740FE0122102156
:104F5000014800F003F81CBD000C024070B5044687
:104F60000D461646324629462046FBF7A7FE70BD81
:104F70002DE9FF4F87B09A48DDF850A0169E0068D3
:104F800090B1DDE91723DDF864C0CDF814C00296B6
:104F9000CDE90323159ACDE900A2D0F800C0DDE9E0
:104FA0000923079800F0D4B80A98099A0844451EC6
:104FB00007988C4C1044A0F1010C15984AEA0000A7
:104FC000012827D0C6F1080002900020009104902B
:104FD0000A980028DCBF0BB0BDE8F08F1599009847
:104FE0000844411E019105902068B0F90A208A42C8
:104FF00000F3E580B0F90E100098884200F3DF80DE
:10500000189803900998079D4FF00008002873DC5A
:1050100000F0D5B82268B2F90A30581A00280DDD20
:105020000A99091A0A910029DCBF0BB0BDE8F08F7C
:105030001946DDE9173400FB03401890B2F90E0061
:10504000281A002807DD0A9B181A0A900028DCBFDE
:105050000BB0BDE8F08FB2F90C00ACEB00000028FB
:1050600002DD099B181A0990B2F90830DDF81CC05E
:105070000020634550DDA3EB0C00099B1B1A09932C
:10508000082E32D006DC012E0BD0022E15D0042EB5
:1050900042D11EE0102E30D0182E18BF202E3BD14A
:1050A00033E0189B20F0070C03EBE0031893079BF9
:1050B00000F00700634407932EE0189B20F0030CD8
:1050C00003EBA0031893079B00F0030063440793CE
:1050D00022E0189B20F0010C03EB60031893079B60
:1050E00000F001006344079316E0189B03446044FA
:1050F0000790189300200FE031E0189B03EB40036A
:10510000604407901893002006E0189B03EB80038F
:105110006044079018930020099B002BDCBF0BB064
:10512000BDE8F08FDDE91734DDF864C0CDF814C0B8
:105130000293CDE903400A98CDE90006527C2A4843
:10514000099B50F82200C268D2F804C00A460799A9
:10515000E0470BB0BDE8F08FB9F1000F05D103981F
:105160004FF0080910F8017B03900298A9EB06099B
:1051700037FA00F007FA06F1CFB204D12168097CB2
:1051800011F0020F15D12168199AC96B002AD1F8C4
:1051900000B018BF52F82000086005EB0A00DDE9F6
:1051A0000013421E284600F085F82068C06BC0F846
:1051B00000B0099808F1010855448045CCDB0498FB
:1051C000401C049005980090DDE9170108441890F0
:1051D0000A9904988842FFF601AF0BB0BDE8F08F42
:1051E000B80A00208C0A0020A40A00208C4613492B
:1051F00030B40968B1F90A306345D9BFB1F90E304E
:105200009C4530BC7047B1F908308342C8BF18468E
:10521000B1F90C309342B8BF1A468242BCBF30BCD1
:1052200070474B7C064951F8234013466246E168BB
:105230008D6801462046AC4630BC60478C0A002091
:10524000A40A00200A46194930B40968B1F90A30A5
:105250009342D9BFB1F90E309A4230BC7047B1F9D0
:1052600008308342D9BFB1F90C30984230BC704746
:105270000B7C13F0010FDFF838C009D0497C5CF8D3
:105280002130D968D1F81CC0014630BC18466047AF
:10529000CB6B497C1B685CF821C0DCF80C108C6976
:1052A00001466046A44630BC604700008C0A0020DE
:1052B000A40A002038B5DFF858C0DCF800C0BCF9FB
:1052C00008408442C8BF2046BCF90C409442B8BF95
:1052D00022468242B8BF38BDBCF90A408C42C8BFE2
:1052E0002146BCF90E409C42B8BF23468B42B8BF52
:1052F00038BD00939CF811C0064B53F82CC0DCF865
:105300000C301C6913460A4601466046A04738BD6A
:105310008C0A0020A40A002070B508250024022869
:1053200007DAFCF711FD20B1C1688A6A2946904767
:105330000446204670BD000002480068806B00688B
:10534000704700008C0A002002480068C06B0068AB
:10535000704700008C0A0020044A02EB800352F8D8
:105360002000C068426A184610470000A40A0020C6
:1053700070B50C250024022807DAFCF7E5FC20B103
:10538000C1688A6A294690470446204670BD70B5B8
:105390000D250024022807DAFCF7D6FC20B1C168ED
:1053A0008A6A294690470446204670BD70B5084871
:1053B000092500240068407C022807DAFCF7C4FCB9
:1053C00020B1C1688A6A294690470446204670BDCC
:1053D0008C0A002070B509250024022807DAFCF7A2
:1053E000B3FC20B1C1688A6A29469047044620462A
:1053F00070BD70B500252C462046FCF7A5FC0028A2
:1054000018BF6D1C641C022CF6DB284670BD000022
:10541000074810B50068407CFCF796FC002808BFE0
:1054200010BDC168CA6ABDE81040022110470000E3
:105430008C0A002010B500F005F8BDE8104000F01F
:1054400059B90000F0B5154E0546154F30680C46A9
:1054500083B0407C57F82000C1680A6B69469047CA
:10546000BDF90000A842DCBFBDF90400854207DC9D
:10547000BDF90200A042DCBFBDF90600844202DD96
:1054800003B00020F0BD30682246407C57F8200071
:10549000C1684B692946984703B0F0BD8C0A0020CB
:1054A000A40A0020F8B515460E460124FCF74CFC72
:1054B000009058B1C0680421426A684690470300D2
:1054C00004D02A4631460098984700242046F8BD6B
:1054D00070B50E250024022807DAFCF735FC20B150
:1054E000C1688A6A294690470446204670BD70B557
:1054F00003250024022807DAFCF726FC20B1C16846
:105500008A6A294690470446204670BD2DE9F0413D
:1055100003270024012500262846022D07DAFCF780
:1055200013FC20B1C1688A6A394690470646B442E6
:10553000B8BF34466D1EEED52046BDE8F08170B58B
:1055400004250024022807DAFCF7FEFB20B1C1681D
:105550008A6A294690470446204670BD70B50848BF
:10556000012500240068407C022807DAFCF7ECFBE8
:1055700020B1C1688A6A294690470446204670BD1A
:105580008C0A002070B501250024022807DAFCF7F8
:10559000DBFB20B1C1688A6A294690470446204651
:1055A00070BD000070B50848022500240068407CEA
:1055B000022807DAFCF7C8FB20B1C1688A6A2946CD
:1055C00090470446204670BD8C0A002070B5022525
:1055D0000024022807DAFCF7B7FB20B1C1688A6A09
:1055E000294690470446204670BD00002DE9F04151
:1055F00001004FF000001ABF8E68002EBDE8F08158
:10560000104F7A68002A08BFBDE8F0810C68B4F535
:10561000807FC8BFBDE8F08138688442C8BF0446B7
:105620000025002C0ADD00BF56F82500FFF734FCEA
:10563000796841F825006D1CAC42F5DC7868BDE85E
:10564000F0810000F80A00202DE9F04101004FF040
:1056500000001ABF8E68002EBDE8F081104F7A68F6
:10566000002A08BFBDE8F0810C68B4F5807FC8BF90
:10567000BDE8F08138688442C8BF04460025002C8C
:105680000ADD00BF56F82500FFF706FC796841F8EF
:1056900025006D1CAC42F5DC7868BDE8F0810000A7
:1056A000F80A0020002808BF70472DE9F0418668FD
:1056B00036B10F4F796819B10468B4F5807F02DD07
:1056C0000020BDE8F08138688442C8BF0446002548
:1056D000002C09DD56F82500FFF7DEFB796841F85C
:1056E00025006D1CAC42F5DC7868BDE8F081000057
:1056F000F80A00200449054A0968497C52F821103B
:1057000009694968084700008C0A0020A40A0020A3
:10571000A0F1780110293EBF1648484370476C2815
:1057200004D3942836BF002028387047124AA2FBC1
:1057300000318908A2FB01C2A1EB81039208A2EB10
:10574000820201EB420100EB43030C4A03EB03131B
:10575000A2FB002001EB0111C00803EB430301EBA6
:10576000410100EB001000EB400003EB012101EBD5
:105770000040704711111100ABAAAAAA398EE33874
:105780007047704700F01F01074A084BC0F3451CE3
:10579000C0F3C42013F80C30105C515C00EB032004
:1057A00000EB01407047000044630508646305088E
:1057B0000206C0F30721120AC0F3074042EA0121A2
:1057C0000843704700B58FB0FFF7AAFB0020FFF732
:1057D00053FB0120FFF750FB0121880601F0D4F8AC
:1057E0000121C80501F090F8FFF76CFA01F072FB97
:1057F000002000900190029003900C900D900E906C
:1058000004220721C02001F017F9002001F002F95D
:10581000012001F00BF900BF3D2001F0D5F8002870
:10582000FAD009200490012005901D200690032045
:10583000079040F23D30089040F2E310099040F2AA
:105840006F300A9040F2AF200B90684600F082FE65
:10585000684600F07FFE0FB000BD000010B50A4C96
:10586000606870B920688000FBF750FF6060002816
:1058700004BF012010BD0548054908600846FFF730
:10588000A3F8002010BD0000F80A0020DDD90008B0
:10589000000B00202DE9F047FFF7ABFD071E4FF08E
:1058A0000005C6BFDFF86080DFF86090BDE8F087D4
:1058B0002846FCF749FA10B32846FDF7F9FE824660
:1058C0002846FFF729FD082816DC58F8250000694E
:1058D000484511D02846FFF77DFD061E4FF0000415
:1058E0000ADDE0B2FFF706FF0246E1B2284600F00B
:1058F000D5F9641CA642F4DC5046FDF7D9FE6D1CB8
:10590000BD42D5DBBDE8F087A40A00204865050844
:1059100000B591B01E20019040F23D30029004206D
:10592000039040F2E310049002200590FF200690BF
:1059300000200790089009900A904FF480600B9027
:1059400005200C9040F243600E90C01E0F904FF463
:10595000F07010904FF050400D9001A9124800F0E7
:10596000C8FE12480D904FF4C0600B9007200C90B9
:1059700001A90D48803000F0BCFE012000F044FF7A
:105980000121094800F0AAFE01210748803000F0FB
:10599000A5FE012000F038FF054800F079F901204C
:1059A00000F05EFD11B000BD84680140000006D02B
:1059B0004C0000202DE9FF4F83B016461198109C33
:1059C000C0684769426A82B1012111A890475FEA25
:1059D000000C0AD00698CDE90004DDE90312334635
:1059E0001198E04707B0BDE8F08F63480068407C3D
:1059F000FCF700FB00900828D8BF4FF0010805DD38
:105A00001028D4BF4FF002084FF004080025069973
:105A100004988842C4BF07B0BDE8F08FB8F1010F09
:105A200006D0B8F1020F7FD0B8F1040F4CD18AE054
:105A30000098092848D2DFE800F094052548486816
:105A400068686800DDF80C90B145D8BF4FF67F7AE2
:105A50003ADC4946049A1198B847C5F107018840D5
:105A600021782AFA05F2114008432070681C20F0C2
:105A7000070140FA01F509F1010904EBE004B14521
:105A8000E7DD6EE0DDF80C90B145DCBF4FF0060AB3
:105A90004FF63F7B65DC4946049A1198B847AAEB5C
:105AA0004501884021786A002BFA02F21140084330
:105AB0002070681C20F0030140FA01F509F101098A
:105AC00004EBA004B145E6DD4BE0DDF80C90B145F8
:105AD000DCBF4FF0040A4FF00F0B42DC4946049A3A
