:020000040800F2
:100000004816012069020008E3680008314D000825
:10001000DF680008F50600080B7900080000000002
:10002000000000000000000000000000C101000806
:100030002F0700080000000005020008697300088F
:10004000830200088302000883020008830200087C
:1000500083020008830200083107000883020008B9
:10006000830200088302000883020008830200085C
:10007000830200088302000883020008830200084C
:10008000830200088302000883020008830200083C
:10009000830200088302000883020008830200082C
:1000A000830200088302000883020008830200081C
:1000B0000B75000883020008830200088302000811
:1000C00083020008830200088302000883020008FC
:1000D00083020008830200088302000841780008B8
:1000E00083020008396B00088302000883020008BD
:1000F00083020008830200088302000883020008CC
:1001000083020008830200080D75000883020008BE
:1001100083020008830200088302000883020008AB
:10012000830200082D0700088302000883020008EC
:10013000830200088302000883020008830200088B
:10014000830200088302000883020008830200087B
:10015000830200088302000883020008830200086B
:10016000830200088302000883020008830200085B
:10017000830200088302000883020008830200084B
:10018000830200088302000883020008830200083B
:10019000830200088302000883020008830200082B
:1001A0002565000883020008F9060008DFF80CD076
:1001B00000F0AAF80048004731E600084816012080
:1001C000234B19680868B0E8F04F80F309884FF0B6
:1001D000000080F3118870470000000003480068A9
:1001E000006880F3088862B600DF00BF08ED00E019
:1001F000DFF80C00016841F470010160704700BF36
:1002000088ED00E0EFF30980114B1A681EF0100F23
:1002100008BF20ED108A20E9F04F106008B54FF0BC
:10022000500080F311880EF0B9FF4FF0000080F30A
:100230001188BDE8084019680868B0E8F04F1EF062
:10024000100F08BFB0EC108A80F30988704700BF18
:10025000E80000204FF0500080F3118870474FF005
:10026000000080F311887047064880470648004721
:10027000FEE7FEE7FEE7FEE7FEE7FEE7FEE7FEE756
:10028000FEE7FEE781730008AD01000810B5431AD0
:10029000934209D28318881803E010F8011D03F86F
:1002A000011D521EF9D210BD40EA01039B0703D085
:1002B00009E008C9121F08C0042AFAD203E011F8A5
:1002C000013B00F8013B521EF9D210BDD2B201E051
:1002D00000F8012B491EFBD270470022F6E710B54B
:1002E00013460A4604461946FFF7F0FF204610BDA4
:1002F00010B5044604E00B7800F8013B03B1491C3B
:10030000521EF8D2204610BD064C074D06E0E068AC
:1003100040F0010394E8070098471034AC42F6D34C
:10032000FFF748FF7CA605089CA6050870B58C1849
:1003300010F8015B15F0070301D110F8013B2A11F9
:1003400006D110F8012B03E010F8016B01F8016BE6
:100350005B1EF9D12B0705D40023521E0DD401F8E2
:10036000013BFAE710F8013BCB1A921C03E013F8AB
:10037000015B01F8015B521EF9D5A142D8D30020E0
:1003800070BD00001FB501F065F8032001F0EEF923
:100390000020074A0923CDE901200093039003467A
:1003A00040F6E83203A105480FF03AF91FBD0000FE
:1003B0004C060020424B5F474E440000C10300083A
:1003C0002DED028B8CB000200090019002900390E4
:1003D000804605F037F9002456E0BFEE000A08A871
:1003E00000EB840080ED000AE0B29FEDAA0A06F05F
:1003F00045FF04EB4401A84A02EB411101F12C0036
:1004000002F074FA04EB4400A34901EB401090F8A9
:100410005D00A2490978884235D104EB4403DFF836
:1004200078C20CEB4313D3ED100AB0EE600A04EB74
:1004300044030CEB43139B685A6804EB44030CEB36
:1004400043139B68196804EB44030CEB431303F15B
:10045000100003F069FA04EB440CDFF83C9209EB5E
:100460004C13DFF83CC25CF8242004EB440C09EB8D
:100470004C1C0CF13E0104EB440C09EB4C1C0CF140
:100480002C0002F041FB641C042CA6DB01F0E6FF0B
:1004900005464FF47A77FCE001F0E0FF401B804610
:1004A00043F69821884204DD4FF47A7701F0D6FFB5
:1004B0000546B84560DD07F57A777A48007858B385
:1004C000002000F0F1F80021084606F08BFE012123
:1004D000084606F087FE0021022006F083FE012177
:1004E000032006F07FFE0021042006F07BFE0121A0
:1004F000052006F077FE0021062006F073FE01219C
:10050000072006F06FFE0021082006F06BFE012197
:10051000092006F067FE2AE0012000F0C5F801215D
:10052000002006F05FFE0021012006F05BFE0121A5
:10053000022006F057FE0021032006F053FE0121A1
:10054000042006F04FFE0021052006F04BFE01219D
:10055000062006F047FE0021072006F043FE012199
:10056000082006F03FFE0021092006F03BFE4D4822
:100570000078C0434B49087040460CF04FF9B0EE8C
:10058000408A002006F07AFE40460CF043F8B0EEB8
:10059000408A012006F072FE40460CF0B9F9B0EE38
:1005A000408A022006F06AFE40460CF097F9B0EE51
:1005B000408A032006F062FE002466E008A800EBF3
:1005C000840090ED000A04EB4400334901EB401035
:1005D000D0ED100AB4EE600AF1EE10FA54D004EB3C
:1005E000440001EB401090ED100A08A800EB8400D5
:1005F00080ED000A01F032FF064604EB4400264974
:1006000001EB401090F85D0024490978884235D10B
:1006100004EB4403DFF880C00CEB4313D3ED100A66
:10062000B0EE600A04EB44030CEB43139B685A687A
:1006300004EB44030CEB43139B68196804EB44037D
:100640000CEB431303F1100003F06EF904EB440CC0
:10065000DFF8449009EB4C13DFF844C05CF8242029
:1006600004EB440C09EB4C1C0CF13E0104EB440C74
:1006700009EB4C1C0CF12C0002F046FA01F0EEFEE6
:10068000801B04A941F82400641C042C96DB01F0B3
:1006900063FE01E7000000003C030020D0020020C0
:1006A00054060020640600202DE9F0410546002490
:1006B00004F0A4FF86B204F0C5FF87B27B1E721E51
:1006C0000021084601F03CFC0848057000BF09E025
:1006D000012104EB4400064A02EB401080F83E1072
:1006E000601CC4B2042CF3DBBDE8F081D002002012
:1006F0003C03002000BFFEE710B500F001F810BD7C
:10070000022001498860704700B0024029B1064AC2
:1007100012680243044B1A6004E0034A12688243E1
:10072000014B1A607047000000B0024070477047EC
:1007300010B501200249086000F004F810BD000067
:10074000080000200149086070470000143C014087
:1007500010B5024600200023102A03D14FF0204498
:10076000636E0FE0B2F5807F02D10A4C236809E086
:10077000B2F5805F03D1074C2034236802E0054CBA
:10078000D434236803EA01048C4201D0002000E045
:10079000012010BD840000A00021D0E900231A43ED
:1007A00083685B1E42EA4312C36842EA4321014A5E
:1007B00011607047500100A070B500210022002395
:1007C0000024D0E901563543C668354306693543F0
:1007D0004669354386693543C6693543066A3543FC
:1007E000466A45EA0601056835B90568AD00A5F118
:1007F000C045C5F840110DE0D0E907563543466ABB
:1008000045EA0603294D2B600568AD00A5F1C045FA
:10081000C5F84011056835BB856A2D686D1E866A6E
:100820007668761E45EA0616856AAD686D1E46EA4C
:100830000526856AED686D1E46EA0536856A2D8AAD
:100840006D1E46EA0546856AAD8A6D1E46EA055666
:10085000856A2D7E6D1E46EA0562144D08350668D0
:1008600045F8262020E0856A2D686D1E866A766828
:10087000761E45EA0616856AAD686D1E46EA0526AF
:10088000856A2D8A6D1E46EA0542856AED686D1EF1
:100890002E03856AAD8A6D1E46EA0554034D083560
:1008A0002C60066845F8262070BD0000400100A0BD
:1008B0000449096841EA40014FF02042C2F854114E
:1008C00070470000540100A02DE9F0430446C568BC
:1008D00087B017468846002003F0A4F80646002D8E
:1008E0001BBF2879002826F0020046F0020003F022
:1008F00099F82069012568B1D4E902120091CDE987
:1009000001250395D0F800C0638822883946404607
:10091000E04719E0DFF84C90134B2146D9F800006E
:100920001B68427CE0689847A0B1A188E388A26870
:100930000095CDE90231CDE9042001956388228834
:100940003946404604F064FB07B03046BDE8F0434A
:1009500003F068B8E088012812BF0020D9F8000031
:10096000806BE2E7800A0020780A00202DE9FF4F23
:1009700083B0074640F6FF74C4F1000090460E1E97
:100980000090C4BFB91C32460CDD00BFB1F90000B5
:100990008442C8BF0446009B8342B8BF0090091D33
:1009A000521EF3D187490868406970B1B0F906302A
:1009B000069A9A1A009B9A42B8BF0092B0F9022098
:1009C0000698101AA042C8BF044600988442D2BFBD
:1009D000A6F1010907B0BDE8F08F00207A4905466D
:1009E000002E0860C4BF069804EB000A7EDD4D456A
:1009F000B4BF691C002107EB850207EB810CB2F93B
:100A00000200BCF90230A04256D1A34214D137F9FA
:100A1000211037F9250001EB08036A494044984248
:100A20000968C96ED1F800C0B4BF1A4602465146E3
:100A3000A8BF1846E04787E000222946B9F1000F19
:100A40000CDD002914BF491E711E07EB8100B0F9AF
:100A50000200A04203D1521C4A45F2DB2046A042CC
:100A600072D037F92510A0EB0400A3EB040250402C
:100A700009D401EB0800534902460968C96E0B68A6
:100A80005146984760E0DFF840B1DBF800C0BCF1A8
:100A90000C0F59DABCF10000C8BF4C4A4DDD00BF55
:100AA00002EB400333F9023C8B4246DB22F8103064
:100AB000401E0028F4DC40E0A34245D001DBA04208
:100AC00003DDA042A8BF9C423EDB98424FDC0146BA
:100AD000A042DFBF18468442B2F90030BCF90020C2
:100AE00032DC00BFA2EB030C621A00E030E00CFB2A
:100AF00002F2002AA0EB010CCEBF02EB6C02A2EBCB
:100B00006C02521C401A92FBF0F0DFF8BCB0C11826
:100B1000DBF800C0BCF10C0F16DABCF10000C8BF56
:100B20002A4A0ADD02EB400333F9023C8B4204DB24
:100B300022F81030401E0028F4DC244A22F810105D
:100B40000CF10100CBF800006D1CB542FFF64FAF71
:100B500006984FF0000B204401901B485D46016849
:100B60000029C4BF1949B1F900A022DD19E01946D6
:100B7000A342E9DC8442DCBFBCF90030B2F90020BA
:100B8000E2DCAFE71149BBF1000F31F915A008D045
:100B90000C4908EB0A0240440968C96E0B680199C8
:100BA000984709496D1C8BF0010B09685046A94212
:100BB000E8DC0098641C84427FF70FAF07B0BDE803
:100BC000F08F0000800A0020500B002078F50020F4
:100BD00010B5002002F010FF6FF07F4002F017FF09
:100BE000012002F081FF002002F08CFF002002F0C3
:100BF00099FF002002F016FF0448006802F01EFF73
:100C0000BDE81040002002F041BF00007C0A002037
:100C1000F0B50A4600210023002400BF3DE0012575
:100C200005FA01F3156805EA03049C4234D105680E
:100C30004F000326BE40B543056015794E00B54010
:100C40000668354305601579012D02D01579022D0E
:100C500016D185684F000326BE40B543856055799F
:100C60004E00B540866835438560456801268E4054
:100C7000B5434560456896798E40B6B235434560C8
:100C8000C5684F000326BE40B543C560D5794E0008
:100C9000B540C6683543C560491C1029BFD3F0BDB7
:100CA000F0B5002300244D07ED0E02FA05F3CE1037
:100CB00000F1200555F826504E07F70E0F26BE40CE
:100CC000B543CF1000F1200646F82750CE1000F1B2
:100CD000200555F8265045EA0304CE1000F1200502
:100CE00045F82640F0BD41837047018370470AB143
:100CF000018300E041837047014AC2E90001704767
:100D0000240A0020014AC2E9000170472C0A002091
:100D1000014AC2E900017047340A0020014AC2E9D1
:100D2000000170473C0A0020014AC2E900017047F7
:100D3000E40A00202DE9F04F4B4989B00B68B3F964
:100D400022100691D3F81CC0B3F92480DCF81C40B3
:100D5000A18981429CBFE289904205D8471A4FF091
:100D6000FF35D4F8009015E0D4E90192002A72D042
:100D70001188814299BF5588A8424FF0FF352F4610
:100D800008D8401A516880B201EB8000B0F90070B9
:100D9000B0F90250781C5ED09CF81800A17C10FBC2
:100DA00001FB94F810A00790B3F92A60304604F0D4
:100DB000B9FFC0B208902C4807FB0B920068A37CD7
:100DC0000127816BCDE90273CDE90421C069524648
:100DD000C17E807ECDE90001DDE90603414604F0D5
:100DE00017F9681C18D046F0020004F09BFF1E485B
:100DF000A37C05FB0B920068816BCDE90273CDE902
:100E00000421C0695246C17E807ECDE90001DDE942
:100E10000603414604F0FCF8134D2868C069417E82
:100E2000007E814214D9022E12D086F0040004F014
:100E300079FF2868C069017EC27E11FB0281427E73
:100E400002EB0803827E06980AFB020204F082FA93
:100E5000089804F067FF0448627C0068418C1144E4
:100E6000418409B0BDE8F08F800A002004480029C1
:100E70000068C069C0691CBF027C0A60407C704782
:100E8000800A0020022008807047C06982898A4257
:100E90009CBFC289914210D9806880B102888A4281
:100EA0000DD8438899420AD8406800EB8100A0EB36
:100EB0008200B0F90000002801DB0120704700200B
:100EC00070470000F0B52D4D044687B028682146D4
:100ED000B0F92A70C069C06900F01EFA002804BF8A
:100EE00007B0F0BD41680088201A00EB400001EB1C
:100EF00080042078C01C8608384604F013FF07469B
:100F00001F48D0F800C0BCF1000F1AD0A068002123
:100F10000222CDE90401012003960090CDE90102EF
:100F2000286894F90320DCF800C0B0F92410B0F967
:100F30002200114494F90220637810442278E0479B
:100F400011E0A068CDE90060286894F90320637877
:100F5000B0F92410B0F92200114494F90220104491
:100F6000227800F021FC384604F0DCFE2868227963
:100F7000418C1144418407B0F0BD0000800A00207C
:100F8000A80A0020F0B52D4D044687B028682146F8
:100F9000B0F92A70C069C06900F0BEF9002804BF2A
:100FA00007B0F0BD41680088201A00EB400001EB5B
:100FB00080042078401C4608384604F0B3FE0746FB
:100FC0001F48D0F800C0BCF1000F1AD0A068002163
:100FD0000422CDE90401012003960090CDE901022D
:100FE000286894F90320DCF800C0B0F92410B0F9A7
:100FF0002200114494F90220637810442278E047DB
:1010000011E0A068CDE90060286894F903206378B6
:10101000B0F92410B0F92200114494F902201044D0
:10102000227800F009FD384604F07CFE2868227919
:10103000418C1144418407B0F0BD0000800A0020BB
:10104000A80A00202DE9F043394C024687B02068F9
:10105000B0F92A60C069C1691046002904BF07B011
:10106000BDE8F0830B8883429CBF4B88984205D92A
:1010700089680029F6D107B0BDE8F083002904BFD4
:1010800007B0BDE8F08348680988511A00EBC10534
:101090003046AF7804F046FE804620686A68012337
:1010A000816BCDE90237CDE90421C169CB7E8A7E0F
:1010B000CDE900230B7EB0F924102A78B0F9220084
:1010C00003F0A6FF2068C069417E027E914220D9CC
:1010D000C07E022E01FB00F902FB00F719D001F0DF
:1010E0007BF9064601F058F902F091FC2068297856
:1010F000C269B0F922C0D27E11FB02C2B0F924004D
:1011000000EB0903C119604604F024F9304602F0EF
:101110007EFC404604F006FE20686A78C369B0F998
:1011200022109B7E12FB0311418407B0BDE8F083BF
:10113000800A00208446174810B40068C4696046DD
:10114000E2691AB3138883429CBF5388984203D93B
:101150009268002AF6D119E0C2B110885368ACEB4E
:10116000000000EB4002042000EB820094F81AC05B
:10117000185C10FB0CF0002904BF10BC704713F87A
:10118000222002FB0CF20A6010BC704710BC002049
:1011900070470000800A0020034612480068C069BA
:1011A000C2691846E2B100BFB2F800C084459CBFD6
:1011B000B2F802C0604503D99268002AF4D10FE06A
:1011C00072B1506812889A1A02EB420200EB820058
:1011D000D0E9002380680A60C1E90130002070472F
:1011E00001207047800A0020012008807047C069F4
:1011F00068B102888A429CBF4288914203D98068C4
:101200000028F6D103E000281CBF01207047002011
:10121000704700002DE9F35F0C4601F0DDF82A4D20
:101220008346286890F82A0010F0040F02D001F0DD
:10123000D3F801E001F0B0F802F0E9FB29680027DB
:10124000C869427EC07E12FB00FAB1F92290B1F962
:101250002480641E24D4684602F02CFD06462868CB
:101260003146C069C06900F057F890B14168008804
:10127000301A00EB400001EB800090F90210007979
:1012800008442968C969897E10FB01F00028C8BF9D
:101290000744641EDFD51EB1304603F08DFA0744C3
:1012A00008EB0A00431E09EB0700421E4146484670
:1012B00004F050F8584602F0AAFB044901200870D7
:1012C00002B0BDE8F09F0000800A0020B00A0020B4
:1012D0002DE9F3410E4C0F4F0D462068B0F92A60FE
:1012E00016F0030F02D17A68009890476D1E08D45B
:1012F000684602F0DFFC2168C969096888476D1EED
:10130000F6D5002038702068468502B0BDE8F0812F
:10131000800A0020B00A0020002808BF7047028819
:101320008A4203D842888A4228BF704780680028D2
:10133000F5D170478446164810B40068C469604609
:10134000E2690AB3138883429CBF5388984203D949
:101350009268002AF6D117E0B2B110885368ACEB5E
:101360000002012000EBC20094F81AC0185C10FBC8
:101370000CF0002904BF10BC704713F8322002FBA8
:101380000CF20A6010BC704710BC002070470000CF
:10139000800A0020012008807047C06968B1028877
:1013A0008A429CBF4288914203D980680028F6D1C6
:1013B00003E000281CBF0120704700207047000098
:1013C0002DE9F041114D0024A8680028C6BF002671
:1013D0000F4FBDE8F0812869782200EBC410001D92
:1013E0003968FEF753FF286900EBC41000F10C01C7
:1013F00006608161011D0A1DC0E90F124164A868E1
:10140000641C8442E7DBBDE8F0810000540B00203F
:10141000800A002070B50D490B480860084603F0AB
:1014200023FB0B4CA068C501284600F053FC2A465C
:101430000021206103F064FB4FF0FF302060BDE825
:10144000704002F085BD0000D1DA0008680B002072
:10145000540B002002490120096881F8710070478F
:10146000800A002010B50AF05FFF0448016A0448B2
:101470000068C16600F10801416110BDE809002063
:10148000800A00202DE9FF4F83B01C4615460E460A
:1014900001F084F807F044FA471907F04FFA00EB1F
:1014A0000409002007F06CFA002800F0E980701EA3
:1014B000764D02902868417C754850F821000190D3
:1014C0001221C068426A01A890475FEA000C08D068
:1014D0003B463246CDF8009003990198E04700F072
:1014E000C9B82968DDF80C8091F87120002A14BF72
:1014F0004FF0010A91F870A0B8F900C00298644654
:101500000028C4BF08F1040BA6F1010E0DDD00BFD9
:10151000BBF900008442C8BF04468445B8BF844676
:101520000BF1040BBEF1010EF2D1002A04BF0CEB4B
:101530000701E01908D091F870000CEB070292FB4C
:10154000F0F1E21992FBF0F000F0A4F800287CD151
:101550002A6892F8710000283CD1002E3ADDA8F1EB
:101560000401881C16F0010F0ED08B8892F87020B1
:1015700013FB02F221F8042F2B68828893F8703055
:1015800012FB03F220F8042F731018BF2A6821D031
:10159000B1F804C092F870401CFB04FCA1F804C030
:1015A000B0F804C092F870401CFB04FCA0F804C022
:1015B000B1F808C092F870401CFB04FC21F808CF79
:1015C000B0F808C092F870401CFB04FC20F808CF6B
:1015D0005B1EDDD109FB0AF307FB0AF231464046E8
:1015E000FFF7C4F92A6892F8710070BB002E3FDD46
:1015F000A8F10400811C16F0010F10D0B0F90430DE
:1016000092F8702093FBF2F220F8042F2B68B1F9C6
:10161000042093F8703092FBF3F221F8042F72103B
:1016200018BF2B6824D000BFB0F904C093F87040F5
:101630009CFBF4FCA0F804C0B1F904C093F870401E
:101640009CFBF4FCA1F804C000E011E0B0F908C074
:1016500093F87040521E9CFBF4FC20F808CFB1F9BF
:1016600008C093F870409CFBF4FC21F808CFDBD154
:10167000FFF7F8FE06F0B6FF00287FF41BAF00BFAF
:1016800002F048FC07B0BDE8F08F0000800A00209F
:10169000980A00202DE9F0412C4C05460E462068A2
:1016A000002778B903F082FFE06100F013FB2060AF
:1016B000002808BF012705D02649254808600846AC
:1016C00003F0D2F9002DB8BF0025711BE069421E5E
:1016D0009142C4BF2844461EAE42BCBF2E460127DD
:1016E000DFF87480D8F80000C16E4A68A2632162F6
:1016F0001B491A4A0A60C1662068E660C4E9010510
:10170000711B4A1C002103F0FBF91648810CC4E947
:101710000401A061D8F80000028990F8701012FB53
:1017200001F3114A1380438913FB01F3538083892A
:101730005B1C4B435B1E9380C3895B1C5943491E52
:10174000D18042613846BDE8F0810000E809002000
:1017500021DA00080C0A0020800A0020FDB60008EB
:101760001C0A002001C0FFFF140A0020C1B20C486F
:10177000006880F87010028912FB01F3094A138097
:10178000438913FB01F3538083895B1C4B435B1E2E
:101790009380C089401C4843401ED08070470000A1
:1017A000800A0020140A00202DE9F04FDFF864C2FF
:1017B00091B0DCF800C0DDE91A789CF8104014F014
:1017C000030476D0DFF850C2012C06D0022C6FD073
:1017D000032C1CBF11B0BDE8F08F04461092CDE978
:1017E00006810D970993DCF800000E900020DFF8C9
:1017F0002C820390002BCEBF0EAE11B0BDE8F08F4F
:101800000027DDE906900399109D08440090042DFF
:101810002DDB00BF19F801BB07EB040A06EB9B1098
:10182000009902785046C0474FEA8B604FEA106B30
:1018300006EB9B10009902780AF10100C0474FEABD
:101840008B604FEA106B06EB9B10009902780AF14F
:101850000200C0474FEA8B6006EB90700099027857
:101860000AF10300C0472D1F3F1D042DD2DA002DC1
:101870001CBF99F800906D1E0CD006EB9911381919
:101880000A787F1C0099C0474FEA89604FEA1069C7
:101890006D1EF2D20D990698084406900398099996
:1018A000401C03908842ABDB11B0BDE8F08F00E034
:1018B0004AE0CDE90010DCF8380016461D46D0F8A5
:1018C00000B0DCF83C00D0F800A055480068504556
:1018D00003D153484068584523D0584603F05AFF77
:1018E0000390504603F056FFDFF8389102900398BA
:1018F0000124C9F8000000BF04EB8400C2B2DDE996
:10190000020103F017FA49F82400641C032CF3DBEE
:101910000298C9F80C00444803F014FF4048C0E99D
:1019200000AB42484049068045808780C0F8088067
:101930003F480078087101F10C00DDE9002111B089
:10194000BDE8F04FFEF7C0BFCDE906810F93CDE9AA
:1019500009720446DCF800000C900020DFF8D48007
:101960000390002BC8BF0CAE9EDDDDE90690039905
:101970000A9D002708440090042D2CDB19F801BBB8
:1019800007EB040A06EB9B10009902785046C0470B
:101990004FEA8B604FEA106B06EB9B1000990278C0
:1019A0000AF10100C0474FEA8B604FEA106B06EB6B
:1019B0009B10009902780AF10200C0474FEA8B6041
:1019C00006EB9070009902780AF10300C0472D1FC2
:1019D0003F1D042DD2DA002D1CBF99F800906D1E1A
:1019E0000DD006EB99103B1902787F1C1846009920
:1019F000C0474FEA89604FEA10696D1EF1D209991C
:101A000006980844069003980F99401C039088425A
:101A1000ABDB49E7800A0020F09705084D5E00081F
:101A2000000B002028F50020080B0020140B0020DC
:101A3000B00A0020955D00082DE9F04FDFF8B0C135
:101A40008FB0DCF800C0DDE918789CF8104014F085
:101A5000030444D0012C06D0022C7DD0032C1CBFE3
:101A60000FB0BDE8F08F0446CDE90683CDE90A1238
:101A7000DFF8808109974FF0000A002BDCBF0FB020
:101A8000BDE8F08F0027DDE90A055044069E00906E
:101A9000022D12DB16F8019B07EB040B4FEA19121B
:101AA00058460099C04709F00F020BF10100009958
:101AB000C047AD1EBF1C022DECDA25B1307800996D
:101AC00002093819C047099906980AF1010A084421
:101AD000069007988245D5DB0FB0BDE8F08FCDE9C1
:101AE0000210DCF8380016461D46D0F800B0DCF8CD
:101AF0003C00D0F800A040480068504503D13E4863
:101B00004068584520D0584603F044FE01905046A6
:101B100003F040FEDFF8E490009001980124C9F83A
:101B20000000DDE90001E2B203F004F949F8240005
:101B3000641C0F2CF5DB0098C9F83C00304803F01A
:101B400001FE2D48C0E900AB2E4806804580878005
:101B5000C0F808802C4800E00BE0294900780871A3
:101B600001F10C00DDE902210FB0BDE8F04FFEF7F6
:101B7000ABBECDF81080CDE90A12DFF890800446A4
:101B8000099707934FF0000A002BDCBF0FB0BDE8A8
:101B9000F08F0027DDE90A055044049E0090022DD5
:101BA00013DB00BF16F8019B07EB040B4FEA191279
:101BB00058460099C04709F00F020BF10100009947
:101BC000C047AD1EBF1C022DECDA25B1307800995C
:101BD00002093819C047099904980AF1010A084412
:101BE000049007988245D4DB0FB0BDE8F08F000069
:101BF000800A00204D5E0008280B002038F50020E8
:101C0000300B00203C0B0020B00A0020955D00083E
:101C1000002808BF704710B5044600F0BFFC2046FE
:101C200007F0ACFA044602F075F9204610BD38B54D
:101C3000054600F0B3FC2846FFF7EAFF040009D090
:101C400000F0A2F82A460021009002F059FF6846F1
:101C500000F0F2F802F05EF9204638BD024A10604A
:101C600021F0030050607047A4F40020002808BF52
:101C7000704770B5054600F091FC0E4C206B10F8D3
:101C8000351091B1022910D2042101EBC50681590A
:101C9000486807F025FA6068401C6060206B216A84
:101CA0008151002100F835102562BDE8704002F036
:101CB00031B90000E8F30020002808BF7047044A4B
:101CC000916B0160002918BF486090637047000065
:101CD000E8F300202DE9F04104460BF039F9E01C4F
:101CE000284E20F00300051DF06BA84288BF054672
:101CF0000022B46BC4B100BF54F8041CA94210D137
:101D00009CB1206800281CBF6168416060680028A1
:101D10001CBF21680160B16BA14204BF2068B063A1
:101D20002CE02468002CE7D11446B168706B00EBFE
:101D3000010858F8040CA8EB0007386840B10020EF
:101D40000BF0E6FF58F8040CA8EB00073868A8B9B8
:101D50007868A84212DB3844401B041D38460BF05B
:101D6000ADFFB0683946401BB0603069284430612F
:101D70007868401B07F0B4F944F8045C2046BDE8DD
:101D8000F0810000E8F3002009498A69521C8A6149
:101D90000A6B02EBC00213785B1C1370002808BFAB
:101DA0007047096B042202EBC000085808307047E6
:101DB000E8F3002010B500F0F1FB00240BF0C8F8A8
:101DC0001B4B1C490F2000BF01EBC002126C0AB371
:101DD00001EBC000006C8068002808BFA4F10C0073
:101DE0000FD04268A24288BF1446806800281CBFFA
:101DF00080680028F5D100BFA4F10C00B0F5800F79
:101E00000DD983FB00204211C969A2EBE07000FBF1
:101E100001F409E0401EB0F1FF3FD5DCECE7C969F1
:101E20004843A3FB0010440902F074F8204610BD9B
:101E30001F85EB51E8F300200A4902680B6B52F84A
:101E4000082C03EBC2021378022B04D38B69002BFE
:101E50001CBF5B1E8B611178491E1170002101604F
:101E600008467047E8F30020002808BF704704497F
:101E7000042202EBC000096B0858083070470000CC
:101E8000E8F30020C2B2CBB2D21A002ABCBF524241
:101E900012B292B202FB02F3C0F30722C1F3072C85
:101EA000A2EB0C02002ABCBF524212B292B2000C4A
:101EB000A0EB114002FB023200B20028BCBF40423E
:101EC00000B280B200FB0020704700002DE9F04115
:101ED000002182B0084600F0D3FA00F05FFB042036
:101EE00003F020FF80461548C068C16C006DA1F664
:101EF000FF76A0F6FF7501F6FF7400F6FF77ADF8E8
:101F00000060ADF80440ADF80250ADF806706846C8
:101F100006F036FD48B13B4622462946304603F0DE
:101F200019FA06F05FFB0028F5D1404603F0FAFEEF
:101F300001F0F0FF02B0BDE8F0810000740A00205B
:101F40002DE9F04182B01C4617460D46064600F0CA
:101F500025FB042003F0E6FE80461348C168C86CE8
:101F6000096D064407440D440C44ADF80060ADF81B
:101F70000470ADF80250ADF80640684606F000FD6A
:101F800048B123463A462946304603F0E3F906F0C5
:101F900029FB0028F5D1404603F0C4FE01F0BAFF4A
:101FA00002B0BDE8F0810000740A0020022BA4BF3B
:101FB000002070472DE9F04106461C4615460F46A5
:101FC0001C20FFF787FE002808BFBDE8F081002F26
:101FD00018BF07610BD10A4A52F8241039B10A68B8
:101FE0001AB111461268002AFBD1096901618461A6
:101FF0008582002101604160C0E90216BDE8F081E0
:10200000980A00202DE9F04100241D460746884625
:102010001646022B1FDA1C20FFF75CFED8B1B8F180
:10202000000F18BFC0F810800BD1104A52F82510CD
:1020300039B10A681AB111461268002AFBD1096940
:1020400001618561868204604460C0E90247040042
:1020500018BF00F011F8E068006820B90448006873
:1020600000EB850084652046BDE8F081980A0020D9
:10207000800A0020FFF720BE10B18269022A01DB2E
:102080000120704710B4234C54F82210002908BFD7
:1020900044F8220036D04B6823B119465B68002B08
:1020A000FBD191B3C3681B68D1F80CC0DCF800C049
:1020B0009C4503DD09680029F6D127E029B3D1F852
:1020C0000CC0DCF800C09C4504BFB0F814C0BCF1E3
:1020D000010F0DD1D1F800C0BCF1000F07D061464F
:1020E000DCF80CC0DCF800C09C45F3DA00E061B11C
:1020F0004B68002B1DBF18604A68426044F82200FC
:102100004860016010BC00207047FFE710BC012050
:1021100070470000980A0020002808BF704730B4BC
:10212000204C00BFD0F800C0002835D08569022DB2
:1021300032DA54F82510002908BF44F825002BD0C6
:102140004A6822B111465268002AFBD121B3C26805
:102150001268CB681B68934203DD09680029F8D137
:102160001AE0C9B1CB681B68934204BF838A012B74
:1021700008D10B682BB11946DB681B689342F8DA6B
:1021800000E049B14A68002A1DBF10604A684260F9
:1021900044F82500486001605FEA0C00C2D130BC01
:1021A00070470000980A00200B4A816952F82130DC
:1021B000834204BF036842F82130416800291CBFF4
:1021C00002680A60016800291CBF42684A60002159
:1021D0000160416070470000980A002070B4002040
:1021E000144DDFF854C002464FEA00045CF8221098
:1021F000D9B1CB681B68EB5CA3B18B695CF8236039
:102200008E4204BF0E684CF823604B68002B1CBF45
:102210000E681E600B68002B1CBF4E685E60C1E933
:102220000004084609680029E3D1521C022ADDDBBC
:1022300070BC704784970508980A00200228A4BF44
:1022400000207047064951F82000002808BF704759
:10225000C168096800291CBF00680028F8D17047D0
:10226000980A00202DE9F04F89B015460E46044625
:1022700000F094F9364F3868C16C006D0E44054487
:10228000ADF818602088ADF81A503044401EADF803
:102290001C0060882844401EADF81E0006A806F009
:1022A0006FFB00281CBFDFF8ACB04FF0010A42D032
:1022B0000020D4F80C9001F0B5FB8046B9F1000F76
:1022C0001BBF99F80400002828F0020048F0020023
:1022D00001F0A8FB206970B1D4E902120091CDE9A8
:1022E000012ACDF80CA0D0F800C0638822882946C6
:1022F0003046E04718E03868DBF800302146427C81
:10230000E0689847E0B1A288E388A168CDF800A012
:10231000CDE90410CDE90232CDF804A0638822880B
:102320002946304602F074FE404601F07BFB06F081
:1023300059F90028BCD101F0EDFD09B0BDE8F08FDE
:10234000E088012812BF00203868806BDBE70000BE
:10235000800A0020780A002070B5094E002500246C
:10236000306818B18047002818BF012405F0C8FC68
:1023700000280CBF002C0125F1D1284670BD0000BB
:10238000A00A0020034951F82000C1688A6A082188
:1023900010470000980A002010B500F0FFF803F085
:1023A0001BF803F0F7F9044601F0B4FD204610BD18
:1023B00070B50C46054600F0F1F8064A214628465D
:1023C0001268D26952689047044601F0A3FD204686
:1023D00070BD0000800A002010B500F0DFF803F0A7
:1023E00003F803F0D7F9044601F094FD204610BD30
:1023F00010B500F0D3F803480068047C01F08AFDB2
:10240000204610BD800A002070B514460D460646D1
:1024100000F0C4F822462946304603F093F810B184
:10242000002028602060BDE8704001F073BD00000E
:1024300070B50C46054600F0B1F80648B0F900004A
:1024400028600548B0F900002060BDE8704001F048
:1024500061BD0000AC0A0020AE0A002001F073BD8F
:10246000024951F82000006900687047980A00206E
:10247000024951F82000006940687047980A00201E
:1024800070B50C46054600F089F8044801684D8493
:1024900000258C8401F03EFD284670BD800A002096
:1024A00070B53348016821F001010160314801260F
:1024B00086603149016000683049884200D0FEE7FB
:1024C0002F480068C0F30B00A0F58061193900D0D7
:1024D000FEE72C4DA86958B9AE6101F025FD03F067
:1024E00061FD05F11C00284901606969416068616E
:1024F0002E20287001F02BFDE868244C011DC0E956
:102500000E01091D00646161417C214850F82100E1
:10251000C1680A6B04F1080190471E48E066A8688C
:10252000E061E86808306061267605F0EDFCA064A3
:10253000032084F870006FF0704020636063002017
:1025400003F08EFB6FF07F4003F0C4FB124828615C
:10255000FEF760FF0CF016F804460021084601F073
:10256000A3FA05F0F7FCFEF72BFF204670BD000034
:10257000002000E000300240C2A507F4CDB5E8B568
:10258000002004E0740A002091DA0008B0F4002072
:10259000980A00207C970508E89C050870B5204C37
:1025A000E06820B101F0CBFC6168884204D001F002
:1025B000EBFC01F0C4FC6060E068401CE0600128B6
:1025C00018BF70BD0025A06800280CDD01F0B7FC25
:1025D000216901EBC5110968814205D0D9B1A06814
:1025E0006D1CA842F2DC00252068854208BF70BD42
:1025F00000280EDBFFF7F2FD2268216901EBC21211
:10260000D067084A01EBC510011D1160C06FFFF7CC
:1026100083FD256070BD216901EBC5110860E3E70A
:10262000540B0020800A0020002808BF704738B5EE
:102630000446FFF7B3FF2046FFF7A6FB40F6FF7105
:1026400000908180C1804942018141816846FFF745
:10265000F3FB01F05FFC38BD30B51D4883B00022AC
:102660000068437C1B4850F8230001691A48FFF7B3
:102670009DFC050004BF03B030BD1820FFF7D7FA5A
:1026800004001FD0FFF78AFF2046AC60FFF77CFBF9
:1026900000900560FFF782FF2046FFF775FB40F6CC
:1026A000FF7101908180C18049420181418101A86F
:1026B000FFF7C2FB01F02EFC6846FFF7BDFB01F0FF
:1026C00029FC02E02846FFF7D5FC03B0204630BDC8
:1026D000800A0020980A00209CA5050838B5044609
:1026E0000E480068006EA04208BF01F05FF9FFF7D6
:1026F00055FF2046FFF748FB009005686846FFF746
:102700009BFB2046FFF7B2FA2846FFF74DFD28460F
:10271000FFF7B0FC01F0FEFB38BD0000800A00208E
:10272000002808BF704738B50C460546FFF736FF4E
:1027300074B12846FFF728FB009081882180C1886A
:1027400061800189A1804089E0806846FFF774FBC1
:1027500001F0E0FB38BD000038B5040018D005F0EA
:10276000CFF90D4D28680466FFF718FF2046FFF7E4
:102770000BFB00900068FFF77FFC29680020486190
:102780006846FFF759FB01F0C5FB03F095FA38BD29
:1027900001F00CF938BD0000800A002010B582B0AD
:1027A000040006D10F480068046E002C04BF02B07C
:1027B00010BDFFF7F3FE2046FFF7E6FA00904469EC
:1027C0006846FFF739FB4CB12046FFF7DDFA019070
:1027D00081688968884701A8FFF72EFB01F09AFB02
:1027E00002B010BD800A002001490A4600F002B87C
:1027F00001F0FFFF002808BF70472DE9F04784B0C3
:1028000015460C468146FFF7C9FE002001F00AF983
:10281000354E80463068076E4846FFF7B5FA02909D
:102820000068806901F0D0F8824640F6FF70001918
:1028300004D10298B0F90440B0F906500298ADF8FE
:1028400000400189ADF802502144491EADF8041042
:1028500040892844401EADF8060005F059F802A84A
:10286000FFF7EAFA684606F08BF840B12A4621469F
:10287000484600F0D3FB05F0B5FE0028F6D15046DF
:1028800001F0A2F83C46FFF789FE3068006EF4B113
:10289000002818BF01F08AF805F032F92046FFF74A
:1028A00073FA014603903068026E002A04BFD0E933
:1028B0000223C0E9192304660868FFF7DDFB03A8BB
:1028C000FFF7BAFA03F05CFB03F0F6F901E001F060
:1028D0006DF801F01FFB404601F0A4F801F01AFB6F
:1028E00004B0BDE8F0870000800A002001210174D7
:1028F000002070472DE9F04F83B01F46904689466F
:1029000082464FF0000B0C9EFFF748FE1848006807
:10291000417C184850F82140E0680068042803D042
:102920002468002CF8D100E01CB90846FFF786FCAB
:1029300004460121E068C26A20469047050011D094
:102940002469A0688047401C04BF0B4C46F0010678
:102950003B460096CDE9015442464946504600F0B8
:1029600033FA834601F0D6FA03B05846BDE8F08F3B
:10297000800A0020980A0020D8A50508002808BF72
:10298000704738B50446FFF709FE0E480068006E30
:10299000A04208BF01F00AF82046FFF7F5F90090C1
:1029A0004069002818BF01F09EFA00980068FFF700
:1029B00061FB6846FFF740FA2046FFF757F901F040
:1029C000A9FA38BD800A00202DE9FF4F83B0DFF857
:1029D0003091DDF840B09A460F4606002ED002A98D
:1029E00001A8FFF725FDB6F90050002DB8BF00255E
:1029F000B6F90240002CB8BF0024B6F90480D9F81B
:102A00000000407C02F0C3FD01990844401E80454F
:102A1000C8BF8046B6F90660D9F80000407C02F0D5
:102A2000DEFD02990844401E8642C8BF0646A8EB58
:102A3000050000F10108301B461C0DE0D9F800002C
:102A400000252C46407C02F0A2FD8046D9F800000B
:102A5000407C02F0C4FD0646BAF1000F08BFC6F183
:102A6000000AB8F1000FCFBF002E002007B0BDE86C
:102A7000F08F5346424621462846CDF800B0FFF776
:102A800039FF5FEA000A34D000F0C4F881465046AE
:102A900000F002F9DFF86CB04FF00008A6EB080177
:102AA0004945BCBF504600F0D9F8B8F1000F08D036
:102AB00004EB08022946504600F01CF95046FFF787
:102AC0006DFE0598B847DBF8001000291CBF0020F8
:102AD00088475046FFF788FEC844B045DEDB5046C5
:102AE000FFF74CFF002000F0D7F807B00020BDE84A
:102AF000F08F0598B84707B00120BDE8F08F0000BF
:102B0000800A0020740B00202DE9FF4F81B016468B
:102B10000D460446FFF7A0FD0090002846D0FFF7C1
:102B20001BFE4FF0010885F80180207CA0B185F8DC
:102B300000800498B04721460098FFF7F1FD009807
:102B4000FFF772FD002028700498B04704F10801D7
:102B50000098FFF7E5FD19E00498B047214600987A
:102B6000FFF7DEFD2146B4F800B0B4F804A0B4F8D5
:102B70000290E78804F10802084600F019FEA4F864
:102B800008B0A4F80CA0A4F80A90E7810098FFF719
:102B9000A5FD00276F7085F800803B46CDF80080CA
:102BA00031462046049AFFF70FFF18B105B0012007
:102BB000BDE8F08F2F70277405B00020BDE8F08FBE
:102BC00038B505004FF0000411D0FFF7E7FC2846A8
:102BD000FFF7DAF80090006800698068804703F02A
:102BE00035FC04466846FFF727F901F093F92046C3
:102BF00038BD38B50446FFF7D1FC2046FFF7C4F8CE
:102C000000F1180400906846FFF716F901F082F908
:102C1000204638BD38B504460025FFF7BFFC1CB977
:102C200008480068046E44B12046FFF7ADF80090F4
:102C3000B0F90A506846FFF7FFF801F06BF9284633
:102C400038BD0000800A002010B506F009FF0028FA
:102C500008BF10BDBDE8104000F084B838B50C4680
:102C6000050005D10B480068056E002D08BF38BD72
:102C7000FFF794FC2846FFF787F80090B0F90A1098
:102C8000A142B8BF0C4644816846FFF7D5F801F071
:102C900041F938BD800A0020F8B50446FFF77EFCF4
:102CA000134E3068056EECB1002D18BF00F07EFEAB
:102CB00004F026FF2046FFF767F8009031680A6E9F
:102CC000002A04BFD1E90223C1E919230C66006878
:102CD000FFF7D2F96846FFF7AFF803F051F902F0B9
:102CE000EBFF01E000F062FE01F014F92846F8BDA8
:102CF000800A002070B582B015460E46040006D149
:102D000017480068046E002C04BF02B070BDFFF7C6
:102D100045FC2046FFF738F82DB20090C58034B24C
:102D2000848002F0C9FF0098406988B1FFF72CF851
:102D3000009A0190B2F908108180B2F90A20C2808D
:102D400000291EBF002A0480458001A8FFF774F8FF
:102D50006846FFF771F801F0DDF802B070BD0000C1
:102D6000800A002070B584B0060004BF04B070BDB6
:102D7000FFF714FC3046FFF707F80290B0F9045053
:102D8000B0F90640ADF800500189ADF80240294481
:102D9000491EADF8041040892044401EADF80600DD
:102DA00002A8FFF749F8684605F0EAFD40B122465F
:102DB0002946304600F018F905F014FC0028F6D139
:102DC00001F0A8F804B070BD2DE9FF4FDFF8F4B0B2
:102DD00083B01C46DBF80000DDE9107C924600263B
:102DE000437C324660461299FFF7E0F8050065D053
:102DF00028698068804703F029FB81460AFB09F0B7
:102E0000C01D4FEAD008FEF7D5FF17F0010F05D11E
:102E1000C11700EB9170801000EB4000002C06DC25
:102E20001838B0FBF8F06442A042D8BF044617F04F
:102E3000010F08D100200090DDE90301234652462E
:102E400000F0BCFF0646002C06DC2846FFF712F90E
:102E500007B00020BDE8F08F04FB08F0183017F031
:102E6000010F02D0FEF7D4FE01E0FEF7E0FE0700FE
:102E70001CD0FEF789FF01900560039981800499B9
:102E8000C180A0F808A04481C0F80C80C0E9049675
:102E900001A8FEF7D1FF1298AF602861DBF80000AF
:102EA000407CA86107B03846BDE8F08F2846FFF7A0
:102EB000E1F8002E1CBF3046FEF7D8FE002007B018
:102EC000BDE8F08F800A00202DE9F74F8CB0154641
:102ED0000C98FEF759FF0990B0F90840B0F90A10B4
:102EE000089100680069D0F8049009A8FEF7A4FFD3
:102EF0003A4E3B4F3068407C57F82000C1688A6AE0
:102F0000082190470790182824BF20200790306898
:102F1000407C57F8200000690690D0E900613148F4
:102F2000814214BF012000200A90002001F048F8DF
:102F300000280EBF00270FB0BDE8F08FB846DDE9CE
:102F40000C0B7F1C0DF12C0AFFF753FE04FB08F15C
:102F500000EB8102CDE9009A23462946584601F04C
:102F60001DFA5FEA000B04BF0FB0BDE8F08F0A98AE
:102F7000E0B1DDE906322146584601F00DF9A8B965
:102F80000698A246D846D0F810C0BCF1000F05D074
:102F90005946042322460846E04707E0D8F80000D7
:102FA000B04748F8040BBAF1010AF7D1002007999D
:102FB000CDE90210CDE904B0012000902946034676
:102FC00001906D1C22460D9802F022F80898401ED0
:102FD0000890B3D10FB0BDE8F08F0000800A002048
:102FE000980A002023580008F8B515460E460746F3
:102FF000FEF7CAFE009000681621C068436A0020F0
:10300000984704466846FEF717FF002C08BFF8BD36
:103010002A4631463846A047F8BD00002DE9F04F5A
:10302000A1B092460F460646FEF7AEFE1890D0F8C5
:1030300014B018A8FEF700FF3046FFF7C1FDFE4DA3
:103040004FF000094FF00108082803DDBBF1000F25
:1030500000F0F981F949CDF834A0D1E90001CDE9BA
:103060001A013046FEF790FE0F904469C16817912F
:1030700001691291B0F908100C91B0F90A000B9097
:103080002868407CFFF77EF91D900F980068006962
:10309000406815902868407CFFF7EAF983460FA83E
:1030A000FEF7CAFE129908299CBF0120119004D98D
:1030B000102994BF02200420119001290CBF0DF1AA
:1030C000680A4FF0000A1D98082828BF082940F216
:1030D00001811598584500F0FD802868407CFFF775
:1030E000BFF91E900C988000FEF792FD1C900028FE
:1030F00004BF21B0BDE8F08F3046FFF77AFD07909E
:10310000002C00F0D1802046FEF73EFE19900020F2
:103110000A900B9800287DDD19984FF0000BCDF830
:1031200024B081680A9A4B6909A998470C9904460A
:10313000884235D11C98FEF727FE169005461D984B
:10314000079EDDF85490DDF8788002940390049592
:1031500036F8020BC847C04745F8040B641EF7D188
:103160000398202804D202460299049800F04AFFEE
:103170001D981699CDE9020B01200090CDE9041AA3
:1031800001900A990D980123014438460C9A01F0E8
:103190003FFF16A8FEF750FE07991798084450E025
:1031A0001298012859D0002C48D00A990D9808444B
:1031B00013901C98FEF7E8FD16900546099A1199A0
:1031C0000798DDF8789002FB01061D980190DDF864
:1031D00054B0A046CDF8105036F8020BD847C84777
:1031E00045F8040BB8F10108F6D10198202804D263
:1031F00002462146049800F005FF00201D99169A0A
:10320000CDE9021001200090CDE9042A019009982F
:10321000384400E01DE001232246139901F0F8FE36
:1032200016A8FEF709FE09980A9A204409901998F1
:1032300081684B6909A998470400BAD11799079882
:10324000084407900A980B99401C0A908842FFF6A0
:1032500063AF19A8FEF7F0FD36E0002CEED00A9916
:103260000D98012546180998079900F0070201EB0F
:10327000E0031799CDE90313CDE905A21299009552
:10328000CDE90151384401232246314602F0E0FFE6
:1032900009980A9A20440990199881684B6909A9EC
:1032A00098470400DFD1C9E7CDF814A0129A179906
:1032B000CDF80080CDE90310CDE90182DDE90C21D4
:1032C00038460B9B01F0A4FE1C98FEF7CFFC21B002
:1032D000BDE8F08F3046FFF78CFC0546002C72D01D
:1032E0002046FEF751FD19900B980026002864DD5A
:1032F0001998CDF82490324681684B6909A99847FE
:103300000C99044688422AD11998B346721C8168E8
:103310004B6909A99847A04208D11998761C721CDC
:1033200081684B6909A99847A042F6D0179812996D
:10333000CDE90210CDF800800D98CDE9045AA6EB36
:103340000B0400EB0B01631CCDF8048038460C9A8B
:1033500001F05EFE1798611C01FB005529E01298F0
:10336000012831D0002C1CBF0D9800EB060B1ED09D
:1033700011990998129B00FB01521799CDF8008012
:10338000CDE90231CDE9042A3844CDF80480012387
:103390002246594601F03CFE0998324620440990E5
:1033A000199881684B6909A998470400E0D11798DA
:1033B00005440B98761C86429ADB19A8FEF73CFD63
:1033C00021B0BDE8F08F26E0002C1CBF0D9800EB6B
:1033D000060BECD00998179B00F00701CDE905A179
:1033E00005EBE002CDE903321299CDF80080CDE97A
:1033F0000181384401232246594602F029FF0998E9
:10340000324620440990199881684B6909A9984768
:103410000400DFD1CBE717981299CDE90210CDF85F
:103420000080CDE9045ADDE90C21CDF8048038464E
:103430000B9B01F0EDFD03E0800A0020D0A50508FC
:1034400021B0BDE8F08F039604460C9756460398CA
:10345000FEF79AFC0890B0F90AA0C1681830CDE9CF
:1034600001012868407CFEF78DFF082898BF0127DE
:1034700003D9102894BF02270427089801680A6915
:1034800011922968BC4A497C52F82110119A0969A5
:103490000A91D2F804B00D688A4212D1DDE9011216
:1034A000CDF81490CDF80080CDE90321CDE9018459
:1034B000B0F90820534631460C9801F0A9FD00F000
:1034C00053B9202C03D0102C7ED000F04DB9B0F9A8
:1034D000084008A8FEF7B0FC07FB04F0FEF798FBD5
:1034E0001490002800F04081FEF74EFC12900398E3
:1034F000FEF74AFC00F118044FEAC70B0890089841
:10350000012FB0F9088004D0022F1BD0042F4AD11C
:1035100031E00A98DDF84890D0F810C0BCF1000FF7
:1035200007D00123424649462046E04704EB880481
:1035300039E054F8040BA84709F8010BB8F1010869
:10354000F7D130E00A98DDF84890D0F810C0BCF10F
:10355000000F07D00223424649462046E04704EBCD
:10356000880420E054F8040BA84729F8020BB8F1AE
:103570000108F7D117E00A98DDF84890D0F810C09C
:10358000BCF1000F07D00423424649462046E047DD
:1035900004EB880407E054F8040BA84749F8040B2F
:1035A000B8F10108F7D112990020CDE90301059087
:1035B00001200090CDE9010B08983146761CB0F946
:1035C000082001230C9800E005E001F021FDBAF18C
:1035D000010A94D1C2E0B0F9084008A8FEF72CFC1B
:1035E00007FB04F0FEF714FB149000287ED0FEF7D2
:1035F000CBFB12900398FEF7C7FB00F1180408906C
:10360000B0F908008000FEF703FB159010B1FEF73B
:10361000BBFB0790F80016900898012FB0F90880BE
:1036200004D0022F2AD0042F79D14FE00A98DDF878
:1036300048900069C0B11198D0F814C0BCF1000FD7
:103640001CBF159800280FD0022342462046079938
:10365000E0470A9801234246D0F810C0494607982F
:10366000E04704EB48045AE034F8020BD847A84777
:1036700009F8010BB8F10108F6D150E00A98DDF81D
:1036800048900069C0B11198D0F814C0BCF1000F87
:103690001CBF159800280FD00223424620460799E8
:1036A000E0470A9802234246D0F810C049460798DE
:1036B000E04704EB480432E034F8020BD847A8474F
:1036C00029F8020BB8F10108F6D128E00A98DDF8D4
:1036D00048900069D0B11198D0F814C0BCF1000F27
:1036E0001CBF1598002811D0022300E03CE04246A0
:1036F00020460799E0470A9804234246D0F810C0B4
:1037000049460798E04704EB480408E034F8020B08
:10371000D847A84749F8040BB8F10108F6D10020B2
:10372000129A1699CDE90210CDE9042001200090EB
:10373000019008983146761CB0F9082001230C98B6
:1037400001F066FCBAF1010A7FF466AF159828B162
:1037500007A8FEF771FB1598FEF788FA12A8FEF786
:103760006BFB1498FEF782FA0898002818BF08A887
:103770007FF424AE5FE60000980A0020094A126830
:10378000002A18BF0020084A52F82030002BB8BF8A
:103790007047064B43F820104FF0FF3142F82010DD
:1037A00070470000B80A0020D40A0020BC0A00209C
:1037B000002808BF704709B32AB3B1F900C0B2F9B5
:1037C00000309C45B8BF63460380B1F902C0B2F92E
:1037D00002309C45B8BF63464380B1F904C0B2F9DA
:1037E00004309C45C8BF63468380B1F90610B2F926
:1037F00006209142D8BF1146C180704711685268B7
:103800000160426070470A68496802604160704721
:10381000002808BF704703880B440380838819443D
:103820008180418811444180C1881144C180704722
:1038300010B50024FEF7B2FE0A4BD3E90020824205
:103840000BD0DFF824C0D2E9000162450CBF074A63
:1038500008321A6004F0A4FC012400F05BFB20464F
:1038600010BD0000D80B0020F8F50020A8F50020BE
:1038700070B51A4C82B02468DDE9066CB4F90850C2
:103880008542C8BF2846B4F90C509542B8BF2A46B5
:103890008242BCBF02B070BDB4F90A508D42C8BFAD
:1038A0002946B4F90E409C42B8BF23468B42BCBFA8
:1038B00002B070BDDCF80C402468002C18BF042C4A
:1038C00005D0DCF80040002C18BFA446F2D1CDE9A9
:1038D000006C02F0BFF802B070BD0000800A00204A
:1038E000B0F90220B1F906309A4213DCB1F9022096
:1038F000B0F906309A420DDCB0F90020B1F904307D
:103900009A4207DCB1F90010B0F904008842A4BF64
:103910000120704700207047014602487822006865
:10392000FCF7B4BC800A0020DFED1A0A2DE9F04153
:1039300020EE200ADFED180A0446164680EE201A13
:103940000D46BDEEC10A10EE108A404600F0DEFCC6
:103950000746404601F090F8002EC6BFAB1CA11CE4
:10396000BDE8F08135F9042B33F904CB02FB07F8ED
:103970000CFB00880CFB07FC02FB10C24FEA284836
:10398000121424F8048B21F8042B761EEAD1BDE82A
:10399000F081000000C82F48DA0F49400249782220
:1039A0000968FCF773BC0000800A002010B5FEF720
:1039B000F5FD02F033F902F0E3FA03F0A9FFBDE8E8
:1039C000104000F0A7BA000070B5094D0446286801
:1039D000467CFEF7E3FD022C03D228684474FFF70F
:1039E000E5FF0448046000F095FA304670BD000021
:1039F000800A0020800B002010B50446FEF7CEFDA3
:103A0000204602F02DF9BDE8104000F083BA10B551
:103A10000446FEF7C3FD204602F05CF9BDE8104005
:103A200000F078BA10B50446FEF7B8FD204602F063
:103A300079F9044600F06EFA204610BD70B50446D0
:103A4000FEF7ACFD0448002C0068C56918BFC461CE
:103A500000F060FA284670BD800A00200149C86164
:103A600070470000440A0020014948607047000088
:103A7000740A00200149086070470000440A0020D1
:103A80000149486070470000440A002070B50446B0
:103A9000FEF784FD03480068857E847600F03AFADC
:103AA000284670BD800A002070B50C460546FEF71A
:103AB00075FD0948224605800848048008480068CA
:103AC000417C084850F82100C1680B6A2946984794
:103AD000BDE8704000F01EBAAC0A0020AE0A00201B
:103AE000800A0020980A002070B50446FEF756FDB3
:103AF00003480068057E047600F00CFA284670BD85
:103B0000800A002070B50446FEF748FD04480068AE
:103B1000B0F92C50848500F0FDF9284670BD0000F6
:103B2000800A002070B50446FEF738FD044800689E
:103B3000B0F92A50448500F0EDF9284670BD000028
:103B4000800A002002480068002808BF704700472C
:103B5000E40B002003498A68002A08BF8860FFF749
:103B6000F1BF0000D80B0020002808BF704770B5D7
:103B700084B00446FEF712FD294E3068A04218BFFB
:103B8000054606D1FEF700F900908068306068466F
:103B900010E02846FEF7F8F801908068A04219D19D
:103BA000FEF7F2F801990090806888606846FEF799
:103BB00043F901A8FEF740F94CB32046FEF7E4F8BC
:103BC00000907568A5420AD1406870606846FEF7AB
:103BD00033F91CE0054601A8FEF72EF9D9E79DB19F
:103BE0002846FEF7D1F801904568A54207D1009814
:103BF00001994068486001A8FEF71EF904E001A899
:103C0000FEF71AF9002DEBD16846FEF715F92046AC
:103C1000FEF72CF804B0BDE8704000F07BB900005E
:103C2000180C002038B50C46050008BF01240FD041
:103C3000FEF7B4FC2846FEF7A7F8009080892042E2
:103C400014BF012400246846FEF7F6F800F062F97C
:103C5000204638BD38B50446002020600648056877
:103C600045B12846FEF790F800900069206068464C
:103C7000FEF7E2F8284638BD180C002038B50400DD
:103C80004FF000000D46086011D02046FEF77CF88A
:103C90000090846844B16846FEF7CEF82046FEF7EF
:103CA00073F80090006928606846FEF7C5F8204662
:103CB00038BD00002DE9F041084E04460568306823
:103CC0000168284688470746306841682846884783
:103CD000284420603846BDE8F0810000840A0020B6
:103CE0002DE9F0411F46069D1446884606462246A9
:103CF000B068641C3B46D0F804C041463046E047FB
:103D00006D1EF4D1BDE8F08170B5B0F900C0A1EB33
:103D10000C01B0F904C08C45D8BF70BD00F1140C83
:103D2000B0F902400069121B02FB00C000EBE10485
:103D3000C818421ED010B0EBE1004FF0FF0302F0B4
:103D40000702C2F1070201F0070103FA02F223FAA7
:103D500001F1D5B210D02278461E114304F8011BA0
:103D6000002E05DDFF2231462046FCF7AFFA344431
:103D700020782843207070BD207829400843F9E757
:103D8000B0F90030B0F902C0C91A00F1140300699B
:103D9000A2EB0C0202FB003000EBE10001F0070196
:103DA0000278802323FA01F1114301707047B0F9C2
:103DB0000610026951431430FCF78FBA2DE9F8431D
:103DC000804602F10F000011460003FB06F01C467E
:103DD00015460F461430FDF72AFF5FEA000908BFB9
:103DE000BDE8F883FEF7DAFB4846FDF7CDFF00900B
:103DF000A0F8008047808580C48006498160012149
:103E0000818106616846FEF717F800F083F848469E
:103E1000BDE8F88364A6050830B4B0F90650B0F9DF
:103E200004400B6800F1140C954220DD00699C42AF
:103E300002FB00C000EBE30C19DD601EC010A0EB1C
:103E4000E3041CF8010B03F00702904010F0FF00A0
:103E500009D164B11CF8010B641E03F1080222F0C1
:103E600007030028F5D010F0800F09D102E030BC24
:103E7000002070474006000E5B1C10F0800FF9D048
:103E8000FF2808BFDA1D0CD01A4610F0400F08D0EA
:103E90004FEA40604FEA106002F1010210F0400F5B
:103EA000F6D10720904312D1641E10D41CF8010BE8
:103EB000FF2813D010F0800F09D000BF4FEA4060F8
:103EC0004FEA106002F1010210F0800FF6D10B6092
:103ED000A2EB030030BC00F10100704702F10802C0
:103EE000641EE3D5F3E738B50546FEF757FB2846D1
:103EF000FDF74AFF00908189491E0CB28481684613
:103F0000FDF79AFF002C04BF2846FDF7AFFE00F036
:103F100001F838BD0348C168491EC16018BF704729
:103F200000F042B8540B002010B54FF48011024845
:103F3000FDF794FE10BD0000000050D0704710B592
:103F40000BF0F8FB10BD10B50BF00AFC10BD70476C
:103F500010B501200BF08EF90949086003220021F9
:103F600001200BF0ADF9074908600846006830B140
:103F700000231A461946034800680BF089FA10BD61
:103F8000480000204C00002010B50648006808B921
:103F9000FFF7DEFF00235A1E1946024800680BF0A7
:103FA000B6F910BD4800002010B500231A46194686
:103FB000024800680BF06CFA10BD000048000020B9
:103FC00000B583B0002814BF02AA0022002301A973
:103FD000684600F0A5FB03B000BD0000084910B51D
:103FE000CC68002814BF01200020C86014BF4FF027
:103FF000FF306FF07F4000F0ADFE204610BD0000A6
:10400000F80B002030B4082A20DC0346012A4CD0EB
:10401000022A7DD0042A00F0AD800129D8BF0121F9
:10402000181F5A1E11F0010F03D010F8043F02F8B8
:10403000013F491007D00379537010F8083F02F888
:10404000023F491EF7D130BC01207047102AC2BF81
:10405000002030BC70470222022AF4D10129CABFD5
:10406000A1F1010C0121BCF1000F16DD021F831E1E
:1040700011F0010F03D132F8044F23F8024F5468B6
:104080005FEA6C0C09D000BF32F8085F5C805468AE
:1040900023F8045FBCF1010CF6D1491E0029A4BF2E
:1040A00030F8212020F81120CDE710F8042BD2079A
:1040B000120E491E37D010F804CB491E0CF0010C2B
:1040C00042EA8C122FD010F804CB491E0CF0010CE0
:1040D00042EA4C1227D010F804CB491E0CF0010C18
:1040E00042EA0C121FD010F804CB491E0CF0010C50
:1040F00042EACC0217D010F804CB491E0CF0010C98
:1041000042EA8C020FD010F804CB0CF0010C00E056
:104110000EE042EA4C02491E05D010F804CB0CF028
:10412000010C4CEA020203F8012B0029BDD18AE7F9
:1041300010F8042B9207120E491E16D010F804CB6B
:10414000491E0CF0030C42EA0C120ED010F804CBFE
:10415000491E0CF0030C42EA8C0206D010F804CB86
:10416000491E0CF0030C4CEA020203F8012B002953
:10417000DED168E710F8042B1207120E491E06D094
:1041800010F804CB491E0CF00F0C4CEA020203F8A5
:10419000012B0029EED156E72DE9F0411E680D46AE
:1041A0000446082A0ADC8046012A22D0022A62D06C
:1041B000042A7DD0082A40F0A68092E0102AC4BFCD
:1041C0000020BDE8F0810220022853D1D3F810C0AE
:1041D0002746BCF1000F04D00A46214602230846B8
:1041E00088E054F8040BB04727F8020B6D1EF8D195
:1041F00089E054F8040BB047C007070E6D1E35D098
:1042000054F8040BB04747EA8010C7B26D1E2DD09A
:1042100054F8040BB04747EA4010C7B26D1E25D0D2
:1042200054F8040BB04747EA0010C7B26D1E1DD00A
:1042300054F8040BB04747EAC000C7B26D1E15D052
:1042400054F8040BB04747EA8000C7B26D1E0DD08A
:1042500054F8040BB04747EA4000C7B26D1E05D0C2
:1042600054F8040BB0473843C7B26D1E08F8017B01
:10427000002DBED147E054F8040BB0478007070E6D
:104280006D1E17D054F8040BB04747EA0010C7B2B0
:104290006D1E0FD054F8040BB04747EA8000C7B238
:1042A0006D1E07D054F8040BB0473843C7B200E086
:1042B00005E06D1E08F8017B002DDCD123E054F8E9
:1042C000040BB0470007070E6D1E05D054F8040B11
:1042D000B0473843C7B26D1E08F8017B002DEED100
:1042E00011E0D3F810C0BCF1000F05D00A4601461A
:1042F00001234046E04706E054F8040BB04708F8B5
:10430000010B6D1EF8D10120BDE8F08100F5A83049
:1043100010B400F579600028BABF4FF0FF31404279
:1043200001211B4A90FBF2F302FB13005210904252
:10433000C2BF4942A0F52830A0F5F950154A904275
:10434000C4BFC0F5F95000F528304FF47A7390FBE4
:10435000F3F26FF07C0C02FB0CFC00EBCC005A2A51
:10436000A8BF4FF480300DDADFF82CC00CEB8204CC
:104370005CF822206468A4EB020C0CFB00F0B0FB9C
:10438000F3F010440029D8BF404210BC7047000031
:10439000407E0500905F01007C9B05082DE9FF4FE2
:1043A00000208BB007460146009019981E469346A0
:1043B000016008AB002203A902A800F0B1F90028AF
:1043C0001EBF00200FB0BDE8F08F08988642C8BF1E
:1043D0000646754C75492068407C51F820100591BF
:1043E00009690691FDF7CEFF04902068407CFEF736
:1043F0003FF881466E4881451BBF6E4881450020CD
:10440000012009900B998819CDF81C0018995BF8C8
:10441000040B884782465FEA106800F0B680009877
:10442000002838D10B98C5195F480068B0F908001A
:10443000A842C6BF441B054600240299059801EB1B
:10444000870101EB8401CDE9001007980C9B421E07
:1044500019462846FFF70CFA012000900498182806
:104460000ADA0298311B00EB870000EB8400069B00
:10447000049A00F0A3F80EE0099860B1029800EBEE
:10448000870000EB84040798451B2068C84744F860
:10449000040B6D1EF9D14848C06978B3DDE9020507
:1044A00000EB870005EB8702CDE90202DFF808C1C7
:1044B000ABF104043346DCF81CC020460299E04707
:1044C000012ED8BF01264FF07F42DDE902012368AB
:1044D00032EA030C04BF03680B6005D0D0F800C0BB
:1044E00032EA0C0C08BF0B60241D001D091D761E4E
:1044F000EDD1199901200395086050E0FFE702987B
:10450000B8F1FF0F50F8270004BF039941F82700C6
:1045100041D04FF07F42C8F1FF0132EA00032DD0B5
:104520000AF0FF0313FB01F30AF47F4C0AF47F0443
:1045300008FB01F50CFB01FC4C43C1F1FF0100F04D
:10454000FF0818FB013300F47F4808FB01CC00F49E
:104550007F0808FB0144000E10FB0151100C00EA1B
:104560001C20C3F307234FF47F0C0CEA142C1843D0
:1045700002EA014140EA0C0040EA010A039840F8CF
:1045800027A019990120086005E00398012140F84F
:1045900027A0199801607F1C761E7FF437AF03981F
:1045A0000FB0BDE8F08F0000800A0020980A0020BC
:1045B0002358000821580008440A00200029D8BFC9
:1045C00070472DE9F05F0C465F6800EB8406082A0F
:1045D00015DC611E012A34D0022A55D0042A7AD073
:1045E000082A0CBF0519BDE8F09F00BF15F8010DA2
:1045F000B84746F8040D641EF8D1BDE8F09F102AB4
:10460000C8BFBDE8F09F0221022918BFBDE8F09F96
:10461000D3F814C0BCF1000F08BF00EB440507D06D
:104620002246BDE8F04F022301465DF804EB6047E7
:1046300035F8020DB84746F8040D641EF8D1BDE800
:10464000F09F00EBE108351F01F0070618F801A9FB
:10465000802020FA06F900BF0AEA0900C6F1070126
:10466000C840B84745F8040946B14FEA4960761E8C
:104670004FEA1069641EEFD1BDE8F09F18F801A958
:1046800007264FF00109F5E700EBA105A6F10409A3
:1046900001F00306700015F801A9C02121FA00F805
:1046A0004FF0060B0AEA0801ABEB460021FA00F0D6
:1046B000B84749F804094EB14FEA8860761E4FEAC0
:1046C0001068641EEED1BDE8F09F04E0032615F8E3
:1046D00001A9B046F5E700EB6108012020EA0405D6
:1046E000A800A6F1040918F801A9F02121FA00F6A2
:1046F0004FF0040B0AEA0600ABEB8501C840B8474F
:1047000049F8040935B16D1E3007060E641EF1D15B
:10471000BDE8F09F012518F801A90F26F6E7000073
:104720002DE9F047224C80469946A06916460F466F
:10473000002540B90120A06104F120011D48086056
:10474000084600F091F9606910B900F02FFF606130
:10475000B9F1000F18BFC9F80000B8F1000F0BD075
:10476000A06838B960698000FDF7B4FAA06000283D
:1047700008BF0125C8F8000057B1E06838B9606982
:104780008000FDF7A7FAE060002808BF0125386027
:1047900056B1206938B960698000FDF79BFA206145
:1047A000002808BF012530602846BDE8F0870000DA
:1047B000440A002035DA000838B500246946009420
:1047C000FDF7F6FD00998142C8BF0C1A204638BD9E
:1047D000B0F90030B1F900209342C8BF1A460280F8
:1047E000B0F90230B1F902209342C8BF1A464280A4
:1047F000B0F90430B1F904209342D8BF1A46828040
:10480000B0F90620B1F906108A42C8BF0A46C28034
:10481000704730B4B1F900C0B2F900309C45C8BF50
:1048200063460380B1F90240B2F902C06445C8BFD3
:10483000A446A0F802C0B1F90450B2F90440A54260
:10484000B8BF2C468480B1F90610B2F90620914217
:10485000A8BF1146C1809C42AABF6145002001202B
:1048600030BC7047014602480068407C00F002B846
:10487000800A0020F8B501260F46044602280FDA08
:104880002A4D002F36D0012F02D0022F08D120E070
:1048900055F82400002818BF401C03D045F8240018
:1048A0003046F8BD2046FDF7C9FC00900028F7D03F
:1048B000C0680D21426A684690470200F0D0394630
:1048C0000098904755F824000026401C45F8240025
:1048D000E6E7FDF7B3FC00900028E1D0C0680D21A9
:1048E000426A684690470200DAD0394600989047FD
:1048F0000026D5E755F8240001280FD12046FDF702
:104900009DFC009050B1C0680D21426A68469047F6
:10491000020003D0394600989047002655F824003D
:10492000002814BF01210021401AB7E7D00B002056
:104930004FF07F4333EA010C08BF704770B400F0BA
:10494000FF0C1CFB02FC00F47F4400F47F05544381
:104950005543000E10FB02F6C2F1FF00CAB212FB73
:1049600000C201F47F4C0CFB004C01F47F0404FBFB
:104970000054090E11FB00604FF47F4101EA1C2135
:104980004FF47F0C0CEA142CC2F30722114370BCC5
:1049900003EA004041EA0C01084370472DE9F84F53
:1049A000002300930D9BDDF838A0002B86BF4FF04D
:1049B000FF0E4FF07F45BDE8F88F0C9C50F8049B2C
:1049C00051F8043BAEEB196C0CFB0AFC0CEBCC165B
:1049D00006EBCC3CCCF3C75C35EA030632D009F0D9
:1049E000FF0616FB0CF609F47F4709F47F0807FB66
:1049F0000CF708FB0CF84FEA196919FB0CF9CCF11C
:104A0000FF0C03F0FF0B1BFB0C6603F47F4B0BFB4F
:104A10000C7703F47F0B0BFB0C881B0E13FB0C9322
:104A2000C6F3072C4FF47F4606EA17264FF47F079C
:104A300007EA18274CEA060C05EA03434CEA070C80
:104A40004CEA030929F07F4342F8043B641EB5D1C8
:104A50000A9BDDF834C001EB8301009B5B1C0093D3
:104A60006345AAD3BDE8F88F02494A6942604861AC
:104A700070470000740A002010B40028BABF4FF03D
:104A8000FF31404201211B4A90FBF2F302FB13006D
:104A900052109042C2BF4942A0F52830A0F5F9500B
:104AA000154A9042C4BFC0F5F95000F528304FF4C4
:104AB0007A7390FBF3F26FF07C0C02FB0CFC00EBC2
:104AC000CC005A2AA8BF4FF480300DDADFF82CC092
:104AD0000CEB82045CF822206468A4EB020C0CFB53
:104AE00000F0B0FBF3F010440029D8BF404210BCE6
:104AF00070470000407E0500905F01007C9B050828
:104B000030B402E000F8011B521E002A18BF10F05A
:104B1000030FF7D195083BD0C5F1000C4FEAEC74B8
:104B20000CEB947C4FEAAC0C4FEA8C0C01EB01438C
:104B3000CCF1000402F0030203EB0323002CC4BFFA
:104B4000A0F1040C641010DDCCF804304CF8083FE0
:104B5000641EF9D1EC1705EB947C4FEAAC0C00EB2A
:104B60000C10CCF1000C05EB8C05002D10DDA0F134
:104B7000040C15F0010F18BF4CF8043F6C1005D061
:104B8000CCF804304CF8083F641EF9D100EB8500E6
:104B9000002ADCBF30BC7047401E12F0010F18BF66
:104BA00000F8011F521004BF30BC7047417000F87C
:104BB000021F521EFAD130BC704770B410F0020FC1
:104BC00002D020F8021B521E5FEA520C39D001EBD2
:104BD0000143BCF1040F21DBACF1040C66467442C6
:104BE0000360E517436004EB95748360A410C36011
:104BF000A40010306542002DC4BF041F6D100DDDF0
:104C0000636044F8083F6D1EFAD1F4170CEB9474FE
:104C1000A41000EB0410644206EB840CBCF1000FFE
:104C20000FDD041F1CF0010F18BF44F8043F5FEABA
:104C30006C0504D0636044F8083F6D1EFAD100EBA8
:104C40008C0012F0010F18BF018070BC704700008B
:104C50001FB5012001F028FF00BF612001F004FF13
:104C60000028FAD00121082001F0BEFE40212B4887
:104C700002F0ABFD01220021284802F0A3FD0C2028
:104C8000ADF800000020ADF802000120ADF80400EE
:104C90000C20ADF806000020ADF8080069461F485A
:104CA00002F050FD32208DF80C0000208DF80D0030
:104CB0008DF80E0001208DF80F0003A801F01EFEF4
:104CC0000121164802F055FC0020144910310880DB
:104CD00001221021114802F06CFD00BF104800684D
:104CE0000228FBD10D4802F051FC0E48006800F488
:104CF000E05048B90C48006880080C490968B0FBCE
:104D0000F1F0C00004B010BD074800688008400002
:104D100006490968B0FBF1F0C000F3E7000C004061
:104D20003400002008380240140000203800002021
:104D300000BFFEE7054B10B502EB02121B68D2B2B2
:104D4000984703490968084010BD0000440A002044
:104D5000700B002002490A68086010467047000086
:104D6000700B00201CB5012140F2EF1001F01CFE79
:104D700002208DF805008DF8040000208DF8060053
:104D80008DF807000E2208215C48FBF789FF0E22F0
:104D900009215A48FBF784FF4FF4407000906946A0
:104DA0005648FBF735FF0E2206215548FBF778FFE2
:104DB0004020009069465248FBF72AFF0E22052149
:104DC0005048FBF76DFF0E2206214E48FBF768FFA7
:104DD0000E2204214B48FBF763FF702000906946C8
:104DE0004848FBF715FF0E220A214748FBF758FFFA
:104DF0004FF48060009069464348FBF709FF0E229C
:104E000006214248FBF74CFF0E2207213F48FBF7E3
:104E100047FF0E220B213D48FBF742FF0E220C21DB
:104E20003A48FBF73DFF4FF4C650009069463748BB
:104E3000FBF7EEFE0E2202213548FBF731FF0E2272
:104E400003213348FBF72CFF0E2208213048FBF7E3
:104E500027FF0E2209212E48FBF722FF0E220A21EE
:104E60002B48FBF71DFF0E220B212948FBF718FFEB
:104E70000E220C212648FBF713FF0E220D21244899
:104E8000FBF70EFF0E2211462148FBF709FF0E2209
:104E90000F211F48FBF704FF4FF60C700090694686
:104EA0001B48FBF7B5FE0E2200211A48FBF7F8FE5F
:104EB0000E2201211748FBF7F3FE0E2202211548AE
:104EC000FBF7EEFE0E2204211248FBF7E9FE0E224C
:104ED00005211048FBF7E4FE0E2209210D48FBF7DF
:104EE000DFFE0E220A210B48FBF7DAFE40F23760A4
:104EF000009069460748FBF78BFE1CBD000402408A
:104F0000000C024000100240001402400018024051
:104F1000001C02400020024010B5044624B91021B4
:104F20000448FBF7E0FE03E010210248FBF7DDFE3A
:104F300010BD0000000C02400449054A0968497C84
:104F400052F821100969096808470000800A00200A
:104F5000980A0020C1B2C0F30722C0F30740914273
:104F600008BF824207D101F108001349A1FB0010DC
:104F700000097830704701EB810101F17F030F498F
:104F800002EB8202A1FB03C37F32A1FB02C200EB52
:104F900080007F30A1FB0010D209DB09C00902EBC1
:104FA000420103EB410100EBC00001EB80006C28E3
:104FB00028BF283070470000F1F0F0F08180808039
:104FC0001CB50121082001F0EFFC10200090022008
:104FD0008DF8050001208DF8040000208DF80600F2
:104FE0008DF8070069460448FBF712FE01221021E4
:104FF000014800F003F81CBD000C024070B50446E7
:105000000D461646324629462046FBF770FE70BD17
:105010002DE9FF4F87B09A48DDF850A0169E006832
:1050200090B1DDE91723DDF864C0CDF814C0029615
:10503000CDE90323159ACDE900A2D0F800C0DDE93F
:105040000923079800F0D4B80A98099A0844451E25
:1050500007988C4C1044A0F1010C15984AEA000006
:10506000012827D0C6F1080002900020009104908A
:105070000A980028DCBF0BB0BDE8F08F15990098A6
:105080000844411E019105902068B0F90A208A4227
:1050900000F3E580B0F90E100098884200F3DF803D
:1050A000189803900998079D4FF00008002873DCBA
:1050B00000F0D5B82268B2F90A30581A00280DDD80
:1050C0000A99091A0A910029DCBF0BB0BDE8F08FDC
:1050D0001946DDE9173400FB03401890B2F90E00C1
:1050E000281A002807DD0A9B181A0A900028DCBF3E
:1050F0000BB0BDE8F08FB2F90C00ACEB000000285B
:1051000002DD099B181A0990B2F90830DDF81CC0BD
:105110000020634550DDA3EB0C00099B1B1A09938B
:10512000082E32D006DC012E0BD0022E15D0042E14
:1051300042D11EE0102E30D0182E18BF202E3BD1A9
:1051400033E0189B20F0070C03EBE0031893079B58
:1051500000F00700634407932EE0189B20F0030C37
:1051600003EBA0031893079B00F00300634407932D
:1051700022E0189B20F0010C03EB60031893079BBF
:1051800000F001006344079316E0189B0344604459
:105190000790189300200FE031E0189B03EB4003C9
:1051A000604407901893002006E0189B03EB8003EF
:1051B0006044079018930020099B002BDCBF0BB0C4
:1051C000BDE8F08FDDE91734DDF864C0CDF814C018
:1051D0000293CDE903400A98CDE90006527C2A48A3
:1051E000099B50F82200C268D2F804C00A46079909
:1051F000E0470BB0BDE8F08FB9F1000F05D103987F
:105200004FF0080910F8017B03900298A9EB0609FA
:1052100037FA00F007FA06F1CFB204D12168097C11
:1052200011F0020F15D12168199AC96B002AD1F823
:1052300000B018BF52F82000086005EB0A00DDE955
:105240000013421E284600F085F82068C06BC0F8A5
:1052500000B0099808F1010855448045CCDB04985A
:10526000401C049005980090DDE91701084418904F
:105270000A9904988842FFF601AF0BB0BDE8F08FA1
:10528000A80A0020800A0020980A00208C461349B2
:1052900030B40968B1F90A306345D9BFB1F90E30AD
:1052A0009C4530BC7047B1F908308342C8BF1846EE
:1052B000B1F90C309342B8BF1A468242BCBF30BC31
:1052C00070474B7C064951F8234013466246E1681B
:1052D0008D6801462046AC4630BC6047800A0020FD
:1052E000980A00200A46194930B40968B1F90A3011
:1052F0009342D9BFB1F90E309A4230BC7047B1F930
:1053000008308342D9BFB1F90C30984230BC7047A5
:105310000B7C13F0010FDFF838C009D0497C5CF832
:105320002130D968D1F81CC0014630BC184660470E
:10533000CB6B497C1B685CF821C0DCF80C108C69D5
:1053400001466046A44630BC60470000800A002049
:10535000980A002038B5DFF858C0DCF800C0BCF966
:1053600008408442C8BF2046BCF90C409442B8BFF4
:1053700022468242B8BF38BDBCF90A408C42C8BF41
:105380002146BCF90E409C42B8BF23468B42B8BFB1
:1053900038BD00939CF811C0064B53F82CC0DCF8C4
:1053A0000C301C6913460A4601466046A04738BDCA
:1053B000800A0020980A002070B5082500240228E1
:1053C00007DAFCF73BFF20B1C1688A6A294690479B
:1053D0000446204670BD000002480068806B0068EB
:1053E00070470000800A002002480068C06B006817
:1053F00070470000800A0020044A02EB800352F844
:105400002000C068426A184610470000980A002031
:1054100070B50C250024022807DAFCF70FFF20B135
:10542000C1688A6A294690470446204670BD70B517
:105430000D250024022807DAFCF700FF20B1C1681F
:105440008A6A294690470446204670BD70B50848D0
:10545000092500240068407C022807DAFCF7EEFEEC
:1054600020B1C1688A6A294690470446204670BD2B
:10547000800A002070B509250024022807DAFCF70D
:10548000DDFE20B1C1688A6A29469047044620465D
:1054900070BD70B500252C462046FCF7CFFE0028D5
:1054A00018BF6D1C641C022CF6DB284670BD000082
:1054B000074810B50068407CFCF7C0FE002808BF14
:1054C00010BDC168CA6ABDE8104002211047000043
:1054D000800A002010B500F005F8BDE8104000F08B
:1054E00059B90000F0B5154E0546154F30680C4609
:1054F00083B0407C57F82000C1680A6B694690472A
:10550000BDF90000A842DCBFBDF90400854207DCFC
:10551000BDF90200A042DCBFBDF90600844202DDF5
:1055200003B00020F0BD30682246407C57F82000D0
:10553000C1684B692946984703B0F0BD800A002036
:10554000980A0020F8B515460E460124FCF776FEB1
:10555000009058B1C0680421426A68469047030031
:1055600004D02A4631460098984700242046F8BDCA
:1055700070B50E250024022807DAFCF75FFE20B183
:10558000C1688A6A294690470446204670BD70B5B6
:1055900003250024022807DAFCF750FE20B1C16879
:1055A0008A6A294690470446204670BD2DE9F0419D
:1055B00003270024012500262846022D07DAFCF7E0
:1055C0003DFE20B1C1688A6A394690470646B4421A
:1055D000B8BF34466D1EEED52046BDE8F08170B5EB
:1055E00004250024022807DAFCF728FE20B1C16850
:1055F0008A6A294690470446204670BD70B508481F
:10560000012500240068407C022807DAFCF716FE1A
:1056100020B1C1688A6A294690470446204670BD79
:10562000800A002070B501250024022807DAFCF763
:1056300005FE20B1C1688A6A294690470446204683
:1056400070BD000070B50848022500240068407C49
:10565000022807DAFCF7F2FD20B1C1688A6A294600
:1056600090470446204670BD800A002070B5022590
:105670000024022807DAFCF7E1FD20B1C1688A6A3C
:10568000294690470446204670BD00002DE9F041B0
:1056900001004FF000001ABF8E68002EBDE8F081B7
:1056A000104F7A68002A08BFBDE8F0810C68B4F595
:1056B000807FC8BFBDE8F08138688442C8BF044617
:1056C0000025002C0ADD00BF56F82500FFF734FC4A
:1056D000796841F825006D1CAC42F5DC7868BDE8BE
:1056E000F0810000F00A00202DE9F04101004FF0A8
:1056F00000001ABF8E68002EBDE8F081104F7A6856
:10570000002A08BFBDE8F0810C68B4F5807FC8BFEF
:10571000BDE8F08138688442C8BF04460025002CEB
:105720000ADD00BF56F82500FFF706FC796841F84E
:1057300025006D1CAC42F5DC7868BDE8F081000006
:10574000F00A0020002808BF70472DE9F041866864
:1057500036B10F4F796819B10468B4F5807F02DD66
:105760000020BDE8F08138688442C8BF04460025A7
:10577000002C09DD56F82500FFF7DEFB796841F8BB
:1057800025006D1CAC42F5DC7868BDE8F0810000B6
:10579000F00A00200449054A0968497C52F82110A2
:1057A0000969496808470000800A0020980A00201B
:1057B000A0F1780110293EBF1648484370476C2875
:1057C00004D3942836BF002028387047124AA2FB21
:1057D00000318908A2FB01C2A1EB81039208A2EB70
:1057E000820201EB420100EB43030C4A03EB03137B
:1057F000A2FB002001EB0111C00803EB430301EB06
:10580000410100EB001000EB400003EB012101EB34
:105810000040704711111100ABAAAAAA398EE338D3
:105820007047704700F01F01074A084BC0F3451C42
:10583000C0F3C42013F80C30105C515C00EB032063
:1058400000EB0140704700001C9B05083C9B0508CD
:105850000206C0F30721120AC0F3074042EA012101
:105860000843704700B58FB0FFF7AAFB0020FFF791
:1058700053FB0120FFF750FB0121880601F0D4F80B
:105880000121C80501F090F8FFF76CFA01F072FBF6
:10589000002000900190029003900C900D900E90CB
:1058A00004220721C02001F017F9002001F002F9BD
:1058B000012001F00BF900BF3D2001F0D5F80028D0
:1058C000FAD009200490012005901D2006900320A5
:1058D000079040F23D30089040F2E310099040F20A
:1058E0006F300A9040F2AF200B90684600F082FEC5
:1058F000684600F07FFE0FB000BD000010B50A4CF6
:10590000606870B920688000FCF7E4F960600028E6
:1059100004BF012010BD0548054908600846FFF78F
:10592000A3F8002010BD0000F00A0020BDDA000836
:10593000F80A00202DE9F047FFF7ABFD071E4FF0F6
:105940000005C6BFDFF86080DFF86090BDE8F08733
:105950002846FCF773FC10B32846FEF735F882465C
:105960002846FFF729FD082816DC58F825000069AD
:10597000484511D02846FFF77DFD061E4FF0000474
:105980000ADDE0B2FFF706FF0246E1B2284600F06A
:10599000D5F9641CA642F4DC5046FEF715F86D1CE0
:1059A000BD42D5DBBDE8F087980A0020F89C0508C9
:1059B00000B591B01E20019040F23D3002900420CD
:1059C000039040F2E310049002200590FF2006901F
:1059D00000200790089009900A904FF480600B9087
:1059E00005200C9040F243600E90C01E0F904FF4C3
:1059F000F07010904FF050400D9001A9124800F047
:105A0000C8FE12480D904FF4C0600B9007200C9018
:105A100001A90D48803000F0BCFE012000F044FFD9
:105A20000121094800F0AAFE01210748803000F05A
:105A3000A5FE012000F038FF054800F079F90120AB
:105A400000F05EFD11B000BD84680140000006D08A
:105A5000500000202DE9FF4F83B016461198109C8E
:105A6000C0684769426A82B1012111A890475FEA84
:105A7000000C0AD00698CDE90004DDE90312334694
:105A80001198E04707B0BDE8F08F63480068407C9C
:105A9000FCF778FC00900828D8BF4FF0010805DD1E
:105AA0001028D4BF4FF002084FF0040800250699D3
:105AB00004988842C4BF07B0BDE8F08FB8F1010F69
:105AC00006D0B8F1020F7FD0B8F1040F4CD18AE0B4
:105AD0000098092848D2DFE800F094052548486876
